{
  "abi": [
    {
      "anonymous": false,
      "inputs": [
        {
          "indexed": true,
          "internalType": "address",
          "name": "previousOwner",
          "type": "address"
        },
        {
          "indexed": true,
          "internalType": "address",
          "name": "newOwner",
          "type": "address"
        }
      ],
      "name": "OwnershipTransferred",
      "type": "event"
    },
    {
      "inputs": [
        {
          "internalType": "address[]",
          "name": "beneficiaries_",
          "type": "address[]"
        },
        {
          "internalType": "uint256[]",
          "name": "shares_",
          "type": "uint256[]"
        },
        {
          "internalType": "address",
          "name": "beneficiaryOfERC721_",
          "type": "address"
        },
        {
          "internalType": "uint256",
          "name": "releaseTime_",
          "type": "uint256"
        }
      ],
      "name": "addWill",
      "outputs": [],
      "stateMutability": "nonpayable",
      "type": "function"
    },
    {
      "inputs": [
        {
          "internalType": "address",
          "name": "testator",
          "type": "address"
        },
        {
          "internalType": "contract IERC20[]",
          "name": "tokenERC20List",
          "type": "address[]"
        },
        {
          "internalType": "contract IERC721[]",
          "name": "tokenERC721List",
          "type": "address[]"
        },
        {
          "internalType": "contract IERC1155[]",
          "name": "tokenERC1155List",
          "type": "address[]"
        },
        {
          "internalType": "uint256[][]",
          "name": "ERC721tokenIdLists",
          "type": "uint256[][]"
        },
        {
          "internalType": "uint256[][]",
          "name": "ERC1155tokenIdLists",
          "type": "uint256[][]"
        }
      ],
      "name": "batchRelease",
      "outputs": [],
      "stateMutability": "nonpayable",
      "type": "function"
    },
    {
      "inputs": [
        {
          "internalType": "address",
          "name": "testator",
          "type": "address"
        },
        {
          "internalType": "contract IERC1155",
          "name": "tokenERC1155",
          "type": "address"
        },
        {
          "internalType": "uint256[]",
          "name": "tokenIdLists",
          "type": "uint256[]"
        }
      ],
      "name": "batchReleaseERC1155",
      "outputs": [],
      "stateMutability": "nonpayable",
      "type": "function"
    },
    {
      "inputs": [
        {
          "internalType": "address",
          "name": "testator",
          "type": "address"
        },
        {
          "internalType": "contract IERC1155",
          "name": "tokenERC1155",
          "type": "address"
        },
        {
          "internalType": "uint256[]",
          "name": "tokenIdLists",
          "type": "uint256[]"
        }
      ],
      "name": "batchReleaseERC1155ToTreasury",
      "outputs": [],
      "stateMutability": "nonpayable",
      "type": "function"
    },
    {
      "inputs": [
        {
          "internalType": "address",
          "name": "testator",
          "type": "address"
        },
        {
          "internalType": "contract IERC20[]",
          "name": "tokenERC20List",
          "type": "address[]"
        }
      ],
      "name": "batchReleaseERC20",
      "outputs": [],
      "stateMutability": "nonpayable",
      "type": "function"
    },
    {
      "inputs": [
        {
          "internalType": "address",
          "name": "testator",
          "type": "address"
        },
        {
          "internalType": "contract IERC20[]",
          "name": "tokenERC20List",
          "type": "address[]"
        }
      ],
      "name": "batchReleaseERC20ToTreasury",
      "outputs": [],
      "stateMutability": "nonpayable",
      "type": "function"
    },
    {
      "inputs": [
        {
          "internalType": "address",
          "name": "testator",
          "type": "address"
        },
        {
          "internalType": "contract IERC721[]",
          "name": "tokenERC721List",
          "type": "address[]"
        },
        {
          "internalType": "uint256[][]",
          "name": "tokenIdLists",
          "type": "uint256[][]"
        }
      ],
      "name": "batchReleaseERC721",
      "outputs": [],
      "stateMutability": "nonpayable",
      "type": "function"
    },
    {
      "inputs": [
        {
          "internalType": "address",
          "name": "testator",
          "type": "address"
        },
        {
          "internalType": "contract IERC721[]",
          "name": "tokenERC721List",
          "type": "address[]"
        },
        {
          "internalType": "uint256[][]",
          "name": "tokenIdLists",
          "type": "uint256[][]"
        }
      ],
      "name": "batchReleaseERC721ToTreasury",
      "outputs": [],
      "stateMutability": "nonpayable",
      "type": "function"
    },
    {
      "inputs": [
        {
          "internalType": "address",
          "name": "testator",
          "type": "address"
        },
        {
          "internalType": "contract IERC20[]",
          "name": "tokenERC20List",
          "type": "address[]"
        },
        {
          "internalType": "contract IERC721[]",
          "name": "tokenERC721List",
          "type": "address[]"
        },
        {
          "internalType": "contract IERC1155[]",
          "name": "tokenERC1155List",
          "type": "address[]"
        },
        {
          "internalType": "uint256[][]",
          "name": "ERC721tokenIdLists",
          "type": "uint256[][]"
        },
        {
          "internalType": "uint256[][]",
          "name": "ERC1155tokenIdLists",
          "type": "uint256[][]"
        }
      ],
      "name": "batchReleaseToTreasury",
      "outputs": [],
      "stateMutability": "nonpayable",
      "type": "function"
    },
    {
      "inputs": [
        {
          "internalType": "address",
          "name": "testator",
          "type": "address"
        }
      ],
      "name": "getBeneficiaries",
      "outputs": [
        {
          "internalType": "address[]",
          "name": "",
          "type": "address[]"
        }
      ],
      "stateMutability": "view",
      "type": "function"
    },
    {
      "inputs": [
        {
          "internalType": "address",
          "name": "_testator",
          "type": "address"
        }
      ],
      "name": "getBeneficiaryOfERC721",
      "outputs": [
        {
          "internalType": "address",
          "name": "beneficiaryOfERC721",
          "type": "address"
        }
      ],
      "stateMutability": "view",
      "type": "function"
    },
    {
      "inputs": [],
      "name": "getBuffer",
      "outputs": [
        {
          "internalType": "uint256",
          "name": "",
          "type": "uint256"
        }
      ],
      "stateMutability": "view",
      "type": "function"
    },
    {
      "inputs": [],
      "name": "getMaxShare",
      "outputs": [
        {
          "internalType": "uint256",
          "name": "",
          "type": "uint256"
        }
      ],
      "stateMutability": "view",
      "type": "function"
    },
    {
      "inputs": [],
      "name": "getReapDelay",
      "outputs": [
        {
          "internalType": "uint256",
          "name": "",
          "type": "uint256"
        }
      ],
      "stateMutability": "view",
      "type": "function"
    },
    {
      "inputs": [
        {
          "internalType": "address",
          "name": "testator",
          "type": "address"
        }
      ],
      "name": "getReleaseTime",
      "outputs": [
        {
          "internalType": "uint256",
          "name": "",
          "type": "uint256"
        }
      ],
      "stateMutability": "view",
      "type": "function"
    },
    {
      "inputs": [
        {
          "internalType": "address",
          "name": "testator",
          "type": "address"
        }
      ],
      "name": "getShares",
      "outputs": [
        {
          "internalType": "uint256[]",
          "name": "",
          "type": "uint256[]"
        }
      ],
      "stateMutability": "view",
      "type": "function"
    },
    {
      "inputs": [
        {
          "internalType": "address",
          "name": "testator",
          "type": "address"
        }
      ],
      "name": "getSumShares",
      "outputs": [
        {
          "internalType": "uint256",
          "name": "",
          "type": "uint256"
        }
      ],
      "stateMutability": "view",
      "type": "function"
    },
    {
      "inputs": [],
      "name": "getTreasuryAddress",
      "outputs": [
        {
          "internalType": "address",
          "name": "",
          "type": "address"
        }
      ],
      "stateMutability": "view",
      "type": "function"
    },
    {
      "inputs": [],
      "name": "owner",
      "outputs": [
        {
          "internalType": "address",
          "name": "",
          "type": "address"
        }
      ],
      "stateMutability": "view",
      "type": "function"
    },
    {
      "inputs": [],
      "name": "renounceOwnership",
      "outputs": [],
      "stateMutability": "nonpayable",
      "type": "function"
    },
    {
      "inputs": [
        {
          "internalType": "address[]",
          "name": "newBeneficiaries",
          "type": "address[]"
        },
        {
          "internalType": "uint256[]",
          "name": "newShares",
          "type": "uint256[]"
        }
      ],
      "name": "setNewBeneficiaries",
      "outputs": [
        {
          "internalType": "bool",
          "name": "",
          "type": "bool"
        }
      ],
      "stateMutability": "nonpayable",
      "type": "function"
    },
    {
      "inputs": [
        {
          "internalType": "address",
          "name": "newBeneficiaryOfERC721",
          "type": "address"
        }
      ],
      "name": "setNewBeneficiaryOfERC721",
      "outputs": [],
      "stateMutability": "nonpayable",
      "type": "function"
    },
    {
      "inputs": [
        {
          "internalType": "uint256",
          "name": "newReleaseTime",
          "type": "uint256"
        }
      ],
      "name": "setNewReleaseTime",
      "outputs": [
        {
          "internalType": "uint256",
          "name": "",
          "type": "uint256"
        }
      ],
      "stateMutability": "nonpayable",
      "type": "function"
    },
    {
      "inputs": [
        {
          "internalType": "address",
          "name": "_treasuryAddress",
          "type": "address"
        }
      ],
      "name": "setTreasuryAddress",
      "outputs": [],
      "stateMutability": "nonpayable",
      "type": "function"
    },
    {
      "inputs": [
        {
          "internalType": "address",
          "name": "newOwner",
          "type": "address"
        }
      ],
      "name": "transferOwnership",
      "outputs": [],
      "stateMutability": "nonpayable",
      "type": "function"
    }
  ],
  "bytecode": "6080604052603c6002819055600355600a600455631dcd6500600555600680546001600160a01b031916301790553480156200003a57600080fd5b50620000463362000050565b60018055620000a0565b600080546001600160a01b038381166001600160a01b0319831681178455604051919092169283917f8be0079c531659141344cd1fd0a4f28419497f9722a3daafe3b4186f6b6457e09190a35050565b61349980620000b06000396000f3fe608060405234801561001057600080fd5b50600436106101735760003560e01c80639181141a116100de578063caee863e11610097578063e6728edb11610071578063e6728edb1461036f578063f04da65b14610382578063f2fde38b146103a2578063fe36b4c8146103b557600080fd5b8063caee863e14610338578063d9732f4d1461034b578063e00246041461035e57600080fd5b80639181141a1461029d578063a26ea21e146102b0578063a29093b1146102c3578063a3da0ecd146102ef578063a6fd233914610312578063ac8bc77e1461032557600080fd5b8063715018a611610130578063715018a61461024e578063745137b4146102565780637ce752c61461025e5780638b61e1aa146102715780638da5cb5b146102845780638ec027731461029557600080fd5b80630cb7eb4c146101785780631cab59a4146101b7578063341b46dd146101d757806347ff5d8a146101ec5780636605bfda14610233578063705e8b2e14610246575b600080fd5b6101a4610186366004612965565b6001600160a01b031660009081526007602052604090206003015490565b6040519081526020015b60405180910390f35b6101ca6101c5366004612965565b6103c8565b6040516101ae9190612982565b6101ea6101e5366004612a1b565b61043e565b005b61021b6101fa366004612965565b6001600160a01b039081166000908152600760205260409020600201541690565b6040516001600160a01b0390911681526020016101ae565b6101ea610241366004612965565b610571565b6002546101a4565b6101ea61059b565b6004546101a4565b6101ea61026c366004612a1b565b6105af565b6101ea61027f366004612a80565b610796565b6000546001600160a01b031661021b565b6005546101a4565b6101ea6102ab366004612b87565b6109ff565b6101ea6102be366004612c13565b610d1a565b6101a46102d1366004612965565b6001600160a01b031660009081526007602052604090206001015490565b6103026102fd366004612c68565b610f0d565b60405190151581526020016101ae565b6101a4610320366004612cc8565b611130565b6101ea610333366004612ce1565b6111f8565b6101ea610346366004612965565b611411565b6101ea610359366004612ce1565b6114e8565b6006546001600160a01b031661021b565b6101ea61037d366004612c13565b611631565b610395610390366004612965565b611767565b6040516101ae9190612d64565b6101ea6103b0366004612965565b6117d5565b6101ea6103c3366004612a80565b61184e565b6001600160a01b03811660009081526007602090815260409182902080548351818402810184019094528084526060939283018282801561043257602002820191906000526020600020905b81546001600160a01b03168152600190910190602001808311610414575b50505050509050919050565b6001600160a01b03841660009081526007602052604090206003015484901580159061048157506001600160a01b03811660009081526007602052604090205415155b80156104a957506001600160a01b038181166000908152600760205260409020600201541615155b6104ce5760405162461bcd60e51b81526004016104c590612d9c565b60405180910390fd5b6005546001600160a01b03861660009081526007602052604090206003015486916104f891612de9565b4210156105175760405162461bcd60e51b81526004016104c590612e02565b61051f6119d3565b60005b8381101561055f5761054d878787878581811061054157610541612e39565b90506020020135611a2c565b8061055781612e4f565b915050610522565b5061056960018055565b505050505050565b610579611c51565b600680546001600160a01b0319166001600160a01b0392909216919091179055565b6105a3611c51565b6105ad6000611cab565b565b6001600160a01b0384166000908152600760205260409020600301548490158015906105f257506001600160a01b03811660009081526007602052604090205415155b801561061a57506001600160a01b038181166000908152600760205260409020600201541615155b6106365760405162461bcd60e51b81526004016104c590612d9c565b6001600160a01b03851660009081526007602052604090206003015485904210156106735760405162461bcd60e51b81526004016104c590612e68565b856000805b6001600160a01b0383166000908152600760205260409020548110156106f4576001600160a01b03831660009081526007602052604090208054829081106106c2576106c2612e39565b6000918252602090912001546001600160a01b031633036106e257600191505b806106ec81612e4f565b915050610678565b506001600160a01b0380831660009081526007602052604090206002015416330361071d575060015b8061073a5760405162461bcd60e51b81526004016104c590612e96565b6107426119d3565b60005b8581101561078257610770898989898581811061076457610764612e39565b90506020020135611cfb565b8061077a81612e4f565b915050610745565b5061078c60018055565b5050505050505050565b6001600160a01b038b166000908152600760205260409020600301548b90158015906107d957506001600160a01b03811660009081526007602052604090205415155b801561080157506001600160a01b038181166000908152600760205260409020600201541615155b61081d5760405162461bcd60e51b81526004016104c590612d9c565b6005546001600160a01b038d166000908152600760205260409020600301548d9161084791612de9565b4210156108665760405162461bcd60e51b81526004016104c590612e02565b306001600160a01b031663e6728edb8e8e8e6040518463ffffffff1660e01b815260040161089693929190612ed9565b600060405180830381600087803b1580156108b057600080fd5b505af11580156108c4573d6000803e3d6000fd5b50505050306001600160a01b031663d9732f4d8e8c8c8a8a6040518663ffffffff1660e01b81526004016108fc959493929190612f67565b600060405180830381600087803b15801561091657600080fd5b505af115801561092a573d6000803e3d6000fd5b5050505060005b878110156109ef573063341b46dd8f8b8b8581811061095257610952612e39565b90506020020160208101906109679190612965565b88888681811061097957610979612e39565b905060200281019061098b919061305a565b6040518563ffffffff1660e01b81526004016109aa94939291906130a4565b600060405180830381600087803b1580156109c457600080fd5b505af11580156109d8573d6000803e3d6000fd5b5050505080806109e790612e4f565b915050610931565b5050505050505050505050505050565b8585858533818414610a235760405162461bcd60e51b81526004016104c5906130db565b60005b84811015610b58576000868683818110610a4257610a42612e39565b9050602002016020810190610a579190612965565b6001600160a01b031603610a7d5760405162461bcd60e51b81526004016104c59061312d565b816001600160a01b0316868683818110610a9957610a99612e39565b9050602002016020810190610aae9190612965565b6001600160a01b031603610ad45760405162461bcd60e51b81526004016104c59061317c565b600454848483818110610ae957610ae9612e39565b905060200201351115610b0e5760405162461bcd60e51b81526004016104c5906131c7565b838382818110610b2057610b20612e39565b90506020020135600003610b465760405162461bcd60e51b81526004016104c590613213565b80610b5081612e4f565b915050610a26565b508560025442610b689190612de9565b811015610b875760405162461bcd60e51b81526004016104c59061324a565b876001600160a01b038116610bae5760405162461bcd60e51b81526004016104c5906132a7565b8a8a60005b81811015610c4057600454838383818110610bd057610bd0612e39565b905060200201351115610bf55760405162461bcd60e51b81526004016104c5906131c7565b6000838383818110610c0957610c09612e39565b905060200201351015610c2e5760405162461bcd60e51b81526004016104c590613213565b80610c3881612e4f565b915050610bb3565b50600060076000336001600160a01b03166001600160a01b0316815260200190815260200160002090508f8f826000019190610c7d92919061288d565b50610c8c600482018f8f6128f0565b506000600182018190556002820180546001600160a01b0319166001600160a01b038f16179055600382018c90555b8d811015610d07578e8e82818110610cd557610cd5612e39565b90506020020135826001016000828254610cef9190612de9565b90915550819050610cff81612e4f565b915050610cbb565b5050505050505050505050505050505050565b6001600160a01b038316600090815260076020526040902060030154839015801590610d5d57506001600160a01b03811660009081526007602052604090205415155b8015610d8557506001600160a01b038181166000908152600760205260409020600201541615155b610da15760405162461bcd60e51b81526004016104c590612d9c565b6001600160a01b0384166000908152600760205260409020600301548490421015610dde5760405162461bcd60e51b81526004016104c590612e68565b846000805b6001600160a01b038316600090815260076020526040902054811015610e5f576001600160a01b0383166000908152600760205260409020805482908110610e2d57610e2d612e39565b6000918252602090912001546001600160a01b03163303610e4d57600191505b80610e5781612e4f565b915050610de3565b506001600160a01b03808316600090815260076020526040902060020154163303610e88575060015b80610ea55760405162461bcd60e51b81526004016104c590612e96565b610ead6119d3565b60005b85811015610efa57610ee888888884818110610ece57610ece612e39565b9050602002016020810190610ee39190612965565b611f2b565b80610ef281612e4f565b915050610eb0565b50610f0460018055565b50505050505050565b3360008181526007602052604081206003015490919015801590610f4857506001600160a01b03811660009081526007602052604090205415155b8015610f7057506001600160a01b038181166000908152600760205260409020600201541615155b610f8c5760405162461bcd60e51b81526004016104c590612d9c565b8585858533818414610fb05760405162461bcd60e51b81526004016104c5906130db565b60005b848110156110e5576000868683818110610fcf57610fcf612e39565b9050602002016020810190610fe49190612965565b6001600160a01b03160361100a5760405162461bcd60e51b81526004016104c59061312d565b816001600160a01b031686868381811061102657611026612e39565b905060200201602081019061103b9190612965565b6001600160a01b0316036110615760405162461bcd60e51b81526004016104c59061317c565b60045484848381811061107657611076612e39565b90506020020135111561109b5760405162461bcd60e51b81526004016104c5906131c7565b8383828181106110ad576110ad612e39565b905060200201356000036110d35760405162461bcd60e51b81526004016104c590613213565b806110dd81612e4f565b915050610fb3565b50336000908152600760205260409020611100908c8c61288d565b5033600090815260076020526040902061111e906004018a8a6128f0565b5060019b9a5050505050505050505050565b336000818152600760205260408120600301549091901580159061116b57506001600160a01b03811660009081526007602052604090205415155b801561119357506001600160a01b038181166000908152600760205260409020600201541615155b6111af5760405162461bcd60e51b81526004016104c590612d9c565b82600254426111be9190612de9565b8110156111dd5760405162461bcd60e51b81526004016104c59061324a565b50503360009081526007602052604090206003018290555090565b6001600160a01b03851660009081526007602052604090206003015485901580159061123b57506001600160a01b03811660009081526007602052604090205415155b801561126357506001600160a01b038181166000908152600760205260409020600201541615155b61127f5760405162461bcd60e51b81526004016104c590612d9c565b6001600160a01b03861660009081526007602052604090206003015486904210156112bc5760405162461bcd60e51b81526004016104c590612e68565b866000805b6001600160a01b03831660009081526007602052604090205481101561133d576001600160a01b038316600090815260076020526040902080548290811061130b5761130b612e39565b6000918252602090912001546001600160a01b0316330361132b57600191505b8061133581612e4f565b9150506112c1565b506001600160a01b03808316600090815260076020526040902060020154163303611366575060015b806113835760405162461bcd60e51b81526004016104c590612e96565b61138b6119d3565b60005b878110156113fc576113ea8a8a8a848181106113ac576113ac612e39565b90506020020160208101906113c19190612965565b8989858181106113d3576113d3612e39565b90506020028101906113e5919061305a565b612211565b806113f481612e4f565b91505061138e565b5061140660018055565b505050505050505050565b336000818152600760205260409020600301541580159061144957506001600160a01b03811660009081526007602052604090205415155b801561147157506001600160a01b038181166000908152600760205260409020600201541615155b61148d5760405162461bcd60e51b81526004016104c590612d9c565b816001600160a01b0381166114b45760405162461bcd60e51b81526004016104c5906132a7565b505033600090815260076020526040902060020180546001600160a01b0319166001600160a01b0392909216919091179055565b6001600160a01b03851660009081526007602052604090206003015485901580159061152b57506001600160a01b03811660009081526007602052604090205415155b801561155357506001600160a01b038181166000908152600760205260409020600201541615155b61156f5760405162461bcd60e51b81526004016104c590612d9c565b6005546001600160a01b038716600090815260076020526040902060030154879161159991612de9565b4210156115b85760405162461bcd60e51b81526004016104c590612e02565b6115c06119d3565b60005b85811015610efa5761161f888888848181106115e1576115e1612e39565b90506020020160208101906115f69190612965565b87878581811061160857611608612e39565b905060200281019061161a919061305a565b6122da565b8061162981612e4f565b9150506115c3565b6001600160a01b03831660009081526007602052604090206003015483901580159061167457506001600160a01b03811660009081526007602052604090205415155b801561169c57506001600160a01b038181166000908152600760205260409020600201541615155b6116b85760405162461bcd60e51b81526004016104c590612d9c565b6005546001600160a01b03851660009081526007602052604090206003015485916116e291612de9565b4210156117015760405162461bcd60e51b81526004016104c590612e02565b6117096119d3565b60005b83811015611756576117448686868481811061172a5761172a612e39565b905060200201602081019061173f9190612965565b612391565b8061174e81612e4f565b91505061170c565b5061176060018055565b5050505050565b6001600160a01b03811660009081526007602090815260409182902060040180548351818402810184019094528084526060939283018282801561043257602002820191906000526020600020905b8154815260200190600101908083116117b65750505050509050919050565b6117dd611c51565b6001600160a01b0381166118425760405162461bcd60e51b815260206004820152602660248201527f4f776e61626c653a206e6577206f776e657220697320746865207a65726f206160448201526564647265737360d01b60648201526084016104c5565b61184b81611cab565b50565b604051635137510f60e11b8152309063a26ea21e90611875908e908e908e90600401612ed9565b600060405180830381600087803b15801561188f57600080fd5b505af11580156118a3573d6000803e3d6000fd5b5050604051635645e3bf60e11b815230925063ac8bc77e91506118d2908e908c908c908a908a90600401612f67565b600060405180830381600087803b1580156118ec57600080fd5b505af1158015611900573d6000803e3d6000fd5b5050505060005b858110156119c55730637ce752c68d89898581811061192857611928612e39565b905060200201602081019061193d9190612965565b86868681811061194f5761194f612e39565b9050602002810190611961919061305a565b6040518563ffffffff1660e01b815260040161198094939291906130a4565b600060405180830381600087803b15801561199a57600080fd5b505af11580156119ae573d6000803e3d6000fd5b5050505080806119bd90612e4f565b915050611907565b505050505050505050505050565b600260015403611a255760405162461bcd60e51b815260206004820152601f60248201527f5265656e7472616e637947756172643a207265656e7472616e742063616c6c0060448201526064016104c5565b6002600155565b604051627eeac760e11b81526001600160a01b038481166004830152602482018390526000919084169062fdd58e90604401602060405180830381865afa158015611a7b573d6000803e3d6000fd5b505050506040513d601f19601f82011682018060405250810190611a9f9190613304565b90506000805b6001600160a01b038616600090815260076020526040902054811015610569576001600160a01b03861660009081526007602052604090206004018054611b27919083908110611af757611af7612e39565b60009182526020808320909101546001600160a01b038a1683526007909152604090912060010154859190612511565b6001600160a01b038716600090815260076020526040902054909250611b4f9060019061331d565b8103611bc757604051627eeac760e11b81526001600160a01b0387811660048301526024820186905286169062fdd58e90604401602060405180830381865afa158015611ba0573d6000803e3d6000fd5b505050506040513d601f19601f82011682018060405250810190611bc49190613304565b91505b60065460408051602081018252600081529051637921219560e11b81526001600160a01b038881169363f242432a93611c0c938c93909216918a918991600401613380565b600060405180830381600087803b158015611c2657600080fd5b505af1158015611c3a573d6000803e3d6000fd5b505050508080611c4990612e4f565b915050611aa5565b6000546001600160a01b031633146105ad5760405162461bcd60e51b815260206004820181905260248201527f4f776e61626c653a2063616c6c6572206973206e6f7420746865206f776e657260448201526064016104c5565b600080546001600160a01b038381166001600160a01b0319831681178455604051919092169283917f8be0079c531659141344cd1fd0a4f28419497f9722a3daafe3b4186f6b6457e09190a35050565b604051627eeac760e11b81526001600160a01b038481166004830152602482018390526000919084169062fdd58e90604401602060405180830381865afa158015611d4a573d6000803e3d6000fd5b505050506040513d601f19601f82011682018060405250810190611d6e9190613304565b90506000805b6001600160a01b038616600090815260076020526040902054811015610569576001600160a01b03861660009081526007602052604090206004018054611dc6919083908110611af757611af7612e39565b6001600160a01b038716600090815260076020526040902054909250611dee9060019061331d565b8103611e6657604051627eeac760e11b81526001600160a01b0387811660048301526024820186905286169062fdd58e90604401602060405180830381865afa158015611e3f573d6000803e3d6000fd5b505050506040513d601f19601f82011682018060405250810190611e639190613304565b91505b6001600160a01b03868116600090815260076020526040902080549187169163f242432a91899185908110611e9d57611e9d612e39565b600091825260208083209091015460408051928301815292825291516001600160e01b031960e086901b168152611ee693926001600160a01b0316918a91899190600401613380565b600060405180830381600087803b158015611f0057600080fd5b505af1158015611f14573d6000803e3d6000fd5b505050508080611f2390612e4f565b915050611d74565b6040516370a0823160e01b81526001600160a01b038381166004830152600091908316906370a0823190602401602060405180830381865afa158015611f75573d6000803e3d6000fd5b505050506040513d601f19601f82011682018060405250810190611f999190613304565b9050600081600003611fbd5760405162461bcd60e51b81526004016104c5906133ba565b604051636eb1769f60e11b81526001600160a01b0385811660048301523060248301526000919085169063dd62ed3e90604401602060405180830381865afa15801561200d573d6000803e3d6000fd5b505050506040513d601f19601f820116820180604052508101906120319190613304565b9050806000036120835760405162461bcd60e51b815260206004820152601c60248201527f57696c6c65723a204552433230207a65726f20616c6c6f77616e63650000000060448201526064016104c5565b8281101561208f578092505b60005b6001600160a01b038616600090815260076020526040902054811015610569576001600160a01b038616600090815260076020526040902060040180546121149190839081106120e4576120e4612e39565b60009182526020808320909101546001600160a01b038a1683526007909152604090912060010154869190612511565b6001600160a01b03871660009081526007602052604090205490935061213c9060019061331d565b81036121af576040516370a0823160e01b81526001600160a01b0387811660048301528616906370a0823190602401602060405180830381865afa158015612188573d6000803e3d6000fd5b505050506040513d601f19601f820116820180604052508101906121ac9190613304565b92505b6001600160a01b038616600090815260076020526040902080546121ff918891849081106121df576121df612e39565b6000918252602090912001546001600160a01b03888116929116866125c6565b8061220981612e4f565b915050612092565b60005b81811015611760576001600160a01b03858116600090815260076020526040902060020154818616916342842e0e9188911686868681811061225857612258612e39565b6040516001600160e01b031960e088901b1681526001600160a01b03958616600482015294909316602485015250602090910201356044820152606401600060405180830381600087803b1580156122af57600080fd5b505af11580156122c3573d6000803e3d6000fd5b5050505080806122d290612e4f565b915050612214565b60005b81811015611760576006546001600160a01b03808616916342842e0e9188911686868681811061230f5761230f612e39565b6040516001600160e01b031960e088901b1681526001600160a01b03958616600482015294909316602485015250602090910201356044820152606401600060405180830381600087803b15801561236657600080fd5b505af115801561237a573d6000803e3d6000fd5b50505050808061238990612e4f565b9150506122dd565b6040516370a0823160e01b81526001600160a01b038381166004830152600091908316906370a0823190602401602060405180830381865afa1580156123db573d6000803e3d6000fd5b505050506040513d601f19601f820116820180604052508101906123ff9190613304565b90506000816000036124235760405162461bcd60e51b81526004016104c5906133ba565b604051636eb1769f60e11b81526001600160a01b0385811660048301523060248301526000919085169063dd62ed3e90604401602060405180830381865afa158015612473573d6000803e3d6000fd5b505050506040513d601f19601f820116820180604052508101906124979190613304565b9050806000036124e95760405162461bcd60e51b815260206004820152601c60248201527f57696c6c65723a204552433230207a65726f20616c6c6f77616e63650000000060448201526064016104c5565b828110156124f5578092505b600654611760906001600160a01b0386811691889116866125c6565b600080806000198587098587029250828110838203039150508060000361254b57838281612541576125416133fc565b04925050506125bf565b80841161255757600080fd5b600084868809851960019081018716968790049682860381900495909211909303600082900391909104909201919091029190911760038402600290811880860282030280860282030280860282030280860282030280860282030280860290910302029150505b9392505050565b604080516001600160a01b0385811660248301528416604482015260648082018490528251808303909101815260849091019091526020810180516001600160e01b03166323b872dd60e01b179052612620908590612626565b50505050565b600061267b826040518060400160405280602081526020017f5361666545524332303a206c6f772d6c6576656c2063616c6c206661696c6564815250856001600160a01b03166126fd9092919063ffffffff16565b8051909150156126f857808060200190518101906126999190613412565b6126f85760405162461bcd60e51b815260206004820152602a60248201527f5361666545524332303a204552433230206f7065726174696f6e20646964206e6044820152691bdd081cdd58d8d9595960b21b60648201526084016104c5565b505050565b606061270c8484600085612714565b949350505050565b6060824710156127755760405162461bcd60e51b815260206004820152602660248201527f416464726573733a20696e73756666696369656e742062616c616e636520666f6044820152651c8818d85b1b60d21b60648201526084016104c5565b600080866001600160a01b031685876040516127919190613434565b60006040518083038185875af1925050503d80600081146127ce576040519150601f19603f3d011682016040523d82523d6000602084013e6127d3565b606091505b50915091506127e4878383876127ef565b979650505050505050565b6060831561285e578251600003612857576001600160a01b0385163b6128575760405162461bcd60e51b815260206004820152601d60248201527f416464726573733a2063616c6c20746f206e6f6e2d636f6e747261637400000060448201526064016104c5565b508161270c565b61270c83838151156128735781518083602001fd5b8060405162461bcd60e51b81526004016104c59190613450565b8280548282559060005260206000209081019282156128e0579160200282015b828111156128e05781546001600160a01b0319166001600160a01b038435161782556020909201916001909101906128ad565b506128ec92915061292b565b5090565b8280548282559060005260206000209081019282156128e0579160200282015b828111156128e0578235825591602001919060010190612910565b5b808211156128ec576000815560010161292c565b6001600160a01b038116811461184b57600080fd5b803561296081612940565b919050565b60006020828403121561297757600080fd5b81356125bf81612940565b6020808252825182820181905260009190848201906040850190845b818110156129c35783516001600160a01b03168352928401929184019160010161299e565b50909695505050505050565b60008083601f8401126129e157600080fd5b50813567ffffffffffffffff8111156129f957600080fd5b6020830191508360208260051b8501011115612a1457600080fd5b9250929050565b60008060008060608587031215612a3157600080fd5b8435612a3c81612940565b93506020850135612a4c81612940565b9250604085013567ffffffffffffffff811115612a6857600080fd5b612a74878288016129cf565b95989497509550505050565b600080600080600080600080600080600060c08c8e031215612aa157600080fd5b612aaa8c612955565b9a5067ffffffffffffffff8060208e01351115612ac657600080fd5b612ad68e60208f01358f016129cf565b909b50995060408d0135811015612aec57600080fd5b612afc8e60408f01358f016129cf565b909950975060608d0135811015612b1257600080fd5b612b228e60608f01358f016129cf565b909750955060808d0135811015612b3857600080fd5b612b488e60808f01358f016129cf565b909550935060a08d0135811015612b5e57600080fd5b50612b6f8d60a08e01358e016129cf565b81935080925050509295989b509295989b9093969950565b60008060008060008060808789031215612ba057600080fd5b863567ffffffffffffffff80821115612bb857600080fd5b612bc48a838b016129cf565b90985096506020890135915080821115612bdd57600080fd5b50612bea89828a016129cf565b9095509350506040870135612bfe81612940565b80925050606087013590509295509295509295565b600080600060408486031215612c2857600080fd5b8335612c3381612940565b9250602084013567ffffffffffffffff811115612c4f57600080fd5b612c5b868287016129cf565b9497909650939450505050565b60008060008060408587031215612c7e57600080fd5b843567ffffffffffffffff80821115612c9657600080fd5b612ca2888389016129cf565b90965094506020870135915080821115612cbb57600080fd5b50612a74878288016129cf565b600060208284031215612cda57600080fd5b5035919050565b600080600080600060608688031215612cf957600080fd5b8535612d0481612940565b9450602086013567ffffffffffffffff80821115612d2157600080fd5b612d2d89838a016129cf565b90965094506040880135915080821115612d4657600080fd5b50612d53888289016129cf565b969995985093965092949392505050565b6020808252825182820181905260009190848201906040850190845b818110156129c357835183529284019291840191600101612d80565b6020808252601a908201527f57696c6c65723a2077696c6c20646f65736e2774206578697374000000000000604082015260600190565b634e487b7160e01b600052601160045260246000fd5b80820180821115612dfc57612dfc612dd3565b92915050565b60208082526019908201527f57696c6c65723a20546f6f206561726c7920746f207265617000000000000000604082015260600190565b634e487b7160e01b600052603260045260246000fd5b600060018201612e6157612e61612dd3565b5060010190565b60208082526014908201527357696c6c65723a20756e72656c65617361626c6560601b604082015260600190565b60208082526023908201527f57696c6c65723a206578656375746f72206973206e6f742062656e656669636960408201526261727960e81b606082015260800190565b6001600160a01b03848116825260406020808401829052908301849052600091859160608501845b87811015612f28578435612f1481612940565b841682529382019390820190600101612f01565b5098975050505050505050565b81835260006001600160fb1b03831115612f4e57600080fd5b8260051b80836020870137939093016020019392505050565b6001600160a01b03868116825260606020808401829052908301869052600091879160808501845b89811015612fb6578435612fa281612940565b841682529382019390820190600101612f8f565b50858103604087015286815281810193506005925086831b810182018860005b8981101561304857838303601f190187528135368c9003601e19018112612ffc57600080fd5b8b01858101903567ffffffffffffffff81111561301857600080fd5b80881b360382131561302957600080fd5b613034858284612f35565b988701989450505090840190600101612fd6565b50909c9b505050505050505050505050565b6000808335601e1984360301811261307157600080fd5b83018035915067ffffffffffffffff82111561308c57600080fd5b6020019150600581901b3603821315612a1457600080fd5b6001600160a01b038581168252841660208201526060604082018190526000906130d19083018486612f35565b9695505050505050565b60208082526032908201527f57696c6c65723a2062656e656669636961726965735f20616e642073686172656040820152710e6be40d8cadccee8d040dad2e6dac2e8c6d60731b606082015260800190565b6020808252602f908201527f57696c6c65723a2061646472657373207a65726f206973206e6f74206120766160408201526e6c69642062656e656669636961727960881b606082015260800190565b6020808252602b908201527f57696c6c65723a207465737461746f72206973206e6f7420612076616c69642060408201526a62656e656669636961727960a81b606082015260800190565b6020808252602c908201527f57696c6c65723a2073686172652063616e27742062652067726561746572207460408201526b68616e204d4158534841524560a01b606082015260800190565b60208082526018908201527f57696c6c65723a2073686172652063616e277420626520300000000000000000604082015260600190565b60208082526037908201527f57696c6c65723a2072657175697265282072656c656173652074696d65203e2060408201527f63757272656e742074696d65202b204255464645522029000000000000000000606082015260800190565b60208082526037908201527f57696c6c65723a2061646472657373207a65726f206973206e6f74206120766160408201527f6c69642062656e65666963696172794f66455243373231000000000000000000606082015260800190565b60006020828403121561331657600080fd5b5051919050565b81810381811115612dfc57612dfc612dd3565b60005b8381101561334b578181015183820152602001613333565b50506000910152565b6000815180845261336c816020860160208601613330565b601f01601f19169290920160200192915050565b6001600160a01b03868116825285166020820152604081018490526060810183905260a0608082018190526000906127e490830184613354565b60208082526022908201527f57696c6c65723a204e6f20455243323020746f6b656e7320746f2072656c6561604082015261736560f01b606082015260800190565b634e487b7160e01b600052601260045260246000fd5b60006020828403121561342457600080fd5b815180151581146125bf57600080fd5b60008251613446818460208701613330565b9190910192915050565b6020815260006125bf602083018461335456fea2646970667358221220d6a37bed79769aa455a187184e912174d53b110ad85aacc76e3d86f9bb05c38964736f6c63430008100033",
  "bytecodeSha1": "0438971e76a6464caf720bf743900b56cb9ff285",
  "compiler": {
    "evm_version": "istanbul",
    "optimizer": {
      "enabled": true,
      "runs": 200
    },
    "version": "0.8.16+commit.07a7930e"
  },
  "contractName": "Willer",
  "language": "Solidity",
  "natspec": {
    "author": "DimaKush",
    "kind": "dev",
    "methods": {
      "owner()": {
        "details": "Returns the address of the current owner."
      },
      "renounceOwnership()": {
        "details": "Leaves the contract without owner. It will not be possible to call `onlyOwner` functions anymore. Can only be called by the current owner. NOTE: Renouncing ownership will leave the contract without an owner, thereby removing any functionality that is only available to the owner."
      },
      "transferOwnership(address)": {
        "details": "Transfers ownership of the contract to a new account (`newOwner`). Can only be called by the current owner."
      }
    },
    "title": "Willer",
    "version": 1
  },
  "opcodes": "PUSH1 0x80 PUSH1 0x40 MSTORE CALLVALUE DUP1 ISZERO PUSH2 0x10 JUMPI PUSH1 0x0 DUP1 REVERT JUMPDEST POP PUSH1 0x4 CALLDATASIZE LT PUSH2 0x173 JUMPI PUSH1 0x0 CALLDATALOAD PUSH1 0xE0 SHR DUP1 PUSH4 0x9181141A GT PUSH2 0xDE JUMPI DUP1 PUSH4 0xCAEE863E GT PUSH2 0x97 JUMPI DUP1 PUSH4 0xE6728EDB GT PUSH2 0x71 JUMPI DUP1 PUSH4 0xE6728EDB EQ PUSH2 0x36F JUMPI DUP1 PUSH4 0xF04DA65B EQ PUSH2 0x382 JUMPI DUP1 PUSH4 0xF2FDE38B EQ PUSH2 0x3A2 JUMPI DUP1 PUSH4 0xFE36B4C8 EQ PUSH2 0x3B5 JUMPI PUSH1 0x0 DUP1 REVERT JUMPDEST DUP1 PUSH4 0xCAEE863E EQ PUSH2 0x338 JUMPI DUP1 PUSH4 0xD9732F4D EQ PUSH2 0x34B JUMPI DUP1 PUSH4 0xE0024604 EQ PUSH2 0x35E JUMPI PUSH1 0x0 DUP1 REVERT JUMPDEST DUP1 PUSH4 0x9181141A EQ PUSH2 0x29D JUMPI DUP1 PUSH4 0xA26EA21E EQ PUSH2 0x2B0 JUMPI DUP1 PUSH4 0xA29093B1 EQ PUSH2 0x2C3 JUMPI DUP1 PUSH4 0xA3DA0ECD EQ PUSH2 0x2EF JUMPI DUP1 PUSH4 0xA6FD2339 EQ PUSH2 0x312 JUMPI DUP1 PUSH4 0xAC8BC77E EQ PUSH2 0x325 JUMPI PUSH1 0x0 DUP1 REVERT JUMPDEST DUP1 PUSH4 0x715018A6 GT PUSH2 0x130 JUMPI DUP1 PUSH4 0x715018A6 EQ PUSH2 0x24E JUMPI DUP1 PUSH4 0x745137B4 EQ PUSH2 0x256 JUMPI DUP1 PUSH4 0x7CE752C6 EQ PUSH2 0x25E JUMPI DUP1 PUSH4 0x8B61E1AA EQ PUSH2 0x271 JUMPI DUP1 PUSH4 0x8DA5CB5B EQ PUSH2 0x284 JUMPI DUP1 PUSH4 0x8EC02773 EQ PUSH2 0x295 JUMPI PUSH1 0x0 DUP1 REVERT JUMPDEST DUP1 PUSH4 0xCB7EB4C EQ PUSH2 0x178 JUMPI DUP1 PUSH4 0x1CAB59A4 EQ PUSH2 0x1B7 JUMPI DUP1 PUSH4 0x341B46DD EQ PUSH2 0x1D7 JUMPI DUP1 PUSH4 0x47FF5D8A EQ PUSH2 0x1EC JUMPI DUP1 PUSH4 0x6605BFDA EQ PUSH2 0x233 JUMPI DUP1 PUSH4 0x705E8B2E EQ PUSH2 0x246 JUMPI JUMPDEST PUSH1 0x0 DUP1 REVERT JUMPDEST PUSH2 0x1A4 PUSH2 0x186 CALLDATASIZE PUSH1 0x4 PUSH2 0x2965 JUMP JUMPDEST PUSH1 0x1 PUSH1 0x1 PUSH1 0xA0 SHL SUB AND PUSH1 0x0 SWAP1 DUP2 MSTORE PUSH1 0x7 PUSH1 0x20 MSTORE PUSH1 0x40 SWAP1 KECCAK256 PUSH1 0x3 ADD SLOAD SWAP1 JUMP JUMPDEST PUSH1 0x40 MLOAD SWAP1 DUP2 MSTORE PUSH1 0x20 ADD JUMPDEST PUSH1 0x40 MLOAD DUP1 SWAP2 SUB SWAP1 RETURN JUMPDEST PUSH2 0x1CA PUSH2 0x1C5 CALLDATASIZE PUSH1 0x4 PUSH2 0x2965 JUMP JUMPDEST PUSH2 0x3C8 JUMP JUMPDEST PUSH1 0x40 MLOAD PUSH2 0x1AE SWAP2 SWAP1 PUSH2 0x2982 JUMP JUMPDEST PUSH2 0x1EA PUSH2 0x1E5 CALLDATASIZE PUSH1 0x4 PUSH2 0x2A1B JUMP JUMPDEST PUSH2 0x43E JUMP JUMPDEST STOP JUMPDEST PUSH2 0x21B PUSH2 0x1FA CALLDATASIZE PUSH1 0x4 PUSH2 0x2965 JUMP JUMPDEST PUSH1 0x1 PUSH1 0x1 PUSH1 0xA0 SHL SUB SWAP1 DUP2 AND PUSH1 0x0 SWAP1 DUP2 MSTORE PUSH1 0x7 PUSH1 0x20 MSTORE PUSH1 0x40 SWAP1 KECCAK256 PUSH1 0x2 ADD SLOAD AND SWAP1 JUMP JUMPDEST PUSH1 0x40 MLOAD PUSH1 0x1 PUSH1 0x1 PUSH1 0xA0 SHL SUB SWAP1 SWAP2 AND DUP2 MSTORE PUSH1 0x20 ADD PUSH2 0x1AE JUMP JUMPDEST PUSH2 0x1EA PUSH2 0x241 CALLDATASIZE PUSH1 0x4 PUSH2 0x2965 JUMP JUMPDEST PUSH2 0x571 JUMP JUMPDEST PUSH1 0x2 SLOAD PUSH2 0x1A4 JUMP JUMPDEST PUSH2 0x1EA PUSH2 0x59B JUMP JUMPDEST PUSH1 0x4 SLOAD PUSH2 0x1A4 JUMP JUMPDEST PUSH2 0x1EA PUSH2 0x26C CALLDATASIZE PUSH1 0x4 PUSH2 0x2A1B JUMP JUMPDEST PUSH2 0x5AF JUMP JUMPDEST PUSH2 0x1EA PUSH2 0x27F CALLDATASIZE PUSH1 0x4 PUSH2 0x2A80 JUMP JUMPDEST PUSH2 0x796 JUMP JUMPDEST PUSH1 0x0 SLOAD PUSH1 0x1 PUSH1 0x1 PUSH1 0xA0 SHL SUB AND PUSH2 0x21B JUMP JUMPDEST PUSH1 0x5 SLOAD PUSH2 0x1A4 JUMP JUMPDEST PUSH2 0x1EA PUSH2 0x2AB CALLDATASIZE PUSH1 0x4 PUSH2 0x2B87 JUMP JUMPDEST PUSH2 0x9FF JUMP JUMPDEST PUSH2 0x1EA PUSH2 0x2BE CALLDATASIZE PUSH1 0x4 PUSH2 0x2C13 JUMP JUMPDEST PUSH2 0xD1A JUMP JUMPDEST PUSH2 0x1A4 PUSH2 0x2D1 CALLDATASIZE PUSH1 0x4 PUSH2 0x2965 JUMP JUMPDEST PUSH1 0x1 PUSH1 0x1 PUSH1 0xA0 SHL SUB AND PUSH1 0x0 SWAP1 DUP2 MSTORE PUSH1 0x7 PUSH1 0x20 MSTORE PUSH1 0x40 SWAP1 KECCAK256 PUSH1 0x1 ADD SLOAD SWAP1 JUMP JUMPDEST PUSH2 0x302 PUSH2 0x2FD CALLDATASIZE PUSH1 0x4 PUSH2 0x2C68 JUMP JUMPDEST PUSH2 0xF0D JUMP JUMPDEST PUSH1 0x40 MLOAD SWAP1 ISZERO ISZERO DUP2 MSTORE PUSH1 0x20 ADD PUSH2 0x1AE JUMP JUMPDEST PUSH2 0x1A4 PUSH2 0x320 CALLDATASIZE PUSH1 0x4 PUSH2 0x2CC8 JUMP JUMPDEST PUSH2 0x1130 JUMP JUMPDEST PUSH2 0x1EA PUSH2 0x333 CALLDATASIZE PUSH1 0x4 PUSH2 0x2CE1 JUMP JUMPDEST PUSH2 0x11F8 JUMP JUMPDEST PUSH2 0x1EA PUSH2 0x346 CALLDATASIZE PUSH1 0x4 PUSH2 0x2965 JUMP JUMPDEST PUSH2 0x1411 JUMP JUMPDEST PUSH2 0x1EA PUSH2 0x359 CALLDATASIZE PUSH1 0x4 PUSH2 0x2CE1 JUMP JUMPDEST PUSH2 0x14E8 JUMP JUMPDEST PUSH1 0x6 SLOAD PUSH1 0x1 PUSH1 0x1 PUSH1 0xA0 SHL SUB AND PUSH2 0x21B JUMP JUMPDEST PUSH2 0x1EA PUSH2 0x37D CALLDATASIZE PUSH1 0x4 PUSH2 0x2C13 JUMP JUMPDEST PUSH2 0x1631 JUMP JUMPDEST PUSH2 0x395 PUSH2 0x390 CALLDATASIZE PUSH1 0x4 PUSH2 0x2965 JUMP JUMPDEST PUSH2 0x1767 JUMP JUMPDEST PUSH1 0x40 MLOAD PUSH2 0x1AE SWAP2 SWAP1 PUSH2 0x2D64 JUMP JUMPDEST PUSH2 0x1EA PUSH2 0x3B0 CALLDATASIZE PUSH1 0x4 PUSH2 0x2965 JUMP JUMPDEST PUSH2 0x17D5 JUMP JUMPDEST PUSH2 0x1EA PUSH2 0x3C3 CALLDATASIZE PUSH1 0x4 PUSH2 0x2A80 JUMP JUMPDEST PUSH2 0x184E JUMP JUMPDEST PUSH1 0x1 PUSH1 0x1 PUSH1 0xA0 SHL SUB DUP2 AND PUSH1 0x0 SWAP1 DUP2 MSTORE PUSH1 0x7 PUSH1 0x20 SWAP1 DUP2 MSTORE PUSH1 0x40 SWAP2 DUP3 SWAP1 KECCAK256 DUP1 SLOAD DUP4 MLOAD DUP2 DUP5 MUL DUP2 ADD DUP5 ADD SWAP1 SWAP5 MSTORE DUP1 DUP5 MSTORE PUSH1 0x60 SWAP4 SWAP3 DUP4 ADD DUP3 DUP3 DUP1 ISZERO PUSH2 0x432 JUMPI PUSH1 0x20 MUL DUP3 ADD SWAP2 SWAP1 PUSH1 0x0 MSTORE PUSH1 0x20 PUSH1 0x0 KECCAK256 SWAP1 JUMPDEST DUP2 SLOAD PUSH1 0x1 PUSH1 0x1 PUSH1 0xA0 SHL SUB AND DUP2 MSTORE PUSH1 0x1 SWAP1 SWAP2 ADD SWAP1 PUSH1 0x20 ADD DUP1 DUP4 GT PUSH2 0x414 JUMPI JUMPDEST POP POP POP POP POP SWAP1 POP SWAP2 SWAP1 POP JUMP JUMPDEST PUSH1 0x1 PUSH1 0x1 PUSH1 0xA0 SHL SUB DUP5 AND PUSH1 0x0 SWAP1 DUP2 MSTORE PUSH1 0x7 PUSH1 0x20 MSTORE PUSH1 0x40 SWAP1 KECCAK256 PUSH1 0x3 ADD SLOAD DUP5 SWAP1 ISZERO DUP1 ISZERO SWAP1 PUSH2 0x481 JUMPI POP PUSH1 0x1 PUSH1 0x1 PUSH1 0xA0 SHL SUB DUP2 AND PUSH1 0x0 SWAP1 DUP2 MSTORE PUSH1 0x7 PUSH1 0x20 MSTORE PUSH1 0x40 SWAP1 KECCAK256 SLOAD ISZERO ISZERO JUMPDEST DUP1 ISZERO PUSH2 0x4A9 JUMPI POP PUSH1 0x1 PUSH1 0x1 PUSH1 0xA0 SHL SUB DUP2 DUP2 AND PUSH1 0x0 SWAP1 DUP2 MSTORE PUSH1 0x7 PUSH1 0x20 MSTORE PUSH1 0x40 SWAP1 KECCAK256 PUSH1 0x2 ADD SLOAD AND ISZERO ISZERO JUMPDEST PUSH2 0x4CE JUMPI PUSH1 0x40 MLOAD PUSH3 0x461BCD PUSH1 0xE5 SHL DUP2 MSTORE PUSH1 0x4 ADD PUSH2 0x4C5 SWAP1 PUSH2 0x2D9C JUMP JUMPDEST PUSH1 0x40 MLOAD DUP1 SWAP2 SUB SWAP1 REVERT JUMPDEST PUSH1 0x5 SLOAD PUSH1 0x1 PUSH1 0x1 PUSH1 0xA0 SHL SUB DUP7 AND PUSH1 0x0 SWAP1 DUP2 MSTORE PUSH1 0x7 PUSH1 0x20 MSTORE PUSH1 0x40 SWAP1 KECCAK256 PUSH1 0x3 ADD SLOAD DUP7 SWAP2 PUSH2 0x4F8 SWAP2 PUSH2 0x2DE9 JUMP JUMPDEST TIMESTAMP LT ISZERO PUSH2 0x517 JUMPI PUSH1 0x40 MLOAD PUSH3 0x461BCD PUSH1 0xE5 SHL DUP2 MSTORE PUSH1 0x4 ADD PUSH2 0x4C5 SWAP1 PUSH2 0x2E02 JUMP JUMPDEST PUSH2 0x51F PUSH2 0x19D3 JUMP JUMPDEST PUSH1 0x0 JUMPDEST DUP4 DUP2 LT ISZERO PUSH2 0x55F JUMPI PUSH2 0x54D DUP8 DUP8 DUP8 DUP8 DUP6 DUP2 DUP2 LT PUSH2 0x541 JUMPI PUSH2 0x541 PUSH2 0x2E39 JUMP JUMPDEST SWAP1 POP PUSH1 0x20 MUL ADD CALLDATALOAD PUSH2 0x1A2C JUMP JUMPDEST DUP1 PUSH2 0x557 DUP2 PUSH2 0x2E4F JUMP JUMPDEST SWAP2 POP POP PUSH2 0x522 JUMP JUMPDEST POP PUSH2 0x569 PUSH1 0x1 DUP1 SSTORE JUMP JUMPDEST POP POP POP POP POP POP JUMP JUMPDEST PUSH2 0x579 PUSH2 0x1C51 JUMP JUMPDEST PUSH1 0x6 DUP1 SLOAD PUSH1 0x1 PUSH1 0x1 PUSH1 0xA0 SHL SUB NOT AND PUSH1 0x1 PUSH1 0x1 PUSH1 0xA0 SHL SUB SWAP3 SWAP1 SWAP3 AND SWAP2 SWAP1 SWAP2 OR SWAP1 SSTORE JUMP JUMPDEST PUSH2 0x5A3 PUSH2 0x1C51 JUMP JUMPDEST PUSH2 0x5AD PUSH1 0x0 PUSH2 0x1CAB JUMP JUMPDEST JUMP JUMPDEST PUSH1 0x1 PUSH1 0x1 PUSH1 0xA0 SHL SUB DUP5 AND PUSH1 0x0 SWAP1 DUP2 MSTORE PUSH1 0x7 PUSH1 0x20 MSTORE PUSH1 0x40 SWAP1 KECCAK256 PUSH1 0x3 ADD SLOAD DUP5 SWAP1 ISZERO DUP1 ISZERO SWAP1 PUSH2 0x5F2 JUMPI POP PUSH1 0x1 PUSH1 0x1 PUSH1 0xA0 SHL SUB DUP2 AND PUSH1 0x0 SWAP1 DUP2 MSTORE PUSH1 0x7 PUSH1 0x20 MSTORE PUSH1 0x40 SWAP1 KECCAK256 SLOAD ISZERO ISZERO JUMPDEST DUP1 ISZERO PUSH2 0x61A JUMPI POP PUSH1 0x1 PUSH1 0x1 PUSH1 0xA0 SHL SUB DUP2 DUP2 AND PUSH1 0x0 SWAP1 DUP2 MSTORE PUSH1 0x7 PUSH1 0x20 MSTORE PUSH1 0x40 SWAP1 KECCAK256 PUSH1 0x2 ADD SLOAD AND ISZERO ISZERO JUMPDEST PUSH2 0x636 JUMPI PUSH1 0x40 MLOAD PUSH3 0x461BCD PUSH1 0xE5 SHL DUP2 MSTORE PUSH1 0x4 ADD PUSH2 0x4C5 SWAP1 PUSH2 0x2D9C JUMP JUMPDEST PUSH1 0x1 PUSH1 0x1 PUSH1 0xA0 SHL SUB DUP6 AND PUSH1 0x0 SWAP1 DUP2 MSTORE PUSH1 0x7 PUSH1 0x20 MSTORE PUSH1 0x40 SWAP1 KECCAK256 PUSH1 0x3 ADD SLOAD DUP6 SWAP1 TIMESTAMP LT ISZERO PUSH2 0x673 JUMPI PUSH1 0x40 MLOAD PUSH3 0x461BCD PUSH1 0xE5 SHL DUP2 MSTORE PUSH1 0x4 ADD PUSH2 0x4C5 SWAP1 PUSH2 0x2E68 JUMP JUMPDEST DUP6 PUSH1 0x0 DUP1 JUMPDEST PUSH1 0x1 PUSH1 0x1 PUSH1 0xA0 SHL SUB DUP4 AND PUSH1 0x0 SWAP1 DUP2 MSTORE PUSH1 0x7 PUSH1 0x20 MSTORE PUSH1 0x40 SWAP1 KECCAK256 SLOAD DUP2 LT ISZERO PUSH2 0x6F4 JUMPI PUSH1 0x1 PUSH1 0x1 PUSH1 0xA0 SHL SUB DUP4 AND PUSH1 0x0 SWAP1 DUP2 MSTORE PUSH1 0x7 PUSH1 0x20 MSTORE PUSH1 0x40 SWAP1 KECCAK256 DUP1 SLOAD DUP3 SWAP1 DUP2 LT PUSH2 0x6C2 JUMPI PUSH2 0x6C2 PUSH2 0x2E39 JUMP JUMPDEST PUSH1 0x0 SWAP2 DUP3 MSTORE PUSH1 0x20 SWAP1 SWAP2 KECCAK256 ADD SLOAD PUSH1 0x1 PUSH1 0x1 PUSH1 0xA0 SHL SUB AND CALLER SUB PUSH2 0x6E2 JUMPI PUSH1 0x1 SWAP2 POP JUMPDEST DUP1 PUSH2 0x6EC DUP2 PUSH2 0x2E4F JUMP JUMPDEST SWAP2 POP POP PUSH2 0x678 JUMP JUMPDEST POP PUSH1 0x1 PUSH1 0x1 PUSH1 0xA0 SHL SUB DUP1 DUP4 AND PUSH1 0x0 SWAP1 DUP2 MSTORE PUSH1 0x7 PUSH1 0x20 MSTORE PUSH1 0x40 SWAP1 KECCAK256 PUSH1 0x2 ADD SLOAD AND CALLER SUB PUSH2 0x71D JUMPI POP PUSH1 0x1 JUMPDEST DUP1 PUSH2 0x73A JUMPI PUSH1 0x40 MLOAD PUSH3 0x461BCD PUSH1 0xE5 SHL DUP2 MSTORE PUSH1 0x4 ADD PUSH2 0x4C5 SWAP1 PUSH2 0x2E96 JUMP JUMPDEST PUSH2 0x742 PUSH2 0x19D3 JUMP JUMPDEST PUSH1 0x0 JUMPDEST DUP6 DUP2 LT ISZERO PUSH2 0x782 JUMPI PUSH2 0x770 DUP10 DUP10 DUP10 DUP10 DUP6 DUP2 DUP2 LT PUSH2 0x764 JUMPI PUSH2 0x764 PUSH2 0x2E39 JUMP JUMPDEST SWAP1 POP PUSH1 0x20 MUL ADD CALLDATALOAD PUSH2 0x1CFB JUMP JUMPDEST DUP1 PUSH2 0x77A DUP2 PUSH2 0x2E4F JUMP JUMPDEST SWAP2 POP POP PUSH2 0x745 JUMP JUMPDEST POP PUSH2 0x78C PUSH1 0x1 DUP1 SSTORE JUMP JUMPDEST POP POP POP POP POP POP POP POP JUMP JUMPDEST PUSH1 0x1 PUSH1 0x1 PUSH1 0xA0 SHL SUB DUP12 AND PUSH1 0x0 SWAP1 DUP2 MSTORE PUSH1 0x7 PUSH1 0x20 MSTORE PUSH1 0x40 SWAP1 KECCAK256 PUSH1 0x3 ADD SLOAD DUP12 SWAP1 ISZERO DUP1 ISZERO SWAP1 PUSH2 0x7D9 JUMPI POP PUSH1 0x1 PUSH1 0x1 PUSH1 0xA0 SHL SUB DUP2 AND PUSH1 0x0 SWAP1 DUP2 MSTORE PUSH1 0x7 PUSH1 0x20 MSTORE PUSH1 0x40 SWAP1 KECCAK256 SLOAD ISZERO ISZERO JUMPDEST DUP1 ISZERO PUSH2 0x801 JUMPI POP PUSH1 0x1 PUSH1 0x1 PUSH1 0xA0 SHL SUB DUP2 DUP2 AND PUSH1 0x0 SWAP1 DUP2 MSTORE PUSH1 0x7 PUSH1 0x20 MSTORE PUSH1 0x40 SWAP1 KECCAK256 PUSH1 0x2 ADD SLOAD AND ISZERO ISZERO JUMPDEST PUSH2 0x81D JUMPI PUSH1 0x40 MLOAD PUSH3 0x461BCD PUSH1 0xE5 SHL DUP2 MSTORE PUSH1 0x4 ADD PUSH2 0x4C5 SWAP1 PUSH2 0x2D9C JUMP JUMPDEST PUSH1 0x5 SLOAD PUSH1 0x1 PUSH1 0x1 PUSH1 0xA0 SHL SUB DUP14 AND PUSH1 0x0 SWAP1 DUP2 MSTORE PUSH1 0x7 PUSH1 0x20 MSTORE PUSH1 0x40 SWAP1 KECCAK256 PUSH1 0x3 ADD SLOAD DUP14 SWAP2 PUSH2 0x847 SWAP2 PUSH2 0x2DE9 JUMP JUMPDEST TIMESTAMP LT ISZERO PUSH2 0x866 JUMPI PUSH1 0x40 MLOAD PUSH3 0x461BCD PUSH1 0xE5 SHL DUP2 MSTORE PUSH1 0x4 ADD PUSH2 0x4C5 SWAP1 PUSH2 0x2E02 JUMP JUMPDEST ADDRESS PUSH1 0x1 PUSH1 0x1 PUSH1 0xA0 SHL SUB AND PUSH4 0xE6728EDB DUP15 DUP15 DUP15 PUSH1 0x40 MLOAD DUP5 PUSH4 0xFFFFFFFF AND PUSH1 0xE0 SHL DUP2 MSTORE PUSH1 0x4 ADD PUSH2 0x896 SWAP4 SWAP3 SWAP2 SWAP1 PUSH2 0x2ED9 JUMP JUMPDEST PUSH1 0x0 PUSH1 0x40 MLOAD DUP1 DUP4 SUB DUP2 PUSH1 0x0 DUP8 DUP1 EXTCODESIZE ISZERO DUP1 ISZERO PUSH2 0x8B0 JUMPI PUSH1 0x0 DUP1 REVERT JUMPDEST POP GAS CALL ISZERO DUP1 ISZERO PUSH2 0x8C4 JUMPI RETURNDATASIZE PUSH1 0x0 DUP1 RETURNDATACOPY RETURNDATASIZE PUSH1 0x0 REVERT JUMPDEST POP POP POP POP ADDRESS PUSH1 0x1 PUSH1 0x1 PUSH1 0xA0 SHL SUB AND PUSH4 0xD9732F4D DUP15 DUP13 DUP13 DUP11 DUP11 PUSH1 0x40 MLOAD DUP7 PUSH4 0xFFFFFFFF AND PUSH1 0xE0 SHL DUP2 MSTORE PUSH1 0x4 ADD PUSH2 0x8FC SWAP6 SWAP5 SWAP4 SWAP3 SWAP2 SWAP1 PUSH2 0x2F67 JUMP JUMPDEST PUSH1 0x0 PUSH1 0x40 MLOAD DUP1 DUP4 SUB DUP2 PUSH1 0x0 DUP8 DUP1 EXTCODESIZE ISZERO DUP1 ISZERO PUSH2 0x916 JUMPI PUSH1 0x0 DUP1 REVERT JUMPDEST POP GAS CALL ISZERO DUP1 ISZERO PUSH2 0x92A JUMPI RETURNDATASIZE PUSH1 0x0 DUP1 RETURNDATACOPY RETURNDATASIZE PUSH1 0x0 REVERT JUMPDEST POP POP POP POP PUSH1 0x0 JUMPDEST DUP8 DUP2 LT ISZERO PUSH2 0x9EF JUMPI ADDRESS PUSH4 0x341B46DD DUP16 DUP12 DUP12 DUP6 DUP2 DUP2 LT PUSH2 0x952 JUMPI PUSH2 0x952 PUSH2 0x2E39 JUMP JUMPDEST SWAP1 POP PUSH1 0x20 MUL ADD PUSH1 0x20 DUP2 ADD SWAP1 PUSH2 0x967 SWAP2 SWAP1 PUSH2 0x2965 JUMP JUMPDEST DUP9 DUP9 DUP7 DUP2 DUP2 LT PUSH2 0x979 JUMPI PUSH2 0x979 PUSH2 0x2E39 JUMP JUMPDEST SWAP1 POP PUSH1 0x20 MUL DUP2 ADD SWAP1 PUSH2 0x98B SWAP2 SWAP1 PUSH2 0x305A JUMP JUMPDEST PUSH1 0x40 MLOAD DUP6 PUSH4 0xFFFFFFFF AND PUSH1 0xE0 SHL DUP2 MSTORE PUSH1 0x4 ADD PUSH2 0x9AA SWAP5 SWAP4 SWAP3 SWAP2 SWAP1 PUSH2 0x30A4 JUMP JUMPDEST PUSH1 0x0 PUSH1 0x40 MLOAD DUP1 DUP4 SUB DUP2 PUSH1 0x0 DUP8 DUP1 EXTCODESIZE ISZERO DUP1 ISZERO PUSH2 0x9C4 JUMPI PUSH1 0x0 DUP1 REVERT JUMPDEST POP GAS CALL ISZERO DUP1 ISZERO PUSH2 0x9D8 JUMPI RETURNDATASIZE PUSH1 0x0 DUP1 RETURNDATACOPY RETURNDATASIZE PUSH1 0x0 REVERT JUMPDEST POP POP POP POP DUP1 DUP1 PUSH2 0x9E7 SWAP1 PUSH2 0x2E4F JUMP JUMPDEST SWAP2 POP POP PUSH2 0x931 JUMP JUMPDEST POP POP POP POP POP POP POP POP POP POP POP POP POP POP JUMP JUMPDEST DUP6 DUP6 DUP6 DUP6 CALLER DUP2 DUP5 EQ PUSH2 0xA23 JUMPI PUSH1 0x40 MLOAD PUSH3 0x461BCD PUSH1 0xE5 SHL DUP2 MSTORE PUSH1 0x4 ADD PUSH2 0x4C5 SWAP1 PUSH2 0x30DB JUMP JUMPDEST PUSH1 0x0 JUMPDEST DUP5 DUP2 LT ISZERO PUSH2 0xB58 JUMPI PUSH1 0x0 DUP7 DUP7 DUP4 DUP2 DUP2 LT PUSH2 0xA42 JUMPI PUSH2 0xA42 PUSH2 0x2E39 JUMP JUMPDEST SWAP1 POP PUSH1 0x20 MUL ADD PUSH1 0x20 DUP2 ADD SWAP1 PUSH2 0xA57 SWAP2 SWAP1 PUSH2 0x2965 JUMP JUMPDEST PUSH1 0x1 PUSH1 0x1 PUSH1 0xA0 SHL SUB AND SUB PUSH2 0xA7D JUMPI PUSH1 0x40 MLOAD PUSH3 0x461BCD PUSH1 0xE5 SHL DUP2 MSTORE PUSH1 0x4 ADD PUSH2 0x4C5 SWAP1 PUSH2 0x312D JUMP JUMPDEST DUP2 PUSH1 0x1 PUSH1 0x1 PUSH1 0xA0 SHL SUB AND DUP7 DUP7 DUP4 DUP2 DUP2 LT PUSH2 0xA99 JUMPI PUSH2 0xA99 PUSH2 0x2E39 JUMP JUMPDEST SWAP1 POP PUSH1 0x20 MUL ADD PUSH1 0x20 DUP2 ADD SWAP1 PUSH2 0xAAE SWAP2 SWAP1 PUSH2 0x2965 JUMP JUMPDEST PUSH1 0x1 PUSH1 0x1 PUSH1 0xA0 SHL SUB AND SUB PUSH2 0xAD4 JUMPI PUSH1 0x40 MLOAD PUSH3 0x461BCD PUSH1 0xE5 SHL DUP2 MSTORE PUSH1 0x4 ADD PUSH2 0x4C5 SWAP1 PUSH2 0x317C JUMP JUMPDEST PUSH1 0x4 SLOAD DUP5 DUP5 DUP4 DUP2 DUP2 LT PUSH2 0xAE9 JUMPI PUSH2 0xAE9 PUSH2 0x2E39 JUMP JUMPDEST SWAP1 POP PUSH1 0x20 MUL ADD CALLDATALOAD GT ISZERO PUSH2 0xB0E JUMPI PUSH1 0x40 MLOAD PUSH3 0x461BCD PUSH1 0xE5 SHL DUP2 MSTORE PUSH1 0x4 ADD PUSH2 0x4C5 SWAP1 PUSH2 0x31C7 JUMP JUMPDEST DUP4 DUP4 DUP3 DUP2 DUP2 LT PUSH2 0xB20 JUMPI PUSH2 0xB20 PUSH2 0x2E39 JUMP JUMPDEST SWAP1 POP PUSH1 0x20 MUL ADD CALLDATALOAD PUSH1 0x0 SUB PUSH2 0xB46 JUMPI PUSH1 0x40 MLOAD PUSH3 0x461BCD PUSH1 0xE5 SHL DUP2 MSTORE PUSH1 0x4 ADD PUSH2 0x4C5 SWAP1 PUSH2 0x3213 JUMP JUMPDEST DUP1 PUSH2 0xB50 DUP2 PUSH2 0x2E4F JUMP JUMPDEST SWAP2 POP POP PUSH2 0xA26 JUMP JUMPDEST POP DUP6 PUSH1 0x2 SLOAD TIMESTAMP PUSH2 0xB68 SWAP2 SWAP1 PUSH2 0x2DE9 JUMP JUMPDEST DUP2 LT ISZERO PUSH2 0xB87 JUMPI PUSH1 0x40 MLOAD PUSH3 0x461BCD PUSH1 0xE5 SHL DUP2 MSTORE PUSH1 0x4 ADD PUSH2 0x4C5 SWAP1 PUSH2 0x324A JUMP JUMPDEST DUP8 PUSH1 0x1 PUSH1 0x1 PUSH1 0xA0 SHL SUB DUP2 AND PUSH2 0xBAE JUMPI PUSH1 0x40 MLOAD PUSH3 0x461BCD PUSH1 0xE5 SHL DUP2 MSTORE PUSH1 0x4 ADD PUSH2 0x4C5 SWAP1 PUSH2 0x32A7 JUMP JUMPDEST DUP11 DUP11 PUSH1 0x0 JUMPDEST DUP2 DUP2 LT ISZERO PUSH2 0xC40 JUMPI PUSH1 0x4 SLOAD DUP4 DUP4 DUP4 DUP2 DUP2 LT PUSH2 0xBD0 JUMPI PUSH2 0xBD0 PUSH2 0x2E39 JUMP JUMPDEST SWAP1 POP PUSH1 0x20 MUL ADD CALLDATALOAD GT ISZERO PUSH2 0xBF5 JUMPI PUSH1 0x40 MLOAD PUSH3 0x461BCD PUSH1 0xE5 SHL DUP2 MSTORE PUSH1 0x4 ADD PUSH2 0x4C5 SWAP1 PUSH2 0x31C7 JUMP JUMPDEST PUSH1 0x0 DUP4 DUP4 DUP4 DUP2 DUP2 LT PUSH2 0xC09 JUMPI PUSH2 0xC09 PUSH2 0x2E39 JUMP JUMPDEST SWAP1 POP PUSH1 0x20 MUL ADD CALLDATALOAD LT ISZERO PUSH2 0xC2E JUMPI PUSH1 0x40 MLOAD PUSH3 0x461BCD PUSH1 0xE5 SHL DUP2 MSTORE PUSH1 0x4 ADD PUSH2 0x4C5 SWAP1 PUSH2 0x3213 JUMP JUMPDEST DUP1 PUSH2 0xC38 DUP2 PUSH2 0x2E4F JUMP JUMPDEST SWAP2 POP POP PUSH2 0xBB3 JUMP JUMPDEST POP PUSH1 0x0 PUSH1 0x7 PUSH1 0x0 CALLER PUSH1 0x1 PUSH1 0x1 PUSH1 0xA0 SHL SUB AND PUSH1 0x1 PUSH1 0x1 PUSH1 0xA0 SHL SUB AND DUP2 MSTORE PUSH1 0x20 ADD SWAP1 DUP2 MSTORE PUSH1 0x20 ADD PUSH1 0x0 KECCAK256 SWAP1 POP DUP16 DUP16 DUP3 PUSH1 0x0 ADD SWAP2 SWAP1 PUSH2 0xC7D SWAP3 SWAP2 SWAP1 PUSH2 0x288D JUMP JUMPDEST POP PUSH2 0xC8C PUSH1 0x4 DUP3 ADD DUP16 DUP16 PUSH2 0x28F0 JUMP JUMPDEST POP PUSH1 0x0 PUSH1 0x1 DUP3 ADD DUP2 SWAP1 SSTORE PUSH1 0x2 DUP3 ADD DUP1 SLOAD PUSH1 0x1 PUSH1 0x1 PUSH1 0xA0 SHL SUB NOT AND PUSH1 0x1 PUSH1 0x1 PUSH1 0xA0 SHL SUB DUP16 AND OR SWAP1 SSTORE PUSH1 0x3 DUP3 ADD DUP13 SWAP1 SSTORE JUMPDEST DUP14 DUP2 LT ISZERO PUSH2 0xD07 JUMPI DUP15 DUP15 DUP3 DUP2 DUP2 LT PUSH2 0xCD5 JUMPI PUSH2 0xCD5 PUSH2 0x2E39 JUMP JUMPDEST SWAP1 POP PUSH1 0x20 MUL ADD CALLDATALOAD DUP3 PUSH1 0x1 ADD PUSH1 0x0 DUP3 DUP3 SLOAD PUSH2 0xCEF SWAP2 SWAP1 PUSH2 0x2DE9 JUMP JUMPDEST SWAP1 SWAP2 SSTORE POP DUP2 SWAP1 POP PUSH2 0xCFF DUP2 PUSH2 0x2E4F JUMP JUMPDEST SWAP2 POP POP PUSH2 0xCBB JUMP JUMPDEST POP POP POP POP POP POP POP POP POP POP POP POP POP POP POP POP POP JUMP JUMPDEST PUSH1 0x1 PUSH1 0x1 PUSH1 0xA0 SHL SUB DUP4 AND PUSH1 0x0 SWAP1 DUP2 MSTORE PUSH1 0x7 PUSH1 0x20 MSTORE PUSH1 0x40 SWAP1 KECCAK256 PUSH1 0x3 ADD SLOAD DUP4 SWAP1 ISZERO DUP1 ISZERO SWAP1 PUSH2 0xD5D JUMPI POP PUSH1 0x1 PUSH1 0x1 PUSH1 0xA0 SHL SUB DUP2 AND PUSH1 0x0 SWAP1 DUP2 MSTORE PUSH1 0x7 PUSH1 0x20 MSTORE PUSH1 0x40 SWAP1 KECCAK256 SLOAD ISZERO ISZERO JUMPDEST DUP1 ISZERO PUSH2 0xD85 JUMPI POP PUSH1 0x1 PUSH1 0x1 PUSH1 0xA0 SHL SUB DUP2 DUP2 AND PUSH1 0x0 SWAP1 DUP2 MSTORE PUSH1 0x7 PUSH1 0x20 MSTORE PUSH1 0x40 SWAP1 KECCAK256 PUSH1 0x2 ADD SLOAD AND ISZERO ISZERO JUMPDEST PUSH2 0xDA1 JUMPI PUSH1 0x40 MLOAD PUSH3 0x461BCD PUSH1 0xE5 SHL DUP2 MSTORE PUSH1 0x4 ADD PUSH2 0x4C5 SWAP1 PUSH2 0x2D9C JUMP JUMPDEST PUSH1 0x1 PUSH1 0x1 PUSH1 0xA0 SHL SUB DUP5 AND PUSH1 0x0 SWAP1 DUP2 MSTORE PUSH1 0x7 PUSH1 0x20 MSTORE PUSH1 0x40 SWAP1 KECCAK256 PUSH1 0x3 ADD SLOAD DUP5 SWAP1 TIMESTAMP LT ISZERO PUSH2 0xDDE JUMPI PUSH1 0x40 MLOAD PUSH3 0x461BCD PUSH1 0xE5 SHL DUP2 MSTORE PUSH1 0x4 ADD PUSH2 0x4C5 SWAP1 PUSH2 0x2E68 JUMP JUMPDEST DUP5 PUSH1 0x0 DUP1 JUMPDEST PUSH1 0x1 PUSH1 0x1 PUSH1 0xA0 SHL SUB DUP4 AND PUSH1 0x0 SWAP1 DUP2 MSTORE PUSH1 0x7 PUSH1 0x20 MSTORE PUSH1 0x40 SWAP1 KECCAK256 SLOAD DUP2 LT ISZERO PUSH2 0xE5F JUMPI PUSH1 0x1 PUSH1 0x1 PUSH1 0xA0 SHL SUB DUP4 AND PUSH1 0x0 SWAP1 DUP2 MSTORE PUSH1 0x7 PUSH1 0x20 MSTORE PUSH1 0x40 SWAP1 KECCAK256 DUP1 SLOAD DUP3 SWAP1 DUP2 LT PUSH2 0xE2D JUMPI PUSH2 0xE2D PUSH2 0x2E39 JUMP JUMPDEST PUSH1 0x0 SWAP2 DUP3 MSTORE PUSH1 0x20 SWAP1 SWAP2 KECCAK256 ADD SLOAD PUSH1 0x1 PUSH1 0x1 PUSH1 0xA0 SHL SUB AND CALLER SUB PUSH2 0xE4D JUMPI PUSH1 0x1 SWAP2 POP JUMPDEST DUP1 PUSH2 0xE57 DUP2 PUSH2 0x2E4F JUMP JUMPDEST SWAP2 POP POP PUSH2 0xDE3 JUMP JUMPDEST POP PUSH1 0x1 PUSH1 0x1 PUSH1 0xA0 SHL SUB DUP1 DUP4 AND PUSH1 0x0 SWAP1 DUP2 MSTORE PUSH1 0x7 PUSH1 0x20 MSTORE PUSH1 0x40 SWAP1 KECCAK256 PUSH1 0x2 ADD SLOAD AND CALLER SUB PUSH2 0xE88 JUMPI POP PUSH1 0x1 JUMPDEST DUP1 PUSH2 0xEA5 JUMPI PUSH1 0x40 MLOAD PUSH3 0x461BCD PUSH1 0xE5 SHL DUP2 MSTORE PUSH1 0x4 ADD PUSH2 0x4C5 SWAP1 PUSH2 0x2E96 JUMP JUMPDEST PUSH2 0xEAD PUSH2 0x19D3 JUMP JUMPDEST PUSH1 0x0 JUMPDEST DUP6 DUP2 LT ISZERO PUSH2 0xEFA JUMPI PUSH2 0xEE8 DUP9 DUP9 DUP9 DUP5 DUP2 DUP2 LT PUSH2 0xECE JUMPI PUSH2 0xECE PUSH2 0x2E39 JUMP JUMPDEST SWAP1 POP PUSH1 0x20 MUL ADD PUSH1 0x20 DUP2 ADD SWAP1 PUSH2 0xEE3 SWAP2 SWAP1 PUSH2 0x2965 JUMP JUMPDEST PUSH2 0x1F2B JUMP JUMPDEST DUP1 PUSH2 0xEF2 DUP2 PUSH2 0x2E4F JUMP JUMPDEST SWAP2 POP POP PUSH2 0xEB0 JUMP JUMPDEST POP PUSH2 0xF04 PUSH1 0x1 DUP1 SSTORE JUMP JUMPDEST POP POP POP POP POP POP POP JUMP JUMPDEST CALLER PUSH1 0x0 DUP2 DUP2 MSTORE PUSH1 0x7 PUSH1 0x20 MSTORE PUSH1 0x40 DUP2 KECCAK256 PUSH1 0x3 ADD SLOAD SWAP1 SWAP2 SWAP1 ISZERO DUP1 ISZERO SWAP1 PUSH2 0xF48 JUMPI POP PUSH1 0x1 PUSH1 0x1 PUSH1 0xA0 SHL SUB DUP2 AND PUSH1 0x0 SWAP1 DUP2 MSTORE PUSH1 0x7 PUSH1 0x20 MSTORE PUSH1 0x40 SWAP1 KECCAK256 SLOAD ISZERO ISZERO JUMPDEST DUP1 ISZERO PUSH2 0xF70 JUMPI POP PUSH1 0x1 PUSH1 0x1 PUSH1 0xA0 SHL SUB DUP2 DUP2 AND PUSH1 0x0 SWAP1 DUP2 MSTORE PUSH1 0x7 PUSH1 0x20 MSTORE PUSH1 0x40 SWAP1 KECCAK256 PUSH1 0x2 ADD SLOAD AND ISZERO ISZERO JUMPDEST PUSH2 0xF8C JUMPI PUSH1 0x40 MLOAD PUSH3 0x461BCD PUSH1 0xE5 SHL DUP2 MSTORE PUSH1 0x4 ADD PUSH2 0x4C5 SWAP1 PUSH2 0x2D9C JUMP JUMPDEST DUP6 DUP6 DUP6 DUP6 CALLER DUP2 DUP5 EQ PUSH2 0xFB0 JUMPI PUSH1 0x40 MLOAD PUSH3 0x461BCD PUSH1 0xE5 SHL DUP2 MSTORE PUSH1 0x4 ADD PUSH2 0x4C5 SWAP1 PUSH2 0x30DB JUMP JUMPDEST PUSH1 0x0 JUMPDEST DUP5 DUP2 LT ISZERO PUSH2 0x10E5 JUMPI PUSH1 0x0 DUP7 DUP7 DUP4 DUP2 DUP2 LT PUSH2 0xFCF JUMPI PUSH2 0xFCF PUSH2 0x2E39 JUMP JUMPDEST SWAP1 POP PUSH1 0x20 MUL ADD PUSH1 0x20 DUP2 ADD SWAP1 PUSH2 0xFE4 SWAP2 SWAP1 PUSH2 0x2965 JUMP JUMPDEST PUSH1 0x1 PUSH1 0x1 PUSH1 0xA0 SHL SUB AND SUB PUSH2 0x100A JUMPI PUSH1 0x40 MLOAD PUSH3 0x461BCD PUSH1 0xE5 SHL DUP2 MSTORE PUSH1 0x4 ADD PUSH2 0x4C5 SWAP1 PUSH2 0x312D JUMP JUMPDEST DUP2 PUSH1 0x1 PUSH1 0x1 PUSH1 0xA0 SHL SUB AND DUP7 DUP7 DUP4 DUP2 DUP2 LT PUSH2 0x1026 JUMPI PUSH2 0x1026 PUSH2 0x2E39 JUMP JUMPDEST SWAP1 POP PUSH1 0x20 MUL ADD PUSH1 0x20 DUP2 ADD SWAP1 PUSH2 0x103B SWAP2 SWAP1 PUSH2 0x2965 JUMP JUMPDEST PUSH1 0x1 PUSH1 0x1 PUSH1 0xA0 SHL SUB AND SUB PUSH2 0x1061 JUMPI PUSH1 0x40 MLOAD PUSH3 0x461BCD PUSH1 0xE5 SHL DUP2 MSTORE PUSH1 0x4 ADD PUSH2 0x4C5 SWAP1 PUSH2 0x317C JUMP JUMPDEST PUSH1 0x4 SLOAD DUP5 DUP5 DUP4 DUP2 DUP2 LT PUSH2 0x1076 JUMPI PUSH2 0x1076 PUSH2 0x2E39 JUMP JUMPDEST SWAP1 POP PUSH1 0x20 MUL ADD CALLDATALOAD GT ISZERO PUSH2 0x109B JUMPI PUSH1 0x40 MLOAD PUSH3 0x461BCD PUSH1 0xE5 SHL DUP2 MSTORE PUSH1 0x4 ADD PUSH2 0x4C5 SWAP1 PUSH2 0x31C7 JUMP JUMPDEST DUP4 DUP4 DUP3 DUP2 DUP2 LT PUSH2 0x10AD JUMPI PUSH2 0x10AD PUSH2 0x2E39 JUMP JUMPDEST SWAP1 POP PUSH1 0x20 MUL ADD CALLDATALOAD PUSH1 0x0 SUB PUSH2 0x10D3 JUMPI PUSH1 0x40 MLOAD PUSH3 0x461BCD PUSH1 0xE5 SHL DUP2 MSTORE PUSH1 0x4 ADD PUSH2 0x4C5 SWAP1 PUSH2 0x3213 JUMP JUMPDEST DUP1 PUSH2 0x10DD DUP2 PUSH2 0x2E4F JUMP JUMPDEST SWAP2 POP POP PUSH2 0xFB3 JUMP JUMPDEST POP CALLER PUSH1 0x0 SWAP1 DUP2 MSTORE PUSH1 0x7 PUSH1 0x20 MSTORE PUSH1 0x40 SWAP1 KECCAK256 PUSH2 0x1100 SWAP1 DUP13 DUP13 PUSH2 0x288D JUMP JUMPDEST POP CALLER PUSH1 0x0 SWAP1 DUP2 MSTORE PUSH1 0x7 PUSH1 0x20 MSTORE PUSH1 0x40 SWAP1 KECCAK256 PUSH2 0x111E SWAP1 PUSH1 0x4 ADD DUP11 DUP11 PUSH2 0x28F0 JUMP JUMPDEST POP PUSH1 0x1 SWAP12 SWAP11 POP POP POP POP POP POP POP POP POP POP POP JUMP JUMPDEST CALLER PUSH1 0x0 DUP2 DUP2 MSTORE PUSH1 0x7 PUSH1 0x20 MSTORE PUSH1 0x40 DUP2 KECCAK256 PUSH1 0x3 ADD SLOAD SWAP1 SWAP2 SWAP1 ISZERO DUP1 ISZERO SWAP1 PUSH2 0x116B JUMPI POP PUSH1 0x1 PUSH1 0x1 PUSH1 0xA0 SHL SUB DUP2 AND PUSH1 0x0 SWAP1 DUP2 MSTORE PUSH1 0x7 PUSH1 0x20 MSTORE PUSH1 0x40 SWAP1 KECCAK256 SLOAD ISZERO ISZERO JUMPDEST DUP1 ISZERO PUSH2 0x1193 JUMPI POP PUSH1 0x1 PUSH1 0x1 PUSH1 0xA0 SHL SUB DUP2 DUP2 AND PUSH1 0x0 SWAP1 DUP2 MSTORE PUSH1 0x7 PUSH1 0x20 MSTORE PUSH1 0x40 SWAP1 KECCAK256 PUSH1 0x2 ADD SLOAD AND ISZERO ISZERO JUMPDEST PUSH2 0x11AF JUMPI PUSH1 0x40 MLOAD PUSH3 0x461BCD PUSH1 0xE5 SHL DUP2 MSTORE PUSH1 0x4 ADD PUSH2 0x4C5 SWAP1 PUSH2 0x2D9C JUMP JUMPDEST DUP3 PUSH1 0x2 SLOAD TIMESTAMP PUSH2 0x11BE SWAP2 SWAP1 PUSH2 0x2DE9 JUMP JUMPDEST DUP2 LT ISZERO PUSH2 0x11DD JUMPI PUSH1 0x40 MLOAD PUSH3 0x461BCD PUSH1 0xE5 SHL DUP2 MSTORE PUSH1 0x4 ADD PUSH2 0x4C5 SWAP1 PUSH2 0x324A JUMP JUMPDEST POP POP CALLER PUSH1 0x0 SWAP1 DUP2 MSTORE PUSH1 0x7 PUSH1 0x20 MSTORE PUSH1 0x40 SWAP1 KECCAK256 PUSH1 0x3 ADD DUP3 SWAP1 SSTORE POP SWAP1 JUMP JUMPDEST PUSH1 0x1 PUSH1 0x1 PUSH1 0xA0 SHL SUB DUP6 AND PUSH1 0x0 SWAP1 DUP2 MSTORE PUSH1 0x7 PUSH1 0x20 MSTORE PUSH1 0x40 SWAP1 KECCAK256 PUSH1 0x3 ADD SLOAD DUP6 SWAP1 ISZERO DUP1 ISZERO SWAP1 PUSH2 0x123B JUMPI POP PUSH1 0x1 PUSH1 0x1 PUSH1 0xA0 SHL SUB DUP2 AND PUSH1 0x0 SWAP1 DUP2 MSTORE PUSH1 0x7 PUSH1 0x20 MSTORE PUSH1 0x40 SWAP1 KECCAK256 SLOAD ISZERO ISZERO JUMPDEST DUP1 ISZERO PUSH2 0x1263 JUMPI POP PUSH1 0x1 PUSH1 0x1 PUSH1 0xA0 SHL SUB DUP2 DUP2 AND PUSH1 0x0 SWAP1 DUP2 MSTORE PUSH1 0x7 PUSH1 0x20 MSTORE PUSH1 0x40 SWAP1 KECCAK256 PUSH1 0x2 ADD SLOAD AND ISZERO ISZERO JUMPDEST PUSH2 0x127F JUMPI PUSH1 0x40 MLOAD PUSH3 0x461BCD PUSH1 0xE5 SHL DUP2 MSTORE PUSH1 0x4 ADD PUSH2 0x4C5 SWAP1 PUSH2 0x2D9C JUMP JUMPDEST PUSH1 0x1 PUSH1 0x1 PUSH1 0xA0 SHL SUB DUP7 AND PUSH1 0x0 SWAP1 DUP2 MSTORE PUSH1 0x7 PUSH1 0x20 MSTORE PUSH1 0x40 SWAP1 KECCAK256 PUSH1 0x3 ADD SLOAD DUP7 SWAP1 TIMESTAMP LT ISZERO PUSH2 0x12BC JUMPI PUSH1 0x40 MLOAD PUSH3 0x461BCD PUSH1 0xE5 SHL DUP2 MSTORE PUSH1 0x4 ADD PUSH2 0x4C5 SWAP1 PUSH2 0x2E68 JUMP JUMPDEST DUP7 PUSH1 0x0 DUP1 JUMPDEST PUSH1 0x1 PUSH1 0x1 PUSH1 0xA0 SHL SUB DUP4 AND PUSH1 0x0 SWAP1 DUP2 MSTORE PUSH1 0x7 PUSH1 0x20 MSTORE PUSH1 0x40 SWAP1 KECCAK256 SLOAD DUP2 LT ISZERO PUSH2 0x133D JUMPI PUSH1 0x1 PUSH1 0x1 PUSH1 0xA0 SHL SUB DUP4 AND PUSH1 0x0 SWAP1 DUP2 MSTORE PUSH1 0x7 PUSH1 0x20 MSTORE PUSH1 0x40 SWAP1 KECCAK256 DUP1 SLOAD DUP3 SWAP1 DUP2 LT PUSH2 0x130B JUMPI PUSH2 0x130B PUSH2 0x2E39 JUMP JUMPDEST PUSH1 0x0 SWAP2 DUP3 MSTORE PUSH1 0x20 SWAP1 SWAP2 KECCAK256 ADD SLOAD PUSH1 0x1 PUSH1 0x1 PUSH1 0xA0 SHL SUB AND CALLER SUB PUSH2 0x132B JUMPI PUSH1 0x1 SWAP2 POP JUMPDEST DUP1 PUSH2 0x1335 DUP2 PUSH2 0x2E4F JUMP JUMPDEST SWAP2 POP POP PUSH2 0x12C1 JUMP JUMPDEST POP PUSH1 0x1 PUSH1 0x1 PUSH1 0xA0 SHL SUB DUP1 DUP4 AND PUSH1 0x0 SWAP1 DUP2 MSTORE PUSH1 0x7 PUSH1 0x20 MSTORE PUSH1 0x40 SWAP1 KECCAK256 PUSH1 0x2 ADD SLOAD AND CALLER SUB PUSH2 0x1366 JUMPI POP PUSH1 0x1 JUMPDEST DUP1 PUSH2 0x1383 JUMPI PUSH1 0x40 MLOAD PUSH3 0x461BCD PUSH1 0xE5 SHL DUP2 MSTORE PUSH1 0x4 ADD PUSH2 0x4C5 SWAP1 PUSH2 0x2E96 JUMP JUMPDEST PUSH2 0x138B PUSH2 0x19D3 JUMP JUMPDEST PUSH1 0x0 JUMPDEST DUP8 DUP2 LT ISZERO PUSH2 0x13FC JUMPI PUSH2 0x13EA DUP11 DUP11 DUP11 DUP5 DUP2 DUP2 LT PUSH2 0x13AC JUMPI PUSH2 0x13AC PUSH2 0x2E39 JUMP JUMPDEST SWAP1 POP PUSH1 0x20 MUL ADD PUSH1 0x20 DUP2 ADD SWAP1 PUSH2 0x13C1 SWAP2 SWAP1 PUSH2 0x2965 JUMP JUMPDEST DUP10 DUP10 DUP6 DUP2 DUP2 LT PUSH2 0x13D3 JUMPI PUSH2 0x13D3 PUSH2 0x2E39 JUMP JUMPDEST SWAP1 POP PUSH1 0x20 MUL DUP2 ADD SWAP1 PUSH2 0x13E5 SWAP2 SWAP1 PUSH2 0x305A JUMP JUMPDEST PUSH2 0x2211 JUMP JUMPDEST DUP1 PUSH2 0x13F4 DUP2 PUSH2 0x2E4F JUMP JUMPDEST SWAP2 POP POP PUSH2 0x138E JUMP JUMPDEST POP PUSH2 0x1406 PUSH1 0x1 DUP1 SSTORE JUMP JUMPDEST POP POP POP POP POP POP POP POP POP JUMP JUMPDEST CALLER PUSH1 0x0 DUP2 DUP2 MSTORE PUSH1 0x7 PUSH1 0x20 MSTORE PUSH1 0x40 SWAP1 KECCAK256 PUSH1 0x3 ADD SLOAD ISZERO DUP1 ISZERO SWAP1 PUSH2 0x1449 JUMPI POP PUSH1 0x1 PUSH1 0x1 PUSH1 0xA0 SHL SUB DUP2 AND PUSH1 0x0 SWAP1 DUP2 MSTORE PUSH1 0x7 PUSH1 0x20 MSTORE PUSH1 0x40 SWAP1 KECCAK256 SLOAD ISZERO ISZERO JUMPDEST DUP1 ISZERO PUSH2 0x1471 JUMPI POP PUSH1 0x1 PUSH1 0x1 PUSH1 0xA0 SHL SUB DUP2 DUP2 AND PUSH1 0x0 SWAP1 DUP2 MSTORE PUSH1 0x7 PUSH1 0x20 MSTORE PUSH1 0x40 SWAP1 KECCAK256 PUSH1 0x2 ADD SLOAD AND ISZERO ISZERO JUMPDEST PUSH2 0x148D JUMPI PUSH1 0x40 MLOAD PUSH3 0x461BCD PUSH1 0xE5 SHL DUP2 MSTORE PUSH1 0x4 ADD PUSH2 0x4C5 SWAP1 PUSH2 0x2D9C JUMP JUMPDEST DUP2 PUSH1 0x1 PUSH1 0x1 PUSH1 0xA0 SHL SUB DUP2 AND PUSH2 0x14B4 JUMPI PUSH1 0x40 MLOAD PUSH3 0x461BCD PUSH1 0xE5 SHL DUP2 MSTORE PUSH1 0x4 ADD PUSH2 0x4C5 SWAP1 PUSH2 0x32A7 JUMP JUMPDEST POP POP CALLER PUSH1 0x0 SWAP1 DUP2 MSTORE PUSH1 0x7 PUSH1 0x20 MSTORE PUSH1 0x40 SWAP1 KECCAK256 PUSH1 0x2 ADD DUP1 SLOAD PUSH1 0x1 PUSH1 0x1 PUSH1 0xA0 SHL SUB NOT AND PUSH1 0x1 PUSH1 0x1 PUSH1 0xA0 SHL SUB SWAP3 SWAP1 SWAP3 AND SWAP2 SWAP1 SWAP2 OR SWAP1 SSTORE JUMP JUMPDEST PUSH1 0x1 PUSH1 0x1 PUSH1 0xA0 SHL SUB DUP6 AND PUSH1 0x0 SWAP1 DUP2 MSTORE PUSH1 0x7 PUSH1 0x20 MSTORE PUSH1 0x40 SWAP1 KECCAK256 PUSH1 0x3 ADD SLOAD DUP6 SWAP1 ISZERO DUP1 ISZERO SWAP1 PUSH2 0x152B JUMPI POP PUSH1 0x1 PUSH1 0x1 PUSH1 0xA0 SHL SUB DUP2 AND PUSH1 0x0 SWAP1 DUP2 MSTORE PUSH1 0x7 PUSH1 0x20 MSTORE PUSH1 0x40 SWAP1 KECCAK256 SLOAD ISZERO ISZERO JUMPDEST DUP1 ISZERO PUSH2 0x1553 JUMPI POP PUSH1 0x1 PUSH1 0x1 PUSH1 0xA0 SHL SUB DUP2 DUP2 AND PUSH1 0x0 SWAP1 DUP2 MSTORE PUSH1 0x7 PUSH1 0x20 MSTORE PUSH1 0x40 SWAP1 KECCAK256 PUSH1 0x2 ADD SLOAD AND ISZERO ISZERO JUMPDEST PUSH2 0x156F JUMPI PUSH1 0x40 MLOAD PUSH3 0x461BCD PUSH1 0xE5 SHL DUP2 MSTORE PUSH1 0x4 ADD PUSH2 0x4C5 SWAP1 PUSH2 0x2D9C JUMP JUMPDEST PUSH1 0x5 SLOAD PUSH1 0x1 PUSH1 0x1 PUSH1 0xA0 SHL SUB DUP8 AND PUSH1 0x0 SWAP1 DUP2 MSTORE PUSH1 0x7 PUSH1 0x20 MSTORE PUSH1 0x40 SWAP1 KECCAK256 PUSH1 0x3 ADD SLOAD DUP8 SWAP2 PUSH2 0x1599 SWAP2 PUSH2 0x2DE9 JUMP JUMPDEST TIMESTAMP LT ISZERO PUSH2 0x15B8 JUMPI PUSH1 0x40 MLOAD PUSH3 0x461BCD PUSH1 0xE5 SHL DUP2 MSTORE PUSH1 0x4 ADD PUSH2 0x4C5 SWAP1 PUSH2 0x2E02 JUMP JUMPDEST PUSH2 0x15C0 PUSH2 0x19D3 JUMP JUMPDEST PUSH1 0x0 JUMPDEST DUP6 DUP2 LT ISZERO PUSH2 0xEFA JUMPI PUSH2 0x161F DUP9 DUP9 DUP9 DUP5 DUP2 DUP2 LT PUSH2 0x15E1 JUMPI PUSH2 0x15E1 PUSH2 0x2E39 JUMP JUMPDEST SWAP1 POP PUSH1 0x20 MUL ADD PUSH1 0x20 DUP2 ADD SWAP1 PUSH2 0x15F6 SWAP2 SWAP1 PUSH2 0x2965 JUMP JUMPDEST DUP8 DUP8 DUP6 DUP2 DUP2 LT PUSH2 0x1608 JUMPI PUSH2 0x1608 PUSH2 0x2E39 JUMP JUMPDEST SWAP1 POP PUSH1 0x20 MUL DUP2 ADD SWAP1 PUSH2 0x161A SWAP2 SWAP1 PUSH2 0x305A JUMP JUMPDEST PUSH2 0x22DA JUMP JUMPDEST DUP1 PUSH2 0x1629 DUP2 PUSH2 0x2E4F JUMP JUMPDEST SWAP2 POP POP PUSH2 0x15C3 JUMP JUMPDEST PUSH1 0x1 PUSH1 0x1 PUSH1 0xA0 SHL SUB DUP4 AND PUSH1 0x0 SWAP1 DUP2 MSTORE PUSH1 0x7 PUSH1 0x20 MSTORE PUSH1 0x40 SWAP1 KECCAK256 PUSH1 0x3 ADD SLOAD DUP4 SWAP1 ISZERO DUP1 ISZERO SWAP1 PUSH2 0x1674 JUMPI POP PUSH1 0x1 PUSH1 0x1 PUSH1 0xA0 SHL SUB DUP2 AND PUSH1 0x0 SWAP1 DUP2 MSTORE PUSH1 0x7 PUSH1 0x20 MSTORE PUSH1 0x40 SWAP1 KECCAK256 SLOAD ISZERO ISZERO JUMPDEST DUP1 ISZERO PUSH2 0x169C JUMPI POP PUSH1 0x1 PUSH1 0x1 PUSH1 0xA0 SHL SUB DUP2 DUP2 AND PUSH1 0x0 SWAP1 DUP2 MSTORE PUSH1 0x7 PUSH1 0x20 MSTORE PUSH1 0x40 SWAP1 KECCAK256 PUSH1 0x2 ADD SLOAD AND ISZERO ISZERO JUMPDEST PUSH2 0x16B8 JUMPI PUSH1 0x40 MLOAD PUSH3 0x461BCD PUSH1 0xE5 SHL DUP2 MSTORE PUSH1 0x4 ADD PUSH2 0x4C5 SWAP1 PUSH2 0x2D9C JUMP JUMPDEST PUSH1 0x5 SLOAD PUSH1 0x1 PUSH1 0x1 PUSH1 0xA0 SHL SUB DUP6 AND PUSH1 0x0 SWAP1 DUP2 MSTORE PUSH1 0x7 PUSH1 0x20 MSTORE PUSH1 0x40 SWAP1 KECCAK256 PUSH1 0x3 ADD SLOAD DUP6 SWAP2 PUSH2 0x16E2 SWAP2 PUSH2 0x2DE9 JUMP JUMPDEST TIMESTAMP LT ISZERO PUSH2 0x1701 JUMPI PUSH1 0x40 MLOAD PUSH3 0x461BCD PUSH1 0xE5 SHL DUP2 MSTORE PUSH1 0x4 ADD PUSH2 0x4C5 SWAP1 PUSH2 0x2E02 JUMP JUMPDEST PUSH2 0x1709 PUSH2 0x19D3 JUMP JUMPDEST PUSH1 0x0 JUMPDEST DUP4 DUP2 LT ISZERO PUSH2 0x1756 JUMPI PUSH2 0x1744 DUP7 DUP7 DUP7 DUP5 DUP2 DUP2 LT PUSH2 0x172A JUMPI PUSH2 0x172A PUSH2 0x2E39 JUMP JUMPDEST SWAP1 POP PUSH1 0x20 MUL ADD PUSH1 0x20 DUP2 ADD SWAP1 PUSH2 0x173F SWAP2 SWAP1 PUSH2 0x2965 JUMP JUMPDEST PUSH2 0x2391 JUMP JUMPDEST DUP1 PUSH2 0x174E DUP2 PUSH2 0x2E4F JUMP JUMPDEST SWAP2 POP POP PUSH2 0x170C JUMP JUMPDEST POP PUSH2 0x1760 PUSH1 0x1 DUP1 SSTORE JUMP JUMPDEST POP POP POP POP POP JUMP JUMPDEST PUSH1 0x1 PUSH1 0x1 PUSH1 0xA0 SHL SUB DUP2 AND PUSH1 0x0 SWAP1 DUP2 MSTORE PUSH1 0x7 PUSH1 0x20 SWAP1 DUP2 MSTORE PUSH1 0x40 SWAP2 DUP3 SWAP1 KECCAK256 PUSH1 0x4 ADD DUP1 SLOAD DUP4 MLOAD DUP2 DUP5 MUL DUP2 ADD DUP5 ADD SWAP1 SWAP5 MSTORE DUP1 DUP5 MSTORE PUSH1 0x60 SWAP4 SWAP3 DUP4 ADD DUP3 DUP3 DUP1 ISZERO PUSH2 0x432 JUMPI PUSH1 0x20 MUL DUP3 ADD SWAP2 SWAP1 PUSH1 0x0 MSTORE PUSH1 0x20 PUSH1 0x0 KECCAK256 SWAP1 JUMPDEST DUP2 SLOAD DUP2 MSTORE PUSH1 0x20 ADD SWAP1 PUSH1 0x1 ADD SWAP1 DUP1 DUP4 GT PUSH2 0x17B6 JUMPI POP POP POP POP POP SWAP1 POP SWAP2 SWAP1 POP JUMP JUMPDEST PUSH2 0x17DD PUSH2 0x1C51 JUMP JUMPDEST PUSH1 0x1 PUSH1 0x1 PUSH1 0xA0 SHL SUB DUP2 AND PUSH2 0x1842 JUMPI PUSH1 0x40 MLOAD PUSH3 0x461BCD PUSH1 0xE5 SHL DUP2 MSTORE PUSH1 0x20 PUSH1 0x4 DUP3 ADD MSTORE PUSH1 0x26 PUSH1 0x24 DUP3 ADD MSTORE PUSH32 0x4F776E61626C653A206E6577206F776E657220697320746865207A65726F2061 PUSH1 0x44 DUP3 ADD MSTORE PUSH6 0x646472657373 PUSH1 0xD0 SHL PUSH1 0x64 DUP3 ADD MSTORE PUSH1 0x84 ADD PUSH2 0x4C5 JUMP JUMPDEST PUSH2 0x184B DUP2 PUSH2 0x1CAB JUMP JUMPDEST POP JUMP JUMPDEST PUSH1 0x40 MLOAD PUSH4 0x5137510F PUSH1 0xE1 SHL DUP2 MSTORE ADDRESS SWAP1 PUSH4 0xA26EA21E SWAP1 PUSH2 0x1875 SWAP1 DUP15 SWAP1 DUP15 SWAP1 DUP15 SWAP1 PUSH1 0x4 ADD PUSH2 0x2ED9 JUMP JUMPDEST PUSH1 0x0 PUSH1 0x40 MLOAD DUP1 DUP4 SUB DUP2 PUSH1 0x0 DUP8 DUP1 EXTCODESIZE ISZERO DUP1 ISZERO PUSH2 0x188F JUMPI PUSH1 0x0 DUP1 REVERT JUMPDEST POP GAS CALL ISZERO DUP1 ISZERO PUSH2 0x18A3 JUMPI RETURNDATASIZE PUSH1 0x0 DUP1 RETURNDATACOPY RETURNDATASIZE PUSH1 0x0 REVERT JUMPDEST POP POP PUSH1 0x40 MLOAD PUSH4 0x5645E3BF PUSH1 0xE1 SHL DUP2 MSTORE ADDRESS SWAP3 POP PUSH4 0xAC8BC77E SWAP2 POP PUSH2 0x18D2 SWAP1 DUP15 SWAP1 DUP13 SWAP1 DUP13 SWAP1 DUP11 SWAP1 DUP11 SWAP1 PUSH1 0x4 ADD PUSH2 0x2F67 JUMP JUMPDEST PUSH1 0x0 PUSH1 0x40 MLOAD DUP1 DUP4 SUB DUP2 PUSH1 0x0 DUP8 DUP1 EXTCODESIZE ISZERO DUP1 ISZERO PUSH2 0x18EC JUMPI PUSH1 0x0 DUP1 REVERT JUMPDEST POP GAS CALL ISZERO DUP1 ISZERO PUSH2 0x1900 JUMPI RETURNDATASIZE PUSH1 0x0 DUP1 RETURNDATACOPY RETURNDATASIZE PUSH1 0x0 REVERT JUMPDEST POP POP POP POP PUSH1 0x0 JUMPDEST DUP6 DUP2 LT ISZERO PUSH2 0x19C5 JUMPI ADDRESS PUSH4 0x7CE752C6 DUP14 DUP10 DUP10 DUP6 DUP2 DUP2 LT PUSH2 0x1928 JUMPI PUSH2 0x1928 PUSH2 0x2E39 JUMP JUMPDEST SWAP1 POP PUSH1 0x20 MUL ADD PUSH1 0x20 DUP2 ADD SWAP1 PUSH2 0x193D SWAP2 SWAP1 PUSH2 0x2965 JUMP JUMPDEST DUP7 DUP7 DUP7 DUP2 DUP2 LT PUSH2 0x194F JUMPI PUSH2 0x194F PUSH2 0x2E39 JUMP JUMPDEST SWAP1 POP PUSH1 0x20 MUL DUP2 ADD SWAP1 PUSH2 0x1961 SWAP2 SWAP1 PUSH2 0x305A JUMP JUMPDEST PUSH1 0x40 MLOAD DUP6 PUSH4 0xFFFFFFFF AND PUSH1 0xE0 SHL DUP2 MSTORE PUSH1 0x4 ADD PUSH2 0x1980 SWAP5 SWAP4 SWAP3 SWAP2 SWAP1 PUSH2 0x30A4 JUMP JUMPDEST PUSH1 0x0 PUSH1 0x40 MLOAD DUP1 DUP4 SUB DUP2 PUSH1 0x0 DUP8 DUP1 EXTCODESIZE ISZERO DUP1 ISZERO PUSH2 0x199A JUMPI PUSH1 0x0 DUP1 REVERT JUMPDEST POP GAS CALL ISZERO DUP1 ISZERO PUSH2 0x19AE JUMPI RETURNDATASIZE PUSH1 0x0 DUP1 RETURNDATACOPY RETURNDATASIZE PUSH1 0x0 REVERT JUMPDEST POP POP POP POP DUP1 DUP1 PUSH2 0x19BD SWAP1 PUSH2 0x2E4F JUMP JUMPDEST SWAP2 POP POP PUSH2 0x1907 JUMP JUMPDEST POP POP POP POP POP POP POP POP POP POP POP POP JUMP JUMPDEST PUSH1 0x2 PUSH1 0x1 SLOAD SUB PUSH2 0x1A25 JUMPI PUSH1 0x40 MLOAD PUSH3 0x461BCD PUSH1 0xE5 SHL DUP2 MSTORE PUSH1 0x20 PUSH1 0x4 DUP3 ADD MSTORE PUSH1 0x1F PUSH1 0x24 DUP3 ADD MSTORE PUSH32 0x5265656E7472616E637947756172643A207265656E7472616E742063616C6C00 PUSH1 0x44 DUP3 ADD MSTORE PUSH1 0x64 ADD PUSH2 0x4C5 JUMP JUMPDEST PUSH1 0x2 PUSH1 0x1 SSTORE JUMP JUMPDEST PUSH1 0x40 MLOAD PUSH3 0x7EEAC7 PUSH1 0xE1 SHL DUP2 MSTORE PUSH1 0x1 PUSH1 0x1 PUSH1 0xA0 SHL SUB DUP5 DUP2 AND PUSH1 0x4 DUP4 ADD MSTORE PUSH1 0x24 DUP3 ADD DUP4 SWAP1 MSTORE PUSH1 0x0 SWAP2 SWAP1 DUP5 AND SWAP1 PUSH3 0xFDD58E SWAP1 PUSH1 0x44 ADD PUSH1 0x20 PUSH1 0x40 MLOAD DUP1 DUP4 SUB DUP2 DUP7 GAS STATICCALL ISZERO DUP1 ISZERO PUSH2 0x1A7B JUMPI RETURNDATASIZE PUSH1 0x0 DUP1 RETURNDATACOPY RETURNDATASIZE PUSH1 0x0 REVERT JUMPDEST POP POP POP POP PUSH1 0x40 MLOAD RETURNDATASIZE PUSH1 0x1F NOT PUSH1 0x1F DUP3 ADD AND DUP3 ADD DUP1 PUSH1 0x40 MSTORE POP DUP2 ADD SWAP1 PUSH2 0x1A9F SWAP2 SWAP1 PUSH2 0x3304 JUMP JUMPDEST SWAP1 POP PUSH1 0x0 DUP1 JUMPDEST PUSH1 0x1 PUSH1 0x1 PUSH1 0xA0 SHL SUB DUP7 AND PUSH1 0x0 SWAP1 DUP2 MSTORE PUSH1 0x7 PUSH1 0x20 MSTORE PUSH1 0x40 SWAP1 KECCAK256 SLOAD DUP2 LT ISZERO PUSH2 0x569 JUMPI PUSH1 0x1 PUSH1 0x1 PUSH1 0xA0 SHL SUB DUP7 AND PUSH1 0x0 SWAP1 DUP2 MSTORE PUSH1 0x7 PUSH1 0x20 MSTORE PUSH1 0x40 SWAP1 KECCAK256 PUSH1 0x4 ADD DUP1 SLOAD PUSH2 0x1B27 SWAP2 SWAP1 DUP4 SWAP1 DUP2 LT PUSH2 0x1AF7 JUMPI PUSH2 0x1AF7 PUSH2 0x2E39 JUMP JUMPDEST PUSH1 0x0 SWAP2 DUP3 MSTORE PUSH1 0x20 DUP1 DUP4 KECCAK256 SWAP1 SWAP2 ADD SLOAD PUSH1 0x1 PUSH1 0x1 PUSH1 0xA0 SHL SUB DUP11 AND DUP4 MSTORE PUSH1 0x7 SWAP1 SWAP2 MSTORE PUSH1 0x40 SWAP1 SWAP2 KECCAK256 PUSH1 0x1 ADD SLOAD DUP6 SWAP2 SWAP1 PUSH2 0x2511 JUMP JUMPDEST PUSH1 0x1 PUSH1 0x1 PUSH1 0xA0 SHL SUB DUP8 AND PUSH1 0x0 SWAP1 DUP2 MSTORE PUSH1 0x7 PUSH1 0x20 MSTORE PUSH1 0x40 SWAP1 KECCAK256 SLOAD SWAP1 SWAP3 POP PUSH2 0x1B4F SWAP1 PUSH1 0x1 SWAP1 PUSH2 0x331D JUMP JUMPDEST DUP2 SUB PUSH2 0x1BC7 JUMPI PUSH1 0x40 MLOAD PUSH3 0x7EEAC7 PUSH1 0xE1 SHL DUP2 MSTORE PUSH1 0x1 PUSH1 0x1 PUSH1 0xA0 SHL SUB DUP8 DUP2 AND PUSH1 0x4 DUP4 ADD MSTORE PUSH1 0x24 DUP3 ADD DUP7 SWAP1 MSTORE DUP7 AND SWAP1 PUSH3 0xFDD58E SWAP1 PUSH1 0x44 ADD PUSH1 0x20 PUSH1 0x40 MLOAD DUP1 DUP4 SUB DUP2 DUP7 GAS STATICCALL ISZERO DUP1 ISZERO PUSH2 0x1BA0 JUMPI RETURNDATASIZE PUSH1 0x0 DUP1 RETURNDATACOPY RETURNDATASIZE PUSH1 0x0 REVERT JUMPDEST POP POP POP POP PUSH1 0x40 MLOAD RETURNDATASIZE PUSH1 0x1F NOT PUSH1 0x1F DUP3 ADD AND DUP3 ADD DUP1 PUSH1 0x40 MSTORE POP DUP2 ADD SWAP1 PUSH2 0x1BC4 SWAP2 SWAP1 PUSH2 0x3304 JUMP JUMPDEST SWAP2 POP JUMPDEST PUSH1 0x6 SLOAD PUSH1 0x40 DUP1 MLOAD PUSH1 0x20 DUP2 ADD DUP3 MSTORE PUSH1 0x0 DUP2 MSTORE SWAP1 MLOAD PUSH4 0x79212195 PUSH1 0xE1 SHL DUP2 MSTORE PUSH1 0x1 PUSH1 0x1 PUSH1 0xA0 SHL SUB DUP9 DUP2 AND SWAP4 PUSH4 0xF242432A SWAP4 PUSH2 0x1C0C SWAP4 DUP13 SWAP4 SWAP1 SWAP3 AND SWAP2 DUP11 SWAP2 DUP10 SWAP2 PUSH1 0x4 ADD PUSH2 0x3380 JUMP JUMPDEST PUSH1 0x0 PUSH1 0x40 MLOAD DUP1 DUP4 SUB DUP2 PUSH1 0x0 DUP8 DUP1 EXTCODESIZE ISZERO DUP1 ISZERO PUSH2 0x1C26 JUMPI PUSH1 0x0 DUP1 REVERT JUMPDEST POP GAS CALL ISZERO DUP1 ISZERO PUSH2 0x1C3A JUMPI RETURNDATASIZE PUSH1 0x0 DUP1 RETURNDATACOPY RETURNDATASIZE PUSH1 0x0 REVERT JUMPDEST POP POP POP POP DUP1 DUP1 PUSH2 0x1C49 SWAP1 PUSH2 0x2E4F JUMP JUMPDEST SWAP2 POP POP PUSH2 0x1AA5 JUMP JUMPDEST PUSH1 0x0 SLOAD PUSH1 0x1 PUSH1 0x1 PUSH1 0xA0 SHL SUB AND CALLER EQ PUSH2 0x5AD JUMPI PUSH1 0x40 MLOAD PUSH3 0x461BCD PUSH1 0xE5 SHL DUP2 MSTORE PUSH1 0x20 PUSH1 0x4 DUP3 ADD DUP2 SWAP1 MSTORE PUSH1 0x24 DUP3 ADD MSTORE PUSH32 0x4F776E61626C653A2063616C6C6572206973206E6F7420746865206F776E6572 PUSH1 0x44 DUP3 ADD MSTORE PUSH1 0x64 ADD PUSH2 0x4C5 JUMP JUMPDEST PUSH1 0x0 DUP1 SLOAD PUSH1 0x1 PUSH1 0x1 PUSH1 0xA0 SHL SUB DUP4 DUP2 AND PUSH1 0x1 PUSH1 0x1 PUSH1 0xA0 SHL SUB NOT DUP4 AND DUP2 OR DUP5 SSTORE PUSH1 0x40 MLOAD SWAP2 SWAP1 SWAP3 AND SWAP3 DUP4 SWAP2 PUSH32 0x8BE0079C531659141344CD1FD0A4F28419497F9722A3DAAFE3B4186F6B6457E0 SWAP2 SWAP1 LOG3 POP POP JUMP JUMPDEST PUSH1 0x40 MLOAD PUSH3 0x7EEAC7 PUSH1 0xE1 SHL DUP2 MSTORE PUSH1 0x1 PUSH1 0x1 PUSH1 0xA0 SHL SUB DUP5 DUP2 AND PUSH1 0x4 DUP4 ADD MSTORE PUSH1 0x24 DUP3 ADD DUP4 SWAP1 MSTORE PUSH1 0x0 SWAP2 SWAP1 DUP5 AND SWAP1 PUSH3 0xFDD58E SWAP1 PUSH1 0x44 ADD PUSH1 0x20 PUSH1 0x40 MLOAD DUP1 DUP4 SUB DUP2 DUP7 GAS STATICCALL ISZERO DUP1 ISZERO PUSH2 0x1D4A JUMPI RETURNDATASIZE PUSH1 0x0 DUP1 RETURNDATACOPY RETURNDATASIZE PUSH1 0x0 REVERT JUMPDEST POP POP POP POP PUSH1 0x40 MLOAD RETURNDATASIZE PUSH1 0x1F NOT PUSH1 0x1F DUP3 ADD AND DUP3 ADD DUP1 PUSH1 0x40 MSTORE POP DUP2 ADD SWAP1 PUSH2 0x1D6E SWAP2 SWAP1 PUSH2 0x3304 JUMP JUMPDEST SWAP1 POP PUSH1 0x0 DUP1 JUMPDEST PUSH1 0x1 PUSH1 0x1 PUSH1 0xA0 SHL SUB DUP7 AND PUSH1 0x0 SWAP1 DUP2 MSTORE PUSH1 0x7 PUSH1 0x20 MSTORE PUSH1 0x40 SWAP1 KECCAK256 SLOAD DUP2 LT ISZERO PUSH2 0x569 JUMPI PUSH1 0x1 PUSH1 0x1 PUSH1 0xA0 SHL SUB DUP7 AND PUSH1 0x0 SWAP1 DUP2 MSTORE PUSH1 0x7 PUSH1 0x20 MSTORE PUSH1 0x40 SWAP1 KECCAK256 PUSH1 0x4 ADD DUP1 SLOAD PUSH2 0x1DC6 SWAP2 SWAP1 DUP4 SWAP1 DUP2 LT PUSH2 0x1AF7 JUMPI PUSH2 0x1AF7 PUSH2 0x2E39 JUMP JUMPDEST PUSH1 0x1 PUSH1 0x1 PUSH1 0xA0 SHL SUB DUP8 AND PUSH1 0x0 SWAP1 DUP2 MSTORE PUSH1 0x7 PUSH1 0x20 MSTORE PUSH1 0x40 SWAP1 KECCAK256 SLOAD SWAP1 SWAP3 POP PUSH2 0x1DEE SWAP1 PUSH1 0x1 SWAP1 PUSH2 0x331D JUMP JUMPDEST DUP2 SUB PUSH2 0x1E66 JUMPI PUSH1 0x40 MLOAD PUSH3 0x7EEAC7 PUSH1 0xE1 SHL DUP2 MSTORE PUSH1 0x1 PUSH1 0x1 PUSH1 0xA0 SHL SUB DUP8 DUP2 AND PUSH1 0x4 DUP4 ADD MSTORE PUSH1 0x24 DUP3 ADD DUP7 SWAP1 MSTORE DUP7 AND SWAP1 PUSH3 0xFDD58E SWAP1 PUSH1 0x44 ADD PUSH1 0x20 PUSH1 0x40 MLOAD DUP1 DUP4 SUB DUP2 DUP7 GAS STATICCALL ISZERO DUP1 ISZERO PUSH2 0x1E3F JUMPI RETURNDATASIZE PUSH1 0x0 DUP1 RETURNDATACOPY RETURNDATASIZE PUSH1 0x0 REVERT JUMPDEST POP POP POP POP PUSH1 0x40 MLOAD RETURNDATASIZE PUSH1 0x1F NOT PUSH1 0x1F DUP3 ADD AND DUP3 ADD DUP1 PUSH1 0x40 MSTORE POP DUP2 ADD SWAP1 PUSH2 0x1E63 SWAP2 SWAP1 PUSH2 0x3304 JUMP JUMPDEST SWAP2 POP JUMPDEST PUSH1 0x1 PUSH1 0x1 PUSH1 0xA0 SHL SUB DUP7 DUP2 AND PUSH1 0x0 SWAP1 DUP2 MSTORE PUSH1 0x7 PUSH1 0x20 MSTORE PUSH1 0x40 SWAP1 KECCAK256 DUP1 SLOAD SWAP2 DUP8 AND SWAP2 PUSH4 0xF242432A SWAP2 DUP10 SWAP2 DUP6 SWAP1 DUP2 LT PUSH2 0x1E9D JUMPI PUSH2 0x1E9D PUSH2 0x2E39 JUMP JUMPDEST PUSH1 0x0 SWAP2 DUP3 MSTORE PUSH1 0x20 DUP1 DUP4 KECCAK256 SWAP1 SWAP2 ADD SLOAD PUSH1 0x40 DUP1 MLOAD SWAP3 DUP4 ADD DUP2 MSTORE SWAP3 DUP3 MSTORE SWAP2 MLOAD PUSH1 0x1 PUSH1 0x1 PUSH1 0xE0 SHL SUB NOT PUSH1 0xE0 DUP7 SWAP1 SHL AND DUP2 MSTORE PUSH2 0x1EE6 SWAP4 SWAP3 PUSH1 0x1 PUSH1 0x1 PUSH1 0xA0 SHL SUB AND SWAP2 DUP11 SWAP2 DUP10 SWAP2 SWAP1 PUSH1 0x4 ADD PUSH2 0x3380 JUMP JUMPDEST PUSH1 0x0 PUSH1 0x40 MLOAD DUP1 DUP4 SUB DUP2 PUSH1 0x0 DUP8 DUP1 EXTCODESIZE ISZERO DUP1 ISZERO PUSH2 0x1F00 JUMPI PUSH1 0x0 DUP1 REVERT JUMPDEST POP GAS CALL ISZERO DUP1 ISZERO PUSH2 0x1F14 JUMPI RETURNDATASIZE PUSH1 0x0 DUP1 RETURNDATACOPY RETURNDATASIZE PUSH1 0x0 REVERT JUMPDEST POP POP POP POP DUP1 DUP1 PUSH2 0x1F23 SWAP1 PUSH2 0x2E4F JUMP JUMPDEST SWAP2 POP POP PUSH2 0x1D74 JUMP JUMPDEST PUSH1 0x40 MLOAD PUSH4 0x70A08231 PUSH1 0xE0 SHL DUP2 MSTORE PUSH1 0x1 PUSH1 0x1 PUSH1 0xA0 SHL SUB DUP4 DUP2 AND PUSH1 0x4 DUP4 ADD MSTORE PUSH1 0x0 SWAP2 SWAP1 DUP4 AND SWAP1 PUSH4 0x70A08231 SWAP1 PUSH1 0x24 ADD PUSH1 0x20 PUSH1 0x40 MLOAD DUP1 DUP4 SUB DUP2 DUP7 GAS STATICCALL ISZERO DUP1 ISZERO PUSH2 0x1F75 JUMPI RETURNDATASIZE PUSH1 0x0 DUP1 RETURNDATACOPY RETURNDATASIZE PUSH1 0x0 REVERT JUMPDEST POP POP POP POP PUSH1 0x40 MLOAD RETURNDATASIZE PUSH1 0x1F NOT PUSH1 0x1F DUP3 ADD AND DUP3 ADD DUP1 PUSH1 0x40 MSTORE POP DUP2 ADD SWAP1 PUSH2 0x1F99 SWAP2 SWAP1 PUSH2 0x3304 JUMP JUMPDEST SWAP1 POP PUSH1 0x0 DUP2 PUSH1 0x0 SUB PUSH2 0x1FBD JUMPI PUSH1 0x40 MLOAD PUSH3 0x461BCD PUSH1 0xE5 SHL DUP2 MSTORE PUSH1 0x4 ADD PUSH2 0x4C5 SWAP1 PUSH2 0x33BA JUMP JUMPDEST PUSH1 0x40 MLOAD PUSH4 0x6EB1769F PUSH1 0xE1 SHL DUP2 MSTORE PUSH1 0x1 PUSH1 0x1 PUSH1 0xA0 SHL SUB DUP6 DUP2 AND PUSH1 0x4 DUP4 ADD MSTORE ADDRESS PUSH1 0x24 DUP4 ADD MSTORE PUSH1 0x0 SWAP2 SWAP1 DUP6 AND SWAP1 PUSH4 0xDD62ED3E SWAP1 PUSH1 0x44 ADD PUSH1 0x20 PUSH1 0x40 MLOAD DUP1 DUP4 SUB DUP2 DUP7 GAS STATICCALL ISZERO DUP1 ISZERO PUSH2 0x200D JUMPI RETURNDATASIZE PUSH1 0x0 DUP1 RETURNDATACOPY RETURNDATASIZE PUSH1 0x0 REVERT JUMPDEST POP POP POP POP PUSH1 0x40 MLOAD RETURNDATASIZE PUSH1 0x1F NOT PUSH1 0x1F DUP3 ADD AND DUP3 ADD DUP1 PUSH1 0x40 MSTORE POP DUP2 ADD SWAP1 PUSH2 0x2031 SWAP2 SWAP1 PUSH2 0x3304 JUMP JUMPDEST SWAP1 POP DUP1 PUSH1 0x0 SUB PUSH2 0x2083 JUMPI PUSH1 0x40 MLOAD PUSH3 0x461BCD PUSH1 0xE5 SHL DUP2 MSTORE PUSH1 0x20 PUSH1 0x4 DUP3 ADD MSTORE PUSH1 0x1C PUSH1 0x24 DUP3 ADD MSTORE PUSH32 0x57696C6C65723A204552433230207A65726F20616C6C6F77616E636500000000 PUSH1 0x44 DUP3 ADD MSTORE PUSH1 0x64 ADD PUSH2 0x4C5 JUMP JUMPDEST DUP3 DUP2 LT ISZERO PUSH2 0x208F JUMPI DUP1 SWAP3 POP JUMPDEST PUSH1 0x0 JUMPDEST PUSH1 0x1 PUSH1 0x1 PUSH1 0xA0 SHL SUB DUP7 AND PUSH1 0x0 SWAP1 DUP2 MSTORE PUSH1 0x7 PUSH1 0x20 MSTORE PUSH1 0x40 SWAP1 KECCAK256 SLOAD DUP2 LT ISZERO PUSH2 0x569 JUMPI PUSH1 0x1 PUSH1 0x1 PUSH1 0xA0 SHL SUB DUP7 AND PUSH1 0x0 SWAP1 DUP2 MSTORE PUSH1 0x7 PUSH1 0x20 MSTORE PUSH1 0x40 SWAP1 KECCAK256 PUSH1 0x4 ADD DUP1 SLOAD PUSH2 0x2114 SWAP2 SWAP1 DUP4 SWAP1 DUP2 LT PUSH2 0x20E4 JUMPI PUSH2 0x20E4 PUSH2 0x2E39 JUMP JUMPDEST PUSH1 0x0 SWAP2 DUP3 MSTORE PUSH1 0x20 DUP1 DUP4 KECCAK256 SWAP1 SWAP2 ADD SLOAD PUSH1 0x1 PUSH1 0x1 PUSH1 0xA0 SHL SUB DUP11 AND DUP4 MSTORE PUSH1 0x7 SWAP1 SWAP2 MSTORE PUSH1 0x40 SWAP1 SWAP2 KECCAK256 PUSH1 0x1 ADD SLOAD DUP7 SWAP2 SWAP1 PUSH2 0x2511 JUMP JUMPDEST PUSH1 0x1 PUSH1 0x1 PUSH1 0xA0 SHL SUB DUP8 AND PUSH1 0x0 SWAP1 DUP2 MSTORE PUSH1 0x7 PUSH1 0x20 MSTORE PUSH1 0x40 SWAP1 KECCAK256 SLOAD SWAP1 SWAP4 POP PUSH2 0x213C SWAP1 PUSH1 0x1 SWAP1 PUSH2 0x331D JUMP JUMPDEST DUP2 SUB PUSH2 0x21AF JUMPI PUSH1 0x40 MLOAD PUSH4 0x70A08231 PUSH1 0xE0 SHL DUP2 MSTORE PUSH1 0x1 PUSH1 0x1 PUSH1 0xA0 SHL SUB DUP8 DUP2 AND PUSH1 0x4 DUP4 ADD MSTORE DUP7 AND SWAP1 PUSH4 0x70A08231 SWAP1 PUSH1 0x24 ADD PUSH1 0x20 PUSH1 0x40 MLOAD DUP1 DUP4 SUB DUP2 DUP7 GAS STATICCALL ISZERO DUP1 ISZERO PUSH2 0x2188 JUMPI RETURNDATASIZE PUSH1 0x0 DUP1 RETURNDATACOPY RETURNDATASIZE PUSH1 0x0 REVERT JUMPDEST POP POP POP POP PUSH1 0x40 MLOAD RETURNDATASIZE PUSH1 0x1F NOT PUSH1 0x1F DUP3 ADD AND DUP3 ADD DUP1 PUSH1 0x40 MSTORE POP DUP2 ADD SWAP1 PUSH2 0x21AC SWAP2 SWAP1 PUSH2 0x3304 JUMP JUMPDEST SWAP3 POP JUMPDEST PUSH1 0x1 PUSH1 0x1 PUSH1 0xA0 SHL SUB DUP7 AND PUSH1 0x0 SWAP1 DUP2 MSTORE PUSH1 0x7 PUSH1 0x20 MSTORE PUSH1 0x40 SWAP1 KECCAK256 DUP1 SLOAD PUSH2 0x21FF SWAP2 DUP9 SWAP2 DUP5 SWAP1 DUP2 LT PUSH2 0x21DF JUMPI PUSH2 0x21DF PUSH2 0x2E39 JUMP JUMPDEST PUSH1 0x0 SWAP2 DUP3 MSTORE PUSH1 0x20 SWAP1 SWAP2 KECCAK256 ADD SLOAD PUSH1 0x1 PUSH1 0x1 PUSH1 0xA0 SHL SUB DUP9 DUP2 AND SWAP3 SWAP2 AND DUP7 PUSH2 0x25C6 JUMP JUMPDEST DUP1 PUSH2 0x2209 DUP2 PUSH2 0x2E4F JUMP JUMPDEST SWAP2 POP POP PUSH2 0x2092 JUMP JUMPDEST PUSH1 0x0 JUMPDEST DUP2 DUP2 LT ISZERO PUSH2 0x1760 JUMPI PUSH1 0x1 PUSH1 0x1 PUSH1 0xA0 SHL SUB DUP6 DUP2 AND PUSH1 0x0 SWAP1 DUP2 MSTORE PUSH1 0x7 PUSH1 0x20 MSTORE PUSH1 0x40 SWAP1 KECCAK256 PUSH1 0x2 ADD SLOAD DUP2 DUP7 AND SWAP2 PUSH4 0x42842E0E SWAP2 DUP9 SWAP2 AND DUP7 DUP7 DUP7 DUP2 DUP2 LT PUSH2 0x2258 JUMPI PUSH2 0x2258 PUSH2 0x2E39 JUMP JUMPDEST PUSH1 0x40 MLOAD PUSH1 0x1 PUSH1 0x1 PUSH1 0xE0 SHL SUB NOT PUSH1 0xE0 DUP9 SWAP1 SHL AND DUP2 MSTORE PUSH1 0x1 PUSH1 0x1 PUSH1 0xA0 SHL SUB SWAP6 DUP7 AND PUSH1 0x4 DUP3 ADD MSTORE SWAP5 SWAP1 SWAP4 AND PUSH1 0x24 DUP6 ADD MSTORE POP PUSH1 0x20 SWAP1 SWAP2 MUL ADD CALLDATALOAD PUSH1 0x44 DUP3 ADD MSTORE PUSH1 0x64 ADD PUSH1 0x0 PUSH1 0x40 MLOAD DUP1 DUP4 SUB DUP2 PUSH1 0x0 DUP8 DUP1 EXTCODESIZE ISZERO DUP1 ISZERO PUSH2 0x22AF JUMPI PUSH1 0x0 DUP1 REVERT JUMPDEST POP GAS CALL ISZERO DUP1 ISZERO PUSH2 0x22C3 JUMPI RETURNDATASIZE PUSH1 0x0 DUP1 RETURNDATACOPY RETURNDATASIZE PUSH1 0x0 REVERT JUMPDEST POP POP POP POP DUP1 DUP1 PUSH2 0x22D2 SWAP1 PUSH2 0x2E4F JUMP JUMPDEST SWAP2 POP POP PUSH2 0x2214 JUMP JUMPDEST PUSH1 0x0 JUMPDEST DUP2 DUP2 LT ISZERO PUSH2 0x1760 JUMPI PUSH1 0x6 SLOAD PUSH1 0x1 PUSH1 0x1 PUSH1 0xA0 SHL SUB DUP1 DUP7 AND SWAP2 PUSH4 0x42842E0E SWAP2 DUP9 SWAP2 AND DUP7 DUP7 DUP7 DUP2 DUP2 LT PUSH2 0x230F JUMPI PUSH2 0x230F PUSH2 0x2E39 JUMP JUMPDEST PUSH1 0x40 MLOAD PUSH1 0x1 PUSH1 0x1 PUSH1 0xE0 SHL SUB NOT PUSH1 0xE0 DUP9 SWAP1 SHL AND DUP2 MSTORE PUSH1 0x1 PUSH1 0x1 PUSH1 0xA0 SHL SUB SWAP6 DUP7 AND PUSH1 0x4 DUP3 ADD MSTORE SWAP5 SWAP1 SWAP4 AND PUSH1 0x24 DUP6 ADD MSTORE POP PUSH1 0x20 SWAP1 SWAP2 MUL ADD CALLDATALOAD PUSH1 0x44 DUP3 ADD MSTORE PUSH1 0x64 ADD PUSH1 0x0 PUSH1 0x40 MLOAD DUP1 DUP4 SUB DUP2 PUSH1 0x0 DUP8 DUP1 EXTCODESIZE ISZERO DUP1 ISZERO PUSH2 0x2366 JUMPI PUSH1 0x0 DUP1 REVERT JUMPDEST POP GAS CALL ISZERO DUP1 ISZERO PUSH2 0x237A JUMPI RETURNDATASIZE PUSH1 0x0 DUP1 RETURNDATACOPY RETURNDATASIZE PUSH1 0x0 REVERT JUMPDEST POP POP POP POP DUP1 DUP1 PUSH2 0x2389 SWAP1 PUSH2 0x2E4F JUMP JUMPDEST SWAP2 POP POP PUSH2 0x22DD JUMP JUMPDEST PUSH1 0x40 MLOAD PUSH4 0x70A08231 PUSH1 0xE0 SHL DUP2 MSTORE PUSH1 0x1 PUSH1 0x1 PUSH1 0xA0 SHL SUB DUP4 DUP2 AND PUSH1 0x4 DUP4 ADD MSTORE PUSH1 0x0 SWAP2 SWAP1 DUP4 AND SWAP1 PUSH4 0x70A08231 SWAP1 PUSH1 0x24 ADD PUSH1 0x20 PUSH1 0x40 MLOAD DUP1 DUP4 SUB DUP2 DUP7 GAS STATICCALL ISZERO DUP1 ISZERO PUSH2 0x23DB JUMPI RETURNDATASIZE PUSH1 0x0 DUP1 RETURNDATACOPY RETURNDATASIZE PUSH1 0x0 REVERT JUMPDEST POP POP POP POP PUSH1 0x40 MLOAD RETURNDATASIZE PUSH1 0x1F NOT PUSH1 0x1F DUP3 ADD AND DUP3 ADD DUP1 PUSH1 0x40 MSTORE POP DUP2 ADD SWAP1 PUSH2 0x23FF SWAP2 SWAP1 PUSH2 0x3304 JUMP JUMPDEST SWAP1 POP PUSH1 0x0 DUP2 PUSH1 0x0 SUB PUSH2 0x2423 JUMPI PUSH1 0x40 MLOAD PUSH3 0x461BCD PUSH1 0xE5 SHL DUP2 MSTORE PUSH1 0x4 ADD PUSH2 0x4C5 SWAP1 PUSH2 0x33BA JUMP JUMPDEST PUSH1 0x40 MLOAD PUSH4 0x6EB1769F PUSH1 0xE1 SHL DUP2 MSTORE PUSH1 0x1 PUSH1 0x1 PUSH1 0xA0 SHL SUB DUP6 DUP2 AND PUSH1 0x4 DUP4 ADD MSTORE ADDRESS PUSH1 0x24 DUP4 ADD MSTORE PUSH1 0x0 SWAP2 SWAP1 DUP6 AND SWAP1 PUSH4 0xDD62ED3E SWAP1 PUSH1 0x44 ADD PUSH1 0x20 PUSH1 0x40 MLOAD DUP1 DUP4 SUB DUP2 DUP7 GAS STATICCALL ISZERO DUP1 ISZERO PUSH2 0x2473 JUMPI RETURNDATASIZE PUSH1 0x0 DUP1 RETURNDATACOPY RETURNDATASIZE PUSH1 0x0 REVERT JUMPDEST POP POP POP POP PUSH1 0x40 MLOAD RETURNDATASIZE PUSH1 0x1F NOT PUSH1 0x1F DUP3 ADD AND DUP3 ADD DUP1 PUSH1 0x40 MSTORE POP DUP2 ADD SWAP1 PUSH2 0x2497 SWAP2 SWAP1 PUSH2 0x3304 JUMP JUMPDEST SWAP1 POP DUP1 PUSH1 0x0 SUB PUSH2 0x24E9 JUMPI PUSH1 0x40 MLOAD PUSH3 0x461BCD PUSH1 0xE5 SHL DUP2 MSTORE PUSH1 0x20 PUSH1 0x4 DUP3 ADD MSTORE PUSH1 0x1C PUSH1 0x24 DUP3 ADD MSTORE PUSH32 0x57696C6C65723A204552433230207A65726F20616C6C6F77616E636500000000 PUSH1 0x44 DUP3 ADD MSTORE PUSH1 0x64 ADD PUSH2 0x4C5 JUMP JUMPDEST DUP3 DUP2 LT ISZERO PUSH2 0x24F5 JUMPI DUP1 SWAP3 POP JUMPDEST PUSH1 0x6 SLOAD PUSH2 0x1760 SWAP1 PUSH1 0x1 PUSH1 0x1 PUSH1 0xA0 SHL SUB DUP7 DUP2 AND SWAP2 DUP9 SWAP2 AND DUP7 PUSH2 0x25C6 JUMP JUMPDEST PUSH1 0x0 DUP1 DUP1 PUSH1 0x0 NOT DUP6 DUP8 MULMOD DUP6 DUP8 MUL SWAP3 POP DUP3 DUP2 LT DUP4 DUP3 SUB SUB SWAP2 POP POP DUP1 PUSH1 0x0 SUB PUSH2 0x254B JUMPI DUP4 DUP3 DUP2 PUSH2 0x2541 JUMPI PUSH2 0x2541 PUSH2 0x33FC JUMP JUMPDEST DIV SWAP3 POP POP POP PUSH2 0x25BF JUMP JUMPDEST DUP1 DUP5 GT PUSH2 0x2557 JUMPI PUSH1 0x0 DUP1 REVERT JUMPDEST PUSH1 0x0 DUP5 DUP7 DUP9 MULMOD DUP6 NOT PUSH1 0x1 SWAP1 DUP2 ADD DUP8 AND SWAP7 DUP8 SWAP1 DIV SWAP7 DUP3 DUP7 SUB DUP2 SWAP1 DIV SWAP6 SWAP1 SWAP3 GT SWAP1 SWAP4 SUB PUSH1 0x0 DUP3 SWAP1 SUB SWAP2 SWAP1 SWAP2 DIV SWAP1 SWAP3 ADD SWAP2 SWAP1 SWAP2 MUL SWAP2 SWAP1 SWAP2 OR PUSH1 0x3 DUP5 MUL PUSH1 0x2 SWAP1 DUP2 XOR DUP1 DUP7 MUL DUP3 SUB MUL DUP1 DUP7 MUL DUP3 SUB MUL DUP1 DUP7 MUL DUP3 SUB MUL DUP1 DUP7 MUL DUP3 SUB MUL DUP1 DUP7 MUL DUP3 SUB MUL DUP1 DUP7 MUL SWAP1 SWAP2 SUB MUL MUL SWAP2 POP POP JUMPDEST SWAP4 SWAP3 POP POP POP JUMP JUMPDEST PUSH1 0x40 DUP1 MLOAD PUSH1 0x1 PUSH1 0x1 PUSH1 0xA0 SHL SUB DUP6 DUP2 AND PUSH1 0x24 DUP4 ADD MSTORE DUP5 AND PUSH1 0x44 DUP3 ADD MSTORE PUSH1 0x64 DUP1 DUP3 ADD DUP5 SWAP1 MSTORE DUP3 MLOAD DUP1 DUP4 SUB SWAP1 SWAP2 ADD DUP2 MSTORE PUSH1 0x84 SWAP1 SWAP2 ADD SWAP1 SWAP2 MSTORE PUSH1 0x20 DUP2 ADD DUP1 MLOAD PUSH1 0x1 PUSH1 0x1 PUSH1 0xE0 SHL SUB AND PUSH4 0x23B872DD PUSH1 0xE0 SHL OR SWAP1 MSTORE PUSH2 0x2620 SWAP1 DUP6 SWAP1 PUSH2 0x2626 JUMP JUMPDEST POP POP POP POP JUMP JUMPDEST PUSH1 0x0 PUSH2 0x267B DUP3 PUSH1 0x40 MLOAD DUP1 PUSH1 0x40 ADD PUSH1 0x40 MSTORE DUP1 PUSH1 0x20 DUP2 MSTORE PUSH1 0x20 ADD PUSH32 0x5361666545524332303A206C6F772D6C6576656C2063616C6C206661696C6564 DUP2 MSTORE POP DUP6 PUSH1 0x1 PUSH1 0x1 PUSH1 0xA0 SHL SUB AND PUSH2 0x26FD SWAP1 SWAP3 SWAP2 SWAP1 PUSH4 0xFFFFFFFF AND JUMP JUMPDEST DUP1 MLOAD SWAP1 SWAP2 POP ISZERO PUSH2 0x26F8 JUMPI DUP1 DUP1 PUSH1 0x20 ADD SWAP1 MLOAD DUP2 ADD SWAP1 PUSH2 0x2699 SWAP2 SWAP1 PUSH2 0x3412 JUMP JUMPDEST PUSH2 0x26F8 JUMPI PUSH1 0x40 MLOAD PUSH3 0x461BCD PUSH1 0xE5 SHL DUP2 MSTORE PUSH1 0x20 PUSH1 0x4 DUP3 ADD MSTORE PUSH1 0x2A PUSH1 0x24 DUP3 ADD MSTORE PUSH32 0x5361666545524332303A204552433230206F7065726174696F6E20646964206E PUSH1 0x44 DUP3 ADD MSTORE PUSH10 0x1BDD081CDD58D8D95959 PUSH1 0xB2 SHL PUSH1 0x64 DUP3 ADD MSTORE PUSH1 0x84 ADD PUSH2 0x4C5 JUMP JUMPDEST POP POP POP JUMP JUMPDEST PUSH1 0x60 PUSH2 0x270C DUP5 DUP5 PUSH1 0x0 DUP6 PUSH2 0x2714 JUMP JUMPDEST SWAP5 SWAP4 POP POP POP POP JUMP JUMPDEST PUSH1 0x60 DUP3 SELFBALANCE LT ISZERO PUSH2 0x2775 JUMPI PUSH1 0x40 MLOAD PUSH3 0x461BCD PUSH1 0xE5 SHL DUP2 MSTORE PUSH1 0x20 PUSH1 0x4 DUP3 ADD MSTORE PUSH1 0x26 PUSH1 0x24 DUP3 ADD MSTORE PUSH32 0x416464726573733A20696E73756666696369656E742062616C616E636520666F PUSH1 0x44 DUP3 ADD MSTORE PUSH6 0x1C8818D85B1B PUSH1 0xD2 SHL PUSH1 0x64 DUP3 ADD MSTORE PUSH1 0x84 ADD PUSH2 0x4C5 JUMP JUMPDEST PUSH1 0x0 DUP1 DUP7 PUSH1 0x1 PUSH1 0x1 PUSH1 0xA0 SHL SUB AND DUP6 DUP8 PUSH1 0x40 MLOAD PUSH2 0x2791 SWAP2 SWAP1 PUSH2 0x3434 JUMP JUMPDEST PUSH1 0x0 PUSH1 0x40 MLOAD DUP1 DUP4 SUB DUP2 DUP6 DUP8 GAS CALL SWAP3 POP POP POP RETURNDATASIZE DUP1 PUSH1 0x0 DUP2 EQ PUSH2 0x27CE JUMPI PUSH1 0x40 MLOAD SWAP2 POP PUSH1 0x1F NOT PUSH1 0x3F RETURNDATASIZE ADD AND DUP3 ADD PUSH1 0x40 MSTORE RETURNDATASIZE DUP3 MSTORE RETURNDATASIZE PUSH1 0x0 PUSH1 0x20 DUP5 ADD RETURNDATACOPY PUSH2 0x27D3 JUMP JUMPDEST PUSH1 0x60 SWAP2 POP JUMPDEST POP SWAP2 POP SWAP2 POP PUSH2 0x27E4 DUP8 DUP4 DUP4 DUP8 PUSH2 0x27EF JUMP JUMPDEST SWAP8 SWAP7 POP POP POP POP POP POP POP JUMP JUMPDEST PUSH1 0x60 DUP4 ISZERO PUSH2 0x285E JUMPI DUP3 MLOAD PUSH1 0x0 SUB PUSH2 0x2857 JUMPI PUSH1 0x1 PUSH1 0x1 PUSH1 0xA0 SHL SUB DUP6 AND EXTCODESIZE PUSH2 0x2857 JUMPI PUSH1 0x40 MLOAD PUSH3 0x461BCD PUSH1 0xE5 SHL DUP2 MSTORE PUSH1 0x20 PUSH1 0x4 DUP3 ADD MSTORE PUSH1 0x1D PUSH1 0x24 DUP3 ADD MSTORE PUSH32 0x416464726573733A2063616C6C20746F206E6F6E2D636F6E7472616374000000 PUSH1 0x44 DUP3 ADD MSTORE PUSH1 0x64 ADD PUSH2 0x4C5 JUMP JUMPDEST POP DUP2 PUSH2 0x270C JUMP JUMPDEST PUSH2 0x270C DUP4 DUP4 DUP2 MLOAD ISZERO PUSH2 0x2873 JUMPI DUP2 MLOAD DUP1 DUP4 PUSH1 0x20 ADD REVERT JUMPDEST DUP1 PUSH1 0x40 MLOAD PUSH3 0x461BCD PUSH1 0xE5 SHL DUP2 MSTORE PUSH1 0x4 ADD PUSH2 0x4C5 SWAP2 SWAP1 PUSH2 0x3450 JUMP JUMPDEST DUP3 DUP1 SLOAD DUP3 DUP3 SSTORE SWAP1 PUSH1 0x0 MSTORE PUSH1 0x20 PUSH1 0x0 KECCAK256 SWAP1 DUP2 ADD SWAP3 DUP3 ISZERO PUSH2 0x28E0 JUMPI SWAP2 PUSH1 0x20 MUL DUP3 ADD JUMPDEST DUP3 DUP2 GT ISZERO PUSH2 0x28E0 JUMPI DUP2 SLOAD PUSH1 0x1 PUSH1 0x1 PUSH1 0xA0 SHL SUB NOT AND PUSH1 0x1 PUSH1 0x1 PUSH1 0xA0 SHL SUB DUP5 CALLDATALOAD AND OR DUP3 SSTORE PUSH1 0x20 SWAP1 SWAP3 ADD SWAP2 PUSH1 0x1 SWAP1 SWAP2 ADD SWAP1 PUSH2 0x28AD JUMP JUMPDEST POP PUSH2 0x28EC SWAP3 SWAP2 POP PUSH2 0x292B JUMP JUMPDEST POP SWAP1 JUMP JUMPDEST DUP3 DUP1 SLOAD DUP3 DUP3 SSTORE SWAP1 PUSH1 0x0 MSTORE PUSH1 0x20 PUSH1 0x0 KECCAK256 SWAP1 DUP2 ADD SWAP3 DUP3 ISZERO PUSH2 0x28E0 JUMPI SWAP2 PUSH1 0x20 MUL DUP3 ADD JUMPDEST DUP3 DUP2 GT ISZERO PUSH2 0x28E0 JUMPI DUP3 CALLDATALOAD DUP3 SSTORE SWAP2 PUSH1 0x20 ADD SWAP2 SWAP1 PUSH1 0x1 ADD SWAP1 PUSH2 0x2910 JUMP JUMPDEST JUMPDEST DUP1 DUP3 GT ISZERO PUSH2 0x28EC JUMPI PUSH1 0x0 DUP2 SSTORE PUSH1 0x1 ADD PUSH2 0x292C JUMP JUMPDEST PUSH1 0x1 PUSH1 0x1 PUSH1 0xA0 SHL SUB DUP2 AND DUP2 EQ PUSH2 0x184B JUMPI PUSH1 0x0 DUP1 REVERT JUMPDEST DUP1 CALLDATALOAD PUSH2 0x2960 DUP2 PUSH2 0x2940 JUMP JUMPDEST SWAP2 SWAP1 POP JUMP JUMPDEST PUSH1 0x0 PUSH1 0x20 DUP3 DUP5 SUB SLT ISZERO PUSH2 0x2977 JUMPI PUSH1 0x0 DUP1 REVERT JUMPDEST DUP2 CALLDATALOAD PUSH2 0x25BF DUP2 PUSH2 0x2940 JUMP JUMPDEST PUSH1 0x20 DUP1 DUP3 MSTORE DUP3 MLOAD DUP3 DUP3 ADD DUP2 SWAP1 MSTORE PUSH1 0x0 SWAP2 SWAP1 DUP5 DUP3 ADD SWAP1 PUSH1 0x40 DUP6 ADD SWAP1 DUP5 JUMPDEST DUP2 DUP2 LT ISZERO PUSH2 0x29C3 JUMPI DUP4 MLOAD PUSH1 0x1 PUSH1 0x1 PUSH1 0xA0 SHL SUB AND DUP4 MSTORE SWAP3 DUP5 ADD SWAP3 SWAP2 DUP5 ADD SWAP2 PUSH1 0x1 ADD PUSH2 0x299E JUMP JUMPDEST POP SWAP1 SWAP7 SWAP6 POP POP POP POP POP POP JUMP JUMPDEST PUSH1 0x0 DUP1 DUP4 PUSH1 0x1F DUP5 ADD SLT PUSH2 0x29E1 JUMPI PUSH1 0x0 DUP1 REVERT JUMPDEST POP DUP2 CALLDATALOAD PUSH8 0xFFFFFFFFFFFFFFFF DUP2 GT ISZERO PUSH2 0x29F9 JUMPI PUSH1 0x0 DUP1 REVERT JUMPDEST PUSH1 0x20 DUP4 ADD SWAP2 POP DUP4 PUSH1 0x20 DUP3 PUSH1 0x5 SHL DUP6 ADD ADD GT ISZERO PUSH2 0x2A14 JUMPI PUSH1 0x0 DUP1 REVERT JUMPDEST SWAP3 POP SWAP3 SWAP1 POP JUMP JUMPDEST PUSH1 0x0 DUP1 PUSH1 0x0 DUP1 PUSH1 0x60 DUP6 DUP8 SUB SLT ISZERO PUSH2 0x2A31 JUMPI PUSH1 0x0 DUP1 REVERT JUMPDEST DUP5 CALLDATALOAD PUSH2 0x2A3C DUP2 PUSH2 0x2940 JUMP JUMPDEST SWAP4 POP PUSH1 0x20 DUP6 ADD CALLDATALOAD PUSH2 0x2A4C DUP2 PUSH2 0x2940 JUMP JUMPDEST SWAP3 POP PUSH1 0x40 DUP6 ADD CALLDATALOAD PUSH8 0xFFFFFFFFFFFFFFFF DUP2 GT ISZERO PUSH2 0x2A68 JUMPI PUSH1 0x0 DUP1 REVERT JUMPDEST PUSH2 0x2A74 DUP8 DUP3 DUP9 ADD PUSH2 0x29CF JUMP JUMPDEST SWAP6 SWAP9 SWAP5 SWAP8 POP SWAP6 POP POP POP POP JUMP JUMPDEST PUSH1 0x0 DUP1 PUSH1 0x0 DUP1 PUSH1 0x0 DUP1 PUSH1 0x0 DUP1 PUSH1 0x0 DUP1 PUSH1 0x0 PUSH1 0xC0 DUP13 DUP15 SUB SLT ISZERO PUSH2 0x2AA1 JUMPI PUSH1 0x0 DUP1 REVERT JUMPDEST PUSH2 0x2AAA DUP13 PUSH2 0x2955 JUMP JUMPDEST SWAP11 POP PUSH8 0xFFFFFFFFFFFFFFFF DUP1 PUSH1 0x20 DUP15 ADD CALLDATALOAD GT ISZERO PUSH2 0x2AC6 JUMPI PUSH1 0x0 DUP1 REVERT JUMPDEST PUSH2 0x2AD6 DUP15 PUSH1 0x20 DUP16 ADD CALLDATALOAD DUP16 ADD PUSH2 0x29CF JUMP JUMPDEST SWAP1 SWAP12 POP SWAP10 POP PUSH1 0x40 DUP14 ADD CALLDATALOAD DUP2 LT ISZERO PUSH2 0x2AEC JUMPI PUSH1 0x0 DUP1 REVERT JUMPDEST PUSH2 0x2AFC DUP15 PUSH1 0x40 DUP16 ADD CALLDATALOAD DUP16 ADD PUSH2 0x29CF JUMP JUMPDEST SWAP1 SWAP10 POP SWAP8 POP PUSH1 0x60 DUP14 ADD CALLDATALOAD DUP2 LT ISZERO PUSH2 0x2B12 JUMPI PUSH1 0x0 DUP1 REVERT JUMPDEST PUSH2 0x2B22 DUP15 PUSH1 0x60 DUP16 ADD CALLDATALOAD DUP16 ADD PUSH2 0x29CF JUMP JUMPDEST SWAP1 SWAP8 POP SWAP6 POP PUSH1 0x80 DUP14 ADD CALLDATALOAD DUP2 LT ISZERO PUSH2 0x2B38 JUMPI PUSH1 0x0 DUP1 REVERT JUMPDEST PUSH2 0x2B48 DUP15 PUSH1 0x80 DUP16 ADD CALLDATALOAD DUP16 ADD PUSH2 0x29CF JUMP JUMPDEST SWAP1 SWAP6 POP SWAP4 POP PUSH1 0xA0 DUP14 ADD CALLDATALOAD DUP2 LT ISZERO PUSH2 0x2B5E JUMPI PUSH1 0x0 DUP1 REVERT JUMPDEST POP PUSH2 0x2B6F DUP14 PUSH1 0xA0 DUP15 ADD CALLDATALOAD DUP15 ADD PUSH2 0x29CF JUMP JUMPDEST DUP2 SWAP4 POP DUP1 SWAP3 POP POP POP SWAP3 SWAP6 SWAP9 SWAP12 POP SWAP3 SWAP6 SWAP9 SWAP12 SWAP1 SWAP4 SWAP7 SWAP10 POP JUMP JUMPDEST PUSH1 0x0 DUP1 PUSH1 0x0 DUP1 PUSH1 0x0 DUP1 PUSH1 0x80 DUP8 DUP10 SUB SLT ISZERO PUSH2 0x2BA0 JUMPI PUSH1 0x0 DUP1 REVERT JUMPDEST DUP7 CALLDATALOAD PUSH8 0xFFFFFFFFFFFFFFFF DUP1 DUP3 GT ISZERO PUSH2 0x2BB8 JUMPI PUSH1 0x0 DUP1 REVERT JUMPDEST PUSH2 0x2BC4 DUP11 DUP4 DUP12 ADD PUSH2 0x29CF JUMP JUMPDEST SWAP1 SWAP9 POP SWAP7 POP PUSH1 0x20 DUP10 ADD CALLDATALOAD SWAP2 POP DUP1 DUP3 GT ISZERO PUSH2 0x2BDD JUMPI PUSH1 0x0 DUP1 REVERT JUMPDEST POP PUSH2 0x2BEA DUP10 DUP3 DUP11 ADD PUSH2 0x29CF JUMP JUMPDEST SWAP1 SWAP6 POP SWAP4 POP POP PUSH1 0x40 DUP8 ADD CALLDATALOAD PUSH2 0x2BFE DUP2 PUSH2 0x2940 JUMP JUMPDEST DUP1 SWAP3 POP POP PUSH1 0x60 DUP8 ADD CALLDATALOAD SWAP1 POP SWAP3 SWAP6 POP SWAP3 SWAP6 POP SWAP3 SWAP6 JUMP JUMPDEST PUSH1 0x0 DUP1 PUSH1 0x0 PUSH1 0x40 DUP5 DUP7 SUB SLT ISZERO PUSH2 0x2C28 JUMPI PUSH1 0x0 DUP1 REVERT JUMPDEST DUP4 CALLDATALOAD PUSH2 0x2C33 DUP2 PUSH2 0x2940 JUMP JUMPDEST SWAP3 POP PUSH1 0x20 DUP5 ADD CALLDATALOAD PUSH8 0xFFFFFFFFFFFFFFFF DUP2 GT ISZERO PUSH2 0x2C4F JUMPI PUSH1 0x0 DUP1 REVERT JUMPDEST PUSH2 0x2C5B DUP7 DUP3 DUP8 ADD PUSH2 0x29CF JUMP JUMPDEST SWAP5 SWAP8 SWAP1 SWAP7 POP SWAP4 SWAP5 POP POP POP POP JUMP JUMPDEST PUSH1 0x0 DUP1 PUSH1 0x0 DUP1 PUSH1 0x40 DUP6 DUP8 SUB SLT ISZERO PUSH2 0x2C7E JUMPI PUSH1 0x0 DUP1 REVERT JUMPDEST DUP5 CALLDATALOAD PUSH8 0xFFFFFFFFFFFFFFFF DUP1 DUP3 GT ISZERO PUSH2 0x2C96 JUMPI PUSH1 0x0 DUP1 REVERT JUMPDEST PUSH2 0x2CA2 DUP9 DUP4 DUP10 ADD PUSH2 0x29CF JUMP JUMPDEST SWAP1 SWAP7 POP SWAP5 POP PUSH1 0x20 DUP8 ADD CALLDATALOAD SWAP2 POP DUP1 DUP3 GT ISZERO PUSH2 0x2CBB JUMPI PUSH1 0x0 DUP1 REVERT JUMPDEST POP PUSH2 0x2A74 DUP8 DUP3 DUP9 ADD PUSH2 0x29CF JUMP JUMPDEST PUSH1 0x0 PUSH1 0x20 DUP3 DUP5 SUB SLT ISZERO PUSH2 0x2CDA JUMPI PUSH1 0x0 DUP1 REVERT JUMPDEST POP CALLDATALOAD SWAP2 SWAP1 POP JUMP JUMPDEST PUSH1 0x0 DUP1 PUSH1 0x0 DUP1 PUSH1 0x0 PUSH1 0x60 DUP7 DUP9 SUB SLT ISZERO PUSH2 0x2CF9 JUMPI PUSH1 0x0 DUP1 REVERT JUMPDEST DUP6 CALLDATALOAD PUSH2 0x2D04 DUP2 PUSH2 0x2940 JUMP JUMPDEST SWAP5 POP PUSH1 0x20 DUP7 ADD CALLDATALOAD PUSH8 0xFFFFFFFFFFFFFFFF DUP1 DUP3 GT ISZERO PUSH2 0x2D21 JUMPI PUSH1 0x0 DUP1 REVERT JUMPDEST PUSH2 0x2D2D DUP10 DUP4 DUP11 ADD PUSH2 0x29CF JUMP JUMPDEST SWAP1 SWAP7 POP SWAP5 POP PUSH1 0x40 DUP9 ADD CALLDATALOAD SWAP2 POP DUP1 DUP3 GT ISZERO PUSH2 0x2D46 JUMPI PUSH1 0x0 DUP1 REVERT JUMPDEST POP PUSH2 0x2D53 DUP9 DUP3 DUP10 ADD PUSH2 0x29CF JUMP JUMPDEST SWAP7 SWAP10 SWAP6 SWAP9 POP SWAP4 SWAP7 POP SWAP3 SWAP5 SWAP4 SWAP3 POP POP POP JUMP JUMPDEST PUSH1 0x20 DUP1 DUP3 MSTORE DUP3 MLOAD DUP3 DUP3 ADD DUP2 SWAP1 MSTORE PUSH1 0x0 SWAP2 SWAP1 DUP5 DUP3 ADD SWAP1 PUSH1 0x40 DUP6 ADD SWAP1 DUP5 JUMPDEST DUP2 DUP2 LT ISZERO PUSH2 0x29C3 JUMPI DUP4 MLOAD DUP4 MSTORE SWAP3 DUP5 ADD SWAP3 SWAP2 DUP5 ADD SWAP2 PUSH1 0x1 ADD PUSH2 0x2D80 JUMP JUMPDEST PUSH1 0x20 DUP1 DUP3 MSTORE PUSH1 0x1A SWAP1 DUP3 ADD MSTORE PUSH32 0x57696C6C65723A2077696C6C20646F65736E2774206578697374000000000000 PUSH1 0x40 DUP3 ADD MSTORE PUSH1 0x60 ADD SWAP1 JUMP JUMPDEST PUSH4 0x4E487B71 PUSH1 0xE0 SHL PUSH1 0x0 MSTORE PUSH1 0x11 PUSH1 0x4 MSTORE PUSH1 0x24 PUSH1 0x0 REVERT JUMPDEST DUP1 DUP3 ADD DUP1 DUP3 GT ISZERO PUSH2 0x2DFC JUMPI PUSH2 0x2DFC PUSH2 0x2DD3 JUMP JUMPDEST SWAP3 SWAP2 POP POP JUMP JUMPDEST PUSH1 0x20 DUP1 DUP3 MSTORE PUSH1 0x19 SWAP1 DUP3 ADD MSTORE PUSH32 0x57696C6C65723A20546F6F206561726C7920746F207265617000000000000000 PUSH1 0x40 DUP3 ADD MSTORE PUSH1 0x60 ADD SWAP1 JUMP JUMPDEST PUSH4 0x4E487B71 PUSH1 0xE0 SHL PUSH1 0x0 MSTORE PUSH1 0x32 PUSH1 0x4 MSTORE PUSH1 0x24 PUSH1 0x0 REVERT JUMPDEST PUSH1 0x0 PUSH1 0x1 DUP3 ADD PUSH2 0x2E61 JUMPI PUSH2 0x2E61 PUSH2 0x2DD3 JUMP JUMPDEST POP PUSH1 0x1 ADD SWAP1 JUMP JUMPDEST PUSH1 0x20 DUP1 DUP3 MSTORE PUSH1 0x14 SWAP1 DUP3 ADD MSTORE PUSH20 0x57696C6C65723A20756E72656C65617361626C65 PUSH1 0x60 SHL PUSH1 0x40 DUP3 ADD MSTORE PUSH1 0x60 ADD SWAP1 JUMP JUMPDEST PUSH1 0x20 DUP1 DUP3 MSTORE PUSH1 0x23 SWAP1 DUP3 ADD MSTORE PUSH32 0x57696C6C65723A206578656375746F72206973206E6F742062656E6566696369 PUSH1 0x40 DUP3 ADD MSTORE PUSH3 0x617279 PUSH1 0xE8 SHL PUSH1 0x60 DUP3 ADD MSTORE PUSH1 0x80 ADD SWAP1 JUMP JUMPDEST PUSH1 0x1 PUSH1 0x1 PUSH1 0xA0 SHL SUB DUP5 DUP2 AND DUP3 MSTORE PUSH1 0x40 PUSH1 0x20 DUP1 DUP5 ADD DUP3 SWAP1 MSTORE SWAP1 DUP4 ADD DUP5 SWAP1 MSTORE PUSH1 0x0 SWAP2 DUP6 SWAP2 PUSH1 0x60 DUP6 ADD DUP5 JUMPDEST DUP8 DUP2 LT ISZERO PUSH2 0x2F28 JUMPI DUP5 CALLDATALOAD PUSH2 0x2F14 DUP2 PUSH2 0x2940 JUMP JUMPDEST DUP5 AND DUP3 MSTORE SWAP4 DUP3 ADD SWAP4 SWAP1 DUP3 ADD SWAP1 PUSH1 0x1 ADD PUSH2 0x2F01 JUMP JUMPDEST POP SWAP9 SWAP8 POP POP POP POP POP POP POP POP JUMP JUMPDEST DUP2 DUP4 MSTORE PUSH1 0x0 PUSH1 0x1 PUSH1 0x1 PUSH1 0xFB SHL SUB DUP4 GT ISZERO PUSH2 0x2F4E JUMPI PUSH1 0x0 DUP1 REVERT JUMPDEST DUP3 PUSH1 0x5 SHL DUP1 DUP4 PUSH1 0x20 DUP8 ADD CALLDATACOPY SWAP4 SWAP1 SWAP4 ADD PUSH1 0x20 ADD SWAP4 SWAP3 POP POP POP JUMP JUMPDEST PUSH1 0x1 PUSH1 0x1 PUSH1 0xA0 SHL SUB DUP7 DUP2 AND DUP3 MSTORE PUSH1 0x60 PUSH1 0x20 DUP1 DUP5 ADD DUP3 SWAP1 MSTORE SWAP1 DUP4 ADD DUP7 SWAP1 MSTORE PUSH1 0x0 SWAP2 DUP8 SWAP2 PUSH1 0x80 DUP6 ADD DUP5 JUMPDEST DUP10 DUP2 LT ISZERO PUSH2 0x2FB6 JUMPI DUP5 CALLDATALOAD PUSH2 0x2FA2 DUP2 PUSH2 0x2940 JUMP JUMPDEST DUP5 AND DUP3 MSTORE SWAP4 DUP3 ADD SWAP4 SWAP1 DUP3 ADD SWAP1 PUSH1 0x1 ADD PUSH2 0x2F8F JUMP JUMPDEST POP DUP6 DUP2 SUB PUSH1 0x40 DUP8 ADD MSTORE DUP7 DUP2 MSTORE DUP2 DUP2 ADD SWAP4 POP PUSH1 0x5 SWAP3 POP DUP7 DUP4 SHL DUP2 ADD DUP3 ADD DUP9 PUSH1 0x0 JUMPDEST DUP10 DUP2 LT ISZERO PUSH2 0x3048 JUMPI DUP4 DUP4 SUB PUSH1 0x1F NOT ADD DUP8 MSTORE DUP2 CALLDATALOAD CALLDATASIZE DUP13 SWAP1 SUB PUSH1 0x1E NOT ADD DUP2 SLT PUSH2 0x2FFC JUMPI PUSH1 0x0 DUP1 REVERT JUMPDEST DUP12 ADD DUP6 DUP2 ADD SWAP1 CALLDATALOAD PUSH8 0xFFFFFFFFFFFFFFFF DUP2 GT ISZERO PUSH2 0x3018 JUMPI PUSH1 0x0 DUP1 REVERT JUMPDEST DUP1 DUP9 SHL CALLDATASIZE SUB DUP3 SGT ISZERO PUSH2 0x3029 JUMPI PUSH1 0x0 DUP1 REVERT JUMPDEST PUSH2 0x3034 DUP6 DUP3 DUP5 PUSH2 0x2F35 JUMP JUMPDEST SWAP9 DUP8 ADD SWAP9 SWAP5 POP POP POP SWAP1 DUP5 ADD SWAP1 PUSH1 0x1 ADD PUSH2 0x2FD6 JUMP JUMPDEST POP SWAP1 SWAP13 SWAP12 POP POP POP POP POP POP POP POP POP POP POP POP JUMP JUMPDEST PUSH1 0x0 DUP1 DUP4 CALLDATALOAD PUSH1 0x1E NOT DUP5 CALLDATASIZE SUB ADD DUP2 SLT PUSH2 0x3071 JUMPI PUSH1 0x0 DUP1 REVERT JUMPDEST DUP4 ADD DUP1 CALLDATALOAD SWAP2 POP PUSH8 0xFFFFFFFFFFFFFFFF DUP3 GT ISZERO PUSH2 0x308C JUMPI PUSH1 0x0 DUP1 REVERT JUMPDEST PUSH1 0x20 ADD SWAP2 POP PUSH1 0x5 DUP2 SWAP1 SHL CALLDATASIZE SUB DUP3 SGT ISZERO PUSH2 0x2A14 JUMPI PUSH1 0x0 DUP1 REVERT JUMPDEST PUSH1 0x1 PUSH1 0x1 PUSH1 0xA0 SHL SUB DUP6 DUP2 AND DUP3 MSTORE DUP5 AND PUSH1 0x20 DUP3 ADD MSTORE PUSH1 0x60 PUSH1 0x40 DUP3 ADD DUP2 SWAP1 MSTORE PUSH1 0x0 SWAP1 PUSH2 0x30D1 SWAP1 DUP4 ADD DUP5 DUP7 PUSH2 0x2F35 JUMP JUMPDEST SWAP7 SWAP6 POP POP POP POP POP POP JUMP JUMPDEST PUSH1 0x20 DUP1 DUP3 MSTORE PUSH1 0x32 SWAP1 DUP3 ADD MSTORE PUSH32 0x57696C6C65723A2062656E656669636961726965735F20616E64207368617265 PUSH1 0x40 DUP3 ADD MSTORE PUSH18 0xE6BE40D8CADCCEE8D040DAD2E6DAC2E8C6D PUSH1 0x73 SHL PUSH1 0x60 DUP3 ADD MSTORE PUSH1 0x80 ADD SWAP1 JUMP JUMPDEST PUSH1 0x20 DUP1 DUP3 MSTORE PUSH1 0x2F SWAP1 DUP3 ADD MSTORE PUSH32 0x57696C6C65723A2061646472657373207A65726F206973206E6F742061207661 PUSH1 0x40 DUP3 ADD MSTORE PUSH15 0x6C69642062656E6566696369617279 PUSH1 0x88 SHL PUSH1 0x60 DUP3 ADD MSTORE PUSH1 0x80 ADD SWAP1 JUMP JUMPDEST PUSH1 0x20 DUP1 DUP3 MSTORE PUSH1 0x2B SWAP1 DUP3 ADD MSTORE PUSH32 0x57696C6C65723A207465737461746F72206973206E6F7420612076616C696420 PUSH1 0x40 DUP3 ADD MSTORE PUSH11 0x62656E6566696369617279 PUSH1 0xA8 SHL PUSH1 0x60 DUP3 ADD MSTORE PUSH1 0x80 ADD SWAP1 JUMP JUMPDEST PUSH1 0x20 DUP1 DUP3 MSTORE PUSH1 0x2C SWAP1 DUP3 ADD MSTORE PUSH32 0x57696C6C65723A2073686172652063616E277420626520677265617465722074 PUSH1 0x40 DUP3 ADD MSTORE PUSH12 0x68616E204D41585348415245 PUSH1 0xA0 SHL PUSH1 0x60 DUP3 ADD MSTORE PUSH1 0x80 ADD SWAP1 JUMP JUMPDEST PUSH1 0x20 DUP1 DUP3 MSTORE PUSH1 0x18 SWAP1 DUP3 ADD MSTORE PUSH32 0x57696C6C65723A2073686172652063616E277420626520300000000000000000 PUSH1 0x40 DUP3 ADD MSTORE PUSH1 0x60 ADD SWAP1 JUMP JUMPDEST PUSH1 0x20 DUP1 DUP3 MSTORE PUSH1 0x37 SWAP1 DUP3 ADD MSTORE PUSH32 0x57696C6C65723A2072657175697265282072656C656173652074696D65203E20 PUSH1 0x40 DUP3 ADD MSTORE PUSH32 0x63757272656E742074696D65202B204255464645522029000000000000000000 PUSH1 0x60 DUP3 ADD MSTORE PUSH1 0x80 ADD SWAP1 JUMP JUMPDEST PUSH1 0x20 DUP1 DUP3 MSTORE PUSH1 0x37 SWAP1 DUP3 ADD MSTORE PUSH32 0x57696C6C65723A2061646472657373207A65726F206973206E6F742061207661 PUSH1 0x40 DUP3 ADD MSTORE PUSH32 0x6C69642062656E65666963696172794F66455243373231000000000000000000 PUSH1 0x60 DUP3 ADD MSTORE PUSH1 0x80 ADD SWAP1 JUMP JUMPDEST PUSH1 0x0 PUSH1 0x20 DUP3 DUP5 SUB SLT ISZERO PUSH2 0x3316 JUMPI PUSH1 0x0 DUP1 REVERT JUMPDEST POP MLOAD SWAP2 SWAP1 POP JUMP JUMPDEST DUP2 DUP2 SUB DUP2 DUP2 GT ISZERO PUSH2 0x2DFC JUMPI PUSH2 0x2DFC PUSH2 0x2DD3 JUMP JUMPDEST PUSH1 0x0 JUMPDEST DUP4 DUP2 LT ISZERO PUSH2 0x334B JUMPI DUP2 DUP2 ADD MLOAD DUP4 DUP3 ADD MSTORE PUSH1 0x20 ADD PUSH2 0x3333 JUMP JUMPDEST POP POP PUSH1 0x0 SWAP2 ADD MSTORE JUMP JUMPDEST PUSH1 0x0 DUP2 MLOAD DUP1 DUP5 MSTORE PUSH2 0x336C DUP2 PUSH1 0x20 DUP7 ADD PUSH1 0x20 DUP7 ADD PUSH2 0x3330 JUMP JUMPDEST PUSH1 0x1F ADD PUSH1 0x1F NOT AND SWAP3 SWAP1 SWAP3 ADD PUSH1 0x20 ADD SWAP3 SWAP2 POP POP JUMP JUMPDEST PUSH1 0x1 PUSH1 0x1 PUSH1 0xA0 SHL SUB DUP7 DUP2 AND DUP3 MSTORE DUP6 AND PUSH1 0x20 DUP3 ADD MSTORE PUSH1 0x40 DUP2 ADD DUP5 SWAP1 MSTORE PUSH1 0x60 DUP2 ADD DUP4 SWAP1 MSTORE PUSH1 0xA0 PUSH1 0x80 DUP3 ADD DUP2 SWAP1 MSTORE PUSH1 0x0 SWAP1 PUSH2 0x27E4 SWAP1 DUP4 ADD DUP5 PUSH2 0x3354 JUMP JUMPDEST PUSH1 0x20 DUP1 DUP3 MSTORE PUSH1 0x22 SWAP1 DUP3 ADD MSTORE PUSH32 0x57696C6C65723A204E6F20455243323020746F6B656E7320746F2072656C6561 PUSH1 0x40 DUP3 ADD MSTORE PUSH2 0x7365 PUSH1 0xF0 SHL PUSH1 0x60 DUP3 ADD MSTORE PUSH1 0x80 ADD SWAP1 JUMP JUMPDEST PUSH4 0x4E487B71 PUSH1 0xE0 SHL PUSH1 0x0 MSTORE PUSH1 0x12 PUSH1 0x4 MSTORE PUSH1 0x24 PUSH1 0x0 REVERT JUMPDEST PUSH1 0x0 PUSH1 0x20 DUP3 DUP5 SUB SLT ISZERO PUSH2 0x3424 JUMPI PUSH1 0x0 DUP1 REVERT JUMPDEST DUP2 MLOAD DUP1 ISZERO ISZERO DUP2 EQ PUSH2 0x25BF JUMPI PUSH1 0x0 DUP1 REVERT JUMPDEST PUSH1 0x0 DUP3 MLOAD PUSH2 0x3446 DUP2 DUP5 PUSH1 0x20 DUP8 ADD PUSH2 0x3330 JUMP JUMPDEST SWAP2 SWAP1 SWAP2 ADD SWAP3 SWAP2 POP POP JUMP JUMPDEST PUSH1 0x20 DUP2 MSTORE PUSH1 0x0 PUSH2 0x25BF PUSH1 0x20 DUP4 ADD DUP5 PUSH2 0x3354 JUMP INVALID LOG2 PUSH5 0x6970667358 0x22 SLT KECCAK256 0xD6 LOG3 PUSH28 0xED79769AA455A187184E912174D53B110AD85AACC76E3D86F9BB05C3 DUP10 PUSH5 0x736F6C6343 STOP ADDMOD LT STOP CALLER ",
  "sha1": "79a60e116dce8ac50b8e4021ec12755a58681674",
  "source": "// SPDX-License-Identifier: MIT\npragma solidity ^0.8.16;\n\nimport \"@openzeppelin/contracts/utils/math/Math.sol\";\nimport \"@openzeppelin/contracts/token/ERC20/utils/SafeERC20.sol\";\nimport \"@openzeppelin/contracts/token/ERC20/IERC20.sol\";\nimport \"@openzeppelin/contracts/token/ERC721/IERC721.sol\";\nimport \"@openzeppelin/contracts/token/ERC1155/IERC1155.sol\";\nimport \"@openzeppelin/contracts/access/Ownable.sol\";\nimport \"@openzeppelin/contracts/security/ReentrancyGuard.sol\";\n\n/**\n * @title Willer\n * @author DimaKush\n *\n */\ncontract Willer is Ownable, ReentrancyGuard {\n    using Math for uint;\n    using SafeERC20 for IERC20;\n\n    struct Will {\n        address[] beneficiaries;\n        uint sumShares;\n        address beneficiaryOfERC721;\n        uint releaseTime;\n        uint[] shares;\n    }\n\n    uint BUFFER = 60;\n    uint MIN_BUFFER = 60;\n    uint MAXSHARE = 10;\n    uint REAP_DELAY = 500000000; //\n    address treasuryAddress = address(this);\n\n    mapping(address => Will) private testatorToWill;\n\n    modifier releasable(address _testator) {\n        require(\n            block.timestamp >= testatorToWill[_testator].releaseTime,\n            \"Willer: unreleasable\"\n        );\n        _;\n    }\n\n    modifier releasableToTreasury(address _testator) {\n        require(\n            block.timestamp >=\n                testatorToWill[_testator].releaseTime + REAP_DELAY,\n            \"Willer: Too early to reap\"\n        );\n        _;\n    }\n\n    modifier validReleaseTime(uint releaseTime_) {\n        require(\n            releaseTime_ >= block.timestamp + BUFFER,\n            \"Willer: require( release time > current time + BUFFER )\"\n        );\n        _;\n    }\n\n    modifier validBeneficiaryOfERC721(address beneficiaryOfERC721_) {\n        require(\n            beneficiaryOfERC721_ != address(0),\n            \"Willer: address zero is not a valid beneficiaryOfERC721\"\n        );\n        _;\n    }\n\n    modifier validBeneficiariesAndShares(\n        address[] calldata beneficiaries_,\n        uint[] calldata shares_,\n        address testator_\n    ) {\n        require(\n            beneficiaries_.length == shares_.length,\n            \"Willer: beneficiaries_ and shares_ length mismatch\"\n        );\n\n        for (uint i; i < beneficiaries_.length; i++) {\n            require(\n                beneficiaries_[i] != address(0),\n                \"Willer: address zero is not a valid beneficiary\"\n            );\n            require(\n                beneficiaries_[i] != testator_,\n                \"Willer: testator is not a valid beneficiary\"\n            );\n            require(\n                shares_[i] <= MAXSHARE,\n                \"Willer: share can't be greater than MAXSHARE\"\n            );\n            require(shares_[i] != 0, \"Willer: share can't be 0\");\n        }\n        _;\n    }\n\n    modifier validShares(uint[] calldata shares_) {\n        for (uint i; i < shares_.length; i++) {\n            require(\n                shares_[i] <= MAXSHARE,\n                \"Willer: share can't be greater than MAXSHARE\"\n            );\n            require(shares_[i] >= 0, \"Willer: share can't be 0\");\n        }\n        _;\n    }\n\n    modifier willExists(address _testator) {\n        require(\n            (testatorToWill[_testator].releaseTime != 0 &&\n                testatorToWill[_testator].beneficiaries.length != 0 &&\n                testatorToWill[_testator].beneficiaryOfERC721 != address(0)),\n            \"Willer: will doesn't exist\"\n        );\n        _;\n    }\n\n    modifier sameLengthArrays(\n        address[] calldata beneficiaries_,\n        uint[] calldata shares_\n    ) {\n        require(\n            beneficiaries_.length == shares_.length,\n            \"Willer: beneficiaries_ and shares_ length mismatch\"\n        );\n        _;\n    }\n\n    // add events\n    // event ReleasedERC20(address owner, address beneficiary, address tokenERC20Address);\n    // event ReleasedERC721(address owner, address beneficiary, address tokenERC721Address);\n    // event ReleasedERC1155(address owner, address beneficiary, address tokenERC1155Address);\n    // event NewReleaseTime(uint releaseTime);\n    // event NewBeneficiary(address beneficiary);\n\n    modifier executorIsBeneficiary(address _testator) {\n        bool _executorIsBeneficiary = false;\n        for (\n            uint i = 0;\n            i < testatorToWill[_testator].beneficiaries.length;\n            i++\n        ) {\n            if (msg.sender == testatorToWill[_testator].beneficiaries[i]) {\n                _executorIsBeneficiary = true;\n            }\n        }\n        if (msg.sender == testatorToWill[_testator].beneficiaryOfERC721) {\n            _executorIsBeneficiary = true;\n        }\n\n        require(_executorIsBeneficiary, \"Willer: executor is not beneficiary\");\n        _;\n    }\n\n    function addWill(\n        address[] calldata beneficiaries_,\n        uint[] calldata shares_,\n        address beneficiaryOfERC721_,\n        uint releaseTime_\n    )\n        public\n        validBeneficiariesAndShares(beneficiaries_, shares_, msg.sender)\n        validReleaseTime(releaseTime_)\n        validBeneficiaryOfERC721(beneficiaryOfERC721_)\n        validShares(shares_)\n    {\n        Will storage w = testatorToWill[msg.sender];\n        w.beneficiaries = beneficiaries_;\n        w.shares = shares_;\n        w.sumShares = 0;\n        w.beneficiaryOfERC721 = beneficiaryOfERC721_;\n        w.releaseTime = releaseTime_;\n\n        for (uint i = 0; i < shares_.length; i++) {\n            w.sumShares += shares_[i];\n        }\n    }\n\n    function getBuffer() public view returns (uint) {\n        return BUFFER;\n    }\n\n    function getReapDelay() public view returns (uint) {\n        return REAP_DELAY;\n    }\n\n    function getMaxShare() public view returns (uint) {\n        return MAXSHARE;\n    }\n\n    function getReleaseTime(address testator) public view returns (uint) {\n        return testatorToWill[testator].releaseTime;\n    }\n\n    function getBeneficiaries(\n        address testator\n    ) public view returns (address[] memory) {\n        return testatorToWill[testator].beneficiaries;\n    }\n\n    function getShares(address testator) public view returns (uint[] memory) {\n        return testatorToWill[testator].shares;\n    }\n\n    function getSumShares(address testator) public view returns (uint) {\n        return testatorToWill[testator].sumShares;\n    }\n\n    function getBeneficiaryOfERC721(\n        address _testator\n    ) public view returns (address beneficiaryOfERC721) {\n        return testatorToWill[_testator].beneficiaryOfERC721;\n    }\n\n    // function timeNow() public view returns(uint) {\n    //     return block.timestamp;\n    // }\n\n    function setNewBeneficiaries(\n        address[] calldata newBeneficiaries,\n        uint[] calldata newShares\n    )\n        public\n        willExists(msg.sender)\n        validBeneficiariesAndShares(newBeneficiaries, newShares, msg.sender)\n        returns (bool)\n    {\n        testatorToWill[msg.sender].beneficiaries = newBeneficiaries;\n        testatorToWill[msg.sender].shares = newShares;\n        // emit NewBeneficiary(beneficiary);\n        return true;\n    }\n\n    function setNewReleaseTime(\n        uint newReleaseTime\n    )\n        external\n        willExists(msg.sender)\n        validReleaseTime(newReleaseTime)\n        returns (uint)\n    {\n        testatorToWill[msg.sender].releaseTime = newReleaseTime;\n        // emit NewReleaseTime(testatorToWill[msg.sender]);\n        return testatorToWill[msg.sender].releaseTime;\n    }\n\n    function setNewBeneficiaryOfERC721(\n        address newBeneficiaryOfERC721\n    )\n        public\n        willExists(msg.sender)\n        validBeneficiaryOfERC721(newBeneficiaryOfERC721)\n    {\n        testatorToWill[msg.sender].beneficiaryOfERC721 = newBeneficiaryOfERC721;\n        // emit NewBeneficiaryOfERC721(beneficiary);\n    }\n\n    function releaseERC20ToTreasury(\n        address testator,\n        IERC20 tokenERC20\n    ) private {\n        uint balance = tokenERC20.balanceOf(testator);\n        uint bequest = 0;\n        require(balance != 0, \"Willer: No ERC20 tokens to release\");\n        uint allowed = tokenERC20.allowance(testator, address(this));\n        require(allowed != 0, \"Willer: ERC20 zero allowance\");\n        if (allowed < balance) {\n            balance = allowed;\n        }\n        tokenERC20.safeTransferFrom(testator, treasuryAddress, balance);\n    }\n\n    function releaseERC20(\n        address testator,\n        IERC20 tokenERC20 // executorIsBeneficiary(testator)\n    ) private {\n        uint balance = tokenERC20.balanceOf(testator);\n        uint bequest = 0;\n        require(balance != 0, \"Willer: No ERC20 tokens to release\");\n        uint allowed = tokenERC20.allowance(testator, address(this));\n        require(allowed != 0, \"Willer: ERC20 zero allowance\");\n        if (allowed < balance) {\n            balance = allowed;\n        }\n        for (\n            uint i = 0;\n            i < testatorToWill[testator].beneficiaries.length;\n            i++\n        ) {\n            bequest = balance.mulDiv(\n                testatorToWill[testator].shares[i],\n                testatorToWill[testator].sumShares\n            );\n            // last beneficiary receives bequest and modulo\n            if (i == testatorToWill[testator].beneficiaries.length - 1) {\n                bequest = tokenERC20.balanceOf(testator);\n            }\n            tokenERC20.safeTransferFrom(\n                testator,\n                testatorToWill[testator].beneficiaries[i],\n                bequest\n            );\n            // emit ReleasedERC20(testator, beneficiary, tokenERC20);\n        }\n    }\n\n    function batchReleaseERC20(\n        address testator,\n        IERC20[] calldata tokenERC20List\n    )\n        external\n        willExists(testator)\n        releasable(testator)\n        executorIsBeneficiary(testator)\n        nonReentrant()\n    {\n        for (uint i = 0; i < tokenERC20List.length; i++) {\n            releaseERC20(testator, tokenERC20List[i]);\n        }\n    }\n\n    function batchReleaseERC20ToTreasury(\n        address testator,\n        IERC20[] calldata tokenERC20List\n    )\n        external\n        willExists(testator)\n        releasableToTreasury(testator)\n        nonReentrant()\n    {\n        for (uint i = 0; i < tokenERC20List.length; i++) {\n            releaseERC20ToTreasury(testator, tokenERC20List[i]);\n        }\n    }\n\n    function releaseERC721(\n        address testator,\n        IERC721 tokenERC721,\n        uint[] calldata tokenIdList\n    )\n        private\n    {\n        for (uint i = 0; i < tokenIdList.length; i++) {\n            tokenERC721.safeTransferFrom(\n                testator,\n                testatorToWill[testator].beneficiaryOfERC721,\n                tokenIdList[i]\n            );\n        }\n        // emit ReleasedERC721(testator, beneficiaryOfERC721, tokenERC721);\n    }\n\n    function releaseERC721ToTreasury(\n        address testator,\n        IERC721 tokenERC721,\n        uint[] calldata tokenIdList\n    ) private {\n        for (uint i = 0; i < tokenIdList.length; i++) {\n            tokenERC721.safeTransferFrom(\n                testator,\n                treasuryAddress,\n                tokenIdList[i]\n            );\n        }\n        // emit ReleasedERC721(testator, beneficiaryOfERC721, tokenERC721);\n    }\n\n    function batchReleaseERC721(\n        address testator,\n        IERC721[] calldata tokenERC721List,\n        uint[][] calldata tokenIdLists\n    )\n        external\n        willExists(testator)\n        releasable(testator)\n        executorIsBeneficiary(testator)\n        nonReentrant()\n    {\n        for (uint i = 0; i < tokenERC721List.length; i++) {\n            releaseERC721(testator, tokenERC721List[i], tokenIdLists[i]);\n        }\n    }\n\n    function batchReleaseERC721ToTreasury(\n        address testator,\n        IERC721[] calldata tokenERC721List,\n        uint[][] calldata tokenIdLists\n    ) external \n    willExists(testator) \n    releasableToTreasury(testator)\n    nonReentrant()\n    {\n        for (uint i = 0; i < tokenERC721List.length; i++) {\n            releaseERC721ToTreasury(\n                testator,\n                tokenERC721List[i],\n                tokenIdLists[i]\n            );\n        }\n    }\n\n    function releaseERC1155(\n        address testator,\n        IERC1155 tokenERC1155,\n        uint tokenId\n    )\n        internal\n    {\n        uint balance = tokenERC1155.balanceOf(testator, tokenId);\n        uint bequest = 0;\n        for (\n            uint i = 0;\n            i < testatorToWill[testator].beneficiaries.length;\n            i++\n        ) {\n            bequest = balance.mulDiv(\n                testatorToWill[testator].shares[i],\n                testatorToWill[testator].sumShares\n            );\n            // last beneficiary receives bequest and modulo\n            if (i == testatorToWill[testator].beneficiaries.length - 1) {\n                bequest = tokenERC1155.balanceOf(testator, tokenId);\n            }\n            tokenERC1155.safeTransferFrom(\n                testator,\n                testatorToWill[testator].beneficiaries[i],\n                tokenId,\n                bequest,\n                bytes(\"\")\n            );\n        }\n        // emit ReleasedERC1155(testator, beneficiary, address(tokenERC1155));\n    }\n\n    function releaseERC1155ToTreasury(\n        address testator,\n        IERC1155 tokenERC1155,\n        uint tokenId\n    ) private {\n        uint balance = tokenERC1155.balanceOf(testator, tokenId);\n        uint bequest = 0;\n        for (\n            uint i = 0;\n            i < testatorToWill[testator].beneficiaries.length;\n            i++\n        ) {\n            bequest = balance.mulDiv(\n                testatorToWill[testator].shares[i],\n                testatorToWill[testator].sumShares\n            );\n            // last beneficiary receives bequest and modulo\n            if (i == testatorToWill[testator].beneficiaries.length - 1) {\n                bequest = tokenERC1155.balanceOf(testator, tokenId);\n            }\n            tokenERC1155.safeTransferFrom(\n                testator,\n                treasuryAddress,\n                tokenId,\n                bequest,\n                bytes(\"\")\n            );\n        }\n        // emit ReleasedERC1155(testator, beneficiary, address(tokenERC1155));\n    }\n\n    function batchReleaseERC1155(\n        address testator,\n        IERC1155 tokenERC1155,\n        uint[] calldata tokenIdLists\n    )\n        external\n        willExists(testator)\n        releasable(testator)\n        executorIsBeneficiary(testator)\n        nonReentrant()\n    {\n        for (uint i = 0; i < tokenIdLists.length; i++) {\n            releaseERC1155(testator, tokenERC1155, tokenIdLists[i]);\n        }\n    }\n\n    function batchReleaseERC1155ToTreasury(\n        address testator,\n        IERC1155 tokenERC1155,\n        uint[] calldata tokenIdLists\n    ) external \n    willExists(testator) \n    releasableToTreasury(testator) \n    nonReentrant()\n    {\n        for (uint i = 0; i < tokenIdLists.length; i++) {\n            releaseERC1155ToTreasury(\n                testator,\n                tokenERC1155,\n                tokenIdLists[i]\n            );\n        }\n    }\n\n    function batchRelease(\n        address testator,\n        IERC20[] calldata tokenERC20List,\n        IERC721[] calldata tokenERC721List,\n        IERC1155[] calldata tokenERC1155List,\n        uint[][] calldata ERC721tokenIdLists,\n        uint[][] calldata ERC1155tokenIdLists\n    ) external {\n        this.batchReleaseERC20(testator, tokenERC20List);\n        this.batchReleaseERC721(testator, tokenERC721List, ERC721tokenIdLists);\n        for (uint i = 0; i < tokenERC1155List.length; i++) {\n            this.batchReleaseERC1155(\n                testator,\n                tokenERC1155List[i],\n                ERC1155tokenIdLists[i]\n            );\n        }\n    }\n\n    function batchReleaseToTreasury(\n        address testator,\n        IERC20[] calldata tokenERC20List,\n        IERC721[] calldata tokenERC721List,\n        IERC1155[] calldata tokenERC1155List,\n        uint[][] calldata ERC721tokenIdLists,\n        uint[][] calldata ERC1155tokenIdLists\n    ) external willExists(testator) releasableToTreasury(testator) {\n        this.batchReleaseERC20ToTreasury(testator, tokenERC20List);\n        this.batchReleaseERC721ToTreasury(\n            testator,\n            tokenERC721List,\n            ERC721tokenIdLists\n        );\n        for (uint i = 0; i < tokenERC1155List.length; i++) {\n            this.batchReleaseERC1155ToTreasury(\n                testator,\n                tokenERC1155List[i],\n                ERC1155tokenIdLists[i]\n            );\n        }\n    }\n\n    function setTreasuryAddress(address _treasuryAddress) public onlyOwner {\n        treasuryAddress = _treasuryAddress;\n    }\n\n    function getTreasuryAddress() public view returns (address) {\n        return treasuryAddress;\n    }\n}\n",
  "sourcePath": "contracts/Willer.sol",
  "type": "contract"
}