{"abi":[{"anonymous":false,"inputs":[{"indexed":true,"internalType":"address","name":"testator","type":"address"},{"indexed":false,"internalType":"address[]","name":"newBeneficiaries","type":"address[]"},{"indexed":false,"internalType":"uint256[]","name":"newShares","type":"uint256[]"}],"name":"BeneficiariesUpdated","type":"event"},{"anonymous":false,"inputs":[{"indexed":true,"internalType":"address","name":"testator","type":"address"},{"indexed":false,"internalType":"address","name":"newBeneficiaryOfERC721","type":"address"}],"name":"BeneficiaryOfERC721Updated","type":"event"},{"anonymous":false,"inputs":[{"indexed":true,"internalType":"address","name":"testator","type":"address"},{"indexed":true,"internalType":"address","name":"beneficiary","type":"address"},{"indexed":false,"internalType":"address","name":"tokenERC1155Address","type":"address"},{"indexed":false,"internalType":"uint256","name":"tokenId","type":"uint256"},{"indexed":false,"internalType":"uint256","name":"amount","type":"uint256"}],"name":"ERC1155TokensReleased","type":"event"},{"anonymous":false,"inputs":[{"indexed":true,"internalType":"address","name":"testator","type":"address"},{"indexed":true,"internalType":"address","name":"beneficiary","type":"address"},{"indexed":false,"internalType":"address","name":"tokenERC20Address","type":"address"},{"indexed":false,"internalType":"uint256","name":"amount","type":"uint256"}],"name":"ERC20TokensReleased","type":"event"},{"anonymous":false,"inputs":[{"indexed":true,"internalType":"address","name":"testator","type":"address"},{"indexed":true,"internalType":"address","name":"beneficiary","type":"address"},{"indexed":false,"internalType":"address","name":"tokenERC721Address","type":"address"},{"indexed":false,"internalType":"uint256","name":"tokenId","type":"uint256"}],"name":"ERC721TokensReleased","type":"event"},{"anonymous":false,"inputs":[{"indexed":true,"internalType":"address","name":"testator","type":"address"},{"indexed":false,"internalType":"uint256","name":"newReleaseTime","type":"uint256"}],"name":"ReleaseTimeUpdated","type":"event"},{"anonymous":false,"inputs":[{"indexed":true,"internalType":"address","name":"testator","type":"address"},{"indexed":false,"internalType":"address[]","name":"beneficiaries","type":"address[]"},{"indexed":false,"internalType":"uint256[]","name":"shares","type":"uint256[]"},{"indexed":true,"internalType":"address","name":"beneficiaryOfERC721","type":"address"},{"indexed":false,"internalType":"uint256","name":"releaseTime","type":"uint256"}],"name":"WillAdded","type":"event"},{"inputs":[{"internalType":"address[]","name":"beneficiaries_","type":"address[]"},{"internalType":"uint256[]","name":"shares_","type":"uint256[]"},{"internalType":"address","name":"beneficiaryOfERC721_","type":"address"},{"internalType":"uint256","name":"releaseTime_","type":"uint256"}],"name":"addWill","outputs":[],"stateMutability":"nonpayable","type":"function"},{"inputs":[{"internalType":"address","name":"testator","type":"address"},{"internalType":"contract IERC20[]","name":"tokenERC20List","type":"address[]"},{"internalType":"contract IERC721[]","name":"tokenERC721List","type":"address[]"},{"internalType":"contract IERC1155[]","name":"tokenERC1155List","type":"address[]"},{"internalType":"uint256[][]","name":"ERC721tokenIdLists","type":"uint256[][]"},{"internalType":"uint256[][]","name":"ERC1155tokenIdLists","type":"uint256[][]"}],"name":"batchRelease","outputs":[],"stateMutability":"nonpayable","type":"function"},{"inputs":[{"internalType":"address","name":"testator","type":"address"},{"internalType":"contract IERC1155","name":"tokenERC1155","type":"address"},{"internalType":"uint256[]","name":"tokenIdLists","type":"uint256[]"}],"name":"batchReleaseERC1155","outputs":[],"stateMutability":"nonpayable","type":"function"},{"inputs":[{"internalType":"address","name":"testator","type":"address"},{"internalType":"contract IERC20[]","name":"tokenERC20List","type":"address[]"}],"name":"batchReleaseERC20","outputs":[],"stateMutability":"nonpayable","type":"function"},{"inputs":[{"internalType":"address","name":"testator","type":"address"},{"internalType":"contract IERC721[]","name":"tokenERC721List","type":"address[]"},{"internalType":"uint256[][]","name":"tokenIdLists","type":"uint256[][]"}],"name":"batchReleaseERC721","outputs":[],"stateMutability":"nonpayable","type":"function"},{"inputs":[{"internalType":"address","name":"testator","type":"address"}],"name":"getBeneficiaries","outputs":[{"internalType":"address[]","name":"","type":"address[]"}],"stateMutability":"view","type":"function"},{"inputs":[{"internalType":"address","name":"_testator","type":"address"}],"name":"getBeneficiaryOfERC721","outputs":[{"internalType":"address","name":"beneficiaryOfERC721","type":"address"}],"stateMutability":"view","type":"function"},{"inputs":[],"name":"getBuffer","outputs":[{"internalType":"uint256","name":"","type":"uint256"}],"stateMutability":"view","type":"function"},{"inputs":[],"name":"getMaxShare","outputs":[{"internalType":"uint256","name":"","type":"uint256"}],"stateMutability":"view","type":"function"},{"inputs":[{"internalType":"address","name":"testator","type":"address"}],"name":"getReleaseTime","outputs":[{"internalType":"uint256","name":"","type":"uint256"}],"stateMutability":"view","type":"function"},{"inputs":[{"internalType":"address","name":"testator","type":"address"}],"name":"getShares","outputs":[{"internalType":"uint256[]","name":"","type":"uint256[]"}],"stateMutability":"view","type":"function"},{"inputs":[{"internalType":"address","name":"testator","type":"address"}],"name":"getSumShares","outputs":[{"internalType":"uint256","name":"","type":"uint256"}],"stateMutability":"view","type":"function"},{"inputs":[{"internalType":"address[]","name":"newBeneficiaries","type":"address[]"},{"internalType":"uint256[]","name":"newShares","type":"uint256[]"}],"name":"setNewBeneficiaries","outputs":[],"stateMutability":"nonpayable","type":"function"},{"inputs":[{"internalType":"address","name":"newBeneficiaryOfERC721","type":"address"}],"name":"setNewBeneficiaryOfERC721","outputs":[],"stateMutability":"nonpayable","type":"function"},{"inputs":[{"internalType":"uint256","name":"newReleaseTime","type":"uint256"}],"name":"setNewReleaseTime","outputs":[{"internalType":"uint256","name":"","type":"uint256"}],"stateMutability":"nonpayable","type":"function"}],"bytecode":"6080604052603c600155600a60025534801561001a57600080fd5b5060016000556126f98061002f6000396000f3fe608060405234801561001057600080fd5b50600436106100f55760003560e01c8063a26ea21e11610097578063ac8bc77e11610066578063ac8bc77e1461023e578063caee863e14610251578063f04da65b14610264578063fe36b4c81461028457600080fd5b8063a26ea21e146101d9578063a29093b1146101ec578063a3da0ecd14610218578063a6fd23391461022b57600080fd5b8063705e8b2e116100d3578063705e8b2e146101a1578063745137b4146101a95780637ce752c6146101b15780639181141a146101c657600080fd5b80630cb7eb4c146100fa5780631cab59a41461013a57806347ff5d8a1461015a575b600080fd5b610127610108366004611be1565b6001600160a01b03166000908152600360208190526040909120015490565b6040519081526020015b60405180910390f35b61014d610148366004611be1565b610297565b6040516101319190611bfe565b610189610168366004611be1565b6001600160a01b039081166000908152600360205260409020600201541690565b6040516001600160a01b039091168152602001610131565b600154610127565b600254610127565b6101c46101bf366004611c97565b61030d565b005b6101c46101d4366004611cfc565b610444565b6101c46101e7366004611d88565b610729565b6101276101fa366004611be1565b6001600160a01b031660009081526003602052604090206001015490565b6101c4610226366004611ddd565b610863565b610127610239366004611e3d565b610af1565b6101c461024c366004611e56565b610c09565b6101c461025f366004611be1565b610d69565b610277610272366004611be1565b610e74565b6040516101319190611ed9565b6101c4610292366004611f11565b610ee2565b6001600160a01b03811660009081526003602090815260409182902080548351818402810184019094528084526060939283018282801561030157602002820191906000526020600020905b81546001600160a01b031681526001909101906020018083116102e3575b50505050509050919050565b6001600160a01b0384166000908152600360208190526040909120015484901580159061035157506001600160a01b03811660009081526003602052604090205415155b801561037957506001600160a01b038181166000908152600360205260409020600201541615155b61039e5760405162461bcd60e51b815260040161039590612018565b60405180910390fd5b6001600160a01b0385166000908152600360208190526040909120015485904210156103dc5760405162461bcd60e51b81526004016103959061204f565b426000036103e957600080fd5b6103f1611067565b60005b838110156104315761041f87878787858181106104135761041361207d565b905060200201356110c0565b80610429816120a9565b9150506103f4565b5061043c6001600055565b505050505050565b85858585338184146104685760405162461bcd60e51b8152600401610395906120c2565b60005b848110156105c85760008686838181106104875761048761207d565b905060200201602081019061049c9190611be1565b6001600160a01b0316036104c25760405162461bcd60e51b815260040161039590612114565b816001600160a01b03168686838181106104de576104de61207d565b90506020020160208101906104f39190611be1565b6001600160a01b0316036105195760405162461bcd60e51b81526004016103959061215b565b60025484848381811061052e5761052e61207d565b9050602002013511156105535760405162461bcd60e51b8152600401610395906121a6565b60008484838181106105675761056761207d565b90506020020135116105b65760405162461bcd60e51b8152602060048201526018602482015277057696c6c65723a2073686172652063616e277420626520360441b6044820152606401610395565b806105c0816120a9565b91505061046b565b5085600154426105d891906121f2565b8110156105f75760405162461bcd60e51b81526004016103959061220b565b876001600160a01b03811661061e5760405162461bcd60e51b81526004016103959061224c565b336000908152600360205260409020610638818f8f611b06565b50610647600482018d8d611b69565b506000600182018190556002820180546001600160a01b0319166001600160a01b038d16179055600382018a90555b8b8110156106c2578c8c828181106106905761069061207d565b905060200201358260010160008282546106aa91906121f2565b909155508190506106ba816120a9565b915050610676565b50600281015460038201546040516001600160a01b039092169133917f33835e9eb257828a2be55cc9fa94e5d20c5ba644f80fc0f8614ef0ba9ec21a6e916107119186916004830191906122a9565b60405180910390a35050505050505050505050505050565b6001600160a01b0383166000908152600360208190526040909120015483901580159061076d57506001600160a01b03811660009081526003602052604090205415155b801561079557506001600160a01b038181166000908152600360205260409020600201541615155b6107b15760405162461bcd60e51b815260040161039590612018565b6001600160a01b0384166000908152600360208190526040909120015484904210156107ef5760405162461bcd60e51b81526004016103959061204f565b426000036107fc57600080fd5b610804611067565b60005b838110156108515761083f868686848181106108255761082561207d565b905060200201602081019061083a9190611be1565b611320565b80610849816120a9565b915050610807565b5061085c6001600055565b5050505050565b33600081815260036020819052604090912001541580159061089c57506001600160a01b03811660009081526003602052604090205415155b80156108c457506001600160a01b038181166000908152600360205260409020600201541615155b6108e05760405162461bcd60e51b815260040161039590612018565b84848484338184146109045760405162461bcd60e51b8152600401610395906120c2565b60005b84811015610a645760008686838181106109235761092361207d565b90506020020160208101906109389190611be1565b6001600160a01b03160361095e5760405162461bcd60e51b815260040161039590612114565b816001600160a01b031686868381811061097a5761097a61207d565b905060200201602081019061098f9190611be1565b6001600160a01b0316036109b55760405162461bcd60e51b81526004016103959061215b565b6002548484838181106109ca576109ca61207d565b9050602002013511156109ef5760405162461bcd60e51b8152600401610395906121a6565b6000848483818110610a0357610a0361207d565b9050602002013511610a525760405162461bcd60e51b8152602060048201526018602482015277057696c6c65723a2073686172652063616e277420626520360441b6044820152606401610395565b80610a5c816120a9565b915050610907565b50336000908152600360205260409020610a7f908b8b611b06565b50336000908152600360205260409020610a9d906004018989611b69565b50336001600160a01b03167f56ae1d37998ff042b080da7061608ca0e1f1bbb026b2c0aa8451e3fffbd6dd3e8b8b8b8b604051610add9493929190612373565b60405180910390a250505050505050505050565b3360008181526003602081905260408220015490919015801590610b2c57506001600160a01b03811660009081526003602052604090205415155b8015610b5457506001600160a01b038181166000908152600360205260409020600201541615155b610b705760405162461bcd60e51b815260040161039590612018565b8260015442610b7f91906121f2565b811015610b9e5760405162461bcd60e51b81526004016103959061220b565b3360008181526003602081905260409182902001869055517f78ace02cea60da39eeac32a35444de70d5c3b0b8b5659dccfb11aaa17291136790610be59087815260200190565b60405180910390a25050336000908152600360208190526040909120015492915050565b6001600160a01b03851660009081526003602081905260409091200154859015801590610c4d57506001600160a01b03811660009081526003602052604090205415155b8015610c7557506001600160a01b038181166000908152600360205260409020600201541615155b610c915760405162461bcd60e51b815260040161039590612018565b6001600160a01b038616600090815260036020819052604090912001548690421015610ccf5760405162461bcd60e51b81526004016103959061204f565b42600003610cdc57600080fd5b610ce4611067565b60005b85811015610d5557610d4388888884818110610d0557610d0561207d565b9050602002016020810190610d1a9190611be1565b878785818110610d2c57610d2c61207d565b9050602002810190610d3e91906123d6565b6116c1565b80610d4d816120a9565b915050610ce7565b50610d606001600055565b50505050505050565b336000818152600360208190526040909120015415801590610da257506001600160a01b03811660009081526003602052604090205415155b8015610dca57506001600160a01b038181166000908152600360205260409020600201541615155b610de65760405162461bcd60e51b815260040161039590612018565b816001600160a01b038116610e0d5760405162461bcd60e51b81526004016103959061224c565b3360008181526003602090815260409182902060020180546001600160a01b0319166001600160a01b03881690811790915591519182527f7657b533aedc6cbf7cfdc6012eadeeb7a0f829ce52656343b61a45b460d063b1910160405180910390a2505050565b6001600160a01b03811660009081526003602090815260409182902060040180548351818402810184019094528084526060939283018282801561030157602002820191906000526020600020905b815481526020019060010190808311610ec35750505050509050919050565b604051635137510f60e11b8152309063a26ea21e90610f09908e908e908e90600401612420565b600060405180830381600087803b158015610f2357600080fd5b505af1158015610f37573d6000803e3d6000fd5b5050604051635645e3bf60e11b815230925063ac8bc77e9150610f66908e908c908c908a908a9060040161247c565b600060405180830381600087803b158015610f8057600080fd5b505af1158015610f94573d6000803e3d6000fd5b5050505060005b858110156110595730637ce752c68d898985818110610fbc57610fbc61207d565b9050602002016020810190610fd19190611be1565b868686818110610fe357610fe361207d565b9050602002810190610ff591906123d6565b6040518563ffffffff1660e01b8152600401611014949392919061256f565b600060405180830381600087803b15801561102e57600080fd5b505af1158015611042573d6000803e3d6000fd5b505050508080611051906120a9565b915050610f9b565b505050505050505050505050565b6002600054036110b95760405162461bcd60e51b815260206004820152601f60248201527f5265656e7472616e637947756172643a207265656e7472616e742063616c6c006044820152606401610395565b6002600055565b604051627eeac760e11b81526001600160a01b038481166004830152602482018390526000919084169062fdd58e90604401602060405180830381865afa15801561110f573d6000803e3d6000fd5b505050506040513d601f19601f8201168201806040525081019061113391906125a6565b90506000805b6001600160a01b03861660009081526003602052604090205481101561043c576001600160a01b038616600090815260036020526040902060040180546111bb91908390811061118b5761118b61207d565b60009182526020808320909101546001600160a01b038a168352600390915260409091206001015485919061178a565b6001600160a01b0387166000908152600360205260409020549092506111e3906001906125bf565b810361125b57604051627eeac760e11b81526001600160a01b0387811660048301526024820186905286169062fdd58e90604401602060405180830381865afa158015611234573d6000803e3d6000fd5b505050506040513d601f19601f8201168201806040525081019061125891906125a6565b91505b6001600160a01b03868116600090815260036020526040902080549187169163f242432a918991859081106112925761129261207d565b600091825260208083209091015460408051928301815292825291516001600160e01b031960e086901b1681526112db93926001600160a01b0316918a91899190600401612622565b600060405180830381600087803b1580156112f557600080fd5b505af1158015611309573d6000803e3d6000fd5b505050508080611318906120a9565b915050611139565b6040516370a0823160e01b81526001600160a01b038381166004830152600091908316906370a0823190602401602060405180830381865afa15801561136a573d6000803e3d6000fd5b505050506040513d601f19601f8201168201806040525081019061138e91906125a6565b90506000816000036113ed5760405162461bcd60e51b815260206004820152602260248201527f57696c6c65723a204e6f20455243323020746f6b656e7320746f2072656c6561604482015261736560f01b6064820152608401610395565b604051636eb1769f60e11b81526001600160a01b0385811660048301523060248301526000919085169063dd62ed3e90604401602060405180830381865afa15801561143d573d6000803e3d6000fd5b505050506040513d601f19601f8201168201806040525081019061146191906125a6565b9050806000036114b35760405162461bcd60e51b815260206004820152601c60248201527f57696c6c65723a204552433230207a65726f20616c6c6f77616e6365000000006044820152606401610395565b828110156114bf578092505b60005b6001600160a01b03861660009081526003602052604090205481101561043c576001600160a01b038616600090815260036020526040902060040180546115449190839081106115145761151461207d565b60009182526020808320909101546001600160a01b038a168352600390915260409091206001015486919061178a565b6001600160a01b03871660009081526003602052604090205490935061156c906001906125bf565b81036115df576040516370a0823160e01b81526001600160a01b0387811660048301528616906370a0823190602401602060405180830381865afa1580156115b8573d6000803e3d6000fd5b505050506040513d601f19601f820116820180604052508101906115dc91906125a6565b92505b6001600160a01b0386166000908152600360205260409020805461162f9188918490811061160f5761160f61207d565b6000918252602090912001546001600160a01b038881169291168661183f565b6001600160a01b03861660009081526003602052604090208054829081106116595761165961207d565b60009182526020918290200154604080516001600160a01b038981168252938101879052918316928916917f983f91660c1530ba4a9669e7220c1cc0874cdf3fa92c582bccc7cc2cb9b9323b910160405180910390a3806116b9816120a9565b9150506114c2565b60005b8181101561085c576001600160a01b03858116600090815260036020526040902060020154818616916342842e0e918891168686868181106117085761170861207d565b6040516001600160e01b031960e088901b1681526001600160a01b03958616600482015294909316602485015250602090910201356044820152606401600060405180830381600087803b15801561175f57600080fd5b505af1158015611773573d6000803e3d6000fd5b505050508080611782906120a9565b9150506116c4565b60008080600019858709858702925082811083820303915050806000036117c4578382816117ba576117ba61265c565b0492505050611838565b8084116117d057600080fd5b600084868809851960019081018716968790049682860381900495909211909303600082900391909104909201919091029190911760038402600290811880860282030280860282030280860282030280860282030280860282030280860290910302029150505b9392505050565b604080516001600160a01b0385811660248301528416604482015260648082018490528251808303909101815260849091019091526020810180516001600160e01b03166323b872dd60e01b17905261189990859061189f565b50505050565b60006118f4826040518060400160405280602081526020017f5361666545524332303a206c6f772d6c6576656c2063616c6c206661696c6564815250856001600160a01b03166119769092919063ffffffff16565b80519091501561197157808060200190518101906119129190612672565b6119715760405162461bcd60e51b815260206004820152602a60248201527f5361666545524332303a204552433230206f7065726174696f6e20646964206e6044820152691bdd081cdd58d8d9595960b21b6064820152608401610395565b505050565b6060611985848460008561198d565b949350505050565b6060824710156119ee5760405162461bcd60e51b815260206004820152602660248201527f416464726573733a20696e73756666696369656e742062616c616e636520666f6044820152651c8818d85b1b60d21b6064820152608401610395565b600080866001600160a01b03168587604051611a0a9190612694565b60006040518083038185875af1925050503d8060008114611a47576040519150601f19603f3d011682016040523d82523d6000602084013e611a4c565b606091505b5091509150611a5d87838387611a68565b979650505050505050565b60608315611ad7578251600003611ad0576001600160a01b0385163b611ad05760405162461bcd60e51b815260206004820152601d60248201527f416464726573733a2063616c6c20746f206e6f6e2d636f6e74726163740000006044820152606401610395565b5081611985565b6119858383815115611aec5781518083602001fd5b8060405162461bcd60e51b815260040161039591906126b0565b828054828255906000526020600020908101928215611b59579160200282015b82811115611b595781546001600160a01b0319166001600160a01b03843516178255602090920191600190910190611b26565b50611b65929150611ba4565b5090565b828054828255906000526020600020908101928215611b59579160200282015b82811115611b59578235825591602001919060010190611b89565b5b80821115611b655760008155600101611ba5565b6001600160a01b0381168114611bce57600080fd5b50565b8035611bdc81611bb9565b919050565b600060208284031215611bf357600080fd5b813561183881611bb9565b6020808252825182820181905260009190848201906040850190845b81811015611c3f5783516001600160a01b031683529284019291840191600101611c1a565b50909695505050505050565b60008083601f840112611c5d57600080fd5b50813567ffffffffffffffff811115611c7557600080fd5b6020830191508360208260051b8501011115611c9057600080fd5b9250929050565b60008060008060608587031215611cad57600080fd5b8435611cb881611bb9565b93506020850135611cc881611bb9565b9250604085013567ffffffffffffffff811115611ce457600080fd5b611cf087828801611c4b565b95989497509550505050565b60008060008060008060808789031215611d1557600080fd5b863567ffffffffffffffff80821115611d2d57600080fd5b611d398a838b01611c4b565b90985096506020890135915080821115611d5257600080fd5b50611d5f89828a01611c4b565b9095509350506040870135611d7381611bb9565b80925050606087013590509295509295509295565b600080600060408486031215611d9d57600080fd5b8335611da881611bb9565b9250602084013567ffffffffffffffff811115611dc457600080fd5b611dd086828701611c4b565b9497909650939450505050565b60008060008060408587031215611df357600080fd5b843567ffffffffffffffff80821115611e0b57600080fd5b611e1788838901611c4b565b90965094506020870135915080821115611e3057600080fd5b50611cf087828801611c4b565b600060208284031215611e4f57600080fd5b5035919050565b600080600080600060608688031215611e6e57600080fd5b8535611e7981611bb9565b9450602086013567ffffffffffffffff80821115611e9657600080fd5b611ea289838a01611c4b565b90965094506040880135915080821115611ebb57600080fd5b50611ec888828901611c4b565b969995985093965092949392505050565b6020808252825182820181905260009190848201906040850190845b81811015611c3f57835183529284019291840191600101611ef5565b600080600080600080600080600080600060c08c8e031215611f3257600080fd5b611f3b8c611bd1565b9a5067ffffffffffffffff8060208e01351115611f5757600080fd5b611f678e60208f01358f01611c4b565b909b50995060408d0135811015611f7d57600080fd5b611f8d8e60408f01358f01611c4b565b909950975060608d0135811015611fa357600080fd5b611fb38e60608f01358f01611c4b565b909750955060808d0135811015611fc957600080fd5b611fd98e60808f01358f01611c4b565b909550935060a08d0135811015611fef57600080fd5b506120008d60a08e01358e01611c4b565b81935080925050509295989b509295989b9093969950565b6020808252601a908201527f57696c6c65723a2077696c6c20646f65736e2774206578697374000000000000604082015260600190565b60208082526014908201527357696c6c65723a20756e72656c65617361626c6560601b604082015260600190565b634e487b7160e01b600052603260045260246000fd5b634e487b7160e01b600052601160045260246000fd5b6000600182016120bb576120bb612093565b5060010190565b60208082526032908201527f57696c6c65723a2062656e656669636961726965735f20616e642073686172656040820152710e6be40d8cadccee8d040dad2e6dac2e8c6d60731b606082015260800190565b60208082526027908201527f57696c6c65723a2030783020206973206e6f7420612076616c69642062656e656040820152666669636961727960c81b606082015260800190565b6020808252602b908201527f57696c6c65723a207465737461746f72206973206e6f7420612076616c69642060408201526a62656e656669636961727960a81b606082015260800190565b6020808252602c908201527f57696c6c65723a2073686172652063616e27742062652067726561746572207460408201526b68616e204d4158534841524560a01b606082015260800190565b8082018082111561220557612205612093565b92915050565b60208082526021908201527f57696c6c65723a20496e76616c69642072656c656173652074696d657374616d6040820152600760fc1b606082015260800190565b60208082526038908201527f57696c6c65723a207a65726f206164647265737320206973206e6f742061207660408201527f616c69642062656e65666963696172794f664552433732310000000000000000606082015260800190565b60006060820160608352808654808352608085019150600092508783526020808420845b838110156122f25781546001600160a01b0316855293820193600191820191016122cd565b505085830381870152875480845288855281852093820192505b8085101561232b5783548352600194850194909301929181019161230c565b5050809350505050826040830152949350505050565b81835260006001600160fb1b0383111561235a57600080fd5b8260051b80836020870137939093016020019392505050565b6040808252810184905260008560608301825b878110156123b657823561239981611bb9565b6001600160a01b0316825260209283019290910190600101612386565b5083810360208501526123ca818688612341565b98975050505050505050565b6000808335601e198436030181126123ed57600080fd5b83018035915067ffffffffffffffff82111561240857600080fd5b6020019150600581901b3603821315611c9057600080fd5b6001600160a01b03848116825260406020808401829052908301849052600091859160608501845b8781101561246f57843561245b81611bb9565b841682529382019390820190600101612448565b5098975050505050505050565b6001600160a01b03868116825260606020808401829052908301869052600091879160808501845b898110156124cb5784356124b781611bb9565b8416825293820193908201906001016124a4565b50858103604087015286815281810193506005925086831b810182018860005b8981101561255d57838303601f190187528135368c9003601e1901811261251157600080fd5b8b01858101903567ffffffffffffffff81111561252d57600080fd5b80881b360382131561253e57600080fd5b612549858284612341565b9887019894505050908401906001016124eb565b50909c9b505050505050505050505050565b6001600160a01b0385811682528416602082015260606040820181905260009061259c9083018486612341565b9695505050505050565b6000602082840312156125b857600080fd5b5051919050565b8181038181111561220557612205612093565b60005b838110156125ed5781810151838201526020016125d5565b50506000910152565b6000815180845261260e8160208601602086016125d2565b601f01601f19169290920160200192915050565b6001600160a01b03868116825285166020820152604081018490526060810183905260a060808201819052600090611a5d908301846125f6565b634e487b7160e01b600052601260045260246000fd5b60006020828403121561268457600080fd5b8151801515811461183857600080fd5b600082516126a68184602087016125d2565b9190910192915050565b60208152600061183860208301846125f656fea2646970667358221220ff8eb62e26f0f4fa8dd5a3dfe9850208af42aa0a81e340e4782420afdbc5f11864736f6c63430008130033","bytecodeSha1":"9bbbc626dd994098c193ce03bfdb6e7865a8b71d","compiler":{"evm_version":"istanbul","optimizer":{"enabled":true,"runs":200},"version":"0.8.19+commit.7dd6d404"},"contractName":"Willer","language":"Solidity","natspec":{"author":"DimaKush","kind":"dev","methods":{},"title":"Willer","version":1},"opcodes":"PUSH1 0x80 PUSH1 0x40 MSTORE CALLVALUE DUP1 ISZERO PUSH2 0x10 JUMPI PUSH1 0x0 DUP1 REVERT JUMPDEST POP PUSH1 0x4 CALLDATASIZE LT PUSH2 0xF5 JUMPI PUSH1 0x0 CALLDATALOAD PUSH1 0xE0 SHR DUP1 PUSH4 0xA26EA21E GT PUSH2 0x97 JUMPI DUP1 PUSH4 0xAC8BC77E GT PUSH2 0x66 JUMPI DUP1 PUSH4 0xAC8BC77E EQ PUSH2 0x23E JUMPI DUP1 PUSH4 0xCAEE863E EQ PUSH2 0x251 JUMPI DUP1 PUSH4 0xF04DA65B EQ PUSH2 0x264 JUMPI DUP1 PUSH4 0xFE36B4C8 EQ PUSH2 0x284 JUMPI PUSH1 0x0 DUP1 REVERT JUMPDEST DUP1 PUSH4 0xA26EA21E EQ PUSH2 0x1D9 JUMPI DUP1 PUSH4 0xA29093B1 EQ PUSH2 0x1EC JUMPI DUP1 PUSH4 0xA3DA0ECD EQ PUSH2 0x218 JUMPI DUP1 PUSH4 0xA6FD2339 EQ PUSH2 0x22B JUMPI PUSH1 0x0 DUP1 REVERT JUMPDEST DUP1 PUSH4 0x705E8B2E GT PUSH2 0xD3 JUMPI DUP1 PUSH4 0x705E8B2E EQ PUSH2 0x1A1 JUMPI DUP1 PUSH4 0x745137B4 EQ PUSH2 0x1A9 JUMPI DUP1 PUSH4 0x7CE752C6 EQ PUSH2 0x1B1 JUMPI DUP1 PUSH4 0x9181141A EQ PUSH2 0x1C6 JUMPI PUSH1 0x0 DUP1 REVERT JUMPDEST DUP1 PUSH4 0xCB7EB4C EQ PUSH2 0xFA JUMPI DUP1 PUSH4 0x1CAB59A4 EQ PUSH2 0x13A JUMPI DUP1 PUSH4 0x47FF5D8A EQ PUSH2 0x15A JUMPI JUMPDEST PUSH1 0x0 DUP1 REVERT JUMPDEST PUSH2 0x127 PUSH2 0x108 CALLDATASIZE PUSH1 0x4 PUSH2 0x1BE1 JUMP JUMPDEST PUSH1 0x1 PUSH1 0x1 PUSH1 0xA0 SHL SUB AND PUSH1 0x0 SWAP1 DUP2 MSTORE PUSH1 0x3 PUSH1 0x20 DUP2 SWAP1 MSTORE PUSH1 0x40 SWAP1 SWAP2 KECCAK256 ADD SLOAD SWAP1 JUMP JUMPDEST PUSH1 0x40 MLOAD SWAP1 DUP2 MSTORE PUSH1 0x20 ADD JUMPDEST PUSH1 0x40 MLOAD DUP1 SWAP2 SUB SWAP1 RETURN JUMPDEST PUSH2 0x14D PUSH2 0x148 CALLDATASIZE PUSH1 0x4 PUSH2 0x1BE1 JUMP JUMPDEST PUSH2 0x297 JUMP JUMPDEST PUSH1 0x40 MLOAD PUSH2 0x131 SWAP2 SWAP1 PUSH2 0x1BFE JUMP JUMPDEST PUSH2 0x189 PUSH2 0x168 CALLDATASIZE PUSH1 0x4 PUSH2 0x1BE1 JUMP JUMPDEST PUSH1 0x1 PUSH1 0x1 PUSH1 0xA0 SHL SUB SWAP1 DUP2 AND PUSH1 0x0 SWAP1 DUP2 MSTORE PUSH1 0x3 PUSH1 0x20 MSTORE PUSH1 0x40 SWAP1 KECCAK256 PUSH1 0x2 ADD SLOAD AND SWAP1 JUMP JUMPDEST PUSH1 0x40 MLOAD PUSH1 0x1 PUSH1 0x1 PUSH1 0xA0 SHL SUB SWAP1 SWAP2 AND DUP2 MSTORE PUSH1 0x20 ADD PUSH2 0x131 JUMP JUMPDEST PUSH1 0x1 SLOAD PUSH2 0x127 JUMP JUMPDEST PUSH1 0x2 SLOAD PUSH2 0x127 JUMP JUMPDEST PUSH2 0x1C4 PUSH2 0x1BF CALLDATASIZE PUSH1 0x4 PUSH2 0x1C97 JUMP JUMPDEST PUSH2 0x30D JUMP JUMPDEST STOP JUMPDEST PUSH2 0x1C4 PUSH2 0x1D4 CALLDATASIZE PUSH1 0x4 PUSH2 0x1CFC JUMP JUMPDEST PUSH2 0x444 JUMP JUMPDEST PUSH2 0x1C4 PUSH2 0x1E7 CALLDATASIZE PUSH1 0x4 PUSH2 0x1D88 JUMP JUMPDEST PUSH2 0x729 JUMP JUMPDEST PUSH2 0x127 PUSH2 0x1FA CALLDATASIZE PUSH1 0x4 PUSH2 0x1BE1 JUMP JUMPDEST PUSH1 0x1 PUSH1 0x1 PUSH1 0xA0 SHL SUB AND PUSH1 0x0 SWAP1 DUP2 MSTORE PUSH1 0x3 PUSH1 0x20 MSTORE PUSH1 0x40 SWAP1 KECCAK256 PUSH1 0x1 ADD SLOAD SWAP1 JUMP JUMPDEST PUSH2 0x1C4 PUSH2 0x226 CALLDATASIZE PUSH1 0x4 PUSH2 0x1DDD JUMP JUMPDEST PUSH2 0x863 JUMP JUMPDEST PUSH2 0x127 PUSH2 0x239 CALLDATASIZE PUSH1 0x4 PUSH2 0x1E3D JUMP JUMPDEST PUSH2 0xAF1 JUMP JUMPDEST PUSH2 0x1C4 PUSH2 0x24C CALLDATASIZE PUSH1 0x4 PUSH2 0x1E56 JUMP JUMPDEST PUSH2 0xC09 JUMP JUMPDEST PUSH2 0x1C4 PUSH2 0x25F CALLDATASIZE PUSH1 0x4 PUSH2 0x1BE1 JUMP JUMPDEST PUSH2 0xD69 JUMP JUMPDEST PUSH2 0x277 PUSH2 0x272 CALLDATASIZE PUSH1 0x4 PUSH2 0x1BE1 JUMP JUMPDEST PUSH2 0xE74 JUMP JUMPDEST PUSH1 0x40 MLOAD PUSH2 0x131 SWAP2 SWAP1 PUSH2 0x1ED9 JUMP JUMPDEST PUSH2 0x1C4 PUSH2 0x292 CALLDATASIZE PUSH1 0x4 PUSH2 0x1F11 JUMP JUMPDEST PUSH2 0xEE2 JUMP JUMPDEST PUSH1 0x1 PUSH1 0x1 PUSH1 0xA0 SHL SUB DUP2 AND PUSH1 0x0 SWAP1 DUP2 MSTORE PUSH1 0x3 PUSH1 0x20 SWAP1 DUP2 MSTORE PUSH1 0x40 SWAP2 DUP3 SWAP1 KECCAK256 DUP1 SLOAD DUP4 MLOAD DUP2 DUP5 MUL DUP2 ADD DUP5 ADD SWAP1 SWAP5 MSTORE DUP1 DUP5 MSTORE PUSH1 0x60 SWAP4 SWAP3 DUP4 ADD DUP3 DUP3 DUP1 ISZERO PUSH2 0x301 JUMPI PUSH1 0x20 MUL DUP3 ADD SWAP2 SWAP1 PUSH1 0x0 MSTORE PUSH1 0x20 PUSH1 0x0 KECCAK256 SWAP1 JUMPDEST DUP2 SLOAD PUSH1 0x1 PUSH1 0x1 PUSH1 0xA0 SHL SUB AND DUP2 MSTORE PUSH1 0x1 SWAP1 SWAP2 ADD SWAP1 PUSH1 0x20 ADD DUP1 DUP4 GT PUSH2 0x2E3 JUMPI JUMPDEST POP POP POP POP POP SWAP1 POP SWAP2 SWAP1 POP JUMP JUMPDEST PUSH1 0x1 PUSH1 0x1 PUSH1 0xA0 SHL SUB DUP5 AND PUSH1 0x0 SWAP1 DUP2 MSTORE PUSH1 0x3 PUSH1 0x20 DUP2 SWAP1 MSTORE PUSH1 0x40 SWAP1 SWAP2 KECCAK256 ADD SLOAD DUP5 SWAP1 ISZERO DUP1 ISZERO SWAP1 PUSH2 0x351 JUMPI POP PUSH1 0x1 PUSH1 0x1 PUSH1 0xA0 SHL SUB DUP2 AND PUSH1 0x0 SWAP1 DUP2 MSTORE PUSH1 0x3 PUSH1 0x20 MSTORE PUSH1 0x40 SWAP1 KECCAK256 SLOAD ISZERO ISZERO JUMPDEST DUP1 ISZERO PUSH2 0x379 JUMPI POP PUSH1 0x1 PUSH1 0x1 PUSH1 0xA0 SHL SUB DUP2 DUP2 AND PUSH1 0x0 SWAP1 DUP2 MSTORE PUSH1 0x3 PUSH1 0x20 MSTORE PUSH1 0x40 SWAP1 KECCAK256 PUSH1 0x2 ADD SLOAD AND ISZERO ISZERO JUMPDEST PUSH2 0x39E JUMPI PUSH1 0x40 MLOAD PUSH3 0x461BCD PUSH1 0xE5 SHL DUP2 MSTORE PUSH1 0x4 ADD PUSH2 0x395 SWAP1 PUSH2 0x2018 JUMP JUMPDEST PUSH1 0x40 MLOAD DUP1 SWAP2 SUB SWAP1 REVERT JUMPDEST PUSH1 0x1 PUSH1 0x1 PUSH1 0xA0 SHL SUB DUP6 AND PUSH1 0x0 SWAP1 DUP2 MSTORE PUSH1 0x3 PUSH1 0x20 DUP2 SWAP1 MSTORE PUSH1 0x40 SWAP1 SWAP2 KECCAK256 ADD SLOAD DUP6 SWAP1 TIMESTAMP LT ISZERO PUSH2 0x3DC JUMPI PUSH1 0x40 MLOAD PUSH3 0x461BCD PUSH1 0xE5 SHL DUP2 MSTORE PUSH1 0x4 ADD PUSH2 0x395 SWAP1 PUSH2 0x204F JUMP JUMPDEST TIMESTAMP PUSH1 0x0 SUB PUSH2 0x3E9 JUMPI PUSH1 0x0 DUP1 REVERT JUMPDEST PUSH2 0x3F1 PUSH2 0x1067 JUMP JUMPDEST PUSH1 0x0 JUMPDEST DUP4 DUP2 LT ISZERO PUSH2 0x431 JUMPI PUSH2 0x41F DUP8 DUP8 DUP8 DUP8 DUP6 DUP2 DUP2 LT PUSH2 0x413 JUMPI PUSH2 0x413 PUSH2 0x207D JUMP JUMPDEST SWAP1 POP PUSH1 0x20 MUL ADD CALLDATALOAD PUSH2 0x10C0 JUMP JUMPDEST DUP1 PUSH2 0x429 DUP2 PUSH2 0x20A9 JUMP JUMPDEST SWAP2 POP POP PUSH2 0x3F4 JUMP JUMPDEST POP PUSH2 0x43C PUSH1 0x1 PUSH1 0x0 SSTORE JUMP JUMPDEST POP POP POP POP POP POP JUMP JUMPDEST DUP6 DUP6 DUP6 DUP6 CALLER DUP2 DUP5 EQ PUSH2 0x468 JUMPI PUSH1 0x40 MLOAD PUSH3 0x461BCD PUSH1 0xE5 SHL DUP2 MSTORE PUSH1 0x4 ADD PUSH2 0x395 SWAP1 PUSH2 0x20C2 JUMP JUMPDEST PUSH1 0x0 JUMPDEST DUP5 DUP2 LT ISZERO PUSH2 0x5C8 JUMPI PUSH1 0x0 DUP7 DUP7 DUP4 DUP2 DUP2 LT PUSH2 0x487 JUMPI PUSH2 0x487 PUSH2 0x207D JUMP JUMPDEST SWAP1 POP PUSH1 0x20 MUL ADD PUSH1 0x20 DUP2 ADD SWAP1 PUSH2 0x49C SWAP2 SWAP1 PUSH2 0x1BE1 JUMP JUMPDEST PUSH1 0x1 PUSH1 0x1 PUSH1 0xA0 SHL SUB AND SUB PUSH2 0x4C2 JUMPI PUSH1 0x40 MLOAD PUSH3 0x461BCD PUSH1 0xE5 SHL DUP2 MSTORE PUSH1 0x4 ADD PUSH2 0x395 SWAP1 PUSH2 0x2114 JUMP JUMPDEST DUP2 PUSH1 0x1 PUSH1 0x1 PUSH1 0xA0 SHL SUB AND DUP7 DUP7 DUP4 DUP2 DUP2 LT PUSH2 0x4DE JUMPI PUSH2 0x4DE PUSH2 0x207D JUMP JUMPDEST SWAP1 POP PUSH1 0x20 MUL ADD PUSH1 0x20 DUP2 ADD SWAP1 PUSH2 0x4F3 SWAP2 SWAP1 PUSH2 0x1BE1 JUMP JUMPDEST PUSH1 0x1 PUSH1 0x1 PUSH1 0xA0 SHL SUB AND SUB PUSH2 0x519 JUMPI PUSH1 0x40 MLOAD PUSH3 0x461BCD PUSH1 0xE5 SHL DUP2 MSTORE PUSH1 0x4 ADD PUSH2 0x395 SWAP1 PUSH2 0x215B JUMP JUMPDEST PUSH1 0x2 SLOAD DUP5 DUP5 DUP4 DUP2 DUP2 LT PUSH2 0x52E JUMPI PUSH2 0x52E PUSH2 0x207D JUMP JUMPDEST SWAP1 POP PUSH1 0x20 MUL ADD CALLDATALOAD GT ISZERO PUSH2 0x553 JUMPI PUSH1 0x40 MLOAD PUSH3 0x461BCD PUSH1 0xE5 SHL DUP2 MSTORE PUSH1 0x4 ADD PUSH2 0x395 SWAP1 PUSH2 0x21A6 JUMP JUMPDEST PUSH1 0x0 DUP5 DUP5 DUP4 DUP2 DUP2 LT PUSH2 0x567 JUMPI PUSH2 0x567 PUSH2 0x207D JUMP JUMPDEST SWAP1 POP PUSH1 0x20 MUL ADD CALLDATALOAD GT PUSH2 0x5B6 JUMPI PUSH1 0x40 MLOAD PUSH3 0x461BCD PUSH1 0xE5 SHL DUP2 MSTORE PUSH1 0x20 PUSH1 0x4 DUP3 ADD MSTORE PUSH1 0x18 PUSH1 0x24 DUP3 ADD MSTORE PUSH24 0x57696C6C65723A2073686172652063616E2774206265203 PUSH1 0x44 SHL PUSH1 0x44 DUP3 ADD MSTORE PUSH1 0x64 ADD PUSH2 0x395 JUMP JUMPDEST DUP1 PUSH2 0x5C0 DUP2 PUSH2 0x20A9 JUMP JUMPDEST SWAP2 POP POP PUSH2 0x46B JUMP JUMPDEST POP DUP6 PUSH1 0x1 SLOAD TIMESTAMP PUSH2 0x5D8 SWAP2 SWAP1 PUSH2 0x21F2 JUMP JUMPDEST DUP2 LT ISZERO PUSH2 0x5F7 JUMPI PUSH1 0x40 MLOAD PUSH3 0x461BCD PUSH1 0xE5 SHL DUP2 MSTORE PUSH1 0x4 ADD PUSH2 0x395 SWAP1 PUSH2 0x220B JUMP JUMPDEST DUP8 PUSH1 0x1 PUSH1 0x1 PUSH1 0xA0 SHL SUB DUP2 AND PUSH2 0x61E JUMPI PUSH1 0x40 MLOAD PUSH3 0x461BCD PUSH1 0xE5 SHL DUP2 MSTORE PUSH1 0x4 ADD PUSH2 0x395 SWAP1 PUSH2 0x224C JUMP JUMPDEST CALLER PUSH1 0x0 SWAP1 DUP2 MSTORE PUSH1 0x3 PUSH1 0x20 MSTORE PUSH1 0x40 SWAP1 KECCAK256 PUSH2 0x638 DUP2 DUP16 DUP16 PUSH2 0x1B06 JUMP JUMPDEST POP PUSH2 0x647 PUSH1 0x4 DUP3 ADD DUP14 DUP14 PUSH2 0x1B69 JUMP JUMPDEST POP PUSH1 0x0 PUSH1 0x1 DUP3 ADD DUP2 SWAP1 SSTORE PUSH1 0x2 DUP3 ADD DUP1 SLOAD PUSH1 0x1 PUSH1 0x1 PUSH1 0xA0 SHL SUB NOT AND PUSH1 0x1 PUSH1 0x1 PUSH1 0xA0 SHL SUB DUP14 AND OR SWAP1 SSTORE PUSH1 0x3 DUP3 ADD DUP11 SWAP1 SSTORE JUMPDEST DUP12 DUP2 LT ISZERO PUSH2 0x6C2 JUMPI DUP13 DUP13 DUP3 DUP2 DUP2 LT PUSH2 0x690 JUMPI PUSH2 0x690 PUSH2 0x207D JUMP JUMPDEST SWAP1 POP PUSH1 0x20 MUL ADD CALLDATALOAD DUP3 PUSH1 0x1 ADD PUSH1 0x0 DUP3 DUP3 SLOAD PUSH2 0x6AA SWAP2 SWAP1 PUSH2 0x21F2 JUMP JUMPDEST SWAP1 SWAP2 SSTORE POP DUP2 SWAP1 POP PUSH2 0x6BA DUP2 PUSH2 0x20A9 JUMP JUMPDEST SWAP2 POP POP PUSH2 0x676 JUMP JUMPDEST POP PUSH1 0x2 DUP2 ADD SLOAD PUSH1 0x3 DUP3 ADD SLOAD PUSH1 0x40 MLOAD PUSH1 0x1 PUSH1 0x1 PUSH1 0xA0 SHL SUB SWAP1 SWAP3 AND SWAP2 CALLER SWAP2 PUSH32 0x33835E9EB257828A2BE55CC9FA94E5D20C5BA644F80FC0F8614EF0BA9EC21A6E SWAP2 PUSH2 0x711 SWAP2 DUP7 SWAP2 PUSH1 0x4 DUP4 ADD SWAP2 SWAP1 PUSH2 0x22A9 JUMP JUMPDEST PUSH1 0x40 MLOAD DUP1 SWAP2 SUB SWAP1 LOG3 POP POP POP POP POP POP POP POP POP POP POP POP POP POP JUMP JUMPDEST PUSH1 0x1 PUSH1 0x1 PUSH1 0xA0 SHL SUB DUP4 AND PUSH1 0x0 SWAP1 DUP2 MSTORE PUSH1 0x3 PUSH1 0x20 DUP2 SWAP1 MSTORE PUSH1 0x40 SWAP1 SWAP2 KECCAK256 ADD SLOAD DUP4 SWAP1 ISZERO DUP1 ISZERO SWAP1 PUSH2 0x76D JUMPI POP PUSH1 0x1 PUSH1 0x1 PUSH1 0xA0 SHL SUB DUP2 AND PUSH1 0x0 SWAP1 DUP2 MSTORE PUSH1 0x3 PUSH1 0x20 MSTORE PUSH1 0x40 SWAP1 KECCAK256 SLOAD ISZERO ISZERO JUMPDEST DUP1 ISZERO PUSH2 0x795 JUMPI POP PUSH1 0x1 PUSH1 0x1 PUSH1 0xA0 SHL SUB DUP2 DUP2 AND PUSH1 0x0 SWAP1 DUP2 MSTORE PUSH1 0x3 PUSH1 0x20 MSTORE PUSH1 0x40 SWAP1 KECCAK256 PUSH1 0x2 ADD SLOAD AND ISZERO ISZERO JUMPDEST PUSH2 0x7B1 JUMPI PUSH1 0x40 MLOAD PUSH3 0x461BCD PUSH1 0xE5 SHL DUP2 MSTORE PUSH1 0x4 ADD PUSH2 0x395 SWAP1 PUSH2 0x2018 JUMP JUMPDEST PUSH1 0x1 PUSH1 0x1 PUSH1 0xA0 SHL SUB DUP5 AND PUSH1 0x0 SWAP1 DUP2 MSTORE PUSH1 0x3 PUSH1 0x20 DUP2 SWAP1 MSTORE PUSH1 0x40 SWAP1 SWAP2 KECCAK256 ADD SLOAD DUP5 SWAP1 TIMESTAMP LT ISZERO PUSH2 0x7EF JUMPI PUSH1 0x40 MLOAD PUSH3 0x461BCD PUSH1 0xE5 SHL DUP2 MSTORE PUSH1 0x4 ADD PUSH2 0x395 SWAP1 PUSH2 0x204F JUMP JUMPDEST TIMESTAMP PUSH1 0x0 SUB PUSH2 0x7FC JUMPI PUSH1 0x0 DUP1 REVERT JUMPDEST PUSH2 0x804 PUSH2 0x1067 JUMP JUMPDEST PUSH1 0x0 JUMPDEST DUP4 DUP2 LT ISZERO PUSH2 0x851 JUMPI PUSH2 0x83F DUP7 DUP7 DUP7 DUP5 DUP2 DUP2 LT PUSH2 0x825 JUMPI PUSH2 0x825 PUSH2 0x207D JUMP JUMPDEST SWAP1 POP PUSH1 0x20 MUL ADD PUSH1 0x20 DUP2 ADD SWAP1 PUSH2 0x83A SWAP2 SWAP1 PUSH2 0x1BE1 JUMP JUMPDEST PUSH2 0x1320 JUMP JUMPDEST DUP1 PUSH2 0x849 DUP2 PUSH2 0x20A9 JUMP JUMPDEST SWAP2 POP POP PUSH2 0x807 JUMP JUMPDEST POP PUSH2 0x85C PUSH1 0x1 PUSH1 0x0 SSTORE JUMP JUMPDEST POP POP POP POP POP JUMP JUMPDEST CALLER PUSH1 0x0 DUP2 DUP2 MSTORE PUSH1 0x3 PUSH1 0x20 DUP2 SWAP1 MSTORE PUSH1 0x40 SWAP1 SWAP2 KECCAK256 ADD SLOAD ISZERO DUP1 ISZERO SWAP1 PUSH2 0x89C JUMPI POP PUSH1 0x1 PUSH1 0x1 PUSH1 0xA0 SHL SUB DUP2 AND PUSH1 0x0 SWAP1 DUP2 MSTORE PUSH1 0x3 PUSH1 0x20 MSTORE PUSH1 0x40 SWAP1 KECCAK256 SLOAD ISZERO ISZERO JUMPDEST DUP1 ISZERO PUSH2 0x8C4 JUMPI POP PUSH1 0x1 PUSH1 0x1 PUSH1 0xA0 SHL SUB DUP2 DUP2 AND PUSH1 0x0 SWAP1 DUP2 MSTORE PUSH1 0x3 PUSH1 0x20 MSTORE PUSH1 0x40 SWAP1 KECCAK256 PUSH1 0x2 ADD SLOAD AND ISZERO ISZERO JUMPDEST PUSH2 0x8E0 JUMPI PUSH1 0x40 MLOAD PUSH3 0x461BCD PUSH1 0xE5 SHL DUP2 MSTORE PUSH1 0x4 ADD PUSH2 0x395 SWAP1 PUSH2 0x2018 JUMP JUMPDEST DUP5 DUP5 DUP5 DUP5 CALLER DUP2 DUP5 EQ PUSH2 0x904 JUMPI PUSH1 0x40 MLOAD PUSH3 0x461BCD PUSH1 0xE5 SHL DUP2 MSTORE PUSH1 0x4 ADD PUSH2 0x395 SWAP1 PUSH2 0x20C2 JUMP JUMPDEST PUSH1 0x0 JUMPDEST DUP5 DUP2 LT ISZERO PUSH2 0xA64 JUMPI PUSH1 0x0 DUP7 DUP7 DUP4 DUP2 DUP2 LT PUSH2 0x923 JUMPI PUSH2 0x923 PUSH2 0x207D JUMP JUMPDEST SWAP1 POP PUSH1 0x20 MUL ADD PUSH1 0x20 DUP2 ADD SWAP1 PUSH2 0x938 SWAP2 SWAP1 PUSH2 0x1BE1 JUMP JUMPDEST PUSH1 0x1 PUSH1 0x1 PUSH1 0xA0 SHL SUB AND SUB PUSH2 0x95E JUMPI PUSH1 0x40 MLOAD PUSH3 0x461BCD PUSH1 0xE5 SHL DUP2 MSTORE PUSH1 0x4 ADD PUSH2 0x395 SWAP1 PUSH2 0x2114 JUMP JUMPDEST DUP2 PUSH1 0x1 PUSH1 0x1 PUSH1 0xA0 SHL SUB AND DUP7 DUP7 DUP4 DUP2 DUP2 LT PUSH2 0x97A JUMPI PUSH2 0x97A PUSH2 0x207D JUMP JUMPDEST SWAP1 POP PUSH1 0x20 MUL ADD PUSH1 0x20 DUP2 ADD SWAP1 PUSH2 0x98F SWAP2 SWAP1 PUSH2 0x1BE1 JUMP JUMPDEST PUSH1 0x1 PUSH1 0x1 PUSH1 0xA0 SHL SUB AND SUB PUSH2 0x9B5 JUMPI PUSH1 0x40 MLOAD PUSH3 0x461BCD PUSH1 0xE5 SHL DUP2 MSTORE PUSH1 0x4 ADD PUSH2 0x395 SWAP1 PUSH2 0x215B JUMP JUMPDEST PUSH1 0x2 SLOAD DUP5 DUP5 DUP4 DUP2 DUP2 LT PUSH2 0x9CA JUMPI PUSH2 0x9CA PUSH2 0x207D JUMP JUMPDEST SWAP1 POP PUSH1 0x20 MUL ADD CALLDATALOAD GT ISZERO PUSH2 0x9EF JUMPI PUSH1 0x40 MLOAD PUSH3 0x461BCD PUSH1 0xE5 SHL DUP2 MSTORE PUSH1 0x4 ADD PUSH2 0x395 SWAP1 PUSH2 0x21A6 JUMP JUMPDEST PUSH1 0x0 DUP5 DUP5 DUP4 DUP2 DUP2 LT PUSH2 0xA03 JUMPI PUSH2 0xA03 PUSH2 0x207D JUMP JUMPDEST SWAP1 POP PUSH1 0x20 MUL ADD CALLDATALOAD GT PUSH2 0xA52 JUMPI PUSH1 0x40 MLOAD PUSH3 0x461BCD PUSH1 0xE5 SHL DUP2 MSTORE PUSH1 0x20 PUSH1 0x4 DUP3 ADD MSTORE PUSH1 0x18 PUSH1 0x24 DUP3 ADD MSTORE PUSH24 0x57696C6C65723A2073686172652063616E2774206265203 PUSH1 0x44 SHL PUSH1 0x44 DUP3 ADD MSTORE PUSH1 0x64 ADD PUSH2 0x395 JUMP JUMPDEST DUP1 PUSH2 0xA5C DUP2 PUSH2 0x20A9 JUMP JUMPDEST SWAP2 POP POP PUSH2 0x907 JUMP JUMPDEST POP CALLER PUSH1 0x0 SWAP1 DUP2 MSTORE PUSH1 0x3 PUSH1 0x20 MSTORE PUSH1 0x40 SWAP1 KECCAK256 PUSH2 0xA7F SWAP1 DUP12 DUP12 PUSH2 0x1B06 JUMP JUMPDEST POP CALLER PUSH1 0x0 SWAP1 DUP2 MSTORE PUSH1 0x3 PUSH1 0x20 MSTORE PUSH1 0x40 SWAP1 KECCAK256 PUSH2 0xA9D SWAP1 PUSH1 0x4 ADD DUP10 DUP10 PUSH2 0x1B69 JUMP JUMPDEST POP CALLER PUSH1 0x1 PUSH1 0x1 PUSH1 0xA0 SHL SUB AND PUSH32 0x56AE1D37998FF042B080DA7061608CA0E1F1BBB026B2C0AA8451E3FFFBD6DD3E DUP12 DUP12 DUP12 DUP12 PUSH1 0x40 MLOAD PUSH2 0xADD SWAP5 SWAP4 SWAP3 SWAP2 SWAP1 PUSH2 0x2373 JUMP JUMPDEST PUSH1 0x40 MLOAD DUP1 SWAP2 SUB SWAP1 LOG2 POP POP POP POP POP POP POP POP POP POP JUMP JUMPDEST CALLER PUSH1 0x0 DUP2 DUP2 MSTORE PUSH1 0x3 PUSH1 0x20 DUP2 SWAP1 MSTORE PUSH1 0x40 DUP3 KECCAK256 ADD SLOAD SWAP1 SWAP2 SWAP1 ISZERO DUP1 ISZERO SWAP1 PUSH2 0xB2C JUMPI POP PUSH1 0x1 PUSH1 0x1 PUSH1 0xA0 SHL SUB DUP2 AND PUSH1 0x0 SWAP1 DUP2 MSTORE PUSH1 0x3 PUSH1 0x20 MSTORE PUSH1 0x40 SWAP1 KECCAK256 SLOAD ISZERO ISZERO JUMPDEST DUP1 ISZERO PUSH2 0xB54 JUMPI POP PUSH1 0x1 PUSH1 0x1 PUSH1 0xA0 SHL SUB DUP2 DUP2 AND PUSH1 0x0 SWAP1 DUP2 MSTORE PUSH1 0x3 PUSH1 0x20 MSTORE PUSH1 0x40 SWAP1 KECCAK256 PUSH1 0x2 ADD SLOAD AND ISZERO ISZERO JUMPDEST PUSH2 0xB70 JUMPI PUSH1 0x40 MLOAD PUSH3 0x461BCD PUSH1 0xE5 SHL DUP2 MSTORE PUSH1 0x4 ADD PUSH2 0x395 SWAP1 PUSH2 0x2018 JUMP JUMPDEST DUP3 PUSH1 0x1 SLOAD TIMESTAMP PUSH2 0xB7F SWAP2 SWAP1 PUSH2 0x21F2 JUMP JUMPDEST DUP2 LT ISZERO PUSH2 0xB9E JUMPI PUSH1 0x40 MLOAD PUSH3 0x461BCD PUSH1 0xE5 SHL DUP2 MSTORE PUSH1 0x4 ADD PUSH2 0x395 SWAP1 PUSH2 0x220B JUMP JUMPDEST CALLER PUSH1 0x0 DUP2 DUP2 MSTORE PUSH1 0x3 PUSH1 0x20 DUP2 SWAP1 MSTORE PUSH1 0x40 SWAP2 DUP3 SWAP1 KECCAK256 ADD DUP7 SWAP1 SSTORE MLOAD PUSH32 0x78ACE02CEA60DA39EEAC32A35444DE70D5C3B0B8B5659DCCFB11AAA172911367 SWAP1 PUSH2 0xBE5 SWAP1 DUP8 DUP2 MSTORE PUSH1 0x20 ADD SWAP1 JUMP JUMPDEST PUSH1 0x40 MLOAD DUP1 SWAP2 SUB SWAP1 LOG2 POP POP CALLER PUSH1 0x0 SWAP1 DUP2 MSTORE PUSH1 0x3 PUSH1 0x20 DUP2 SWAP1 MSTORE PUSH1 0x40 SWAP1 SWAP2 KECCAK256 ADD SLOAD SWAP3 SWAP2 POP POP JUMP JUMPDEST PUSH1 0x1 PUSH1 0x1 PUSH1 0xA0 SHL SUB DUP6 AND PUSH1 0x0 SWAP1 DUP2 MSTORE PUSH1 0x3 PUSH1 0x20 DUP2 SWAP1 MSTORE PUSH1 0x40 SWAP1 SWAP2 KECCAK256 ADD SLOAD DUP6 SWAP1 ISZERO DUP1 ISZERO SWAP1 PUSH2 0xC4D JUMPI POP PUSH1 0x1 PUSH1 0x1 PUSH1 0xA0 SHL SUB DUP2 AND PUSH1 0x0 SWAP1 DUP2 MSTORE PUSH1 0x3 PUSH1 0x20 MSTORE PUSH1 0x40 SWAP1 KECCAK256 SLOAD ISZERO ISZERO JUMPDEST DUP1 ISZERO PUSH2 0xC75 JUMPI POP PUSH1 0x1 PUSH1 0x1 PUSH1 0xA0 SHL SUB DUP2 DUP2 AND PUSH1 0x0 SWAP1 DUP2 MSTORE PUSH1 0x3 PUSH1 0x20 MSTORE PUSH1 0x40 SWAP1 KECCAK256 PUSH1 0x2 ADD SLOAD AND ISZERO ISZERO JUMPDEST PUSH2 0xC91 JUMPI PUSH1 0x40 MLOAD PUSH3 0x461BCD PUSH1 0xE5 SHL DUP2 MSTORE PUSH1 0x4 ADD PUSH2 0x395 SWAP1 PUSH2 0x2018 JUMP JUMPDEST PUSH1 0x1 PUSH1 0x1 PUSH1 0xA0 SHL SUB DUP7 AND PUSH1 0x0 SWAP1 DUP2 MSTORE PUSH1 0x3 PUSH1 0x20 DUP2 SWAP1 MSTORE PUSH1 0x40 SWAP1 SWAP2 KECCAK256 ADD SLOAD DUP7 SWAP1 TIMESTAMP LT ISZERO PUSH2 0xCCF JUMPI PUSH1 0x40 MLOAD PUSH3 0x461BCD PUSH1 0xE5 SHL DUP2 MSTORE PUSH1 0x4 ADD PUSH2 0x395 SWAP1 PUSH2 0x204F JUMP JUMPDEST TIMESTAMP PUSH1 0x0 SUB PUSH2 0xCDC JUMPI PUSH1 0x0 DUP1 REVERT JUMPDEST PUSH2 0xCE4 PUSH2 0x1067 JUMP JUMPDEST PUSH1 0x0 JUMPDEST DUP6 DUP2 LT ISZERO PUSH2 0xD55 JUMPI PUSH2 0xD43 DUP9 DUP9 DUP9 DUP5 DUP2 DUP2 LT PUSH2 0xD05 JUMPI PUSH2 0xD05 PUSH2 0x207D JUMP JUMPDEST SWAP1 POP PUSH1 0x20 MUL ADD PUSH1 0x20 DUP2 ADD SWAP1 PUSH2 0xD1A SWAP2 SWAP1 PUSH2 0x1BE1 JUMP JUMPDEST DUP8 DUP8 DUP6 DUP2 DUP2 LT PUSH2 0xD2C JUMPI PUSH2 0xD2C PUSH2 0x207D JUMP JUMPDEST SWAP1 POP PUSH1 0x20 MUL DUP2 ADD SWAP1 PUSH2 0xD3E SWAP2 SWAP1 PUSH2 0x23D6 JUMP JUMPDEST PUSH2 0x16C1 JUMP JUMPDEST DUP1 PUSH2 0xD4D DUP2 PUSH2 0x20A9 JUMP JUMPDEST SWAP2 POP POP PUSH2 0xCE7 JUMP JUMPDEST POP PUSH2 0xD60 PUSH1 0x1 PUSH1 0x0 SSTORE JUMP JUMPDEST POP POP POP POP POP POP POP JUMP JUMPDEST CALLER PUSH1 0x0 DUP2 DUP2 MSTORE PUSH1 0x3 PUSH1 0x20 DUP2 SWAP1 MSTORE PUSH1 0x40 SWAP1 SWAP2 KECCAK256 ADD SLOAD ISZERO DUP1 ISZERO SWAP1 PUSH2 0xDA2 JUMPI POP PUSH1 0x1 PUSH1 0x1 PUSH1 0xA0 SHL SUB DUP2 AND PUSH1 0x0 SWAP1 DUP2 MSTORE PUSH1 0x3 PUSH1 0x20 MSTORE PUSH1 0x40 SWAP1 KECCAK256 SLOAD ISZERO ISZERO JUMPDEST DUP1 ISZERO PUSH2 0xDCA JUMPI POP PUSH1 0x1 PUSH1 0x1 PUSH1 0xA0 SHL SUB DUP2 DUP2 AND PUSH1 0x0 SWAP1 DUP2 MSTORE PUSH1 0x3 PUSH1 0x20 MSTORE PUSH1 0x40 SWAP1 KECCAK256 PUSH1 0x2 ADD SLOAD AND ISZERO ISZERO JUMPDEST PUSH2 0xDE6 JUMPI PUSH1 0x40 MLOAD PUSH3 0x461BCD PUSH1 0xE5 SHL DUP2 MSTORE PUSH1 0x4 ADD PUSH2 0x395 SWAP1 PUSH2 0x2018 JUMP JUMPDEST DUP2 PUSH1 0x1 PUSH1 0x1 PUSH1 0xA0 SHL SUB DUP2 AND PUSH2 0xE0D JUMPI PUSH1 0x40 MLOAD PUSH3 0x461BCD PUSH1 0xE5 SHL DUP2 MSTORE PUSH1 0x4 ADD PUSH2 0x395 SWAP1 PUSH2 0x224C JUMP JUMPDEST CALLER PUSH1 0x0 DUP2 DUP2 MSTORE PUSH1 0x3 PUSH1 0x20 SWAP1 DUP2 MSTORE PUSH1 0x40 SWAP2 DUP3 SWAP1 KECCAK256 PUSH1 0x2 ADD DUP1 SLOAD PUSH1 0x1 PUSH1 0x1 PUSH1 0xA0 SHL SUB NOT AND PUSH1 0x1 PUSH1 0x1 PUSH1 0xA0 SHL SUB DUP9 AND SWAP1 DUP2 OR SWAP1 SWAP2 SSTORE SWAP2 MLOAD SWAP2 DUP3 MSTORE PUSH32 0x7657B533AEDC6CBF7CFDC6012EADEEB7A0F829CE52656343B61A45B460D063B1 SWAP2 ADD PUSH1 0x40 MLOAD DUP1 SWAP2 SUB SWAP1 LOG2 POP POP POP JUMP JUMPDEST PUSH1 0x1 PUSH1 0x1 PUSH1 0xA0 SHL SUB DUP2 AND PUSH1 0x0 SWAP1 DUP2 MSTORE PUSH1 0x3 PUSH1 0x20 SWAP1 DUP2 MSTORE PUSH1 0x40 SWAP2 DUP3 SWAP1 KECCAK256 PUSH1 0x4 ADD DUP1 SLOAD DUP4 MLOAD DUP2 DUP5 MUL DUP2 ADD DUP5 ADD SWAP1 SWAP5 MSTORE DUP1 DUP5 MSTORE PUSH1 0x60 SWAP4 SWAP3 DUP4 ADD DUP3 DUP3 DUP1 ISZERO PUSH2 0x301 JUMPI PUSH1 0x20 MUL DUP3 ADD SWAP2 SWAP1 PUSH1 0x0 MSTORE PUSH1 0x20 PUSH1 0x0 KECCAK256 SWAP1 JUMPDEST DUP2 SLOAD DUP2 MSTORE PUSH1 0x20 ADD SWAP1 PUSH1 0x1 ADD SWAP1 DUP1 DUP4 GT PUSH2 0xEC3 JUMPI POP POP POP POP POP SWAP1 POP SWAP2 SWAP1 POP JUMP JUMPDEST PUSH1 0x40 MLOAD PUSH4 0x5137510F PUSH1 0xE1 SHL DUP2 MSTORE ADDRESS SWAP1 PUSH4 0xA26EA21E SWAP1 PUSH2 0xF09 SWAP1 DUP15 SWAP1 DUP15 SWAP1 DUP15 SWAP1 PUSH1 0x4 ADD PUSH2 0x2420 JUMP JUMPDEST PUSH1 0x0 PUSH1 0x40 MLOAD DUP1 DUP4 SUB DUP2 PUSH1 0x0 DUP8 DUP1 EXTCODESIZE ISZERO DUP1 ISZERO PUSH2 0xF23 JUMPI PUSH1 0x0 DUP1 REVERT JUMPDEST POP GAS CALL ISZERO DUP1 ISZERO PUSH2 0xF37 JUMPI RETURNDATASIZE PUSH1 0x0 DUP1 RETURNDATACOPY RETURNDATASIZE PUSH1 0x0 REVERT JUMPDEST POP POP PUSH1 0x40 MLOAD PUSH4 0x5645E3BF PUSH1 0xE1 SHL DUP2 MSTORE ADDRESS SWAP3 POP PUSH4 0xAC8BC77E SWAP2 POP PUSH2 0xF66 SWAP1 DUP15 SWAP1 DUP13 SWAP1 DUP13 SWAP1 DUP11 SWAP1 DUP11 SWAP1 PUSH1 0x4 ADD PUSH2 0x247C JUMP JUMPDEST PUSH1 0x0 PUSH1 0x40 MLOAD DUP1 DUP4 SUB DUP2 PUSH1 0x0 DUP8 DUP1 EXTCODESIZE ISZERO DUP1 ISZERO PUSH2 0xF80 JUMPI PUSH1 0x0 DUP1 REVERT JUMPDEST POP GAS CALL ISZERO DUP1 ISZERO PUSH2 0xF94 JUMPI RETURNDATASIZE PUSH1 0x0 DUP1 RETURNDATACOPY RETURNDATASIZE PUSH1 0x0 REVERT JUMPDEST POP POP POP POP PUSH1 0x0 JUMPDEST DUP6 DUP2 LT ISZERO PUSH2 0x1059 JUMPI ADDRESS PUSH4 0x7CE752C6 DUP14 DUP10 DUP10 DUP6 DUP2 DUP2 LT PUSH2 0xFBC JUMPI PUSH2 0xFBC PUSH2 0x207D JUMP JUMPDEST SWAP1 POP PUSH1 0x20 MUL ADD PUSH1 0x20 DUP2 ADD SWAP1 PUSH2 0xFD1 SWAP2 SWAP1 PUSH2 0x1BE1 JUMP JUMPDEST DUP7 DUP7 DUP7 DUP2 DUP2 LT PUSH2 0xFE3 JUMPI PUSH2 0xFE3 PUSH2 0x207D JUMP JUMPDEST SWAP1 POP PUSH1 0x20 MUL DUP2 ADD SWAP1 PUSH2 0xFF5 SWAP2 SWAP1 PUSH2 0x23D6 JUMP JUMPDEST PUSH1 0x40 MLOAD DUP6 PUSH4 0xFFFFFFFF AND PUSH1 0xE0 SHL DUP2 MSTORE PUSH1 0x4 ADD PUSH2 0x1014 SWAP5 SWAP4 SWAP3 SWAP2 SWAP1 PUSH2 0x256F JUMP JUMPDEST PUSH1 0x0 PUSH1 0x40 MLOAD DUP1 DUP4 SUB DUP2 PUSH1 0x0 DUP8 DUP1 EXTCODESIZE ISZERO DUP1 ISZERO PUSH2 0x102E JUMPI PUSH1 0x0 DUP1 REVERT JUMPDEST POP GAS CALL ISZERO DUP1 ISZERO PUSH2 0x1042 JUMPI RETURNDATASIZE PUSH1 0x0 DUP1 RETURNDATACOPY RETURNDATASIZE PUSH1 0x0 REVERT JUMPDEST POP POP POP POP DUP1 DUP1 PUSH2 0x1051 SWAP1 PUSH2 0x20A9 JUMP JUMPDEST SWAP2 POP POP PUSH2 0xF9B JUMP JUMPDEST POP POP POP POP POP POP POP POP POP POP POP POP JUMP JUMPDEST PUSH1 0x2 PUSH1 0x0 SLOAD SUB PUSH2 0x10B9 JUMPI PUSH1 0x40 MLOAD PUSH3 0x461BCD PUSH1 0xE5 SHL DUP2 MSTORE PUSH1 0x20 PUSH1 0x4 DUP3 ADD MSTORE PUSH1 0x1F PUSH1 0x24 DUP3 ADD MSTORE PUSH32 0x5265656E7472616E637947756172643A207265656E7472616E742063616C6C00 PUSH1 0x44 DUP3 ADD MSTORE PUSH1 0x64 ADD PUSH2 0x395 JUMP JUMPDEST PUSH1 0x2 PUSH1 0x0 SSTORE JUMP JUMPDEST PUSH1 0x40 MLOAD PUSH3 0x7EEAC7 PUSH1 0xE1 SHL DUP2 MSTORE PUSH1 0x1 PUSH1 0x1 PUSH1 0xA0 SHL SUB DUP5 DUP2 AND PUSH1 0x4 DUP4 ADD MSTORE PUSH1 0x24 DUP3 ADD DUP4 SWAP1 MSTORE PUSH1 0x0 SWAP2 SWAP1 DUP5 AND SWAP1 PUSH3 0xFDD58E SWAP1 PUSH1 0x44 ADD PUSH1 0x20 PUSH1 0x40 MLOAD DUP1 DUP4 SUB DUP2 DUP7 GAS STATICCALL ISZERO DUP1 ISZERO PUSH2 0x110F JUMPI RETURNDATASIZE PUSH1 0x0 DUP1 RETURNDATACOPY RETURNDATASIZE PUSH1 0x0 REVERT JUMPDEST POP POP POP POP PUSH1 0x40 MLOAD RETURNDATASIZE PUSH1 0x1F NOT PUSH1 0x1F DUP3 ADD AND DUP3 ADD DUP1 PUSH1 0x40 MSTORE POP DUP2 ADD SWAP1 PUSH2 0x1133 SWAP2 SWAP1 PUSH2 0x25A6 JUMP JUMPDEST SWAP1 POP PUSH1 0x0 DUP1 JUMPDEST PUSH1 0x1 PUSH1 0x1 PUSH1 0xA0 SHL SUB DUP7 AND PUSH1 0x0 SWAP1 DUP2 MSTORE PUSH1 0x3 PUSH1 0x20 MSTORE PUSH1 0x40 SWAP1 KECCAK256 SLOAD DUP2 LT ISZERO PUSH2 0x43C JUMPI PUSH1 0x1 PUSH1 0x1 PUSH1 0xA0 SHL SUB DUP7 AND PUSH1 0x0 SWAP1 DUP2 MSTORE PUSH1 0x3 PUSH1 0x20 MSTORE PUSH1 0x40 SWAP1 KECCAK256 PUSH1 0x4 ADD DUP1 SLOAD PUSH2 0x11BB SWAP2 SWAP1 DUP4 SWAP1 DUP2 LT PUSH2 0x118B JUMPI PUSH2 0x118B PUSH2 0x207D JUMP JUMPDEST PUSH1 0x0 SWAP2 DUP3 MSTORE PUSH1 0x20 DUP1 DUP4 KECCAK256 SWAP1 SWAP2 ADD SLOAD PUSH1 0x1 PUSH1 0x1 PUSH1 0xA0 SHL SUB DUP11 AND DUP4 MSTORE PUSH1 0x3 SWAP1 SWAP2 MSTORE PUSH1 0x40 SWAP1 SWAP2 KECCAK256 PUSH1 0x1 ADD SLOAD DUP6 SWAP2 SWAP1 PUSH2 0x178A JUMP JUMPDEST PUSH1 0x1 PUSH1 0x1 PUSH1 0xA0 SHL SUB DUP8 AND PUSH1 0x0 SWAP1 DUP2 MSTORE PUSH1 0x3 PUSH1 0x20 MSTORE PUSH1 0x40 SWAP1 KECCAK256 SLOAD SWAP1 SWAP3 POP PUSH2 0x11E3 SWAP1 PUSH1 0x1 SWAP1 PUSH2 0x25BF JUMP JUMPDEST DUP2 SUB PUSH2 0x125B JUMPI PUSH1 0x40 MLOAD PUSH3 0x7EEAC7 PUSH1 0xE1 SHL DUP2 MSTORE PUSH1 0x1 PUSH1 0x1 PUSH1 0xA0 SHL SUB DUP8 DUP2 AND PUSH1 0x4 DUP4 ADD MSTORE PUSH1 0x24 DUP3 ADD DUP7 SWAP1 MSTORE DUP7 AND SWAP1 PUSH3 0xFDD58E SWAP1 PUSH1 0x44 ADD PUSH1 0x20 PUSH1 0x40 MLOAD DUP1 DUP4 SUB DUP2 DUP7 GAS STATICCALL ISZERO DUP1 ISZERO PUSH2 0x1234 JUMPI RETURNDATASIZE PUSH1 0x0 DUP1 RETURNDATACOPY RETURNDATASIZE PUSH1 0x0 REVERT JUMPDEST POP POP POP POP PUSH1 0x40 MLOAD RETURNDATASIZE PUSH1 0x1F NOT PUSH1 0x1F DUP3 ADD AND DUP3 ADD DUP1 PUSH1 0x40 MSTORE POP DUP2 ADD SWAP1 PUSH2 0x1258 SWAP2 SWAP1 PUSH2 0x25A6 JUMP JUMPDEST SWAP2 POP JUMPDEST PUSH1 0x1 PUSH1 0x1 PUSH1 0xA0 SHL SUB DUP7 DUP2 AND PUSH1 0x0 SWAP1 DUP2 MSTORE PUSH1 0x3 PUSH1 0x20 MSTORE PUSH1 0x40 SWAP1 KECCAK256 DUP1 SLOAD SWAP2 DUP8 AND SWAP2 PUSH4 0xF242432A SWAP2 DUP10 SWAP2 DUP6 SWAP1 DUP2 LT PUSH2 0x1292 JUMPI PUSH2 0x1292 PUSH2 0x207D JUMP JUMPDEST PUSH1 0x0 SWAP2 DUP3 MSTORE PUSH1 0x20 DUP1 DUP4 KECCAK256 SWAP1 SWAP2 ADD SLOAD PUSH1 0x40 DUP1 MLOAD SWAP3 DUP4 ADD DUP2 MSTORE SWAP3 DUP3 MSTORE SWAP2 MLOAD PUSH1 0x1 PUSH1 0x1 PUSH1 0xE0 SHL SUB NOT PUSH1 0xE0 DUP7 SWAP1 SHL AND DUP2 MSTORE PUSH2 0x12DB SWAP4 SWAP3 PUSH1 0x1 PUSH1 0x1 PUSH1 0xA0 SHL SUB AND SWAP2 DUP11 SWAP2 DUP10 SWAP2 SWAP1 PUSH1 0x4 ADD PUSH2 0x2622 JUMP JUMPDEST PUSH1 0x0 PUSH1 0x40 MLOAD DUP1 DUP4 SUB DUP2 PUSH1 0x0 DUP8 DUP1 EXTCODESIZE ISZERO DUP1 ISZERO PUSH2 0x12F5 JUMPI PUSH1 0x0 DUP1 REVERT JUMPDEST POP GAS CALL ISZERO DUP1 ISZERO PUSH2 0x1309 JUMPI RETURNDATASIZE PUSH1 0x0 DUP1 RETURNDATACOPY RETURNDATASIZE PUSH1 0x0 REVERT JUMPDEST POP POP POP POP DUP1 DUP1 PUSH2 0x1318 SWAP1 PUSH2 0x20A9 JUMP JUMPDEST SWAP2 POP POP PUSH2 0x1139 JUMP JUMPDEST PUSH1 0x40 MLOAD PUSH4 0x70A08231 PUSH1 0xE0 SHL DUP2 MSTORE PUSH1 0x1 PUSH1 0x1 PUSH1 0xA0 SHL SUB DUP4 DUP2 AND PUSH1 0x4 DUP4 ADD MSTORE PUSH1 0x0 SWAP2 SWAP1 DUP4 AND SWAP1 PUSH4 0x70A08231 SWAP1 PUSH1 0x24 ADD PUSH1 0x20 PUSH1 0x40 MLOAD DUP1 DUP4 SUB DUP2 DUP7 GAS STATICCALL ISZERO DUP1 ISZERO PUSH2 0x136A JUMPI RETURNDATASIZE PUSH1 0x0 DUP1 RETURNDATACOPY RETURNDATASIZE PUSH1 0x0 REVERT JUMPDEST POP POP POP POP PUSH1 0x40 MLOAD RETURNDATASIZE PUSH1 0x1F NOT PUSH1 0x1F DUP3 ADD AND DUP3 ADD DUP1 PUSH1 0x40 MSTORE POP DUP2 ADD SWAP1 PUSH2 0x138E SWAP2 SWAP1 PUSH2 0x25A6 JUMP JUMPDEST SWAP1 POP PUSH1 0x0 DUP2 PUSH1 0x0 SUB PUSH2 0x13ED JUMPI PUSH1 0x40 MLOAD PUSH3 0x461BCD PUSH1 0xE5 SHL DUP2 MSTORE PUSH1 0x20 PUSH1 0x4 DUP3 ADD MSTORE PUSH1 0x22 PUSH1 0x24 DUP3 ADD MSTORE PUSH32 0x57696C6C65723A204E6F20455243323020746F6B656E7320746F2072656C6561 PUSH1 0x44 DUP3 ADD MSTORE PUSH2 0x7365 PUSH1 0xF0 SHL PUSH1 0x64 DUP3 ADD MSTORE PUSH1 0x84 ADD PUSH2 0x395 JUMP JUMPDEST PUSH1 0x40 MLOAD PUSH4 0x6EB1769F PUSH1 0xE1 SHL DUP2 MSTORE PUSH1 0x1 PUSH1 0x1 PUSH1 0xA0 SHL SUB DUP6 DUP2 AND PUSH1 0x4 DUP4 ADD MSTORE ADDRESS PUSH1 0x24 DUP4 ADD MSTORE PUSH1 0x0 SWAP2 SWAP1 DUP6 AND SWAP1 PUSH4 0xDD62ED3E SWAP1 PUSH1 0x44 ADD PUSH1 0x20 PUSH1 0x40 MLOAD DUP1 DUP4 SUB DUP2 DUP7 GAS STATICCALL ISZERO DUP1 ISZERO PUSH2 0x143D JUMPI RETURNDATASIZE PUSH1 0x0 DUP1 RETURNDATACOPY RETURNDATASIZE PUSH1 0x0 REVERT JUMPDEST POP POP POP POP PUSH1 0x40 MLOAD RETURNDATASIZE PUSH1 0x1F NOT PUSH1 0x1F DUP3 ADD AND DUP3 ADD DUP1 PUSH1 0x40 MSTORE POP DUP2 ADD SWAP1 PUSH2 0x1461 SWAP2 SWAP1 PUSH2 0x25A6 JUMP JUMPDEST SWAP1 POP DUP1 PUSH1 0x0 SUB PUSH2 0x14B3 JUMPI PUSH1 0x40 MLOAD PUSH3 0x461BCD PUSH1 0xE5 SHL DUP2 MSTORE PUSH1 0x20 PUSH1 0x4 DUP3 ADD MSTORE PUSH1 0x1C PUSH1 0x24 DUP3 ADD MSTORE PUSH32 0x57696C6C65723A204552433230207A65726F20616C6C6F77616E636500000000 PUSH1 0x44 DUP3 ADD MSTORE PUSH1 0x64 ADD PUSH2 0x395 JUMP JUMPDEST DUP3 DUP2 LT ISZERO PUSH2 0x14BF JUMPI DUP1 SWAP3 POP JUMPDEST PUSH1 0x0 JUMPDEST PUSH1 0x1 PUSH1 0x1 PUSH1 0xA0 SHL SUB DUP7 AND PUSH1 0x0 SWAP1 DUP2 MSTORE PUSH1 0x3 PUSH1 0x20 MSTORE PUSH1 0x40 SWAP1 KECCAK256 SLOAD DUP2 LT ISZERO PUSH2 0x43C JUMPI PUSH1 0x1 PUSH1 0x1 PUSH1 0xA0 SHL SUB DUP7 AND PUSH1 0x0 SWAP1 DUP2 MSTORE PUSH1 0x3 PUSH1 0x20 MSTORE PUSH1 0x40 SWAP1 KECCAK256 PUSH1 0x4 ADD DUP1 SLOAD PUSH2 0x1544 SWAP2 SWAP1 DUP4 SWAP1 DUP2 LT PUSH2 0x1514 JUMPI PUSH2 0x1514 PUSH2 0x207D JUMP JUMPDEST PUSH1 0x0 SWAP2 DUP3 MSTORE PUSH1 0x20 DUP1 DUP4 KECCAK256 SWAP1 SWAP2 ADD SLOAD PUSH1 0x1 PUSH1 0x1 PUSH1 0xA0 SHL SUB DUP11 AND DUP4 MSTORE PUSH1 0x3 SWAP1 SWAP2 MSTORE PUSH1 0x40 SWAP1 SWAP2 KECCAK256 PUSH1 0x1 ADD SLOAD DUP7 SWAP2 SWAP1 PUSH2 0x178A JUMP JUMPDEST PUSH1 0x1 PUSH1 0x1 PUSH1 0xA0 SHL SUB DUP8 AND PUSH1 0x0 SWAP1 DUP2 MSTORE PUSH1 0x3 PUSH1 0x20 MSTORE PUSH1 0x40 SWAP1 KECCAK256 SLOAD SWAP1 SWAP4 POP PUSH2 0x156C SWAP1 PUSH1 0x1 SWAP1 PUSH2 0x25BF JUMP JUMPDEST DUP2 SUB PUSH2 0x15DF JUMPI PUSH1 0x40 MLOAD PUSH4 0x70A08231 PUSH1 0xE0 SHL DUP2 MSTORE PUSH1 0x1 PUSH1 0x1 PUSH1 0xA0 SHL SUB DUP8 DUP2 AND PUSH1 0x4 DUP4 ADD MSTORE DUP7 AND SWAP1 PUSH4 0x70A08231 SWAP1 PUSH1 0x24 ADD PUSH1 0x20 PUSH1 0x40 MLOAD DUP1 DUP4 SUB DUP2 DUP7 GAS STATICCALL ISZERO DUP1 ISZERO PUSH2 0x15B8 JUMPI RETURNDATASIZE PUSH1 0x0 DUP1 RETURNDATACOPY RETURNDATASIZE PUSH1 0x0 REVERT JUMPDEST POP POP POP POP PUSH1 0x40 MLOAD RETURNDATASIZE PUSH1 0x1F NOT PUSH1 0x1F DUP3 ADD AND DUP3 ADD DUP1 PUSH1 0x40 MSTORE POP DUP2 ADD SWAP1 PUSH2 0x15DC SWAP2 SWAP1 PUSH2 0x25A6 JUMP JUMPDEST SWAP3 POP JUMPDEST PUSH1 0x1 PUSH1 0x1 PUSH1 0xA0 SHL SUB DUP7 AND PUSH1 0x0 SWAP1 DUP2 MSTORE PUSH1 0x3 PUSH1 0x20 MSTORE PUSH1 0x40 SWAP1 KECCAK256 DUP1 SLOAD PUSH2 0x162F SWAP2 DUP9 SWAP2 DUP5 SWAP1 DUP2 LT PUSH2 0x160F JUMPI PUSH2 0x160F PUSH2 0x207D JUMP JUMPDEST PUSH1 0x0 SWAP2 DUP3 MSTORE PUSH1 0x20 SWAP1 SWAP2 KECCAK256 ADD SLOAD PUSH1 0x1 PUSH1 0x1 PUSH1 0xA0 SHL SUB DUP9 DUP2 AND SWAP3 SWAP2 AND DUP7 PUSH2 0x183F JUMP JUMPDEST PUSH1 0x1 PUSH1 0x1 PUSH1 0xA0 SHL SUB DUP7 AND PUSH1 0x0 SWAP1 DUP2 MSTORE PUSH1 0x3 PUSH1 0x20 MSTORE PUSH1 0x40 SWAP1 KECCAK256 DUP1 SLOAD DUP3 SWAP1 DUP2 LT PUSH2 0x1659 JUMPI PUSH2 0x1659 PUSH2 0x207D JUMP JUMPDEST PUSH1 0x0 SWAP2 DUP3 MSTORE PUSH1 0x20 SWAP2 DUP3 SWAP1 KECCAK256 ADD SLOAD PUSH1 0x40 DUP1 MLOAD PUSH1 0x1 PUSH1 0x1 PUSH1 0xA0 SHL SUB DUP10 DUP2 AND DUP3 MSTORE SWAP4 DUP2 ADD DUP8 SWAP1 MSTORE SWAP2 DUP4 AND SWAP3 DUP10 AND SWAP2 PUSH32 0x983F91660C1530BA4A9669E7220C1CC0874CDF3FA92C582BCCC7CC2CB9B9323B SWAP2 ADD PUSH1 0x40 MLOAD DUP1 SWAP2 SUB SWAP1 LOG3 DUP1 PUSH2 0x16B9 DUP2 PUSH2 0x20A9 JUMP JUMPDEST SWAP2 POP POP PUSH2 0x14C2 JUMP JUMPDEST PUSH1 0x0 JUMPDEST DUP2 DUP2 LT ISZERO PUSH2 0x85C JUMPI PUSH1 0x1 PUSH1 0x1 PUSH1 0xA0 SHL SUB DUP6 DUP2 AND PUSH1 0x0 SWAP1 DUP2 MSTORE PUSH1 0x3 PUSH1 0x20 MSTORE PUSH1 0x40 SWAP1 KECCAK256 PUSH1 0x2 ADD SLOAD DUP2 DUP7 AND SWAP2 PUSH4 0x42842E0E SWAP2 DUP9 SWAP2 AND DUP7 DUP7 DUP7 DUP2 DUP2 LT PUSH2 0x1708 JUMPI PUSH2 0x1708 PUSH2 0x207D JUMP JUMPDEST PUSH1 0x40 MLOAD PUSH1 0x1 PUSH1 0x1 PUSH1 0xE0 SHL SUB NOT PUSH1 0xE0 DUP9 SWAP1 SHL AND DUP2 MSTORE PUSH1 0x1 PUSH1 0x1 PUSH1 0xA0 SHL SUB SWAP6 DUP7 AND PUSH1 0x4 DUP3 ADD MSTORE SWAP5 SWAP1 SWAP4 AND PUSH1 0x24 DUP6 ADD MSTORE POP PUSH1 0x20 SWAP1 SWAP2 MUL ADD CALLDATALOAD PUSH1 0x44 DUP3 ADD MSTORE PUSH1 0x64 ADD PUSH1 0x0 PUSH1 0x40 MLOAD DUP1 DUP4 SUB DUP2 PUSH1 0x0 DUP8 DUP1 EXTCODESIZE ISZERO DUP1 ISZERO PUSH2 0x175F JUMPI PUSH1 0x0 DUP1 REVERT JUMPDEST POP GAS CALL ISZERO DUP1 ISZERO PUSH2 0x1773 JUMPI RETURNDATASIZE PUSH1 0x0 DUP1 RETURNDATACOPY RETURNDATASIZE PUSH1 0x0 REVERT JUMPDEST POP POP POP POP DUP1 DUP1 PUSH2 0x1782 SWAP1 PUSH2 0x20A9 JUMP JUMPDEST SWAP2 POP POP PUSH2 0x16C4 JUMP JUMPDEST PUSH1 0x0 DUP1 DUP1 PUSH1 0x0 NOT DUP6 DUP8 MULMOD DUP6 DUP8 MUL SWAP3 POP DUP3 DUP2 LT DUP4 DUP3 SUB SUB SWAP2 POP POP DUP1 PUSH1 0x0 SUB PUSH2 0x17C4 JUMPI DUP4 DUP3 DUP2 PUSH2 0x17BA JUMPI PUSH2 0x17BA PUSH2 0x265C JUMP JUMPDEST DIV SWAP3 POP POP POP PUSH2 0x1838 JUMP JUMPDEST DUP1 DUP5 GT PUSH2 0x17D0 JUMPI PUSH1 0x0 DUP1 REVERT JUMPDEST PUSH1 0x0 DUP5 DUP7 DUP9 MULMOD DUP6 NOT PUSH1 0x1 SWAP1 DUP2 ADD DUP8 AND SWAP7 DUP8 SWAP1 DIV SWAP7 DUP3 DUP7 SUB DUP2 SWAP1 DIV SWAP6 SWAP1 SWAP3 GT SWAP1 SWAP4 SUB PUSH1 0x0 DUP3 SWAP1 SUB SWAP2 SWAP1 SWAP2 DIV SWAP1 SWAP3 ADD SWAP2 SWAP1 SWAP2 MUL SWAP2 SWAP1 SWAP2 OR PUSH1 0x3 DUP5 MUL PUSH1 0x2 SWAP1 DUP2 XOR DUP1 DUP7 MUL DUP3 SUB MUL DUP1 DUP7 MUL DUP3 SUB MUL DUP1 DUP7 MUL DUP3 SUB MUL DUP1 DUP7 MUL DUP3 SUB MUL DUP1 DUP7 MUL DUP3 SUB MUL DUP1 DUP7 MUL SWAP1 SWAP2 SUB MUL MUL SWAP2 POP POP JUMPDEST SWAP4 SWAP3 POP POP POP JUMP JUMPDEST PUSH1 0x40 DUP1 MLOAD PUSH1 0x1 PUSH1 0x1 PUSH1 0xA0 SHL SUB DUP6 DUP2 AND PUSH1 0x24 DUP4 ADD MSTORE DUP5 AND PUSH1 0x44 DUP3 ADD MSTORE PUSH1 0x64 DUP1 DUP3 ADD DUP5 SWAP1 MSTORE DUP3 MLOAD DUP1 DUP4 SUB SWAP1 SWAP2 ADD DUP2 MSTORE PUSH1 0x84 SWAP1 SWAP2 ADD SWAP1 SWAP2 MSTORE PUSH1 0x20 DUP2 ADD DUP1 MLOAD PUSH1 0x1 PUSH1 0x1 PUSH1 0xE0 SHL SUB AND PUSH4 0x23B872DD PUSH1 0xE0 SHL OR SWAP1 MSTORE PUSH2 0x1899 SWAP1 DUP6 SWAP1 PUSH2 0x189F JUMP JUMPDEST POP POP POP POP JUMP JUMPDEST PUSH1 0x0 PUSH2 0x18F4 DUP3 PUSH1 0x40 MLOAD DUP1 PUSH1 0x40 ADD PUSH1 0x40 MSTORE DUP1 PUSH1 0x20 DUP2 MSTORE PUSH1 0x20 ADD PUSH32 0x5361666545524332303A206C6F772D6C6576656C2063616C6C206661696C6564 DUP2 MSTORE POP DUP6 PUSH1 0x1 PUSH1 0x1 PUSH1 0xA0 SHL SUB AND PUSH2 0x1976 SWAP1 SWAP3 SWAP2 SWAP1 PUSH4 0xFFFFFFFF AND JUMP JUMPDEST DUP1 MLOAD SWAP1 SWAP2 POP ISZERO PUSH2 0x1971 JUMPI DUP1 DUP1 PUSH1 0x20 ADD SWAP1 MLOAD DUP2 ADD SWAP1 PUSH2 0x1912 SWAP2 SWAP1 PUSH2 0x2672 JUMP JUMPDEST PUSH2 0x1971 JUMPI PUSH1 0x40 MLOAD PUSH3 0x461BCD PUSH1 0xE5 SHL DUP2 MSTORE PUSH1 0x20 PUSH1 0x4 DUP3 ADD MSTORE PUSH1 0x2A PUSH1 0x24 DUP3 ADD MSTORE PUSH32 0x5361666545524332303A204552433230206F7065726174696F6E20646964206E PUSH1 0x44 DUP3 ADD MSTORE PUSH10 0x1BDD081CDD58D8D95959 PUSH1 0xB2 SHL PUSH1 0x64 DUP3 ADD MSTORE PUSH1 0x84 ADD PUSH2 0x395 JUMP JUMPDEST POP POP POP JUMP JUMPDEST PUSH1 0x60 PUSH2 0x1985 DUP5 DUP5 PUSH1 0x0 DUP6 PUSH2 0x198D JUMP JUMPDEST SWAP5 SWAP4 POP POP POP POP JUMP JUMPDEST PUSH1 0x60 DUP3 SELFBALANCE LT ISZERO PUSH2 0x19EE JUMPI PUSH1 0x40 MLOAD PUSH3 0x461BCD PUSH1 0xE5 SHL DUP2 MSTORE PUSH1 0x20 PUSH1 0x4 DUP3 ADD MSTORE PUSH1 0x26 PUSH1 0x24 DUP3 ADD MSTORE PUSH32 0x416464726573733A20696E73756666696369656E742062616C616E636520666F PUSH1 0x44 DUP3 ADD MSTORE PUSH6 0x1C8818D85B1B PUSH1 0xD2 SHL PUSH1 0x64 DUP3 ADD MSTORE PUSH1 0x84 ADD PUSH2 0x395 JUMP JUMPDEST PUSH1 0x0 DUP1 DUP7 PUSH1 0x1 PUSH1 0x1 PUSH1 0xA0 SHL SUB AND DUP6 DUP8 PUSH1 0x40 MLOAD PUSH2 0x1A0A SWAP2 SWAP1 PUSH2 0x2694 JUMP JUMPDEST PUSH1 0x0 PUSH1 0x40 MLOAD DUP1 DUP4 SUB DUP2 DUP6 DUP8 GAS CALL SWAP3 POP POP POP RETURNDATASIZE DUP1 PUSH1 0x0 DUP2 EQ PUSH2 0x1A47 JUMPI PUSH1 0x40 MLOAD SWAP2 POP PUSH1 0x1F NOT PUSH1 0x3F RETURNDATASIZE ADD AND DUP3 ADD PUSH1 0x40 MSTORE RETURNDATASIZE DUP3 MSTORE RETURNDATASIZE PUSH1 0x0 PUSH1 0x20 DUP5 ADD RETURNDATACOPY PUSH2 0x1A4C JUMP JUMPDEST PUSH1 0x60 SWAP2 POP JUMPDEST POP SWAP2 POP SWAP2 POP PUSH2 0x1A5D DUP8 DUP4 DUP4 DUP8 PUSH2 0x1A68 JUMP JUMPDEST SWAP8 SWAP7 POP POP POP POP POP POP POP JUMP JUMPDEST PUSH1 0x60 DUP4 ISZERO PUSH2 0x1AD7 JUMPI DUP3 MLOAD PUSH1 0x0 SUB PUSH2 0x1AD0 JUMPI PUSH1 0x1 PUSH1 0x1 PUSH1 0xA0 SHL SUB DUP6 AND EXTCODESIZE PUSH2 0x1AD0 JUMPI PUSH1 0x40 MLOAD PUSH3 0x461BCD PUSH1 0xE5 SHL DUP2 MSTORE PUSH1 0x20 PUSH1 0x4 DUP3 ADD MSTORE PUSH1 0x1D PUSH1 0x24 DUP3 ADD MSTORE PUSH32 0x416464726573733A2063616C6C20746F206E6F6E2D636F6E7472616374000000 PUSH1 0x44 DUP3 ADD MSTORE PUSH1 0x64 ADD PUSH2 0x395 JUMP JUMPDEST POP DUP2 PUSH2 0x1985 JUMP JUMPDEST PUSH2 0x1985 DUP4 DUP4 DUP2 MLOAD ISZERO PUSH2 0x1AEC JUMPI DUP2 MLOAD DUP1 DUP4 PUSH1 0x20 ADD REVERT JUMPDEST DUP1 PUSH1 0x40 MLOAD PUSH3 0x461BCD PUSH1 0xE5 SHL DUP2 MSTORE PUSH1 0x4 ADD PUSH2 0x395 SWAP2 SWAP1 PUSH2 0x26B0 JUMP JUMPDEST DUP3 DUP1 SLOAD DUP3 DUP3 SSTORE SWAP1 PUSH1 0x0 MSTORE PUSH1 0x20 PUSH1 0x0 KECCAK256 SWAP1 DUP2 ADD SWAP3 DUP3 ISZERO PUSH2 0x1B59 JUMPI SWAP2 PUSH1 0x20 MUL DUP3 ADD JUMPDEST DUP3 DUP2 GT ISZERO PUSH2 0x1B59 JUMPI DUP2 SLOAD PUSH1 0x1 PUSH1 0x1 PUSH1 0xA0 SHL SUB NOT AND PUSH1 0x1 PUSH1 0x1 PUSH1 0xA0 SHL SUB DUP5 CALLDATALOAD AND OR DUP3 SSTORE PUSH1 0x20 SWAP1 SWAP3 ADD SWAP2 PUSH1 0x1 SWAP1 SWAP2 ADD SWAP1 PUSH2 0x1B26 JUMP JUMPDEST POP PUSH2 0x1B65 SWAP3 SWAP2 POP PUSH2 0x1BA4 JUMP JUMPDEST POP SWAP1 JUMP JUMPDEST DUP3 DUP1 SLOAD DUP3 DUP3 SSTORE SWAP1 PUSH1 0x0 MSTORE PUSH1 0x20 PUSH1 0x0 KECCAK256 SWAP1 DUP2 ADD SWAP3 DUP3 ISZERO PUSH2 0x1B59 JUMPI SWAP2 PUSH1 0x20 MUL DUP3 ADD JUMPDEST DUP3 DUP2 GT ISZERO PUSH2 0x1B59 JUMPI DUP3 CALLDATALOAD DUP3 SSTORE SWAP2 PUSH1 0x20 ADD SWAP2 SWAP1 PUSH1 0x1 ADD SWAP1 PUSH2 0x1B89 JUMP JUMPDEST JUMPDEST DUP1 DUP3 GT ISZERO PUSH2 0x1B65 JUMPI PUSH1 0x0 DUP2 SSTORE PUSH1 0x1 ADD PUSH2 0x1BA5 JUMP JUMPDEST PUSH1 0x1 PUSH1 0x1 PUSH1 0xA0 SHL SUB DUP2 AND DUP2 EQ PUSH2 0x1BCE JUMPI PUSH1 0x0 DUP1 REVERT JUMPDEST POP JUMP JUMPDEST DUP1 CALLDATALOAD PUSH2 0x1BDC DUP2 PUSH2 0x1BB9 JUMP JUMPDEST SWAP2 SWAP1 POP JUMP JUMPDEST PUSH1 0x0 PUSH1 0x20 DUP3 DUP5 SUB SLT ISZERO PUSH2 0x1BF3 JUMPI PUSH1 0x0 DUP1 REVERT JUMPDEST DUP2 CALLDATALOAD PUSH2 0x1838 DUP2 PUSH2 0x1BB9 JUMP JUMPDEST PUSH1 0x20 DUP1 DUP3 MSTORE DUP3 MLOAD DUP3 DUP3 ADD DUP2 SWAP1 MSTORE PUSH1 0x0 SWAP2 SWAP1 DUP5 DUP3 ADD SWAP1 PUSH1 0x40 DUP6 ADD SWAP1 DUP5 JUMPDEST DUP2 DUP2 LT ISZERO PUSH2 0x1C3F JUMPI DUP4 MLOAD PUSH1 0x1 PUSH1 0x1 PUSH1 0xA0 SHL SUB AND DUP4 MSTORE SWAP3 DUP5 ADD SWAP3 SWAP2 DUP5 ADD SWAP2 PUSH1 0x1 ADD PUSH2 0x1C1A JUMP JUMPDEST POP SWAP1 SWAP7 SWAP6 POP POP POP POP POP POP JUMP JUMPDEST PUSH1 0x0 DUP1 DUP4 PUSH1 0x1F DUP5 ADD SLT PUSH2 0x1C5D JUMPI PUSH1 0x0 DUP1 REVERT JUMPDEST POP DUP2 CALLDATALOAD PUSH8 0xFFFFFFFFFFFFFFFF DUP2 GT ISZERO PUSH2 0x1C75 JUMPI PUSH1 0x0 DUP1 REVERT JUMPDEST PUSH1 0x20 DUP4 ADD SWAP2 POP DUP4 PUSH1 0x20 DUP3 PUSH1 0x5 SHL DUP6 ADD ADD GT ISZERO PUSH2 0x1C90 JUMPI PUSH1 0x0 DUP1 REVERT JUMPDEST SWAP3 POP SWAP3 SWAP1 POP JUMP JUMPDEST PUSH1 0x0 DUP1 PUSH1 0x0 DUP1 PUSH1 0x60 DUP6 DUP8 SUB SLT ISZERO PUSH2 0x1CAD JUMPI PUSH1 0x0 DUP1 REVERT JUMPDEST DUP5 CALLDATALOAD PUSH2 0x1CB8 DUP2 PUSH2 0x1BB9 JUMP JUMPDEST SWAP4 POP PUSH1 0x20 DUP6 ADD CALLDATALOAD PUSH2 0x1CC8 DUP2 PUSH2 0x1BB9 JUMP JUMPDEST SWAP3 POP PUSH1 0x40 DUP6 ADD CALLDATALOAD PUSH8 0xFFFFFFFFFFFFFFFF DUP2 GT ISZERO PUSH2 0x1CE4 JUMPI PUSH1 0x0 DUP1 REVERT JUMPDEST PUSH2 0x1CF0 DUP8 DUP3 DUP9 ADD PUSH2 0x1C4B JUMP JUMPDEST SWAP6 SWAP9 SWAP5 SWAP8 POP SWAP6 POP POP POP POP JUMP JUMPDEST PUSH1 0x0 DUP1 PUSH1 0x0 DUP1 PUSH1 0x0 DUP1 PUSH1 0x80 DUP8 DUP10 SUB SLT ISZERO PUSH2 0x1D15 JUMPI PUSH1 0x0 DUP1 REVERT JUMPDEST DUP7 CALLDATALOAD PUSH8 0xFFFFFFFFFFFFFFFF DUP1 DUP3 GT ISZERO PUSH2 0x1D2D JUMPI PUSH1 0x0 DUP1 REVERT JUMPDEST PUSH2 0x1D39 DUP11 DUP4 DUP12 ADD PUSH2 0x1C4B JUMP JUMPDEST SWAP1 SWAP9 POP SWAP7 POP PUSH1 0x20 DUP10 ADD CALLDATALOAD SWAP2 POP DUP1 DUP3 GT ISZERO PUSH2 0x1D52 JUMPI PUSH1 0x0 DUP1 REVERT JUMPDEST POP PUSH2 0x1D5F DUP10 DUP3 DUP11 ADD PUSH2 0x1C4B JUMP JUMPDEST SWAP1 SWAP6 POP SWAP4 POP POP PUSH1 0x40 DUP8 ADD CALLDATALOAD PUSH2 0x1D73 DUP2 PUSH2 0x1BB9 JUMP JUMPDEST DUP1 SWAP3 POP POP PUSH1 0x60 DUP8 ADD CALLDATALOAD SWAP1 POP SWAP3 SWAP6 POP SWAP3 SWAP6 POP SWAP3 SWAP6 JUMP JUMPDEST PUSH1 0x0 DUP1 PUSH1 0x0 PUSH1 0x40 DUP5 DUP7 SUB SLT ISZERO PUSH2 0x1D9D JUMPI PUSH1 0x0 DUP1 REVERT JUMPDEST DUP4 CALLDATALOAD PUSH2 0x1DA8 DUP2 PUSH2 0x1BB9 JUMP JUMPDEST SWAP3 POP PUSH1 0x20 DUP5 ADD CALLDATALOAD PUSH8 0xFFFFFFFFFFFFFFFF DUP2 GT ISZERO PUSH2 0x1DC4 JUMPI PUSH1 0x0 DUP1 REVERT JUMPDEST PUSH2 0x1DD0 DUP7 DUP3 DUP8 ADD PUSH2 0x1C4B JUMP JUMPDEST SWAP5 SWAP8 SWAP1 SWAP7 POP SWAP4 SWAP5 POP POP POP POP JUMP JUMPDEST PUSH1 0x0 DUP1 PUSH1 0x0 DUP1 PUSH1 0x40 DUP6 DUP8 SUB SLT ISZERO PUSH2 0x1DF3 JUMPI PUSH1 0x0 DUP1 REVERT JUMPDEST DUP5 CALLDATALOAD PUSH8 0xFFFFFFFFFFFFFFFF DUP1 DUP3 GT ISZERO PUSH2 0x1E0B JUMPI PUSH1 0x0 DUP1 REVERT JUMPDEST PUSH2 0x1E17 DUP9 DUP4 DUP10 ADD PUSH2 0x1C4B JUMP JUMPDEST SWAP1 SWAP7 POP SWAP5 POP PUSH1 0x20 DUP8 ADD CALLDATALOAD SWAP2 POP DUP1 DUP3 GT ISZERO PUSH2 0x1E30 JUMPI PUSH1 0x0 DUP1 REVERT JUMPDEST POP PUSH2 0x1CF0 DUP8 DUP3 DUP9 ADD PUSH2 0x1C4B JUMP JUMPDEST PUSH1 0x0 PUSH1 0x20 DUP3 DUP5 SUB SLT ISZERO PUSH2 0x1E4F JUMPI PUSH1 0x0 DUP1 REVERT JUMPDEST POP CALLDATALOAD SWAP2 SWAP1 POP JUMP JUMPDEST PUSH1 0x0 DUP1 PUSH1 0x0 DUP1 PUSH1 0x0 PUSH1 0x60 DUP7 DUP9 SUB SLT ISZERO PUSH2 0x1E6E JUMPI PUSH1 0x0 DUP1 REVERT JUMPDEST DUP6 CALLDATALOAD PUSH2 0x1E79 DUP2 PUSH2 0x1BB9 JUMP JUMPDEST SWAP5 POP PUSH1 0x20 DUP7 ADD CALLDATALOAD PUSH8 0xFFFFFFFFFFFFFFFF DUP1 DUP3 GT ISZERO PUSH2 0x1E96 JUMPI PUSH1 0x0 DUP1 REVERT JUMPDEST PUSH2 0x1EA2 DUP10 DUP4 DUP11 ADD PUSH2 0x1C4B JUMP JUMPDEST SWAP1 SWAP7 POP SWAP5 POP PUSH1 0x40 DUP9 ADD CALLDATALOAD SWAP2 POP DUP1 DUP3 GT ISZERO PUSH2 0x1EBB JUMPI PUSH1 0x0 DUP1 REVERT JUMPDEST POP PUSH2 0x1EC8 DUP9 DUP3 DUP10 ADD PUSH2 0x1C4B JUMP JUMPDEST SWAP7 SWAP10 SWAP6 SWAP9 POP SWAP4 SWAP7 POP SWAP3 SWAP5 SWAP4 SWAP3 POP POP POP JUMP JUMPDEST PUSH1 0x20 DUP1 DUP3 MSTORE DUP3 MLOAD DUP3 DUP3 ADD DUP2 SWAP1 MSTORE PUSH1 0x0 SWAP2 SWAP1 DUP5 DUP3 ADD SWAP1 PUSH1 0x40 DUP6 ADD SWAP1 DUP5 JUMPDEST DUP2 DUP2 LT ISZERO PUSH2 0x1C3F JUMPI DUP4 MLOAD DUP4 MSTORE SWAP3 DUP5 ADD SWAP3 SWAP2 DUP5 ADD SWAP2 PUSH1 0x1 ADD PUSH2 0x1EF5 JUMP JUMPDEST PUSH1 0x0 DUP1 PUSH1 0x0 DUP1 PUSH1 0x0 DUP1 PUSH1 0x0 DUP1 PUSH1 0x0 DUP1 PUSH1 0x0 PUSH1 0xC0 DUP13 DUP15 SUB SLT ISZERO PUSH2 0x1F32 JUMPI PUSH1 0x0 DUP1 REVERT JUMPDEST PUSH2 0x1F3B DUP13 PUSH2 0x1BD1 JUMP JUMPDEST SWAP11 POP PUSH8 0xFFFFFFFFFFFFFFFF DUP1 PUSH1 0x20 DUP15 ADD CALLDATALOAD GT ISZERO PUSH2 0x1F57 JUMPI PUSH1 0x0 DUP1 REVERT JUMPDEST PUSH2 0x1F67 DUP15 PUSH1 0x20 DUP16 ADD CALLDATALOAD DUP16 ADD PUSH2 0x1C4B JUMP JUMPDEST SWAP1 SWAP12 POP SWAP10 POP PUSH1 0x40 DUP14 ADD CALLDATALOAD DUP2 LT ISZERO PUSH2 0x1F7D JUMPI PUSH1 0x0 DUP1 REVERT JUMPDEST PUSH2 0x1F8D DUP15 PUSH1 0x40 DUP16 ADD CALLDATALOAD DUP16 ADD PUSH2 0x1C4B JUMP JUMPDEST SWAP1 SWAP10 POP SWAP8 POP PUSH1 0x60 DUP14 ADD CALLDATALOAD DUP2 LT ISZERO PUSH2 0x1FA3 JUMPI PUSH1 0x0 DUP1 REVERT JUMPDEST PUSH2 0x1FB3 DUP15 PUSH1 0x60 DUP16 ADD CALLDATALOAD DUP16 ADD PUSH2 0x1C4B JUMP JUMPDEST SWAP1 SWAP8 POP SWAP6 POP PUSH1 0x80 DUP14 ADD CALLDATALOAD DUP2 LT ISZERO PUSH2 0x1FC9 JUMPI PUSH1 0x0 DUP1 REVERT JUMPDEST PUSH2 0x1FD9 DUP15 PUSH1 0x80 DUP16 ADD CALLDATALOAD DUP16 ADD PUSH2 0x1C4B JUMP JUMPDEST SWAP1 SWAP6 POP SWAP4 POP PUSH1 0xA0 DUP14 ADD CALLDATALOAD DUP2 LT ISZERO PUSH2 0x1FEF JUMPI PUSH1 0x0 DUP1 REVERT JUMPDEST POP PUSH2 0x2000 DUP14 PUSH1 0xA0 DUP15 ADD CALLDATALOAD DUP15 ADD PUSH2 0x1C4B JUMP JUMPDEST DUP2 SWAP4 POP DUP1 SWAP3 POP POP POP SWAP3 SWAP6 SWAP9 SWAP12 POP SWAP3 SWAP6 SWAP9 SWAP12 SWAP1 SWAP4 SWAP7 SWAP10 POP JUMP JUMPDEST PUSH1 0x20 DUP1 DUP3 MSTORE PUSH1 0x1A SWAP1 DUP3 ADD MSTORE PUSH32 0x57696C6C65723A2077696C6C20646F65736E2774206578697374000000000000 PUSH1 0x40 DUP3 ADD MSTORE PUSH1 0x60 ADD SWAP1 JUMP JUMPDEST PUSH1 0x20 DUP1 DUP3 MSTORE PUSH1 0x14 SWAP1 DUP3 ADD MSTORE PUSH20 0x57696C6C65723A20756E72656C65617361626C65 PUSH1 0x60 SHL PUSH1 0x40 DUP3 ADD MSTORE PUSH1 0x60 ADD SWAP1 JUMP JUMPDEST PUSH4 0x4E487B71 PUSH1 0xE0 SHL PUSH1 0x0 MSTORE PUSH1 0x32 PUSH1 0x4 MSTORE PUSH1 0x24 PUSH1 0x0 REVERT JUMPDEST PUSH4 0x4E487B71 PUSH1 0xE0 SHL PUSH1 0x0 MSTORE PUSH1 0x11 PUSH1 0x4 MSTORE PUSH1 0x24 PUSH1 0x0 REVERT JUMPDEST PUSH1 0x0 PUSH1 0x1 DUP3 ADD PUSH2 0x20BB JUMPI PUSH2 0x20BB PUSH2 0x2093 JUMP JUMPDEST POP PUSH1 0x1 ADD SWAP1 JUMP JUMPDEST PUSH1 0x20 DUP1 DUP3 MSTORE PUSH1 0x32 SWAP1 DUP3 ADD MSTORE PUSH32 0x57696C6C65723A2062656E656669636961726965735F20616E64207368617265 PUSH1 0x40 DUP3 ADD MSTORE PUSH18 0xE6BE40D8CADCCEE8D040DAD2E6DAC2E8C6D PUSH1 0x73 SHL PUSH1 0x60 DUP3 ADD MSTORE PUSH1 0x80 ADD SWAP1 JUMP JUMPDEST PUSH1 0x20 DUP1 DUP3 MSTORE PUSH1 0x27 SWAP1 DUP3 ADD MSTORE PUSH32 0x57696C6C65723A2030783020206973206E6F7420612076616C69642062656E65 PUSH1 0x40 DUP3 ADD MSTORE PUSH7 0x66696369617279 PUSH1 0xC8 SHL PUSH1 0x60 DUP3 ADD MSTORE PUSH1 0x80 ADD SWAP1 JUMP JUMPDEST PUSH1 0x20 DUP1 DUP3 MSTORE PUSH1 0x2B SWAP1 DUP3 ADD MSTORE PUSH32 0x57696C6C65723A207465737461746F72206973206E6F7420612076616C696420 PUSH1 0x40 DUP3 ADD MSTORE PUSH11 0x62656E6566696369617279 PUSH1 0xA8 SHL PUSH1 0x60 DUP3 ADD MSTORE PUSH1 0x80 ADD SWAP1 JUMP JUMPDEST PUSH1 0x20 DUP1 DUP3 MSTORE PUSH1 0x2C SWAP1 DUP3 ADD MSTORE PUSH32 0x57696C6C65723A2073686172652063616E277420626520677265617465722074 PUSH1 0x40 DUP3 ADD MSTORE PUSH12 0x68616E204D41585348415245 PUSH1 0xA0 SHL PUSH1 0x60 DUP3 ADD MSTORE PUSH1 0x80 ADD SWAP1 JUMP JUMPDEST DUP1 DUP3 ADD DUP1 DUP3 GT ISZERO PUSH2 0x2205 JUMPI PUSH2 0x2205 PUSH2 0x2093 JUMP JUMPDEST SWAP3 SWAP2 POP POP JUMP JUMPDEST PUSH1 0x20 DUP1 DUP3 MSTORE PUSH1 0x21 SWAP1 DUP3 ADD MSTORE PUSH32 0x57696C6C65723A20496E76616C69642072656C656173652074696D657374616D PUSH1 0x40 DUP3 ADD MSTORE PUSH1 0x7 PUSH1 0xFC SHL PUSH1 0x60 DUP3 ADD MSTORE PUSH1 0x80 ADD SWAP1 JUMP JUMPDEST PUSH1 0x20 DUP1 DUP3 MSTORE PUSH1 0x38 SWAP1 DUP3 ADD MSTORE PUSH32 0x57696C6C65723A207A65726F206164647265737320206973206E6F7420612076 PUSH1 0x40 DUP3 ADD MSTORE PUSH32 0x616C69642062656E65666963696172794F664552433732310000000000000000 PUSH1 0x60 DUP3 ADD MSTORE PUSH1 0x80 ADD SWAP1 JUMP JUMPDEST PUSH1 0x0 PUSH1 0x60 DUP3 ADD PUSH1 0x60 DUP4 MSTORE DUP1 DUP7 SLOAD DUP1 DUP4 MSTORE PUSH1 0x80 DUP6 ADD SWAP2 POP PUSH1 0x0 SWAP3 POP DUP8 DUP4 MSTORE PUSH1 0x20 DUP1 DUP5 KECCAK256 DUP5 JUMPDEST DUP4 DUP2 LT ISZERO PUSH2 0x22F2 JUMPI DUP2 SLOAD PUSH1 0x1 PUSH1 0x1 PUSH1 0xA0 SHL SUB AND DUP6 MSTORE SWAP4 DUP3 ADD SWAP4 PUSH1 0x1 SWAP2 DUP3 ADD SWAP2 ADD PUSH2 0x22CD JUMP JUMPDEST POP POP DUP6 DUP4 SUB DUP2 DUP8 ADD MSTORE DUP8 SLOAD DUP1 DUP5 MSTORE DUP9 DUP6 MSTORE DUP2 DUP6 KECCAK256 SWAP4 DUP3 ADD SWAP3 POP JUMPDEST DUP1 DUP6 LT ISZERO PUSH2 0x232B JUMPI DUP4 SLOAD DUP4 MSTORE PUSH1 0x1 SWAP5 DUP6 ADD SWAP5 SWAP1 SWAP4 ADD SWAP3 SWAP2 DUP2 ADD SWAP2 PUSH2 0x230C JUMP JUMPDEST POP POP DUP1 SWAP4 POP POP POP POP DUP3 PUSH1 0x40 DUP4 ADD MSTORE SWAP5 SWAP4 POP POP POP POP JUMP JUMPDEST DUP2 DUP4 MSTORE PUSH1 0x0 PUSH1 0x1 PUSH1 0x1 PUSH1 0xFB SHL SUB DUP4 GT ISZERO PUSH2 0x235A JUMPI PUSH1 0x0 DUP1 REVERT JUMPDEST DUP3 PUSH1 0x5 SHL DUP1 DUP4 PUSH1 0x20 DUP8 ADD CALLDATACOPY SWAP4 SWAP1 SWAP4 ADD PUSH1 0x20 ADD SWAP4 SWAP3 POP POP POP JUMP JUMPDEST PUSH1 0x40 DUP1 DUP3 MSTORE DUP2 ADD DUP5 SWAP1 MSTORE PUSH1 0x0 DUP6 PUSH1 0x60 DUP4 ADD DUP3 JUMPDEST DUP8 DUP2 LT ISZERO PUSH2 0x23B6 JUMPI DUP3 CALLDATALOAD PUSH2 0x2399 DUP2 PUSH2 0x1BB9 JUMP JUMPDEST PUSH1 0x1 PUSH1 0x1 PUSH1 0xA0 SHL SUB AND DUP3 MSTORE PUSH1 0x20 SWAP3 DUP4 ADD SWAP3 SWAP1 SWAP2 ADD SWAP1 PUSH1 0x1 ADD PUSH2 0x2386 JUMP JUMPDEST POP DUP4 DUP2 SUB PUSH1 0x20 DUP6 ADD MSTORE PUSH2 0x23CA DUP2 DUP7 DUP9 PUSH2 0x2341 JUMP JUMPDEST SWAP9 SWAP8 POP POP POP POP POP POP POP POP JUMP JUMPDEST PUSH1 0x0 DUP1 DUP4 CALLDATALOAD PUSH1 0x1E NOT DUP5 CALLDATASIZE SUB ADD DUP2 SLT PUSH2 0x23ED JUMPI PUSH1 0x0 DUP1 REVERT JUMPDEST DUP4 ADD DUP1 CALLDATALOAD SWAP2 POP PUSH8 0xFFFFFFFFFFFFFFFF DUP3 GT ISZERO PUSH2 0x2408 JUMPI PUSH1 0x0 DUP1 REVERT JUMPDEST PUSH1 0x20 ADD SWAP2 POP PUSH1 0x5 DUP2 SWAP1 SHL CALLDATASIZE SUB DUP3 SGT ISZERO PUSH2 0x1C90 JUMPI PUSH1 0x0 DUP1 REVERT JUMPDEST PUSH1 0x1 PUSH1 0x1 PUSH1 0xA0 SHL SUB DUP5 DUP2 AND DUP3 MSTORE PUSH1 0x40 PUSH1 0x20 DUP1 DUP5 ADD DUP3 SWAP1 MSTORE SWAP1 DUP4 ADD DUP5 SWAP1 MSTORE PUSH1 0x0 SWAP2 DUP6 SWAP2 PUSH1 0x60 DUP6 ADD DUP5 JUMPDEST DUP8 DUP2 LT ISZERO PUSH2 0x246F JUMPI DUP5 CALLDATALOAD PUSH2 0x245B DUP2 PUSH2 0x1BB9 JUMP JUMPDEST DUP5 AND DUP3 MSTORE SWAP4 DUP3 ADD SWAP4 SWAP1 DUP3 ADD SWAP1 PUSH1 0x1 ADD PUSH2 0x2448 JUMP JUMPDEST POP SWAP9 SWAP8 POP POP POP POP POP POP POP POP JUMP JUMPDEST PUSH1 0x1 PUSH1 0x1 PUSH1 0xA0 SHL SUB DUP7 DUP2 AND DUP3 MSTORE PUSH1 0x60 PUSH1 0x20 DUP1 DUP5 ADD DUP3 SWAP1 MSTORE SWAP1 DUP4 ADD DUP7 SWAP1 MSTORE PUSH1 0x0 SWAP2 DUP8 SWAP2 PUSH1 0x80 DUP6 ADD DUP5 JUMPDEST DUP10 DUP2 LT ISZERO PUSH2 0x24CB JUMPI DUP5 CALLDATALOAD PUSH2 0x24B7 DUP2 PUSH2 0x1BB9 JUMP JUMPDEST DUP5 AND DUP3 MSTORE SWAP4 DUP3 ADD SWAP4 SWAP1 DUP3 ADD SWAP1 PUSH1 0x1 ADD PUSH2 0x24A4 JUMP JUMPDEST POP DUP6 DUP2 SUB PUSH1 0x40 DUP8 ADD MSTORE DUP7 DUP2 MSTORE DUP2 DUP2 ADD SWAP4 POP PUSH1 0x5 SWAP3 POP DUP7 DUP4 SHL DUP2 ADD DUP3 ADD DUP9 PUSH1 0x0 JUMPDEST DUP10 DUP2 LT ISZERO PUSH2 0x255D JUMPI DUP4 DUP4 SUB PUSH1 0x1F NOT ADD DUP8 MSTORE DUP2 CALLDATALOAD CALLDATASIZE DUP13 SWAP1 SUB PUSH1 0x1E NOT ADD DUP2 SLT PUSH2 0x2511 JUMPI PUSH1 0x0 DUP1 REVERT JUMPDEST DUP12 ADD DUP6 DUP2 ADD SWAP1 CALLDATALOAD PUSH8 0xFFFFFFFFFFFFFFFF DUP2 GT ISZERO PUSH2 0x252D JUMPI PUSH1 0x0 DUP1 REVERT JUMPDEST DUP1 DUP9 SHL CALLDATASIZE SUB DUP3 SGT ISZERO PUSH2 0x253E JUMPI PUSH1 0x0 DUP1 REVERT JUMPDEST PUSH2 0x2549 DUP6 DUP3 DUP5 PUSH2 0x2341 JUMP JUMPDEST SWAP9 DUP8 ADD SWAP9 SWAP5 POP POP POP SWAP1 DUP5 ADD SWAP1 PUSH1 0x1 ADD PUSH2 0x24EB JUMP JUMPDEST POP SWAP1 SWAP13 SWAP12 POP POP POP POP POP POP POP POP POP POP POP POP JUMP JUMPDEST PUSH1 0x1 PUSH1 0x1 PUSH1 0xA0 SHL SUB DUP6 DUP2 AND DUP3 MSTORE DUP5 AND PUSH1 0x20 DUP3 ADD MSTORE PUSH1 0x60 PUSH1 0x40 DUP3 ADD DUP2 SWAP1 MSTORE PUSH1 0x0 SWAP1 PUSH2 0x259C SWAP1 DUP4 ADD DUP5 DUP7 PUSH2 0x2341 JUMP JUMPDEST SWAP7 SWAP6 POP POP POP POP POP POP JUMP JUMPDEST PUSH1 0x0 PUSH1 0x20 DUP3 DUP5 SUB SLT ISZERO PUSH2 0x25B8 JUMPI PUSH1 0x0 DUP1 REVERT JUMPDEST POP MLOAD SWAP2 SWAP1 POP JUMP JUMPDEST DUP2 DUP2 SUB DUP2 DUP2 GT ISZERO PUSH2 0x2205 JUMPI PUSH2 0x2205 PUSH2 0x2093 JUMP JUMPDEST PUSH1 0x0 JUMPDEST DUP4 DUP2 LT ISZERO PUSH2 0x25ED JUMPI DUP2 DUP2 ADD MLOAD DUP4 DUP3 ADD MSTORE PUSH1 0x20 ADD PUSH2 0x25D5 JUMP JUMPDEST POP POP PUSH1 0x0 SWAP2 ADD MSTORE JUMP JUMPDEST PUSH1 0x0 DUP2 MLOAD DUP1 DUP5 MSTORE PUSH2 0x260E DUP2 PUSH1 0x20 DUP7 ADD PUSH1 0x20 DUP7 ADD PUSH2 0x25D2 JUMP JUMPDEST PUSH1 0x1F ADD PUSH1 0x1F NOT AND SWAP3 SWAP1 SWAP3 ADD PUSH1 0x20 ADD SWAP3 SWAP2 POP POP JUMP JUMPDEST PUSH1 0x1 PUSH1 0x1 PUSH1 0xA0 SHL SUB DUP7 DUP2 AND DUP3 MSTORE DUP6 AND PUSH1 0x20 DUP3 ADD MSTORE PUSH1 0x40 DUP2 ADD DUP5 SWAP1 MSTORE PUSH1 0x60 DUP2 ADD DUP4 SWAP1 MSTORE PUSH1 0xA0 PUSH1 0x80 DUP3 ADD DUP2 SWAP1 MSTORE PUSH1 0x0 SWAP1 PUSH2 0x1A5D SWAP1 DUP4 ADD DUP5 PUSH2 0x25F6 JUMP JUMPDEST PUSH4 0x4E487B71 PUSH1 0xE0 SHL PUSH1 0x0 MSTORE PUSH1 0x12 PUSH1 0x4 MSTORE PUSH1 0x24 PUSH1 0x0 REVERT JUMPDEST PUSH1 0x0 PUSH1 0x20 DUP3 DUP5 SUB SLT ISZERO PUSH2 0x2684 JUMPI PUSH1 0x0 DUP1 REVERT JUMPDEST DUP2 MLOAD DUP1 ISZERO ISZERO DUP2 EQ PUSH2 0x1838 JUMPI PUSH1 0x0 DUP1 REVERT JUMPDEST PUSH1 0x0 DUP3 MLOAD PUSH2 0x26A6 DUP2 DUP5 PUSH1 0x20 DUP8 ADD PUSH2 0x25D2 JUMP JUMPDEST SWAP2 SWAP1 SWAP2 ADD SWAP3 SWAP2 POP POP JUMP JUMPDEST PUSH1 0x20 DUP2 MSTORE PUSH1 0x0 PUSH2 0x1838 PUSH1 0x20 DUP4 ADD DUP5 PUSH2 0x25F6 JUMP INVALID LOG2 PUSH5 0x6970667358 0x22 SLT KECCAK256 SELFDESTRUCT DUP15 0xB6 0x2E 0x26 CREATE DELEGATECALL STATICCALL DUP14 0xD5 LOG3 0xDF 0xE9 DUP6 MUL ADDMOD 0xAF TIMESTAMP 0xAA EXP DUP2 0xE3 BLOCKHASH 0xE4 PUSH25 0x2420AFDBC5F11864736F6C6343000813003300000000000000 ","sha1":"2ecbc7b748cbd5a734aef88f03c3115da081a7b9","source":"// SPDX-License-Identifier: MIT\npragma solidity ^0.8.16;\n\nimport \"@openzeppelin/contracts/utils/math/Math.sol\";\nimport \"@openzeppelin/contracts/token/ERC20/utils/SafeERC20.sol\";\nimport \"@openzeppelin/contracts/token/ERC20/IERC20.sol\";\nimport \"@openzeppelin/contracts/token/ERC721/IERC721.sol\";\nimport \"@openzeppelin/contracts/token/ERC1155/IERC1155.sol\";\nimport \"@openzeppelin/contracts/access/Ownable.sol\";\nimport \"@openzeppelin/contracts/security/ReentrancyGuard.sol\";\n\n/**\n * @title Willer\n * @author DimaKush\n *\n */\ncontract Willer is ReentrancyGuard {\n    using Math for uint;\n    using SafeERC20 for IERC20;\n\n    struct Will {\n        address[] beneficiaries;\n        uint sumShares;\n        address beneficiaryOfERC721;\n        uint releaseTime;\n        uint[] shares;\n    }\n\n    uint BUFFER = 60;\n    uint MAXSHARE = 10;\n\n    mapping(address => Will) private testatorToWill;\n\n    // Event emitted when a new will is added\n    event WillAdded(\n        address indexed testator,\n        address[] beneficiaries,\n        uint[] shares,\n        address indexed beneficiaryOfERC721,\n        uint releaseTime\n    );\n\n    // Event emitted when beneficiaries are updated\n    event BeneficiariesUpdated(\n        address indexed testator,\n        address[] newBeneficiaries,\n        uint[] newShares\n    );\n\n    // Event emitted when the release time is updated\n    event ReleaseTimeUpdated(address indexed testator, uint newReleaseTime);\n\n    // Event emitted when the beneficiary of ERC721 token is updated\n    event BeneficiaryOfERC721Updated(\n        address indexed testator,\n        address newBeneficiaryOfERC721\n    );\n\n    // Event emitted when ERC20 tokens are released\n    event ERC20TokensReleased(\n        address indexed testator,\n        address indexed beneficiary,\n        address tokenERC20Address,\n        uint amount\n    );\n\n    // Event emitted when ERC721 tokens are released\n    event ERC721TokensReleased(\n        address indexed testator,\n        address indexed beneficiary,\n        address tokenERC721Address,\n        uint tokenId\n    );\n\n    // Event emitted when ERC1155 tokens are released\n    event ERC1155TokensReleased(\n        address indexed testator,\n        address indexed beneficiary,\n        address tokenERC1155Address,\n        uint tokenId,\n        uint amount\n    );\n\n    modifier releasable(address _testator) {\n        require(\n            block.timestamp >= testatorToWill[_testator].releaseTime,\n            \"Willer: unreleasable\"\n        );\n        require(block.timestamp != 0);\n        _;\n    }\n\n    modifier validReleaseTime(uint releaseTimestamp_) {\n        require(\n            releaseTimestamp_ >= block.timestamp + BUFFER,\n            \"Willer: Invalid release timestamp\"\n        );\n        _;\n    }\n\n    modifier validBeneficiaryOfERC721(address beneficiaryOfERC721_) {\n        require(\n            beneficiaryOfERC721_ != address(0),\n            \"Willer: zero address  is not a valid beneficiaryOfERC721\"\n        );\n        _;\n    }\n\n    modifier validBeneficiariesAndShares(\n        address[] calldata beneficiaries_,\n        uint[] calldata shares_,\n        address testator_\n    ) {\n        require(\n            beneficiaries_.length == shares_.length,\n            \"Willer: beneficiaries_ and shares_ length mismatch\"\n        );\n\n        for (uint i; i < beneficiaries_.length; i++) {\n            require(\n                beneficiaries_[i] != address(0),\n                \"Willer: 0x0  is not a valid beneficiary\"\n            );\n            require(\n                beneficiaries_[i] != testator_,\n                \"Willer: testator is not a valid beneficiary\"\n            );\n            require(\n                shares_[i] <= MAXSHARE,\n                \"Willer: share can't be greater than MAXSHARE\"\n            );\n            require(shares_[i] > 0, \"Willer: share can't be 0\");\n        }\n        _;\n    }\n\n    modifier willExists(address _testator) {\n        require(\n            (testatorToWill[_testator].releaseTime != 0 &&\n                testatorToWill[_testator].beneficiaries.length != 0 &&\n                testatorToWill[_testator].beneficiaryOfERC721 != address(0)),\n            \"Willer: will doesn't exist\"\n        );\n        _;\n    }\n\n    modifier sameLengthArrays(\n        address[] calldata beneficiaries_,\n        uint[] calldata shares_\n    ) {\n        require(\n            beneficiaries_.length == shares_.length,\n            \"Willer: beneficiaries_ and shares_ length mismatch\"\n        );\n        _;\n    }\n\n    modifier executorIsBeneficiary(address _testator) {\n        bool _executorIsBeneficiary = false;\n        for (\n            uint i = 0;\n            i < testatorToWill[_testator].beneficiaries.length;\n            i++\n        ) {\n            if (msg.sender == testatorToWill[_testator].beneficiaries[i]) {\n                _executorIsBeneficiary = true;\n            }\n        }\n        if (msg.sender == testatorToWill[_testator].beneficiaryOfERC721) {\n            _executorIsBeneficiary = true;\n        }\n\n        require(_executorIsBeneficiary, \"Willer: executor is not beneficiary\");\n        _;\n    }\n\n    function addWill(\n        address[] calldata beneficiaries_,\n        uint[] calldata shares_,\n        address beneficiaryOfERC721_,\n        uint releaseTime_\n    )\n        public\n        validBeneficiariesAndShares(beneficiaries_, shares_, msg.sender)\n        validReleaseTime(releaseTime_)\n        validBeneficiaryOfERC721(beneficiaryOfERC721_)\n    {\n        Will storage w = testatorToWill[msg.sender];\n        w.beneficiaries = beneficiaries_;\n        w.shares = shares_;\n        w.sumShares = 0;\n        w.beneficiaryOfERC721 = beneficiaryOfERC721_;\n        w.releaseTime = releaseTime_;\n        for (uint i = 0; i < shares_.length; i++) {\n            w.sumShares += shares_[i];\n        }\n        emit WillAdded(\n            msg.sender,\n            w.beneficiaries,\n            w.shares,\n            w.beneficiaryOfERC721,\n            w.releaseTime\n        );\n    }\n\n    function getBuffer() public view returns (uint) {\n        return BUFFER;\n    }\n\n    function getMaxShare() public view returns (uint) {\n        return MAXSHARE;\n    }\n\n    function getReleaseTime(address testator) public view returns (uint) {\n        return testatorToWill[testator].releaseTime;\n    }\n\n    function getBeneficiaries(\n        address testator\n    ) public view returns (address[] memory) {\n        return testatorToWill[testator].beneficiaries;\n    }\n\n    function getShares(address testator) public view returns (uint[] memory) {\n        return testatorToWill[testator].shares;\n    }\n\n    function getSumShares(address testator) public view returns (uint) {\n        return testatorToWill[testator].sumShares;\n    }\n\n    function getBeneficiaryOfERC721(\n        address _testator\n    ) public view returns (address beneficiaryOfERC721) {\n        return testatorToWill[_testator].beneficiaryOfERC721;\n    }\n\n    function setNewBeneficiaries(\n        address[] calldata newBeneficiaries,\n        uint[] calldata newShares\n    )\n        public\n        willExists(msg.sender)\n        validBeneficiariesAndShares(newBeneficiaries, newShares, msg.sender)\n    {\n        testatorToWill[msg.sender].beneficiaries = newBeneficiaries;\n        testatorToWill[msg.sender].shares = newShares;\n        emit BeneficiariesUpdated(msg.sender, newBeneficiaries, newShares);\n    }\n\n    function setNewReleaseTime(\n        uint newReleaseTime\n    )\n        external\n        willExists(msg.sender)\n        validReleaseTime(newReleaseTime)\n        returns (uint)\n    {\n        testatorToWill[msg.sender].releaseTime = newReleaseTime;\n        emit ReleaseTimeUpdated(msg.sender, newReleaseTime);\n        return testatorToWill[msg.sender].releaseTime;\n    }\n\n    function setNewBeneficiaryOfERC721(\n        address newBeneficiaryOfERC721\n    )\n        external\n        willExists(msg.sender)\n        validBeneficiaryOfERC721(newBeneficiaryOfERC721)\n    {\n        testatorToWill[msg.sender].beneficiaryOfERC721 = newBeneficiaryOfERC721;\n        emit BeneficiaryOfERC721Updated(msg.sender, newBeneficiaryOfERC721);\n    }\n\n    function releaseERC20(address testator, IERC20 tokenERC20) private {\n        uint balance = tokenERC20.balanceOf(testator);\n        uint bequest = 0;\n        require(balance != 0, \"Willer: No ERC20 tokens to release\");\n        uint allowed = tokenERC20.allowance(testator, address(this));\n        require(allowed != 0, \"Willer: ERC20 zero allowance\");\n        if (allowed < balance) {\n            balance = allowed;\n        }\n        for (\n            uint i = 0;\n            i < testatorToWill[testator].beneficiaries.length;\n            i++\n        ) {\n            bequest = balance.mulDiv(\n                testatorToWill[testator].shares[i],\n                testatorToWill[testator].sumShares\n            );\n            // last beneficiary receives bequest and modulo\n            if (i == testatorToWill[testator].beneficiaries.length - 1) {\n                bequest = tokenERC20.balanceOf(testator);\n            }\n            tokenERC20.safeTransferFrom(\n                testator,\n                testatorToWill[testator].beneficiaries[i],\n                bequest\n            );\n            emit ERC20TokensReleased(\n                testator,\n                testatorToWill[testator].beneficiaries[i],\n                address(tokenERC20),\n                bequest\n            );\n        }\n    }\n\n    function batchReleaseERC20(\n        address testator,\n        IERC20[] calldata tokenERC20List\n    )\n        external\n        willExists(testator)\n        releasable(testator)\n        // executorIsBeneficiary(testator)\n        nonReentrant()\n    {\n        for (uint i = 0; i < tokenERC20List.length; i++) {\n            releaseERC20(testator, tokenERC20List[i]);\n        }\n    }\n\n    function releaseERC721(\n        address testator,\n        IERC721 tokenERC721,\n        uint[] calldata tokenIdList\n    ) private {\n        for (uint i = 0; i < tokenIdList.length; i++) {\n            tokenERC721.safeTransferFrom(\n                testator,\n                testatorToWill[testator].beneficiaryOfERC721,\n                tokenIdList[i]\n            );\n        }\n    }\n\n    function batchReleaseERC721(\n        address testator,\n        IERC721[] calldata tokenERC721List,\n        uint[][] calldata tokenIdLists\n    )\n        external\n        willExists(testator)\n        releasable(testator)\n        // executorIsBeneficiary(testator)\n        nonReentrant()\n    {\n        for (uint i = 0; i < tokenERC721List.length; i++) {\n            releaseERC721(testator, tokenERC721List[i], tokenIdLists[i]);\n        }\n    }\n\n    function releaseERC1155(\n        address testator,\n        IERC1155 tokenERC1155,\n        uint tokenId\n    ) private {\n        uint balance = tokenERC1155.balanceOf(testator, tokenId);\n        uint bequest = 0;\n        for (\n            uint i = 0;\n            i < testatorToWill[testator].beneficiaries.length;\n            i++\n        ) {\n            bequest = balance.mulDiv(\n                testatorToWill[testator].shares[i],\n                testatorToWill[testator].sumShares\n            );\n            // last beneficiary receives bequest and modulo\n            if (i == testatorToWill[testator].beneficiaries.length - 1) {\n                bequest = tokenERC1155.balanceOf(testator, tokenId);\n            }\n            tokenERC1155.safeTransferFrom(\n                testator,\n                testatorToWill[testator].beneficiaries[i],\n                tokenId,\n                bequest,\n                bytes(\"\")\n            );\n        }\n    }\n\n    function batchReleaseERC1155(\n        address testator,\n        IERC1155 tokenERC1155,\n        uint[] calldata tokenIdLists\n    )\n        external\n        willExists(testator)\n        releasable(testator)\n        // executorIsBeneficiary(testator)\n        nonReentrant()\n    {\n        for (uint i = 0; i < tokenIdLists.length; i++) {\n            releaseERC1155(testator, tokenERC1155, tokenIdLists[i]);\n        }\n    }\n\n    function batchRelease(\n        address testator,\n        IERC20[] calldata tokenERC20List,\n        IERC721[] calldata tokenERC721List,\n        IERC1155[] calldata tokenERC1155List,\n        uint[][] calldata ERC721tokenIdLists,\n        uint[][] calldata ERC1155tokenIdLists\n    )\n        external\n    {\n        this.batchReleaseERC20(testator, tokenERC20List);\n        this.batchReleaseERC721(testator, tokenERC721List, ERC721tokenIdLists);\n        for (uint i = 0; i < tokenERC1155List.length; i++) {\n            this.batchReleaseERC1155(\n                testator,\n                tokenERC1155List[i],\n                ERC1155tokenIdLists[i]\n            );\n        }\n    }\n}\n","sourcePath":"contracts/Willer.sol","type":"contract","deployment":{"address":"0x46D1CD2D25a160bbe5AbA77a73EC10d65fa63223","chainid":"5","blockHeight":9520079}}