{"abi":[{"inputs":[{"internalType":"address[]","name":"beneficiaries_","type":"address[]"},{"internalType":"uint256[]","name":"shares_","type":"uint256[]"},{"internalType":"address","name":"beneficiaryOfERC721_","type":"address"},{"internalType":"uint256","name":"releaseTime_","type":"uint256"}],"name":"addWill","outputs":[],"stateMutability":"nonpayable","type":"function"},{"inputs":[{"internalType":"address","name":"testator","type":"address"},{"internalType":"contract IERC20[]","name":"tokenERC20List","type":"address[]"},{"internalType":"contract IERC721[]","name":"tokenERC721List","type":"address[]"},{"internalType":"contract IERC1155[]","name":"tokenERC1155List","type":"address[]"},{"internalType":"uint256[][]","name":"ERC721tokenIdLists","type":"uint256[][]"},{"internalType":"uint256[][]","name":"ERC1155tokenIdLists","type":"uint256[][]"}],"name":"batchRelease","outputs":[],"stateMutability":"nonpayable","type":"function"},{"inputs":[{"internalType":"address","name":"testator","type":"address"},{"internalType":"contract IERC1155","name":"tokenERC1155","type":"address"},{"internalType":"uint256[]","name":"tokenIdLists","type":"uint256[]"}],"name":"batchReleaseERC1155","outputs":[],"stateMutability":"nonpayable","type":"function"},{"inputs":[{"internalType":"address","name":"testator","type":"address"},{"internalType":"contract IERC20[]","name":"tokenERC20List","type":"address[]"}],"name":"batchReleaseERC20","outputs":[],"stateMutability":"nonpayable","type":"function"},{"inputs":[{"internalType":"address","name":"testator","type":"address"},{"internalType":"contract IERC721[]","name":"tokenERC721List","type":"address[]"},{"internalType":"uint256[][]","name":"tokenIdLists","type":"uint256[][]"}],"name":"batchReleaseERC721","outputs":[],"stateMutability":"nonpayable","type":"function"},{"inputs":[{"internalType":"address","name":"testator","type":"address"}],"name":"getBeneficiaries","outputs":[{"internalType":"address[]","name":"","type":"address[]"}],"stateMutability":"view","type":"function"},{"inputs":[{"internalType":"address","name":"_testator","type":"address"}],"name":"getBeneficiaryOfERC721","outputs":[{"internalType":"address","name":"beneficiaryOfERC721","type":"address"}],"stateMutability":"view","type":"function"},{"inputs":[],"name":"getBuffer","outputs":[{"internalType":"uint256","name":"","type":"uint256"}],"stateMutability":"view","type":"function"},{"inputs":[],"name":"getMaxShare","outputs":[{"internalType":"uint256","name":"","type":"uint256"}],"stateMutability":"view","type":"function"},{"inputs":[{"internalType":"address","name":"testator","type":"address"}],"name":"getReleaseTime","outputs":[{"internalType":"uint256","name":"","type":"uint256"}],"stateMutability":"view","type":"function"},{"inputs":[{"internalType":"address","name":"testator","type":"address"}],"name":"getShares","outputs":[{"internalType":"uint256[]","name":"","type":"uint256[]"}],"stateMutability":"view","type":"function"},{"inputs":[{"internalType":"address","name":"testator","type":"address"}],"name":"getSumShares","outputs":[{"internalType":"uint256","name":"","type":"uint256"}],"stateMutability":"view","type":"function"},{"inputs":[{"internalType":"address","name":"testator","type":"address"},{"internalType":"contract IERC1155","name":"tokenERC1155","type":"address"},{"internalType":"uint256","name":"tokenId","type":"uint256"}],"name":"releaseERC1155","outputs":[],"stateMutability":"nonpayable","type":"function"},{"inputs":[{"internalType":"address","name":"testator","type":"address"},{"internalType":"contract IERC20","name":"tokenERC20","type":"address"}],"name":"releaseERC20","outputs":[],"stateMutability":"nonpayable","type":"function"},{"inputs":[{"internalType":"address","name":"testator","type":"address"},{"internalType":"contract IERC721","name":"tokenERC721","type":"address"},{"internalType":"uint256[]","name":"tokenIdList","type":"uint256[]"}],"name":"releaseERC721","outputs":[],"stateMutability":"nonpayable","type":"function"},{"inputs":[{"internalType":"address[]","name":"newBeneficiaries","type":"address[]"},{"internalType":"uint256[]","name":"newShares","type":"uint256[]"}],"name":"setNewBeneficiaries","outputs":[{"internalType":"bool","name":"","type":"bool"}],"stateMutability":"nonpayable","type":"function"},{"inputs":[{"internalType":"address","name":"newBeneficiaryOfERC721","type":"address"}],"name":"setNewBeneficiaryOfERC721","outputs":[],"stateMutability":"nonpayable","type":"function"},{"inputs":[{"internalType":"uint256","name":"newReleaseTime","type":"uint256"}],"name":"setNewReleaseTime","outputs":[{"internalType":"uint256","name":"","type":"uint256"}],"stateMutability":"nonpayable","type":"function"},{"inputs":[],"name":"timeNow","outputs":[{"internalType":"uint256","name":"","type":"uint256"}],"stateMutability":"view","type":"function"}],"bytecode":"6080604052603c600055600a60015534801561001a57600080fd5b506125f98061002a6000396000f3fe608060405234801561001057600080fd5b50600436106101215760003560e01c8063a2ee4ffe116100ad578063caee863e11610071578063caee863e146102b3578063d95660be146102c6578063f04da65b146102cc578063f9a76be2146102ec578063fe36b4c8146102ff57600080fd5b8063a2ee4ffe14610244578063a3da0ecd14610257578063a6fd23391461027a578063ac8bc77e1461028d578063b395245a146102a057600080fd5b8063745137b4116100f4578063745137b4146101d55780637ce752c6146101dd5780639181141a146101f2578063a26ea21e14610205578063a29093b11461021857600080fd5b80630cb7eb4c146101265780631cab59a41461016557806347ff5d8a14610185578063705e8b2e146101cd575b600080fd5b610152610134366004611bd5565b6001600160a01b031660009081526002602052604090206003015490565b6040519081526020015b60405180910390f35b610178610173366004611bd5565b610312565b60405161015c9190611bf2565b6101b5610193366004611bd5565b6001600160a01b03908116600090815260026020819052604090912001541690565b6040516001600160a01b03909116815260200161015c565b600054610152565b600154610152565b6101f06101eb366004611c8b565b610388565b005b6101f0610200366004611cf0565b610436565b6101f0610213366004611d7c565b6105fe565b610152610226366004611bd5565b6001600160a01b031660009081526002602052604090206001015490565b6101f0610252366004611dd1565b610777565b61026a610265366004611e12565b610aa6565b604051901515815260200161015c565b610152610288366004611e72565b610ca4565b6101f061029b366004611e8b565b610dbd565b6101f06102ae366004611c8b565b610f43565b6101f06102c1366004611bd5565b6110db565b42610152565b6102df6102da366004611bd5565b6111b4565b60405161015c9190611f0e565b6101f06102fa366004611f46565b611222565b6101f061030d366004611f7f565b611608565b6001600160a01b03811660009081526002602090815260409182902080548351818402810184019094528084526060939283018282801561037c57602002820191906000526020600020905b81546001600160a01b0316815260019091019060200180831161035e575b50505050509050919050565b60005b8181101561042f573063a2ee4ffe86868686868181106103ad576103ad612086565b6040516001600160e01b031960e088901b1681526001600160a01b03958616600482015294909316602485015250602090910201356044820152606401600060405180830381600087803b15801561040457600080fd5b505af1158015610418573d6000803e3d6000fd5b505050508080610427906120b2565b91505061038b565b5050505050565b858560005b818110156104ad57600083838381811061045757610457612086565b905060200201602081019061046c9190611bd5565b6001600160a01b03160361049b5760405162461bcd60e51b8152600401610492906120cb565b60405180910390fd5b806104a5816120b2565b91505061043b565b50878787878083146104d15760405162461bcd60e51b81526004016104929061211a565b86600054426104e0919061216c565b8110156104ff5760405162461bcd60e51b815260040161049290612185565b886001600160a01b0381166105265760405162461bcd60e51b8152600401610492906121e2565b600060026000336001600160a01b03166001600160a01b0316815260200190815260200160002090508e8e826000019190610562929190611afa565b50610571600482018e8e611b5d565b506000600182018190556002820180546001600160a01b0319166001600160a01b038e16179055600382018b90555b8c8110156105ec578d8d828181106105ba576105ba612086565b905060200201358260010160008282546105d4919061216c565b909155508190506105e4816120b2565b9150506105a0565b50505050505050505050505050505050565b6001600160a01b03831660009081526002602052604090206003015483901580159061064157506001600160a01b03811660009081526002602052604090205415155b801561066a57506001600160a01b03818116600090815260026020819052604090912001541615155b6106865760405162461bcd60e51b81526004016104929061223f565b6001600160a01b03841660009081526002602052604090206003015484904210156106c35760405162461bcd60e51b815260040161049290612276565b60005b8381101561076f573063f9a76be2878787858181106106e7576106e7612086565b90506020020160208101906106fc9190611bd5565b6040516001600160e01b031960e085901b1681526001600160a01b03928316600482015291166024820152604401600060405180830381600087803b15801561074457600080fd5b505af1158015610758573d6000803e3d6000fd5b505050508080610767906120b2565b9150506106c6565b505050505050565b6001600160a01b0383166000908152600260205260409020600301548390158015906107ba57506001600160a01b03811660009081526002602052604090205415155b80156107e357506001600160a01b03818116600090815260026020819052604090912001541615155b6107ff5760405162461bcd60e51b81526004016104929061223f565b6001600160a01b038416600090815260026020526040902060030154849042101561083c5760405162461bcd60e51b815260040161049290612276565b604051627eeac760e11b81526001600160a01b038681166004830152602482018590526000919086169062fdd58e90604401602060405180830381865afa15801561088b573d6000803e3d6000fd5b505050506040513d601f19601f820116820180604052508101906108af91906122a4565b90506000805b6001600160a01b038816600090815260026020526040902054811015610a9c576001600160a01b0388166000908152600260205260409020600401805461093791908390811061090757610907612086565b60009182526020808320909101546001600160a01b038c168352600290915260409091206001015485919061178d565b6001600160a01b03891660009081526002602052604090205490925061095f906001906122bd565b81036109d757604051627eeac760e11b81526001600160a01b0389811660048301526024820188905288169062fdd58e90604401602060405180830381865afa1580156109b0573d6000803e3d6000fd5b505050506040513d601f19601f820116820180604052508101906109d491906122a4565b91505b6001600160a01b03888116600090815260026020526040902080549189169163f242432a918b9185908110610a0e57610a0e612086565b600091825260208083209091015460408051928301815292825291516001600160e01b031960e086901b168152610a5793926001600160a01b0316918c91899190600401612320565b600060405180830381600087803b158015610a7157600080fd5b505af1158015610a85573d6000803e3d6000fd5b505050508080610a94906120b2565b9150506108b5565b5050505050505050565b3360008181526002602052604081206003015490919015801590610ae157506001600160a01b03811660009081526002602052604090205415155b8015610b0a57506001600160a01b03818116600090815260026020819052604090912001541615155b610b265760405162461bcd60e51b81526004016104929061223f565b858560005b81811015610b94576000838383818110610b4757610b47612086565b9050602002016020810190610b5c9190611bd5565b6001600160a01b031603610b825760405162461bcd60e51b8152600401610492906120cb565b80610b8c816120b2565b915050610b2b565b5087878787808314610bb85760405162461bcd60e51b81526004016104929061211a565b898960005b81811015610c5657600154838383818110610bda57610bda612086565b905060200201351115610c445760405162461bcd60e51b815260206004820152602c60248201527f57696c6c65723a2073686172652063616e27742062652067726561746572207460448201526b68616e204d4158534841524560a01b6064820152608401610492565b80610c4e816120b2565b915050610bbd565b50336000908152600260205260409020610c71908f8f611afa565b50336000908152600260205260409020610c8f906004018d8d611b5d565b5060019e9d5050505050505050505050505050565b3360008181526002602052604081206003015490919015801590610cdf57506001600160a01b03811660009081526002602052604090205415155b8015610d0857506001600160a01b03818116600090815260026020819052604090912001541615155b610d245760405162461bcd60e51b81526004016104929061223f565b8260005442610d33919061216c565b811015610d525760405162461bcd60e51b815260040161049290612185565b83600003610da25760405162461bcd60e51b815260206004820152601a60248201527f57696c6c65723a206e657752656c6561736554696d65203d20300000000000006044820152606401610492565b50503360009081526002602052604090206003018290555090565b6001600160a01b038516600090815260026020526040902060030154859015801590610e0057506001600160a01b03811660009081526002602052604090205415155b8015610e2957506001600160a01b03818116600090815260026020819052604090912001541615155b610e455760405162461bcd60e51b81526004016104929061223f565b6001600160a01b0386166000908152600260205260409020600301548690421015610e825760405162461bcd60e51b815260040161049290612276565b60005b85811015610a9c573063b395245a89898985818110610ea657610ea6612086565b9050602002016020810190610ebb9190611bd5565b888886818110610ecd57610ecd612086565b9050602002810190610edf919061235a565b6040518563ffffffff1660e01b8152600401610efe94939291906123d6565b600060405180830381600087803b158015610f1857600080fd5b505af1158015610f2c573d6000803e3d6000fd5b505050508080610f3b906120b2565b915050610e85565b6001600160a01b038416600090815260026020526040902060030154849015801590610f8657506001600160a01b03811660009081526002602052604090205415155b8015610faf57506001600160a01b03818116600090815260026020819052604090912001541615155b610fcb5760405162461bcd60e51b81526004016104929061223f565b6001600160a01b03851660009081526002602052604090206003015485904210156110085760405162461bcd60e51b815260040161049290612276565b60005b838110156110d2576001600160a01b0387811660009081526002602081905260409091200154818816916342842e0e918a911688888681811061105057611050612086565b6040516001600160e01b031960e088901b1681526001600160a01b03958616600482015294909316602485015250602090910201356044820152606401600060405180830381600087803b1580156110a757600080fd5b505af11580156110bb573d6000803e3d6000fd5b5050505080806110ca906120b2565b91505061100b565b50505050505050565b336000818152600260205260409020600301541580159061111357506001600160a01b03811660009081526002602052604090205415155b801561113c57506001600160a01b03818116600090815260026020819052604090912001541615155b6111585760405162461bcd60e51b81526004016104929061223f565b816001600160a01b03811661117f5760405162461bcd60e51b8152600401610492906121e2565b50503360009081526002602081905260409091200180546001600160a01b0319166001600160a01b0392909216919091179055565b6001600160a01b03811660009081526002602090815260409182902060040180548351818402810184019094528084526060939283018282801561037c57602002820191906000526020600020905b8154815260200190600101908083116112035750505050509050919050565b6001600160a01b03821660009081526002602052604090206003015482901580159061126557506001600160a01b03811660009081526002602052604090205415155b801561128e57506001600160a01b03818116600090815260026020819052604090912001541615155b6112aa5760405162461bcd60e51b81526004016104929061223f565b6001600160a01b03831660009081526002602052604090206003015483904210156112e75760405162461bcd60e51b815260040161049290612276565b6040516370a0823160e01b81526001600160a01b038581166004830152600091908516906370a0823190602401602060405180830381865afa158015611331573d6000803e3d6000fd5b505050506040513d601f19601f8201168201806040525081019061135591906122a4565b90506000816000036113b45760405162461bcd60e51b815260206004820152602260248201527f57696c6c65723a204e6f20455243323020746f6b656e7320746f2072656c6561604482015261736560f01b6064820152608401610492565b604051636eb1769f60e11b81526001600160a01b0387811660048301523060248301526000919087169063dd62ed3e90604401602060405180830381865afa158015611404573d6000803e3d6000fd5b505050506040513d601f19601f8201168201806040525081019061142891906122a4565b90508060000361147a5760405162461bcd60e51b815260206004820152601c60248201527f57696c6c65723a204552433230207a65726f20616c6c6f77616e6365000000006044820152606401610492565b82811015611486578092505b60005b6001600160a01b038816600090815260026020526040902054811015610a9c576001600160a01b0388166000908152600260205260409020600401805461150b9190839081106114db576114db612086565b60009182526020808320909101546001600160a01b038c168352600290915260409091206001015486919061178d565b6001600160a01b038916600090815260026020526040902054909350611533906001906122bd565b81036115a6576040516370a0823160e01b81526001600160a01b0389811660048301528816906370a0823190602401602060405180830381865afa15801561157f573d6000803e3d6000fd5b505050506040513d601f19601f820116820180604052508101906115a391906122a4565b92505b6001600160a01b038816600090815260026020526040902080546115f6918a91849081106115d6576115d6612086565b6000918252602090912001546001600160a01b038a811692911686611842565b80611600816120b2565b915050611489565b604051635137510f60e11b8152309063a26ea21e9061162f908e908e908e9060040161240d565b600060405180830381600087803b15801561164957600080fd5b505af115801561165d573d6000803e3d6000fd5b5050604051635645e3bf60e11b815230925063ac8bc77e915061168c908e908c908c908a908a90600401612469565b600060405180830381600087803b1580156116a657600080fd5b505af11580156116ba573d6000803e3d6000fd5b5050505060005b8581101561177f5730637ce752c68d8989858181106116e2576116e2612086565b90506020020160208101906116f79190611bd5565b86868681811061170957611709612086565b905060200281019061171b919061235a565b6040518563ffffffff1660e01b815260040161173a94939291906123d6565b600060405180830381600087803b15801561175457600080fd5b505af1158015611768573d6000803e3d6000fd5b505050508080611777906120b2565b9150506116c1565b505050505050505050505050565b60008080600019858709858702925082811083820303915050806000036117c7578382816117bd576117bd61255c565b049250505061183b565b8084116117d357600080fd5b600084868809851960019081018716968790049682860381900495909211909303600082900391909104909201919091029190911760038402600290811880860282030280860282030280860282030280860282030280860282030280860290910302029150505b9392505050565b604080516001600160a01b0385811660248301528416604482015260648082018490528251808303909101815260849091019091526020810180516001600160e01b03166323b872dd60e01b17905261189c9085906118a2565b50505050565b60006118f7826040518060400160405280602081526020017f5361666545524332303a206c6f772d6c6576656c2063616c6c206661696c6564815250856001600160a01b03166119799092919063ffffffff16565b80519091501561197457808060200190518101906119159190612572565b6119745760405162461bcd60e51b815260206004820152602a60248201527f5361666545524332303a204552433230206f7065726174696f6e20646964206e6044820152691bdd081cdd58d8d9595960b21b6064820152608401610492565b505050565b60606119888484600085611990565b949350505050565b6060824710156119f15760405162461bcd60e51b815260206004820152602660248201527f416464726573733a20696e73756666696369656e742062616c616e636520666f6044820152651c8818d85b1b60d21b6064820152608401610492565b6001600160a01b0385163b611a485760405162461bcd60e51b815260206004820152601d60248201527f416464726573733a2063616c6c20746f206e6f6e2d636f6e74726163740000006044820152606401610492565b600080866001600160a01b03168587604051611a649190612594565b60006040518083038185875af1925050503d8060008114611aa1576040519150601f19603f3d011682016040523d82523d6000602084013e611aa6565b606091505b5091509150611ab6828286611ac1565b979650505050505050565b60608315611ad057508161183b565b825115611ae05782518084602001fd5b8160405162461bcd60e51b815260040161049291906125b0565b828054828255906000526020600020908101928215611b4d579160200282015b82811115611b4d5781546001600160a01b0319166001600160a01b03843516178255602090920191600190910190611b1a565b50611b59929150611b98565b5090565b828054828255906000526020600020908101928215611b4d579160200282015b82811115611b4d578235825591602001919060010190611b7d565b5b80821115611b595760008155600101611b99565b6001600160a01b0381168114611bc257600080fd5b50565b8035611bd081611bad565b919050565b600060208284031215611be757600080fd5b813561183b81611bad565b6020808252825182820181905260009190848201906040850190845b81811015611c335783516001600160a01b031683529284019291840191600101611c0e565b50909695505050505050565b60008083601f840112611c5157600080fd5b50813567ffffffffffffffff811115611c6957600080fd5b6020830191508360208260051b8501011115611c8457600080fd5b9250929050565b60008060008060608587031215611ca157600080fd5b8435611cac81611bad565b93506020850135611cbc81611bad565b9250604085013567ffffffffffffffff811115611cd857600080fd5b611ce487828801611c3f565b95989497509550505050565b60008060008060008060808789031215611d0957600080fd5b863567ffffffffffffffff80821115611d2157600080fd5b611d2d8a838b01611c3f565b90985096506020890135915080821115611d4657600080fd5b50611d5389828a01611c3f565b9095509350506040870135611d6781611bad565b80925050606087013590509295509295509295565b600080600060408486031215611d9157600080fd5b8335611d9c81611bad565b9250602084013567ffffffffffffffff811115611db857600080fd5b611dc486828701611c3f565b9497909650939450505050565b600080600060608486031215611de657600080fd5b8335611df181611bad565b92506020840135611e0181611bad565b929592945050506040919091013590565b60008060008060408587031215611e2857600080fd5b843567ffffffffffffffff80821115611e4057600080fd5b611e4c88838901611c3f565b90965094506020870135915080821115611e6557600080fd5b50611ce487828801611c3f565b600060208284031215611e8457600080fd5b5035919050565b600080600080600060608688031215611ea357600080fd5b8535611eae81611bad565b9450602086013567ffffffffffffffff80821115611ecb57600080fd5b611ed789838a01611c3f565b90965094506040880135915080821115611ef057600080fd5b50611efd88828901611c3f565b969995985093965092949392505050565b6020808252825182820181905260009190848201906040850190845b81811015611c3357835183529284019291840191600101611f2a565b60008060408385031215611f5957600080fd5b8235611f6481611bad565b91506020830135611f7481611bad565b809150509250929050565b600080600080600080600080600080600060c08c8e031215611fa057600080fd5b611fa98c611bc5565b9a5067ffffffffffffffff8060208e01351115611fc557600080fd5b611fd58e60208f01358f01611c3f565b909b50995060408d0135811015611feb57600080fd5b611ffb8e60408f01358f01611c3f565b909950975060608d013581101561201157600080fd5b6120218e60608f01358f01611c3f565b909750955060808d013581101561203757600080fd5b6120478e60808f01358f01611c3f565b909550935060a08d013581101561205d57600080fd5b5061206e8d60a08e01358e01611c3f565b81935080925050509295989b509295989b9093969950565b634e487b7160e01b600052603260045260246000fd5b634e487b7160e01b600052601160045260246000fd5b6000600182016120c4576120c461209c565b5060010190565b6020808252602f908201527f57696c6c65723a2061646472657373207a65726f206973206e6f74206120766160408201526e6c69642062656e656669636961727960881b606082015260800190565b60208082526032908201527f57696c6c65723a2062656e656669636961726965735f20616e642073686172656040820152710e6be40d8cadccee8d040dad2e6dac2e8c6d60731b606082015260800190565b8082018082111561217f5761217f61209c565b92915050565b60208082526037908201527f57696c6c65723a2072657175697265282072656c656173652074696d65203c2060408201527f63757272656e742074696d65202b204255464645522029000000000000000000606082015260800190565b60208082526037908201527f57696c6c65723a2061646472657373207a65726f206973206e6f74206120766160408201527f6c69642062656e65666963696172794f66455243373231000000000000000000606082015260800190565b6020808252601a908201527f57696c6c65723a2077696c6c20646f65736e2774206578697374000000000000604082015260600190565b60208082526014908201527357696c6c65723a20756e72656c65617361626c6560601b604082015260600190565b6000602082840312156122b657600080fd5b5051919050565b8181038181111561217f5761217f61209c565b60005b838110156122eb5781810151838201526020016122d3565b50506000910152565b6000815180845261230c8160208601602086016122d0565b601f01601f19169290920160200192915050565b6001600160a01b03868116825285166020820152604081018490526060810183905260a060808201819052600090611ab6908301846122f4565b6000808335601e1984360301811261237157600080fd5b83018035915067ffffffffffffffff82111561238c57600080fd5b6020019150600581901b3603821315611c8457600080fd5b81835260006001600160fb1b038311156123bd57600080fd5b8260051b80836020870137939093016020019392505050565b6001600160a01b0385811682528416602082015260606040820181905260009061240390830184866123a4565b9695505050505050565b6001600160a01b03848116825260406020808401829052908301849052600091859160608501845b8781101561245c57843561244881611bad565b841682529382019390820190600101612435565b5098975050505050505050565b6001600160a01b03868116825260606020808401829052908301869052600091879160808501845b898110156124b85784356124a481611bad565b841682529382019390820190600101612491565b50858103604087015286815281810193506005925086831b810182018860005b8981101561254a57838303601f190187528135368c9003601e190181126124fe57600080fd5b8b01858101903567ffffffffffffffff81111561251a57600080fd5b80881b360382131561252b57600080fd5b6125368582846123a4565b9887019894505050908401906001016124d8565b50909c9b505050505050505050505050565b634e487b7160e01b600052601260045260246000fd5b60006020828403121561258457600080fd5b8151801515811461183b57600080fd5b600082516125a68184602087016122d0565b9190910192915050565b60208152600061183b60208301846122f456fea264697066735822122079c3d5ea84073eb4c81c959b32a65cfb7d9336b2be5b927e6f294c3d7278225264736f6c63430008100033","bytecodeSha1":"792da6432721e1f221268d30afe495124beb3975","compiler":{"evm_version":"istanbul","optimizer":{"enabled":true,"runs":200},"version":"0.8.16+commit.07a7930e"},"contractName":"Willer","language":"Solidity","natspec":{"author":"DimaKush","kind":"dev","methods":{},"title":"Willer","version":1},"opcodes":"PUSH1 0x80 PUSH1 0x40 MSTORE CALLVALUE DUP1 ISZERO PUSH2 0x10 JUMPI PUSH1 0x0 DUP1 REVERT JUMPDEST POP PUSH1 0x4 CALLDATASIZE LT PUSH2 0x121 JUMPI PUSH1 0x0 CALLDATALOAD PUSH1 0xE0 SHR DUP1 PUSH4 0xA2EE4FFE GT PUSH2 0xAD JUMPI DUP1 PUSH4 0xCAEE863E GT PUSH2 0x71 JUMPI DUP1 PUSH4 0xCAEE863E EQ PUSH2 0x2B3 JUMPI DUP1 PUSH4 0xD95660BE EQ PUSH2 0x2C6 JUMPI DUP1 PUSH4 0xF04DA65B EQ PUSH2 0x2CC JUMPI DUP1 PUSH4 0xF9A76BE2 EQ PUSH2 0x2EC JUMPI DUP1 PUSH4 0xFE36B4C8 EQ PUSH2 0x2FF JUMPI PUSH1 0x0 DUP1 REVERT JUMPDEST DUP1 PUSH4 0xA2EE4FFE EQ PUSH2 0x244 JUMPI DUP1 PUSH4 0xA3DA0ECD EQ PUSH2 0x257 JUMPI DUP1 PUSH4 0xA6FD2339 EQ PUSH2 0x27A JUMPI DUP1 PUSH4 0xAC8BC77E EQ PUSH2 0x28D JUMPI DUP1 PUSH4 0xB395245A EQ PUSH2 0x2A0 JUMPI PUSH1 0x0 DUP1 REVERT JUMPDEST DUP1 PUSH4 0x745137B4 GT PUSH2 0xF4 JUMPI DUP1 PUSH4 0x745137B4 EQ PUSH2 0x1D5 JUMPI DUP1 PUSH4 0x7CE752C6 EQ PUSH2 0x1DD JUMPI DUP1 PUSH4 0x9181141A EQ PUSH2 0x1F2 JUMPI DUP1 PUSH4 0xA26EA21E EQ PUSH2 0x205 JUMPI DUP1 PUSH4 0xA29093B1 EQ PUSH2 0x218 JUMPI PUSH1 0x0 DUP1 REVERT JUMPDEST DUP1 PUSH4 0xCB7EB4C EQ PUSH2 0x126 JUMPI DUP1 PUSH4 0x1CAB59A4 EQ PUSH2 0x165 JUMPI DUP1 PUSH4 0x47FF5D8A EQ PUSH2 0x185 JUMPI DUP1 PUSH4 0x705E8B2E EQ PUSH2 0x1CD JUMPI JUMPDEST PUSH1 0x0 DUP1 REVERT JUMPDEST PUSH2 0x152 PUSH2 0x134 CALLDATASIZE PUSH1 0x4 PUSH2 0x1BD5 JUMP JUMPDEST PUSH1 0x1 PUSH1 0x1 PUSH1 0xA0 SHL SUB AND PUSH1 0x0 SWAP1 DUP2 MSTORE PUSH1 0x2 PUSH1 0x20 MSTORE PUSH1 0x40 SWAP1 KECCAK256 PUSH1 0x3 ADD SLOAD SWAP1 JUMP JUMPDEST PUSH1 0x40 MLOAD SWAP1 DUP2 MSTORE PUSH1 0x20 ADD JUMPDEST PUSH1 0x40 MLOAD DUP1 SWAP2 SUB SWAP1 RETURN JUMPDEST PUSH2 0x178 PUSH2 0x173 CALLDATASIZE PUSH1 0x4 PUSH2 0x1BD5 JUMP JUMPDEST PUSH2 0x312 JUMP JUMPDEST PUSH1 0x40 MLOAD PUSH2 0x15C SWAP2 SWAP1 PUSH2 0x1BF2 JUMP JUMPDEST PUSH2 0x1B5 PUSH2 0x193 CALLDATASIZE PUSH1 0x4 PUSH2 0x1BD5 JUMP JUMPDEST PUSH1 0x1 PUSH1 0x1 PUSH1 0xA0 SHL SUB SWAP1 DUP2 AND PUSH1 0x0 SWAP1 DUP2 MSTORE PUSH1 0x2 PUSH1 0x20 DUP2 SWAP1 MSTORE PUSH1 0x40 SWAP1 SWAP2 KECCAK256 ADD SLOAD AND SWAP1 JUMP JUMPDEST PUSH1 0x40 MLOAD PUSH1 0x1 PUSH1 0x1 PUSH1 0xA0 SHL SUB SWAP1 SWAP2 AND DUP2 MSTORE PUSH1 0x20 ADD PUSH2 0x15C JUMP JUMPDEST PUSH1 0x0 SLOAD PUSH2 0x152 JUMP JUMPDEST PUSH1 0x1 SLOAD PUSH2 0x152 JUMP JUMPDEST PUSH2 0x1F0 PUSH2 0x1EB CALLDATASIZE PUSH1 0x4 PUSH2 0x1C8B JUMP JUMPDEST PUSH2 0x388 JUMP JUMPDEST STOP JUMPDEST PUSH2 0x1F0 PUSH2 0x200 CALLDATASIZE PUSH1 0x4 PUSH2 0x1CF0 JUMP JUMPDEST PUSH2 0x436 JUMP JUMPDEST PUSH2 0x1F0 PUSH2 0x213 CALLDATASIZE PUSH1 0x4 PUSH2 0x1D7C JUMP JUMPDEST PUSH2 0x5FE JUMP JUMPDEST PUSH2 0x152 PUSH2 0x226 CALLDATASIZE PUSH1 0x4 PUSH2 0x1BD5 JUMP JUMPDEST PUSH1 0x1 PUSH1 0x1 PUSH1 0xA0 SHL SUB AND PUSH1 0x0 SWAP1 DUP2 MSTORE PUSH1 0x2 PUSH1 0x20 MSTORE PUSH1 0x40 SWAP1 KECCAK256 PUSH1 0x1 ADD SLOAD SWAP1 JUMP JUMPDEST PUSH2 0x1F0 PUSH2 0x252 CALLDATASIZE PUSH1 0x4 PUSH2 0x1DD1 JUMP JUMPDEST PUSH2 0x777 JUMP JUMPDEST PUSH2 0x26A PUSH2 0x265 CALLDATASIZE PUSH1 0x4 PUSH2 0x1E12 JUMP JUMPDEST PUSH2 0xAA6 JUMP JUMPDEST PUSH1 0x40 MLOAD SWAP1 ISZERO ISZERO DUP2 MSTORE PUSH1 0x20 ADD PUSH2 0x15C JUMP JUMPDEST PUSH2 0x152 PUSH2 0x288 CALLDATASIZE PUSH1 0x4 PUSH2 0x1E72 JUMP JUMPDEST PUSH2 0xCA4 JUMP JUMPDEST PUSH2 0x1F0 PUSH2 0x29B CALLDATASIZE PUSH1 0x4 PUSH2 0x1E8B JUMP JUMPDEST PUSH2 0xDBD JUMP JUMPDEST PUSH2 0x1F0 PUSH2 0x2AE CALLDATASIZE PUSH1 0x4 PUSH2 0x1C8B JUMP JUMPDEST PUSH2 0xF43 JUMP JUMPDEST PUSH2 0x1F0 PUSH2 0x2C1 CALLDATASIZE PUSH1 0x4 PUSH2 0x1BD5 JUMP JUMPDEST PUSH2 0x10DB JUMP JUMPDEST TIMESTAMP PUSH2 0x152 JUMP JUMPDEST PUSH2 0x2DF PUSH2 0x2DA CALLDATASIZE PUSH1 0x4 PUSH2 0x1BD5 JUMP JUMPDEST PUSH2 0x11B4 JUMP JUMPDEST PUSH1 0x40 MLOAD PUSH2 0x15C SWAP2 SWAP1 PUSH2 0x1F0E JUMP JUMPDEST PUSH2 0x1F0 PUSH2 0x2FA CALLDATASIZE PUSH1 0x4 PUSH2 0x1F46 JUMP JUMPDEST PUSH2 0x1222 JUMP JUMPDEST PUSH2 0x1F0 PUSH2 0x30D CALLDATASIZE PUSH1 0x4 PUSH2 0x1F7F JUMP JUMPDEST PUSH2 0x1608 JUMP JUMPDEST PUSH1 0x1 PUSH1 0x1 PUSH1 0xA0 SHL SUB DUP2 AND PUSH1 0x0 SWAP1 DUP2 MSTORE PUSH1 0x2 PUSH1 0x20 SWAP1 DUP2 MSTORE PUSH1 0x40 SWAP2 DUP3 SWAP1 KECCAK256 DUP1 SLOAD DUP4 MLOAD DUP2 DUP5 MUL DUP2 ADD DUP5 ADD SWAP1 SWAP5 MSTORE DUP1 DUP5 MSTORE PUSH1 0x60 SWAP4 SWAP3 DUP4 ADD DUP3 DUP3 DUP1 ISZERO PUSH2 0x37C JUMPI PUSH1 0x20 MUL DUP3 ADD SWAP2 SWAP1 PUSH1 0x0 MSTORE PUSH1 0x20 PUSH1 0x0 KECCAK256 SWAP1 JUMPDEST DUP2 SLOAD PUSH1 0x1 PUSH1 0x1 PUSH1 0xA0 SHL SUB AND DUP2 MSTORE PUSH1 0x1 SWAP1 SWAP2 ADD SWAP1 PUSH1 0x20 ADD DUP1 DUP4 GT PUSH2 0x35E JUMPI JUMPDEST POP POP POP POP POP SWAP1 POP SWAP2 SWAP1 POP JUMP JUMPDEST PUSH1 0x0 JUMPDEST DUP2 DUP2 LT ISZERO PUSH2 0x42F JUMPI ADDRESS PUSH4 0xA2EE4FFE DUP7 DUP7 DUP7 DUP7 DUP7 DUP2 DUP2 LT PUSH2 0x3AD JUMPI PUSH2 0x3AD PUSH2 0x2086 JUMP JUMPDEST PUSH1 0x40 MLOAD PUSH1 0x1 PUSH1 0x1 PUSH1 0xE0 SHL SUB NOT PUSH1 0xE0 DUP9 SWAP1 SHL AND DUP2 MSTORE PUSH1 0x1 PUSH1 0x1 PUSH1 0xA0 SHL SUB SWAP6 DUP7 AND PUSH1 0x4 DUP3 ADD MSTORE SWAP5 SWAP1 SWAP4 AND PUSH1 0x24 DUP6 ADD MSTORE POP PUSH1 0x20 SWAP1 SWAP2 MUL ADD CALLDATALOAD PUSH1 0x44 DUP3 ADD MSTORE PUSH1 0x64 ADD PUSH1 0x0 PUSH1 0x40 MLOAD DUP1 DUP4 SUB DUP2 PUSH1 0x0 DUP8 DUP1 EXTCODESIZE ISZERO DUP1 ISZERO PUSH2 0x404 JUMPI PUSH1 0x0 DUP1 REVERT JUMPDEST POP GAS CALL ISZERO DUP1 ISZERO PUSH2 0x418 JUMPI RETURNDATASIZE PUSH1 0x0 DUP1 RETURNDATACOPY RETURNDATASIZE PUSH1 0x0 REVERT JUMPDEST POP POP POP POP DUP1 DUP1 PUSH2 0x427 SWAP1 PUSH2 0x20B2 JUMP JUMPDEST SWAP2 POP POP PUSH2 0x38B JUMP JUMPDEST POP POP POP POP POP JUMP JUMPDEST DUP6 DUP6 PUSH1 0x0 JUMPDEST DUP2 DUP2 LT ISZERO PUSH2 0x4AD JUMPI PUSH1 0x0 DUP4 DUP4 DUP4 DUP2 DUP2 LT PUSH2 0x457 JUMPI PUSH2 0x457 PUSH2 0x2086 JUMP JUMPDEST SWAP1 POP PUSH1 0x20 MUL ADD PUSH1 0x20 DUP2 ADD SWAP1 PUSH2 0x46C SWAP2 SWAP1 PUSH2 0x1BD5 JUMP JUMPDEST PUSH1 0x1 PUSH1 0x1 PUSH1 0xA0 SHL SUB AND SUB PUSH2 0x49B JUMPI PUSH1 0x40 MLOAD PUSH3 0x461BCD PUSH1 0xE5 SHL DUP2 MSTORE PUSH1 0x4 ADD PUSH2 0x492 SWAP1 PUSH2 0x20CB JUMP JUMPDEST PUSH1 0x40 MLOAD DUP1 SWAP2 SUB SWAP1 REVERT JUMPDEST DUP1 PUSH2 0x4A5 DUP2 PUSH2 0x20B2 JUMP JUMPDEST SWAP2 POP POP PUSH2 0x43B JUMP JUMPDEST POP DUP8 DUP8 DUP8 DUP8 DUP1 DUP4 EQ PUSH2 0x4D1 JUMPI PUSH1 0x40 MLOAD PUSH3 0x461BCD PUSH1 0xE5 SHL DUP2 MSTORE PUSH1 0x4 ADD PUSH2 0x492 SWAP1 PUSH2 0x211A JUMP JUMPDEST DUP7 PUSH1 0x0 SLOAD TIMESTAMP PUSH2 0x4E0 SWAP2 SWAP1 PUSH2 0x216C JUMP JUMPDEST DUP2 LT ISZERO PUSH2 0x4FF JUMPI PUSH1 0x40 MLOAD PUSH3 0x461BCD PUSH1 0xE5 SHL DUP2 MSTORE PUSH1 0x4 ADD PUSH2 0x492 SWAP1 PUSH2 0x2185 JUMP JUMPDEST DUP9 PUSH1 0x1 PUSH1 0x1 PUSH1 0xA0 SHL SUB DUP2 AND PUSH2 0x526 JUMPI PUSH1 0x40 MLOAD PUSH3 0x461BCD PUSH1 0xE5 SHL DUP2 MSTORE PUSH1 0x4 ADD PUSH2 0x492 SWAP1 PUSH2 0x21E2 JUMP JUMPDEST PUSH1 0x0 PUSH1 0x2 PUSH1 0x0 CALLER PUSH1 0x1 PUSH1 0x1 PUSH1 0xA0 SHL SUB AND PUSH1 0x1 PUSH1 0x1 PUSH1 0xA0 SHL SUB AND DUP2 MSTORE PUSH1 0x20 ADD SWAP1 DUP2 MSTORE PUSH1 0x20 ADD PUSH1 0x0 KECCAK256 SWAP1 POP DUP15 DUP15 DUP3 PUSH1 0x0 ADD SWAP2 SWAP1 PUSH2 0x562 SWAP3 SWAP2 SWAP1 PUSH2 0x1AFA JUMP JUMPDEST POP PUSH2 0x571 PUSH1 0x4 DUP3 ADD DUP15 DUP15 PUSH2 0x1B5D JUMP JUMPDEST POP PUSH1 0x0 PUSH1 0x1 DUP3 ADD DUP2 SWAP1 SSTORE PUSH1 0x2 DUP3 ADD DUP1 SLOAD PUSH1 0x1 PUSH1 0x1 PUSH1 0xA0 SHL SUB NOT AND PUSH1 0x1 PUSH1 0x1 PUSH1 0xA0 SHL SUB DUP15 AND OR SWAP1 SSTORE PUSH1 0x3 DUP3 ADD DUP12 SWAP1 SSTORE JUMPDEST DUP13 DUP2 LT ISZERO PUSH2 0x5EC JUMPI DUP14 DUP14 DUP3 DUP2 DUP2 LT PUSH2 0x5BA JUMPI PUSH2 0x5BA PUSH2 0x2086 JUMP JUMPDEST SWAP1 POP PUSH1 0x20 MUL ADD CALLDATALOAD DUP3 PUSH1 0x1 ADD PUSH1 0x0 DUP3 DUP3 SLOAD PUSH2 0x5D4 SWAP2 SWAP1 PUSH2 0x216C JUMP JUMPDEST SWAP1 SWAP2 SSTORE POP DUP2 SWAP1 POP PUSH2 0x5E4 DUP2 PUSH2 0x20B2 JUMP JUMPDEST SWAP2 POP POP PUSH2 0x5A0 JUMP JUMPDEST POP POP POP POP POP POP POP POP POP POP POP POP POP POP POP POP JUMP JUMPDEST PUSH1 0x1 PUSH1 0x1 PUSH1 0xA0 SHL SUB DUP4 AND PUSH1 0x0 SWAP1 DUP2 MSTORE PUSH1 0x2 PUSH1 0x20 MSTORE PUSH1 0x40 SWAP1 KECCAK256 PUSH1 0x3 ADD SLOAD DUP4 SWAP1 ISZERO DUP1 ISZERO SWAP1 PUSH2 0x641 JUMPI POP PUSH1 0x1 PUSH1 0x1 PUSH1 0xA0 SHL SUB DUP2 AND PUSH1 0x0 SWAP1 DUP2 MSTORE PUSH1 0x2 PUSH1 0x20 MSTORE PUSH1 0x40 SWAP1 KECCAK256 SLOAD ISZERO ISZERO JUMPDEST DUP1 ISZERO PUSH2 0x66A JUMPI POP PUSH1 0x1 PUSH1 0x1 PUSH1 0xA0 SHL SUB DUP2 DUP2 AND PUSH1 0x0 SWAP1 DUP2 MSTORE PUSH1 0x2 PUSH1 0x20 DUP2 SWAP1 MSTORE PUSH1 0x40 SWAP1 SWAP2 KECCAK256 ADD SLOAD AND ISZERO ISZERO JUMPDEST PUSH2 0x686 JUMPI PUSH1 0x40 MLOAD PUSH3 0x461BCD PUSH1 0xE5 SHL DUP2 MSTORE PUSH1 0x4 ADD PUSH2 0x492 SWAP1 PUSH2 0x223F JUMP JUMPDEST PUSH1 0x1 PUSH1 0x1 PUSH1 0xA0 SHL SUB DUP5 AND PUSH1 0x0 SWAP1 DUP2 MSTORE PUSH1 0x2 PUSH1 0x20 MSTORE PUSH1 0x40 SWAP1 KECCAK256 PUSH1 0x3 ADD SLOAD DUP5 SWAP1 TIMESTAMP LT ISZERO PUSH2 0x6C3 JUMPI PUSH1 0x40 MLOAD PUSH3 0x461BCD PUSH1 0xE5 SHL DUP2 MSTORE PUSH1 0x4 ADD PUSH2 0x492 SWAP1 PUSH2 0x2276 JUMP JUMPDEST PUSH1 0x0 JUMPDEST DUP4 DUP2 LT ISZERO PUSH2 0x76F JUMPI ADDRESS PUSH4 0xF9A76BE2 DUP8 DUP8 DUP8 DUP6 DUP2 DUP2 LT PUSH2 0x6E7 JUMPI PUSH2 0x6E7 PUSH2 0x2086 JUMP JUMPDEST SWAP1 POP PUSH1 0x20 MUL ADD PUSH1 0x20 DUP2 ADD SWAP1 PUSH2 0x6FC SWAP2 SWAP1 PUSH2 0x1BD5 JUMP JUMPDEST PUSH1 0x40 MLOAD PUSH1 0x1 PUSH1 0x1 PUSH1 0xE0 SHL SUB NOT PUSH1 0xE0 DUP6 SWAP1 SHL AND DUP2 MSTORE PUSH1 0x1 PUSH1 0x1 PUSH1 0xA0 SHL SUB SWAP3 DUP4 AND PUSH1 0x4 DUP3 ADD MSTORE SWAP2 AND PUSH1 0x24 DUP3 ADD MSTORE PUSH1 0x44 ADD PUSH1 0x0 PUSH1 0x40 MLOAD DUP1 DUP4 SUB DUP2 PUSH1 0x0 DUP8 DUP1 EXTCODESIZE ISZERO DUP1 ISZERO PUSH2 0x744 JUMPI PUSH1 0x0 DUP1 REVERT JUMPDEST POP GAS CALL ISZERO DUP1 ISZERO PUSH2 0x758 JUMPI RETURNDATASIZE PUSH1 0x0 DUP1 RETURNDATACOPY RETURNDATASIZE PUSH1 0x0 REVERT JUMPDEST POP POP POP POP DUP1 DUP1 PUSH2 0x767 SWAP1 PUSH2 0x20B2 JUMP JUMPDEST SWAP2 POP POP PUSH2 0x6C6 JUMP JUMPDEST POP POP POP POP POP POP JUMP JUMPDEST PUSH1 0x1 PUSH1 0x1 PUSH1 0xA0 SHL SUB DUP4 AND PUSH1 0x0 SWAP1 DUP2 MSTORE PUSH1 0x2 PUSH1 0x20 MSTORE PUSH1 0x40 SWAP1 KECCAK256 PUSH1 0x3 ADD SLOAD DUP4 SWAP1 ISZERO DUP1 ISZERO SWAP1 PUSH2 0x7BA JUMPI POP PUSH1 0x1 PUSH1 0x1 PUSH1 0xA0 SHL SUB DUP2 AND PUSH1 0x0 SWAP1 DUP2 MSTORE PUSH1 0x2 PUSH1 0x20 MSTORE PUSH1 0x40 SWAP1 KECCAK256 SLOAD ISZERO ISZERO JUMPDEST DUP1 ISZERO PUSH2 0x7E3 JUMPI POP PUSH1 0x1 PUSH1 0x1 PUSH1 0xA0 SHL SUB DUP2 DUP2 AND PUSH1 0x0 SWAP1 DUP2 MSTORE PUSH1 0x2 PUSH1 0x20 DUP2 SWAP1 MSTORE PUSH1 0x40 SWAP1 SWAP2 KECCAK256 ADD SLOAD AND ISZERO ISZERO JUMPDEST PUSH2 0x7FF JUMPI PUSH1 0x40 MLOAD PUSH3 0x461BCD PUSH1 0xE5 SHL DUP2 MSTORE PUSH1 0x4 ADD PUSH2 0x492 SWAP1 PUSH2 0x223F JUMP JUMPDEST PUSH1 0x1 PUSH1 0x1 PUSH1 0xA0 SHL SUB DUP5 AND PUSH1 0x0 SWAP1 DUP2 MSTORE PUSH1 0x2 PUSH1 0x20 MSTORE PUSH1 0x40 SWAP1 KECCAK256 PUSH1 0x3 ADD SLOAD DUP5 SWAP1 TIMESTAMP LT ISZERO PUSH2 0x83C JUMPI PUSH1 0x40 MLOAD PUSH3 0x461BCD PUSH1 0xE5 SHL DUP2 MSTORE PUSH1 0x4 ADD PUSH2 0x492 SWAP1 PUSH2 0x2276 JUMP JUMPDEST PUSH1 0x40 MLOAD PUSH3 0x7EEAC7 PUSH1 0xE1 SHL DUP2 MSTORE PUSH1 0x1 PUSH1 0x1 PUSH1 0xA0 SHL SUB DUP7 DUP2 AND PUSH1 0x4 DUP4 ADD MSTORE PUSH1 0x24 DUP3 ADD DUP6 SWAP1 MSTORE PUSH1 0x0 SWAP2 SWAP1 DUP7 AND SWAP1 PUSH3 0xFDD58E SWAP1 PUSH1 0x44 ADD PUSH1 0x20 PUSH1 0x40 MLOAD DUP1 DUP4 SUB DUP2 DUP7 GAS STATICCALL ISZERO DUP1 ISZERO PUSH2 0x88B JUMPI RETURNDATASIZE PUSH1 0x0 DUP1 RETURNDATACOPY RETURNDATASIZE PUSH1 0x0 REVERT JUMPDEST POP POP POP POP PUSH1 0x40 MLOAD RETURNDATASIZE PUSH1 0x1F NOT PUSH1 0x1F DUP3 ADD AND DUP3 ADD DUP1 PUSH1 0x40 MSTORE POP DUP2 ADD SWAP1 PUSH2 0x8AF SWAP2 SWAP1 PUSH2 0x22A4 JUMP JUMPDEST SWAP1 POP PUSH1 0x0 DUP1 JUMPDEST PUSH1 0x1 PUSH1 0x1 PUSH1 0xA0 SHL SUB DUP9 AND PUSH1 0x0 SWAP1 DUP2 MSTORE PUSH1 0x2 PUSH1 0x20 MSTORE PUSH1 0x40 SWAP1 KECCAK256 SLOAD DUP2 LT ISZERO PUSH2 0xA9C JUMPI PUSH1 0x1 PUSH1 0x1 PUSH1 0xA0 SHL SUB DUP9 AND PUSH1 0x0 SWAP1 DUP2 MSTORE PUSH1 0x2 PUSH1 0x20 MSTORE PUSH1 0x40 SWAP1 KECCAK256 PUSH1 0x4 ADD DUP1 SLOAD PUSH2 0x937 SWAP2 SWAP1 DUP4 SWAP1 DUP2 LT PUSH2 0x907 JUMPI PUSH2 0x907 PUSH2 0x2086 JUMP JUMPDEST PUSH1 0x0 SWAP2 DUP3 MSTORE PUSH1 0x20 DUP1 DUP4 KECCAK256 SWAP1 SWAP2 ADD SLOAD PUSH1 0x1 PUSH1 0x1 PUSH1 0xA0 SHL SUB DUP13 AND DUP4 MSTORE PUSH1 0x2 SWAP1 SWAP2 MSTORE PUSH1 0x40 SWAP1 SWAP2 KECCAK256 PUSH1 0x1 ADD SLOAD DUP6 SWAP2 SWAP1 PUSH2 0x178D JUMP JUMPDEST PUSH1 0x1 PUSH1 0x1 PUSH1 0xA0 SHL SUB DUP10 AND PUSH1 0x0 SWAP1 DUP2 MSTORE PUSH1 0x2 PUSH1 0x20 MSTORE PUSH1 0x40 SWAP1 KECCAK256 SLOAD SWAP1 SWAP3 POP PUSH2 0x95F SWAP1 PUSH1 0x1 SWAP1 PUSH2 0x22BD JUMP JUMPDEST DUP2 SUB PUSH2 0x9D7 JUMPI PUSH1 0x40 MLOAD PUSH3 0x7EEAC7 PUSH1 0xE1 SHL DUP2 MSTORE PUSH1 0x1 PUSH1 0x1 PUSH1 0xA0 SHL SUB DUP10 DUP2 AND PUSH1 0x4 DUP4 ADD MSTORE PUSH1 0x24 DUP3 ADD DUP9 SWAP1 MSTORE DUP9 AND SWAP1 PUSH3 0xFDD58E SWAP1 PUSH1 0x44 ADD PUSH1 0x20 PUSH1 0x40 MLOAD DUP1 DUP4 SUB DUP2 DUP7 GAS STATICCALL ISZERO DUP1 ISZERO PUSH2 0x9B0 JUMPI RETURNDATASIZE PUSH1 0x0 DUP1 RETURNDATACOPY RETURNDATASIZE PUSH1 0x0 REVERT JUMPDEST POP POP POP POP PUSH1 0x40 MLOAD RETURNDATASIZE PUSH1 0x1F NOT PUSH1 0x1F DUP3 ADD AND DUP3 ADD DUP1 PUSH1 0x40 MSTORE POP DUP2 ADD SWAP1 PUSH2 0x9D4 SWAP2 SWAP1 PUSH2 0x22A4 JUMP JUMPDEST SWAP2 POP JUMPDEST PUSH1 0x1 PUSH1 0x1 PUSH1 0xA0 SHL SUB DUP9 DUP2 AND PUSH1 0x0 SWAP1 DUP2 MSTORE PUSH1 0x2 PUSH1 0x20 MSTORE PUSH1 0x40 SWAP1 KECCAK256 DUP1 SLOAD SWAP2 DUP10 AND SWAP2 PUSH4 0xF242432A SWAP2 DUP12 SWAP2 DUP6 SWAP1 DUP2 LT PUSH2 0xA0E JUMPI PUSH2 0xA0E PUSH2 0x2086 JUMP JUMPDEST PUSH1 0x0 SWAP2 DUP3 MSTORE PUSH1 0x20 DUP1 DUP4 KECCAK256 SWAP1 SWAP2 ADD SLOAD PUSH1 0x40 DUP1 MLOAD SWAP3 DUP4 ADD DUP2 MSTORE SWAP3 DUP3 MSTORE SWAP2 MLOAD PUSH1 0x1 PUSH1 0x1 PUSH1 0xE0 SHL SUB NOT PUSH1 0xE0 DUP7 SWAP1 SHL AND DUP2 MSTORE PUSH2 0xA57 SWAP4 SWAP3 PUSH1 0x1 PUSH1 0x1 PUSH1 0xA0 SHL SUB AND SWAP2 DUP13 SWAP2 DUP10 SWAP2 SWAP1 PUSH1 0x4 ADD PUSH2 0x2320 JUMP JUMPDEST PUSH1 0x0 PUSH1 0x40 MLOAD DUP1 DUP4 SUB DUP2 PUSH1 0x0 DUP8 DUP1 EXTCODESIZE ISZERO DUP1 ISZERO PUSH2 0xA71 JUMPI PUSH1 0x0 DUP1 REVERT JUMPDEST POP GAS CALL ISZERO DUP1 ISZERO PUSH2 0xA85 JUMPI RETURNDATASIZE PUSH1 0x0 DUP1 RETURNDATACOPY RETURNDATASIZE PUSH1 0x0 REVERT JUMPDEST POP POP POP POP DUP1 DUP1 PUSH2 0xA94 SWAP1 PUSH2 0x20B2 JUMP JUMPDEST SWAP2 POP POP PUSH2 0x8B5 JUMP JUMPDEST POP POP POP POP POP POP POP POP JUMP JUMPDEST CALLER PUSH1 0x0 DUP2 DUP2 MSTORE PUSH1 0x2 PUSH1 0x20 MSTORE PUSH1 0x40 DUP2 KECCAK256 PUSH1 0x3 ADD SLOAD SWAP1 SWAP2 SWAP1 ISZERO DUP1 ISZERO SWAP1 PUSH2 0xAE1 JUMPI POP PUSH1 0x1 PUSH1 0x1 PUSH1 0xA0 SHL SUB DUP2 AND PUSH1 0x0 SWAP1 DUP2 MSTORE PUSH1 0x2 PUSH1 0x20 MSTORE PUSH1 0x40 SWAP1 KECCAK256 SLOAD ISZERO ISZERO JUMPDEST DUP1 ISZERO PUSH2 0xB0A JUMPI POP PUSH1 0x1 PUSH1 0x1 PUSH1 0xA0 SHL SUB DUP2 DUP2 AND PUSH1 0x0 SWAP1 DUP2 MSTORE PUSH1 0x2 PUSH1 0x20 DUP2 SWAP1 MSTORE PUSH1 0x40 SWAP1 SWAP2 KECCAK256 ADD SLOAD AND ISZERO ISZERO JUMPDEST PUSH2 0xB26 JUMPI PUSH1 0x40 MLOAD PUSH3 0x461BCD PUSH1 0xE5 SHL DUP2 MSTORE PUSH1 0x4 ADD PUSH2 0x492 SWAP1 PUSH2 0x223F JUMP JUMPDEST DUP6 DUP6 PUSH1 0x0 JUMPDEST DUP2 DUP2 LT ISZERO PUSH2 0xB94 JUMPI PUSH1 0x0 DUP4 DUP4 DUP4 DUP2 DUP2 LT PUSH2 0xB47 JUMPI PUSH2 0xB47 PUSH2 0x2086 JUMP JUMPDEST SWAP1 POP PUSH1 0x20 MUL ADD PUSH1 0x20 DUP2 ADD SWAP1 PUSH2 0xB5C SWAP2 SWAP1 PUSH2 0x1BD5 JUMP JUMPDEST PUSH1 0x1 PUSH1 0x1 PUSH1 0xA0 SHL SUB AND SUB PUSH2 0xB82 JUMPI PUSH1 0x40 MLOAD PUSH3 0x461BCD PUSH1 0xE5 SHL DUP2 MSTORE PUSH1 0x4 ADD PUSH2 0x492 SWAP1 PUSH2 0x20CB JUMP JUMPDEST DUP1 PUSH2 0xB8C DUP2 PUSH2 0x20B2 JUMP JUMPDEST SWAP2 POP POP PUSH2 0xB2B JUMP JUMPDEST POP DUP8 DUP8 DUP8 DUP8 DUP1 DUP4 EQ PUSH2 0xBB8 JUMPI PUSH1 0x40 MLOAD PUSH3 0x461BCD PUSH1 0xE5 SHL DUP2 MSTORE PUSH1 0x4 ADD PUSH2 0x492 SWAP1 PUSH2 0x211A JUMP JUMPDEST DUP10 DUP10 PUSH1 0x0 JUMPDEST DUP2 DUP2 LT ISZERO PUSH2 0xC56 JUMPI PUSH1 0x1 SLOAD DUP4 DUP4 DUP4 DUP2 DUP2 LT PUSH2 0xBDA JUMPI PUSH2 0xBDA PUSH2 0x2086 JUMP JUMPDEST SWAP1 POP PUSH1 0x20 MUL ADD CALLDATALOAD GT ISZERO PUSH2 0xC44 JUMPI PUSH1 0x40 MLOAD PUSH3 0x461BCD PUSH1 0xE5 SHL DUP2 MSTORE PUSH1 0x20 PUSH1 0x4 DUP3 ADD MSTORE PUSH1 0x2C PUSH1 0x24 DUP3 ADD MSTORE PUSH32 0x57696C6C65723A2073686172652063616E277420626520677265617465722074 PUSH1 0x44 DUP3 ADD MSTORE PUSH12 0x68616E204D41585348415245 PUSH1 0xA0 SHL PUSH1 0x64 DUP3 ADD MSTORE PUSH1 0x84 ADD PUSH2 0x492 JUMP JUMPDEST DUP1 PUSH2 0xC4E DUP2 PUSH2 0x20B2 JUMP JUMPDEST SWAP2 POP POP PUSH2 0xBBD JUMP JUMPDEST POP CALLER PUSH1 0x0 SWAP1 DUP2 MSTORE PUSH1 0x2 PUSH1 0x20 MSTORE PUSH1 0x40 SWAP1 KECCAK256 PUSH2 0xC71 SWAP1 DUP16 DUP16 PUSH2 0x1AFA JUMP JUMPDEST POP CALLER PUSH1 0x0 SWAP1 DUP2 MSTORE PUSH1 0x2 PUSH1 0x20 MSTORE PUSH1 0x40 SWAP1 KECCAK256 PUSH2 0xC8F SWAP1 PUSH1 0x4 ADD DUP14 DUP14 PUSH2 0x1B5D JUMP JUMPDEST POP PUSH1 0x1 SWAP15 SWAP14 POP POP POP POP POP POP POP POP POP POP POP POP POP POP JUMP JUMPDEST CALLER PUSH1 0x0 DUP2 DUP2 MSTORE PUSH1 0x2 PUSH1 0x20 MSTORE PUSH1 0x40 DUP2 KECCAK256 PUSH1 0x3 ADD SLOAD SWAP1 SWAP2 SWAP1 ISZERO DUP1 ISZERO SWAP1 PUSH2 0xCDF JUMPI POP PUSH1 0x1 PUSH1 0x1 PUSH1 0xA0 SHL SUB DUP2 AND PUSH1 0x0 SWAP1 DUP2 MSTORE PUSH1 0x2 PUSH1 0x20 MSTORE PUSH1 0x40 SWAP1 KECCAK256 SLOAD ISZERO ISZERO JUMPDEST DUP1 ISZERO PUSH2 0xD08 JUMPI POP PUSH1 0x1 PUSH1 0x1 PUSH1 0xA0 SHL SUB DUP2 DUP2 AND PUSH1 0x0 SWAP1 DUP2 MSTORE PUSH1 0x2 PUSH1 0x20 DUP2 SWAP1 MSTORE PUSH1 0x40 SWAP1 SWAP2 KECCAK256 ADD SLOAD AND ISZERO ISZERO JUMPDEST PUSH2 0xD24 JUMPI PUSH1 0x40 MLOAD PUSH3 0x461BCD PUSH1 0xE5 SHL DUP2 MSTORE PUSH1 0x4 ADD PUSH2 0x492 SWAP1 PUSH2 0x223F JUMP JUMPDEST DUP3 PUSH1 0x0 SLOAD TIMESTAMP PUSH2 0xD33 SWAP2 SWAP1 PUSH2 0x216C JUMP JUMPDEST DUP2 LT ISZERO PUSH2 0xD52 JUMPI PUSH1 0x40 MLOAD PUSH3 0x461BCD PUSH1 0xE5 SHL DUP2 MSTORE PUSH1 0x4 ADD PUSH2 0x492 SWAP1 PUSH2 0x2185 JUMP JUMPDEST DUP4 PUSH1 0x0 SUB PUSH2 0xDA2 JUMPI PUSH1 0x40 MLOAD PUSH3 0x461BCD PUSH1 0xE5 SHL DUP2 MSTORE PUSH1 0x20 PUSH1 0x4 DUP3 ADD MSTORE PUSH1 0x1A PUSH1 0x24 DUP3 ADD MSTORE PUSH32 0x57696C6C65723A206E657752656C6561736554696D65203D2030000000000000 PUSH1 0x44 DUP3 ADD MSTORE PUSH1 0x64 ADD PUSH2 0x492 JUMP JUMPDEST POP POP CALLER PUSH1 0x0 SWAP1 DUP2 MSTORE PUSH1 0x2 PUSH1 0x20 MSTORE PUSH1 0x40 SWAP1 KECCAK256 PUSH1 0x3 ADD DUP3 SWAP1 SSTORE POP SWAP1 JUMP JUMPDEST PUSH1 0x1 PUSH1 0x1 PUSH1 0xA0 SHL SUB DUP6 AND PUSH1 0x0 SWAP1 DUP2 MSTORE PUSH1 0x2 PUSH1 0x20 MSTORE PUSH1 0x40 SWAP1 KECCAK256 PUSH1 0x3 ADD SLOAD DUP6 SWAP1 ISZERO DUP1 ISZERO SWAP1 PUSH2 0xE00 JUMPI POP PUSH1 0x1 PUSH1 0x1 PUSH1 0xA0 SHL SUB DUP2 AND PUSH1 0x0 SWAP1 DUP2 MSTORE PUSH1 0x2 PUSH1 0x20 MSTORE PUSH1 0x40 SWAP1 KECCAK256 SLOAD ISZERO ISZERO JUMPDEST DUP1 ISZERO PUSH2 0xE29 JUMPI POP PUSH1 0x1 PUSH1 0x1 PUSH1 0xA0 SHL SUB DUP2 DUP2 AND PUSH1 0x0 SWAP1 DUP2 MSTORE PUSH1 0x2 PUSH1 0x20 DUP2 SWAP1 MSTORE PUSH1 0x40 SWAP1 SWAP2 KECCAK256 ADD SLOAD AND ISZERO ISZERO JUMPDEST PUSH2 0xE45 JUMPI PUSH1 0x40 MLOAD PUSH3 0x461BCD PUSH1 0xE5 SHL DUP2 MSTORE PUSH1 0x4 ADD PUSH2 0x492 SWAP1 PUSH2 0x223F JUMP JUMPDEST PUSH1 0x1 PUSH1 0x1 PUSH1 0xA0 SHL SUB DUP7 AND PUSH1 0x0 SWAP1 DUP2 MSTORE PUSH1 0x2 PUSH1 0x20 MSTORE PUSH1 0x40 SWAP1 KECCAK256 PUSH1 0x3 ADD SLOAD DUP7 SWAP1 TIMESTAMP LT ISZERO PUSH2 0xE82 JUMPI PUSH1 0x40 MLOAD PUSH3 0x461BCD PUSH1 0xE5 SHL DUP2 MSTORE PUSH1 0x4 ADD PUSH2 0x492 SWAP1 PUSH2 0x2276 JUMP JUMPDEST PUSH1 0x0 JUMPDEST DUP6 DUP2 LT ISZERO PUSH2 0xA9C JUMPI ADDRESS PUSH4 0xB395245A DUP10 DUP10 DUP10 DUP6 DUP2 DUP2 LT PUSH2 0xEA6 JUMPI PUSH2 0xEA6 PUSH2 0x2086 JUMP JUMPDEST SWAP1 POP PUSH1 0x20 MUL ADD PUSH1 0x20 DUP2 ADD SWAP1 PUSH2 0xEBB SWAP2 SWAP1 PUSH2 0x1BD5 JUMP JUMPDEST DUP9 DUP9 DUP7 DUP2 DUP2 LT PUSH2 0xECD JUMPI PUSH2 0xECD PUSH2 0x2086 JUMP JUMPDEST SWAP1 POP PUSH1 0x20 MUL DUP2 ADD SWAP1 PUSH2 0xEDF SWAP2 SWAP1 PUSH2 0x235A JUMP JUMPDEST PUSH1 0x40 MLOAD DUP6 PUSH4 0xFFFFFFFF AND PUSH1 0xE0 SHL DUP2 MSTORE PUSH1 0x4 ADD PUSH2 0xEFE SWAP5 SWAP4 SWAP3 SWAP2 SWAP1 PUSH2 0x23D6 JUMP JUMPDEST PUSH1 0x0 PUSH1 0x40 MLOAD DUP1 DUP4 SUB DUP2 PUSH1 0x0 DUP8 DUP1 EXTCODESIZE ISZERO DUP1 ISZERO PUSH2 0xF18 JUMPI PUSH1 0x0 DUP1 REVERT JUMPDEST POP GAS CALL ISZERO DUP1 ISZERO PUSH2 0xF2C JUMPI RETURNDATASIZE PUSH1 0x0 DUP1 RETURNDATACOPY RETURNDATASIZE PUSH1 0x0 REVERT JUMPDEST POP POP POP POP DUP1 DUP1 PUSH2 0xF3B SWAP1 PUSH2 0x20B2 JUMP JUMPDEST SWAP2 POP POP PUSH2 0xE85 JUMP JUMPDEST PUSH1 0x1 PUSH1 0x1 PUSH1 0xA0 SHL SUB DUP5 AND PUSH1 0x0 SWAP1 DUP2 MSTORE PUSH1 0x2 PUSH1 0x20 MSTORE PUSH1 0x40 SWAP1 KECCAK256 PUSH1 0x3 ADD SLOAD DUP5 SWAP1 ISZERO DUP1 ISZERO SWAP1 PUSH2 0xF86 JUMPI POP PUSH1 0x1 PUSH1 0x1 PUSH1 0xA0 SHL SUB DUP2 AND PUSH1 0x0 SWAP1 DUP2 MSTORE PUSH1 0x2 PUSH1 0x20 MSTORE PUSH1 0x40 SWAP1 KECCAK256 SLOAD ISZERO ISZERO JUMPDEST DUP1 ISZERO PUSH2 0xFAF JUMPI POP PUSH1 0x1 PUSH1 0x1 PUSH1 0xA0 SHL SUB DUP2 DUP2 AND PUSH1 0x0 SWAP1 DUP2 MSTORE PUSH1 0x2 PUSH1 0x20 DUP2 SWAP1 MSTORE PUSH1 0x40 SWAP1 SWAP2 KECCAK256 ADD SLOAD AND ISZERO ISZERO JUMPDEST PUSH2 0xFCB JUMPI PUSH1 0x40 MLOAD PUSH3 0x461BCD PUSH1 0xE5 SHL DUP2 MSTORE PUSH1 0x4 ADD PUSH2 0x492 SWAP1 PUSH2 0x223F JUMP JUMPDEST PUSH1 0x1 PUSH1 0x1 PUSH1 0xA0 SHL SUB DUP6 AND PUSH1 0x0 SWAP1 DUP2 MSTORE PUSH1 0x2 PUSH1 0x20 MSTORE PUSH1 0x40 SWAP1 KECCAK256 PUSH1 0x3 ADD SLOAD DUP6 SWAP1 TIMESTAMP LT ISZERO PUSH2 0x1008 JUMPI PUSH1 0x40 MLOAD PUSH3 0x461BCD PUSH1 0xE5 SHL DUP2 MSTORE PUSH1 0x4 ADD PUSH2 0x492 SWAP1 PUSH2 0x2276 JUMP JUMPDEST PUSH1 0x0 JUMPDEST DUP4 DUP2 LT ISZERO PUSH2 0x10D2 JUMPI PUSH1 0x1 PUSH1 0x1 PUSH1 0xA0 SHL SUB DUP8 DUP2 AND PUSH1 0x0 SWAP1 DUP2 MSTORE PUSH1 0x2 PUSH1 0x20 DUP2 SWAP1 MSTORE PUSH1 0x40 SWAP1 SWAP2 KECCAK256 ADD SLOAD DUP2 DUP9 AND SWAP2 PUSH4 0x42842E0E SWAP2 DUP11 SWAP2 AND DUP9 DUP9 DUP7 DUP2 DUP2 LT PUSH2 0x1050 JUMPI PUSH2 0x1050 PUSH2 0x2086 JUMP JUMPDEST PUSH1 0x40 MLOAD PUSH1 0x1 PUSH1 0x1 PUSH1 0xE0 SHL SUB NOT PUSH1 0xE0 DUP9 SWAP1 SHL AND DUP2 MSTORE PUSH1 0x1 PUSH1 0x1 PUSH1 0xA0 SHL SUB SWAP6 DUP7 AND PUSH1 0x4 DUP3 ADD MSTORE SWAP5 SWAP1 SWAP4 AND PUSH1 0x24 DUP6 ADD MSTORE POP PUSH1 0x20 SWAP1 SWAP2 MUL ADD CALLDATALOAD PUSH1 0x44 DUP3 ADD MSTORE PUSH1 0x64 ADD PUSH1 0x0 PUSH1 0x40 MLOAD DUP1 DUP4 SUB DUP2 PUSH1 0x0 DUP8 DUP1 EXTCODESIZE ISZERO DUP1 ISZERO PUSH2 0x10A7 JUMPI PUSH1 0x0 DUP1 REVERT JUMPDEST POP GAS CALL ISZERO DUP1 ISZERO PUSH2 0x10BB JUMPI RETURNDATASIZE PUSH1 0x0 DUP1 RETURNDATACOPY RETURNDATASIZE PUSH1 0x0 REVERT JUMPDEST POP POP POP POP DUP1 DUP1 PUSH2 0x10CA SWAP1 PUSH2 0x20B2 JUMP JUMPDEST SWAP2 POP POP PUSH2 0x100B JUMP JUMPDEST POP POP POP POP POP POP POP JUMP JUMPDEST CALLER PUSH1 0x0 DUP2 DUP2 MSTORE PUSH1 0x2 PUSH1 0x20 MSTORE PUSH1 0x40 SWAP1 KECCAK256 PUSH1 0x3 ADD SLOAD ISZERO DUP1 ISZERO SWAP1 PUSH2 0x1113 JUMPI POP PUSH1 0x1 PUSH1 0x1 PUSH1 0xA0 SHL SUB DUP2 AND PUSH1 0x0 SWAP1 DUP2 MSTORE PUSH1 0x2 PUSH1 0x20 MSTORE PUSH1 0x40 SWAP1 KECCAK256 SLOAD ISZERO ISZERO JUMPDEST DUP1 ISZERO PUSH2 0x113C JUMPI POP PUSH1 0x1 PUSH1 0x1 PUSH1 0xA0 SHL SUB DUP2 DUP2 AND PUSH1 0x0 SWAP1 DUP2 MSTORE PUSH1 0x2 PUSH1 0x20 DUP2 SWAP1 MSTORE PUSH1 0x40 SWAP1 SWAP2 KECCAK256 ADD SLOAD AND ISZERO ISZERO JUMPDEST PUSH2 0x1158 JUMPI PUSH1 0x40 MLOAD PUSH3 0x461BCD PUSH1 0xE5 SHL DUP2 MSTORE PUSH1 0x4 ADD PUSH2 0x492 SWAP1 PUSH2 0x223F JUMP JUMPDEST DUP2 PUSH1 0x1 PUSH1 0x1 PUSH1 0xA0 SHL SUB DUP2 AND PUSH2 0x117F JUMPI PUSH1 0x40 MLOAD PUSH3 0x461BCD PUSH1 0xE5 SHL DUP2 MSTORE PUSH1 0x4 ADD PUSH2 0x492 SWAP1 PUSH2 0x21E2 JUMP JUMPDEST POP POP CALLER PUSH1 0x0 SWAP1 DUP2 MSTORE PUSH1 0x2 PUSH1 0x20 DUP2 SWAP1 MSTORE PUSH1 0x40 SWAP1 SWAP2 KECCAK256 ADD DUP1 SLOAD PUSH1 0x1 PUSH1 0x1 PUSH1 0xA0 SHL SUB NOT AND PUSH1 0x1 PUSH1 0x1 PUSH1 0xA0 SHL SUB SWAP3 SWAP1 SWAP3 AND SWAP2 SWAP1 SWAP2 OR SWAP1 SSTORE JUMP JUMPDEST PUSH1 0x1 PUSH1 0x1 PUSH1 0xA0 SHL SUB DUP2 AND PUSH1 0x0 SWAP1 DUP2 MSTORE PUSH1 0x2 PUSH1 0x20 SWAP1 DUP2 MSTORE PUSH1 0x40 SWAP2 DUP3 SWAP1 KECCAK256 PUSH1 0x4 ADD DUP1 SLOAD DUP4 MLOAD DUP2 DUP5 MUL DUP2 ADD DUP5 ADD SWAP1 SWAP5 MSTORE DUP1 DUP5 MSTORE PUSH1 0x60 SWAP4 SWAP3 DUP4 ADD DUP3 DUP3 DUP1 ISZERO PUSH2 0x37C JUMPI PUSH1 0x20 MUL DUP3 ADD SWAP2 SWAP1 PUSH1 0x0 MSTORE PUSH1 0x20 PUSH1 0x0 KECCAK256 SWAP1 JUMPDEST DUP2 SLOAD DUP2 MSTORE PUSH1 0x20 ADD SWAP1 PUSH1 0x1 ADD SWAP1 DUP1 DUP4 GT PUSH2 0x1203 JUMPI POP POP POP POP POP SWAP1 POP SWAP2 SWAP1 POP JUMP JUMPDEST PUSH1 0x1 PUSH1 0x1 PUSH1 0xA0 SHL SUB DUP3 AND PUSH1 0x0 SWAP1 DUP2 MSTORE PUSH1 0x2 PUSH1 0x20 MSTORE PUSH1 0x40 SWAP1 KECCAK256 PUSH1 0x3 ADD SLOAD DUP3 SWAP1 ISZERO DUP1 ISZERO SWAP1 PUSH2 0x1265 JUMPI POP PUSH1 0x1 PUSH1 0x1 PUSH1 0xA0 SHL SUB DUP2 AND PUSH1 0x0 SWAP1 DUP2 MSTORE PUSH1 0x2 PUSH1 0x20 MSTORE PUSH1 0x40 SWAP1 KECCAK256 SLOAD ISZERO ISZERO JUMPDEST DUP1 ISZERO PUSH2 0x128E JUMPI POP PUSH1 0x1 PUSH1 0x1 PUSH1 0xA0 SHL SUB DUP2 DUP2 AND PUSH1 0x0 SWAP1 DUP2 MSTORE PUSH1 0x2 PUSH1 0x20 DUP2 SWAP1 MSTORE PUSH1 0x40 SWAP1 SWAP2 KECCAK256 ADD SLOAD AND ISZERO ISZERO JUMPDEST PUSH2 0x12AA JUMPI PUSH1 0x40 MLOAD PUSH3 0x461BCD PUSH1 0xE5 SHL DUP2 MSTORE PUSH1 0x4 ADD PUSH2 0x492 SWAP1 PUSH2 0x223F JUMP JUMPDEST PUSH1 0x1 PUSH1 0x1 PUSH1 0xA0 SHL SUB DUP4 AND PUSH1 0x0 SWAP1 DUP2 MSTORE PUSH1 0x2 PUSH1 0x20 MSTORE PUSH1 0x40 SWAP1 KECCAK256 PUSH1 0x3 ADD SLOAD DUP4 SWAP1 TIMESTAMP LT ISZERO PUSH2 0x12E7 JUMPI PUSH1 0x40 MLOAD PUSH3 0x461BCD PUSH1 0xE5 SHL DUP2 MSTORE PUSH1 0x4 ADD PUSH2 0x492 SWAP1 PUSH2 0x2276 JUMP JUMPDEST PUSH1 0x40 MLOAD PUSH4 0x70A08231 PUSH1 0xE0 SHL DUP2 MSTORE PUSH1 0x1 PUSH1 0x1 PUSH1 0xA0 SHL SUB DUP6 DUP2 AND PUSH1 0x4 DUP4 ADD MSTORE PUSH1 0x0 SWAP2 SWAP1 DUP6 AND SWAP1 PUSH4 0x70A08231 SWAP1 PUSH1 0x24 ADD PUSH1 0x20 PUSH1 0x40 MLOAD DUP1 DUP4 SUB DUP2 DUP7 GAS STATICCALL ISZERO DUP1 ISZERO PUSH2 0x1331 JUMPI RETURNDATASIZE PUSH1 0x0 DUP1 RETURNDATACOPY RETURNDATASIZE PUSH1 0x0 REVERT JUMPDEST POP POP POP POP PUSH1 0x40 MLOAD RETURNDATASIZE PUSH1 0x1F NOT PUSH1 0x1F DUP3 ADD AND DUP3 ADD DUP1 PUSH1 0x40 MSTORE POP DUP2 ADD SWAP1 PUSH2 0x1355 SWAP2 SWAP1 PUSH2 0x22A4 JUMP JUMPDEST SWAP1 POP PUSH1 0x0 DUP2 PUSH1 0x0 SUB PUSH2 0x13B4 JUMPI PUSH1 0x40 MLOAD PUSH3 0x461BCD PUSH1 0xE5 SHL DUP2 MSTORE PUSH1 0x20 PUSH1 0x4 DUP3 ADD MSTORE PUSH1 0x22 PUSH1 0x24 DUP3 ADD MSTORE PUSH32 0x57696C6C65723A204E6F20455243323020746F6B656E7320746F2072656C6561 PUSH1 0x44 DUP3 ADD MSTORE PUSH2 0x7365 PUSH1 0xF0 SHL PUSH1 0x64 DUP3 ADD MSTORE PUSH1 0x84 ADD PUSH2 0x492 JUMP JUMPDEST PUSH1 0x40 MLOAD PUSH4 0x6EB1769F PUSH1 0xE1 SHL DUP2 MSTORE PUSH1 0x1 PUSH1 0x1 PUSH1 0xA0 SHL SUB DUP8 DUP2 AND PUSH1 0x4 DUP4 ADD MSTORE ADDRESS PUSH1 0x24 DUP4 ADD MSTORE PUSH1 0x0 SWAP2 SWAP1 DUP8 AND SWAP1 PUSH4 0xDD62ED3E SWAP1 PUSH1 0x44 ADD PUSH1 0x20 PUSH1 0x40 MLOAD DUP1 DUP4 SUB DUP2 DUP7 GAS STATICCALL ISZERO DUP1 ISZERO PUSH2 0x1404 JUMPI RETURNDATASIZE PUSH1 0x0 DUP1 RETURNDATACOPY RETURNDATASIZE PUSH1 0x0 REVERT JUMPDEST POP POP POP POP PUSH1 0x40 MLOAD RETURNDATASIZE PUSH1 0x1F NOT PUSH1 0x1F DUP3 ADD AND DUP3 ADD DUP1 PUSH1 0x40 MSTORE POP DUP2 ADD SWAP1 PUSH2 0x1428 SWAP2 SWAP1 PUSH2 0x22A4 JUMP JUMPDEST SWAP1 POP DUP1 PUSH1 0x0 SUB PUSH2 0x147A JUMPI PUSH1 0x40 MLOAD PUSH3 0x461BCD PUSH1 0xE5 SHL DUP2 MSTORE PUSH1 0x20 PUSH1 0x4 DUP3 ADD MSTORE PUSH1 0x1C PUSH1 0x24 DUP3 ADD MSTORE PUSH32 0x57696C6C65723A204552433230207A65726F20616C6C6F77616E636500000000 PUSH1 0x44 DUP3 ADD MSTORE PUSH1 0x64 ADD PUSH2 0x492 JUMP JUMPDEST DUP3 DUP2 LT ISZERO PUSH2 0x1486 JUMPI DUP1 SWAP3 POP JUMPDEST PUSH1 0x0 JUMPDEST PUSH1 0x1 PUSH1 0x1 PUSH1 0xA0 SHL SUB DUP9 AND PUSH1 0x0 SWAP1 DUP2 MSTORE PUSH1 0x2 PUSH1 0x20 MSTORE PUSH1 0x40 SWAP1 KECCAK256 SLOAD DUP2 LT ISZERO PUSH2 0xA9C JUMPI PUSH1 0x1 PUSH1 0x1 PUSH1 0xA0 SHL SUB DUP9 AND PUSH1 0x0 SWAP1 DUP2 MSTORE PUSH1 0x2 PUSH1 0x20 MSTORE PUSH1 0x40 SWAP1 KECCAK256 PUSH1 0x4 ADD DUP1 SLOAD PUSH2 0x150B SWAP2 SWAP1 DUP4 SWAP1 DUP2 LT PUSH2 0x14DB JUMPI PUSH2 0x14DB PUSH2 0x2086 JUMP JUMPDEST PUSH1 0x0 SWAP2 DUP3 MSTORE PUSH1 0x20 DUP1 DUP4 KECCAK256 SWAP1 SWAP2 ADD SLOAD PUSH1 0x1 PUSH1 0x1 PUSH1 0xA0 SHL SUB DUP13 AND DUP4 MSTORE PUSH1 0x2 SWAP1 SWAP2 MSTORE PUSH1 0x40 SWAP1 SWAP2 KECCAK256 PUSH1 0x1 ADD SLOAD DUP7 SWAP2 SWAP1 PUSH2 0x178D JUMP JUMPDEST PUSH1 0x1 PUSH1 0x1 PUSH1 0xA0 SHL SUB DUP10 AND PUSH1 0x0 SWAP1 DUP2 MSTORE PUSH1 0x2 PUSH1 0x20 MSTORE PUSH1 0x40 SWAP1 KECCAK256 SLOAD SWAP1 SWAP4 POP PUSH2 0x1533 SWAP1 PUSH1 0x1 SWAP1 PUSH2 0x22BD JUMP JUMPDEST DUP2 SUB PUSH2 0x15A6 JUMPI PUSH1 0x40 MLOAD PUSH4 0x70A08231 PUSH1 0xE0 SHL DUP2 MSTORE PUSH1 0x1 PUSH1 0x1 PUSH1 0xA0 SHL SUB DUP10 DUP2 AND PUSH1 0x4 DUP4 ADD MSTORE DUP9 AND SWAP1 PUSH4 0x70A08231 SWAP1 PUSH1 0x24 ADD PUSH1 0x20 PUSH1 0x40 MLOAD DUP1 DUP4 SUB DUP2 DUP7 GAS STATICCALL ISZERO DUP1 ISZERO PUSH2 0x157F JUMPI RETURNDATASIZE PUSH1 0x0 DUP1 RETURNDATACOPY RETURNDATASIZE PUSH1 0x0 REVERT JUMPDEST POP POP POP POP PUSH1 0x40 MLOAD RETURNDATASIZE PUSH1 0x1F NOT PUSH1 0x1F DUP3 ADD AND DUP3 ADD DUP1 PUSH1 0x40 MSTORE POP DUP2 ADD SWAP1 PUSH2 0x15A3 SWAP2 SWAP1 PUSH2 0x22A4 JUMP JUMPDEST SWAP3 POP JUMPDEST PUSH1 0x1 PUSH1 0x1 PUSH1 0xA0 SHL SUB DUP9 AND PUSH1 0x0 SWAP1 DUP2 MSTORE PUSH1 0x2 PUSH1 0x20 MSTORE PUSH1 0x40 SWAP1 KECCAK256 DUP1 SLOAD PUSH2 0x15F6 SWAP2 DUP11 SWAP2 DUP5 SWAP1 DUP2 LT PUSH2 0x15D6 JUMPI PUSH2 0x15D6 PUSH2 0x2086 JUMP JUMPDEST PUSH1 0x0 SWAP2 DUP3 MSTORE PUSH1 0x20 SWAP1 SWAP2 KECCAK256 ADD SLOAD PUSH1 0x1 PUSH1 0x1 PUSH1 0xA0 SHL SUB DUP11 DUP2 AND SWAP3 SWAP2 AND DUP7 PUSH2 0x1842 JUMP JUMPDEST DUP1 PUSH2 0x1600 DUP2 PUSH2 0x20B2 JUMP JUMPDEST SWAP2 POP POP PUSH2 0x1489 JUMP JUMPDEST PUSH1 0x40 MLOAD PUSH4 0x5137510F PUSH1 0xE1 SHL DUP2 MSTORE ADDRESS SWAP1 PUSH4 0xA26EA21E SWAP1 PUSH2 0x162F SWAP1 DUP15 SWAP1 DUP15 SWAP1 DUP15 SWAP1 PUSH1 0x4 ADD PUSH2 0x240D JUMP JUMPDEST PUSH1 0x0 PUSH1 0x40 MLOAD DUP1 DUP4 SUB DUP2 PUSH1 0x0 DUP8 DUP1 EXTCODESIZE ISZERO DUP1 ISZERO PUSH2 0x1649 JUMPI PUSH1 0x0 DUP1 REVERT JUMPDEST POP GAS CALL ISZERO DUP1 ISZERO PUSH2 0x165D JUMPI RETURNDATASIZE PUSH1 0x0 DUP1 RETURNDATACOPY RETURNDATASIZE PUSH1 0x0 REVERT JUMPDEST POP POP PUSH1 0x40 MLOAD PUSH4 0x5645E3BF PUSH1 0xE1 SHL DUP2 MSTORE ADDRESS SWAP3 POP PUSH4 0xAC8BC77E SWAP2 POP PUSH2 0x168C SWAP1 DUP15 SWAP1 DUP13 SWAP1 DUP13 SWAP1 DUP11 SWAP1 DUP11 SWAP1 PUSH1 0x4 ADD PUSH2 0x2469 JUMP JUMPDEST PUSH1 0x0 PUSH1 0x40 MLOAD DUP1 DUP4 SUB DUP2 PUSH1 0x0 DUP8 DUP1 EXTCODESIZE ISZERO DUP1 ISZERO PUSH2 0x16A6 JUMPI PUSH1 0x0 DUP1 REVERT JUMPDEST POP GAS CALL ISZERO DUP1 ISZERO PUSH2 0x16BA JUMPI RETURNDATASIZE PUSH1 0x0 DUP1 RETURNDATACOPY RETURNDATASIZE PUSH1 0x0 REVERT JUMPDEST POP POP POP POP PUSH1 0x0 JUMPDEST DUP6 DUP2 LT ISZERO PUSH2 0x177F JUMPI ADDRESS PUSH4 0x7CE752C6 DUP14 DUP10 DUP10 DUP6 DUP2 DUP2 LT PUSH2 0x16E2 JUMPI PUSH2 0x16E2 PUSH2 0x2086 JUMP JUMPDEST SWAP1 POP PUSH1 0x20 MUL ADD PUSH1 0x20 DUP2 ADD SWAP1 PUSH2 0x16F7 SWAP2 SWAP1 PUSH2 0x1BD5 JUMP JUMPDEST DUP7 DUP7 DUP7 DUP2 DUP2 LT PUSH2 0x1709 JUMPI PUSH2 0x1709 PUSH2 0x2086 JUMP JUMPDEST SWAP1 POP PUSH1 0x20 MUL DUP2 ADD SWAP1 PUSH2 0x171B SWAP2 SWAP1 PUSH2 0x235A JUMP JUMPDEST PUSH1 0x40 MLOAD DUP6 PUSH4 0xFFFFFFFF AND PUSH1 0xE0 SHL DUP2 MSTORE PUSH1 0x4 ADD PUSH2 0x173A SWAP5 SWAP4 SWAP3 SWAP2 SWAP1 PUSH2 0x23D6 JUMP JUMPDEST PUSH1 0x0 PUSH1 0x40 MLOAD DUP1 DUP4 SUB DUP2 PUSH1 0x0 DUP8 DUP1 EXTCODESIZE ISZERO DUP1 ISZERO PUSH2 0x1754 JUMPI PUSH1 0x0 DUP1 REVERT JUMPDEST POP GAS CALL ISZERO DUP1 ISZERO PUSH2 0x1768 JUMPI RETURNDATASIZE PUSH1 0x0 DUP1 RETURNDATACOPY RETURNDATASIZE PUSH1 0x0 REVERT JUMPDEST POP POP POP POP DUP1 DUP1 PUSH2 0x1777 SWAP1 PUSH2 0x20B2 JUMP JUMPDEST SWAP2 POP POP PUSH2 0x16C1 JUMP JUMPDEST POP POP POP POP POP POP POP POP POP POP POP POP JUMP JUMPDEST PUSH1 0x0 DUP1 DUP1 PUSH1 0x0 NOT DUP6 DUP8 MULMOD DUP6 DUP8 MUL SWAP3 POP DUP3 DUP2 LT DUP4 DUP3 SUB SUB SWAP2 POP POP DUP1 PUSH1 0x0 SUB PUSH2 0x17C7 JUMPI DUP4 DUP3 DUP2 PUSH2 0x17BD JUMPI PUSH2 0x17BD PUSH2 0x255C JUMP JUMPDEST DIV SWAP3 POP POP POP PUSH2 0x183B JUMP JUMPDEST DUP1 DUP5 GT PUSH2 0x17D3 JUMPI PUSH1 0x0 DUP1 REVERT JUMPDEST PUSH1 0x0 DUP5 DUP7 DUP9 MULMOD DUP6 NOT PUSH1 0x1 SWAP1 DUP2 ADD DUP8 AND SWAP7 DUP8 SWAP1 DIV SWAP7 DUP3 DUP7 SUB DUP2 SWAP1 DIV SWAP6 SWAP1 SWAP3 GT SWAP1 SWAP4 SUB PUSH1 0x0 DUP3 SWAP1 SUB SWAP2 SWAP1 SWAP2 DIV SWAP1 SWAP3 ADD SWAP2 SWAP1 SWAP2 MUL SWAP2 SWAP1 SWAP2 OR PUSH1 0x3 DUP5 MUL PUSH1 0x2 SWAP1 DUP2 XOR DUP1 DUP7 MUL DUP3 SUB MUL DUP1 DUP7 MUL DUP3 SUB MUL DUP1 DUP7 MUL DUP3 SUB MUL DUP1 DUP7 MUL DUP3 SUB MUL DUP1 DUP7 MUL DUP3 SUB MUL DUP1 DUP7 MUL SWAP1 SWAP2 SUB MUL MUL SWAP2 POP POP JUMPDEST SWAP4 SWAP3 POP POP POP JUMP JUMPDEST PUSH1 0x40 DUP1 MLOAD PUSH1 0x1 PUSH1 0x1 PUSH1 0xA0 SHL SUB DUP6 DUP2 AND PUSH1 0x24 DUP4 ADD MSTORE DUP5 AND PUSH1 0x44 DUP3 ADD MSTORE PUSH1 0x64 DUP1 DUP3 ADD DUP5 SWAP1 MSTORE DUP3 MLOAD DUP1 DUP4 SUB SWAP1 SWAP2 ADD DUP2 MSTORE PUSH1 0x84 SWAP1 SWAP2 ADD SWAP1 SWAP2 MSTORE PUSH1 0x20 DUP2 ADD DUP1 MLOAD PUSH1 0x1 PUSH1 0x1 PUSH1 0xE0 SHL SUB AND PUSH4 0x23B872DD PUSH1 0xE0 SHL OR SWAP1 MSTORE PUSH2 0x189C SWAP1 DUP6 SWAP1 PUSH2 0x18A2 JUMP JUMPDEST POP POP POP POP JUMP JUMPDEST PUSH1 0x0 PUSH2 0x18F7 DUP3 PUSH1 0x40 MLOAD DUP1 PUSH1 0x40 ADD PUSH1 0x40 MSTORE DUP1 PUSH1 0x20 DUP2 MSTORE PUSH1 0x20 ADD PUSH32 0x5361666545524332303A206C6F772D6C6576656C2063616C6C206661696C6564 DUP2 MSTORE POP DUP6 PUSH1 0x1 PUSH1 0x1 PUSH1 0xA0 SHL SUB AND PUSH2 0x1979 SWAP1 SWAP3 SWAP2 SWAP1 PUSH4 0xFFFFFFFF AND JUMP JUMPDEST DUP1 MLOAD SWAP1 SWAP2 POP ISZERO PUSH2 0x1974 JUMPI DUP1 DUP1 PUSH1 0x20 ADD SWAP1 MLOAD DUP2 ADD SWAP1 PUSH2 0x1915 SWAP2 SWAP1 PUSH2 0x2572 JUMP JUMPDEST PUSH2 0x1974 JUMPI PUSH1 0x40 MLOAD PUSH3 0x461BCD PUSH1 0xE5 SHL DUP2 MSTORE PUSH1 0x20 PUSH1 0x4 DUP3 ADD MSTORE PUSH1 0x2A PUSH1 0x24 DUP3 ADD MSTORE PUSH32 0x5361666545524332303A204552433230206F7065726174696F6E20646964206E PUSH1 0x44 DUP3 ADD MSTORE PUSH10 0x1BDD081CDD58D8D95959 PUSH1 0xB2 SHL PUSH1 0x64 DUP3 ADD MSTORE PUSH1 0x84 ADD PUSH2 0x492 JUMP JUMPDEST POP POP POP JUMP JUMPDEST PUSH1 0x60 PUSH2 0x1988 DUP5 DUP5 PUSH1 0x0 DUP6 PUSH2 0x1990 JUMP JUMPDEST SWAP5 SWAP4 POP POP POP POP JUMP JUMPDEST PUSH1 0x60 DUP3 SELFBALANCE LT ISZERO PUSH2 0x19F1 JUMPI PUSH1 0x40 MLOAD PUSH3 0x461BCD PUSH1 0xE5 SHL DUP2 MSTORE PUSH1 0x20 PUSH1 0x4 DUP3 ADD MSTORE PUSH1 0x26 PUSH1 0x24 DUP3 ADD MSTORE PUSH32 0x416464726573733A20696E73756666696369656E742062616C616E636520666F PUSH1 0x44 DUP3 ADD MSTORE PUSH6 0x1C8818D85B1B PUSH1 0xD2 SHL PUSH1 0x64 DUP3 ADD MSTORE PUSH1 0x84 ADD PUSH2 0x492 JUMP JUMPDEST PUSH1 0x1 PUSH1 0x1 PUSH1 0xA0 SHL SUB DUP6 AND EXTCODESIZE PUSH2 0x1A48 JUMPI PUSH1 0x40 MLOAD PUSH3 0x461BCD PUSH1 0xE5 SHL DUP2 MSTORE PUSH1 0x20 PUSH1 0x4 DUP3 ADD MSTORE PUSH1 0x1D PUSH1 0x24 DUP3 ADD MSTORE PUSH32 0x416464726573733A2063616C6C20746F206E6F6E2D636F6E7472616374000000 PUSH1 0x44 DUP3 ADD MSTORE PUSH1 0x64 ADD PUSH2 0x492 JUMP JUMPDEST PUSH1 0x0 DUP1 DUP7 PUSH1 0x1 PUSH1 0x1 PUSH1 0xA0 SHL SUB AND DUP6 DUP8 PUSH1 0x40 MLOAD PUSH2 0x1A64 SWAP2 SWAP1 PUSH2 0x2594 JUMP JUMPDEST PUSH1 0x0 PUSH1 0x40 MLOAD DUP1 DUP4 SUB DUP2 DUP6 DUP8 GAS CALL SWAP3 POP POP POP RETURNDATASIZE DUP1 PUSH1 0x0 DUP2 EQ PUSH2 0x1AA1 JUMPI PUSH1 0x40 MLOAD SWAP2 POP PUSH1 0x1F NOT PUSH1 0x3F RETURNDATASIZE ADD AND DUP3 ADD PUSH1 0x40 MSTORE RETURNDATASIZE DUP3 MSTORE RETURNDATASIZE PUSH1 0x0 PUSH1 0x20 DUP5 ADD RETURNDATACOPY PUSH2 0x1AA6 JUMP JUMPDEST PUSH1 0x60 SWAP2 POP JUMPDEST POP SWAP2 POP SWAP2 POP PUSH2 0x1AB6 DUP3 DUP3 DUP7 PUSH2 0x1AC1 JUMP JUMPDEST SWAP8 SWAP7 POP POP POP POP POP POP POP JUMP JUMPDEST PUSH1 0x60 DUP4 ISZERO PUSH2 0x1AD0 JUMPI POP DUP2 PUSH2 0x183B JUMP JUMPDEST DUP3 MLOAD ISZERO PUSH2 0x1AE0 JUMPI DUP3 MLOAD DUP1 DUP5 PUSH1 0x20 ADD REVERT JUMPDEST DUP2 PUSH1 0x40 MLOAD PUSH3 0x461BCD PUSH1 0xE5 SHL DUP2 MSTORE PUSH1 0x4 ADD PUSH2 0x492 SWAP2 SWAP1 PUSH2 0x25B0 JUMP JUMPDEST DUP3 DUP1 SLOAD DUP3 DUP3 SSTORE SWAP1 PUSH1 0x0 MSTORE PUSH1 0x20 PUSH1 0x0 KECCAK256 SWAP1 DUP2 ADD SWAP3 DUP3 ISZERO PUSH2 0x1B4D JUMPI SWAP2 PUSH1 0x20 MUL DUP3 ADD JUMPDEST DUP3 DUP2 GT ISZERO PUSH2 0x1B4D JUMPI DUP2 SLOAD PUSH1 0x1 PUSH1 0x1 PUSH1 0xA0 SHL SUB NOT AND PUSH1 0x1 PUSH1 0x1 PUSH1 0xA0 SHL SUB DUP5 CALLDATALOAD AND OR DUP3 SSTORE PUSH1 0x20 SWAP1 SWAP3 ADD SWAP2 PUSH1 0x1 SWAP1 SWAP2 ADD SWAP1 PUSH2 0x1B1A JUMP JUMPDEST POP PUSH2 0x1B59 SWAP3 SWAP2 POP PUSH2 0x1B98 JUMP JUMPDEST POP SWAP1 JUMP JUMPDEST DUP3 DUP1 SLOAD DUP3 DUP3 SSTORE SWAP1 PUSH1 0x0 MSTORE PUSH1 0x20 PUSH1 0x0 KECCAK256 SWAP1 DUP2 ADD SWAP3 DUP3 ISZERO PUSH2 0x1B4D JUMPI SWAP2 PUSH1 0x20 MUL DUP3 ADD JUMPDEST DUP3 DUP2 GT ISZERO PUSH2 0x1B4D JUMPI DUP3 CALLDATALOAD DUP3 SSTORE SWAP2 PUSH1 0x20 ADD SWAP2 SWAP1 PUSH1 0x1 ADD SWAP1 PUSH2 0x1B7D JUMP JUMPDEST JUMPDEST DUP1 DUP3 GT ISZERO PUSH2 0x1B59 JUMPI PUSH1 0x0 DUP2 SSTORE PUSH1 0x1 ADD PUSH2 0x1B99 JUMP JUMPDEST PUSH1 0x1 PUSH1 0x1 PUSH1 0xA0 SHL SUB DUP2 AND DUP2 EQ PUSH2 0x1BC2 JUMPI PUSH1 0x0 DUP1 REVERT JUMPDEST POP JUMP JUMPDEST DUP1 CALLDATALOAD PUSH2 0x1BD0 DUP2 PUSH2 0x1BAD JUMP JUMPDEST SWAP2 SWAP1 POP JUMP JUMPDEST PUSH1 0x0 PUSH1 0x20 DUP3 DUP5 SUB SLT ISZERO PUSH2 0x1BE7 JUMPI PUSH1 0x0 DUP1 REVERT JUMPDEST DUP2 CALLDATALOAD PUSH2 0x183B DUP2 PUSH2 0x1BAD JUMP JUMPDEST PUSH1 0x20 DUP1 DUP3 MSTORE DUP3 MLOAD DUP3 DUP3 ADD DUP2 SWAP1 MSTORE PUSH1 0x0 SWAP2 SWAP1 DUP5 DUP3 ADD SWAP1 PUSH1 0x40 DUP6 ADD SWAP1 DUP5 JUMPDEST DUP2 DUP2 LT ISZERO PUSH2 0x1C33 JUMPI DUP4 MLOAD PUSH1 0x1 PUSH1 0x1 PUSH1 0xA0 SHL SUB AND DUP4 MSTORE SWAP3 DUP5 ADD SWAP3 SWAP2 DUP5 ADD SWAP2 PUSH1 0x1 ADD PUSH2 0x1C0E JUMP JUMPDEST POP SWAP1 SWAP7 SWAP6 POP POP POP POP POP POP JUMP JUMPDEST PUSH1 0x0 DUP1 DUP4 PUSH1 0x1F DUP5 ADD SLT PUSH2 0x1C51 JUMPI PUSH1 0x0 DUP1 REVERT JUMPDEST POP DUP2 CALLDATALOAD PUSH8 0xFFFFFFFFFFFFFFFF DUP2 GT ISZERO PUSH2 0x1C69 JUMPI PUSH1 0x0 DUP1 REVERT JUMPDEST PUSH1 0x20 DUP4 ADD SWAP2 POP DUP4 PUSH1 0x20 DUP3 PUSH1 0x5 SHL DUP6 ADD ADD GT ISZERO PUSH2 0x1C84 JUMPI PUSH1 0x0 DUP1 REVERT JUMPDEST SWAP3 POP SWAP3 SWAP1 POP JUMP JUMPDEST PUSH1 0x0 DUP1 PUSH1 0x0 DUP1 PUSH1 0x60 DUP6 DUP8 SUB SLT ISZERO PUSH2 0x1CA1 JUMPI PUSH1 0x0 DUP1 REVERT JUMPDEST DUP5 CALLDATALOAD PUSH2 0x1CAC DUP2 PUSH2 0x1BAD JUMP JUMPDEST SWAP4 POP PUSH1 0x20 DUP6 ADD CALLDATALOAD PUSH2 0x1CBC DUP2 PUSH2 0x1BAD JUMP JUMPDEST SWAP3 POP PUSH1 0x40 DUP6 ADD CALLDATALOAD PUSH8 0xFFFFFFFFFFFFFFFF DUP2 GT ISZERO PUSH2 0x1CD8 JUMPI PUSH1 0x0 DUP1 REVERT JUMPDEST PUSH2 0x1CE4 DUP8 DUP3 DUP9 ADD PUSH2 0x1C3F JUMP JUMPDEST SWAP6 SWAP9 SWAP5 SWAP8 POP SWAP6 POP POP POP POP JUMP JUMPDEST PUSH1 0x0 DUP1 PUSH1 0x0 DUP1 PUSH1 0x0 DUP1 PUSH1 0x80 DUP8 DUP10 SUB SLT ISZERO PUSH2 0x1D09 JUMPI PUSH1 0x0 DUP1 REVERT JUMPDEST DUP7 CALLDATALOAD PUSH8 0xFFFFFFFFFFFFFFFF DUP1 DUP3 GT ISZERO PUSH2 0x1D21 JUMPI PUSH1 0x0 DUP1 REVERT JUMPDEST PUSH2 0x1D2D DUP11 DUP4 DUP12 ADD PUSH2 0x1C3F JUMP JUMPDEST SWAP1 SWAP9 POP SWAP7 POP PUSH1 0x20 DUP10 ADD CALLDATALOAD SWAP2 POP DUP1 DUP3 GT ISZERO PUSH2 0x1D46 JUMPI PUSH1 0x0 DUP1 REVERT JUMPDEST POP PUSH2 0x1D53 DUP10 DUP3 DUP11 ADD PUSH2 0x1C3F JUMP JUMPDEST SWAP1 SWAP6 POP SWAP4 POP POP PUSH1 0x40 DUP8 ADD CALLDATALOAD PUSH2 0x1D67 DUP2 PUSH2 0x1BAD JUMP JUMPDEST DUP1 SWAP3 POP POP PUSH1 0x60 DUP8 ADD CALLDATALOAD SWAP1 POP SWAP3 SWAP6 POP SWAP3 SWAP6 POP SWAP3 SWAP6 JUMP JUMPDEST PUSH1 0x0 DUP1 PUSH1 0x0 PUSH1 0x40 DUP5 DUP7 SUB SLT ISZERO PUSH2 0x1D91 JUMPI PUSH1 0x0 DUP1 REVERT JUMPDEST DUP4 CALLDATALOAD PUSH2 0x1D9C DUP2 PUSH2 0x1BAD JUMP JUMPDEST SWAP3 POP PUSH1 0x20 DUP5 ADD CALLDATALOAD PUSH8 0xFFFFFFFFFFFFFFFF DUP2 GT ISZERO PUSH2 0x1DB8 JUMPI PUSH1 0x0 DUP1 REVERT JUMPDEST PUSH2 0x1DC4 DUP7 DUP3 DUP8 ADD PUSH2 0x1C3F JUMP JUMPDEST SWAP5 SWAP8 SWAP1 SWAP7 POP SWAP4 SWAP5 POP POP POP POP JUMP JUMPDEST PUSH1 0x0 DUP1 PUSH1 0x0 PUSH1 0x60 DUP5 DUP7 SUB SLT ISZERO PUSH2 0x1DE6 JUMPI PUSH1 0x0 DUP1 REVERT JUMPDEST DUP4 CALLDATALOAD PUSH2 0x1DF1 DUP2 PUSH2 0x1BAD JUMP JUMPDEST SWAP3 POP PUSH1 0x20 DUP5 ADD CALLDATALOAD PUSH2 0x1E01 DUP2 PUSH2 0x1BAD JUMP JUMPDEST SWAP3 SWAP6 SWAP3 SWAP5 POP POP POP PUSH1 0x40 SWAP2 SWAP1 SWAP2 ADD CALLDATALOAD SWAP1 JUMP JUMPDEST PUSH1 0x0 DUP1 PUSH1 0x0 DUP1 PUSH1 0x40 DUP6 DUP8 SUB SLT ISZERO PUSH2 0x1E28 JUMPI PUSH1 0x0 DUP1 REVERT JUMPDEST DUP5 CALLDATALOAD PUSH8 0xFFFFFFFFFFFFFFFF DUP1 DUP3 GT ISZERO PUSH2 0x1E40 JUMPI PUSH1 0x0 DUP1 REVERT JUMPDEST PUSH2 0x1E4C DUP9 DUP4 DUP10 ADD PUSH2 0x1C3F JUMP JUMPDEST SWAP1 SWAP7 POP SWAP5 POP PUSH1 0x20 DUP8 ADD CALLDATALOAD SWAP2 POP DUP1 DUP3 GT ISZERO PUSH2 0x1E65 JUMPI PUSH1 0x0 DUP1 REVERT JUMPDEST POP PUSH2 0x1CE4 DUP8 DUP3 DUP9 ADD PUSH2 0x1C3F JUMP JUMPDEST PUSH1 0x0 PUSH1 0x20 DUP3 DUP5 SUB SLT ISZERO PUSH2 0x1E84 JUMPI PUSH1 0x0 DUP1 REVERT JUMPDEST POP CALLDATALOAD SWAP2 SWAP1 POP JUMP JUMPDEST PUSH1 0x0 DUP1 PUSH1 0x0 DUP1 PUSH1 0x0 PUSH1 0x60 DUP7 DUP9 SUB SLT ISZERO PUSH2 0x1EA3 JUMPI PUSH1 0x0 DUP1 REVERT JUMPDEST DUP6 CALLDATALOAD PUSH2 0x1EAE DUP2 PUSH2 0x1BAD JUMP JUMPDEST SWAP5 POP PUSH1 0x20 DUP7 ADD CALLDATALOAD PUSH8 0xFFFFFFFFFFFFFFFF DUP1 DUP3 GT ISZERO PUSH2 0x1ECB JUMPI PUSH1 0x0 DUP1 REVERT JUMPDEST PUSH2 0x1ED7 DUP10 DUP4 DUP11 ADD PUSH2 0x1C3F JUMP JUMPDEST SWAP1 SWAP7 POP SWAP5 POP PUSH1 0x40 DUP9 ADD CALLDATALOAD SWAP2 POP DUP1 DUP3 GT ISZERO PUSH2 0x1EF0 JUMPI PUSH1 0x0 DUP1 REVERT JUMPDEST POP PUSH2 0x1EFD DUP9 DUP3 DUP10 ADD PUSH2 0x1C3F JUMP JUMPDEST SWAP7 SWAP10 SWAP6 SWAP9 POP SWAP4 SWAP7 POP SWAP3 SWAP5 SWAP4 SWAP3 POP POP POP JUMP JUMPDEST PUSH1 0x20 DUP1 DUP3 MSTORE DUP3 MLOAD DUP3 DUP3 ADD DUP2 SWAP1 MSTORE PUSH1 0x0 SWAP2 SWAP1 DUP5 DUP3 ADD SWAP1 PUSH1 0x40 DUP6 ADD SWAP1 DUP5 JUMPDEST DUP2 DUP2 LT ISZERO PUSH2 0x1C33 JUMPI DUP4 MLOAD DUP4 MSTORE SWAP3 DUP5 ADD SWAP3 SWAP2 DUP5 ADD SWAP2 PUSH1 0x1 ADD PUSH2 0x1F2A JUMP JUMPDEST PUSH1 0x0 DUP1 PUSH1 0x40 DUP4 DUP6 SUB SLT ISZERO PUSH2 0x1F59 JUMPI PUSH1 0x0 DUP1 REVERT JUMPDEST DUP3 CALLDATALOAD PUSH2 0x1F64 DUP2 PUSH2 0x1BAD JUMP JUMPDEST SWAP2 POP PUSH1 0x20 DUP4 ADD CALLDATALOAD PUSH2 0x1F74 DUP2 PUSH2 0x1BAD JUMP JUMPDEST DUP1 SWAP2 POP POP SWAP3 POP SWAP3 SWAP1 POP JUMP JUMPDEST PUSH1 0x0 DUP1 PUSH1 0x0 DUP1 PUSH1 0x0 DUP1 PUSH1 0x0 DUP1 PUSH1 0x0 DUP1 PUSH1 0x0 PUSH1 0xC0 DUP13 DUP15 SUB SLT ISZERO PUSH2 0x1FA0 JUMPI PUSH1 0x0 DUP1 REVERT JUMPDEST PUSH2 0x1FA9 DUP13 PUSH2 0x1BC5 JUMP JUMPDEST SWAP11 POP PUSH8 0xFFFFFFFFFFFFFFFF DUP1 PUSH1 0x20 DUP15 ADD CALLDATALOAD GT ISZERO PUSH2 0x1FC5 JUMPI PUSH1 0x0 DUP1 REVERT JUMPDEST PUSH2 0x1FD5 DUP15 PUSH1 0x20 DUP16 ADD CALLDATALOAD DUP16 ADD PUSH2 0x1C3F JUMP JUMPDEST SWAP1 SWAP12 POP SWAP10 POP PUSH1 0x40 DUP14 ADD CALLDATALOAD DUP2 LT ISZERO PUSH2 0x1FEB JUMPI PUSH1 0x0 DUP1 REVERT JUMPDEST PUSH2 0x1FFB DUP15 PUSH1 0x40 DUP16 ADD CALLDATALOAD DUP16 ADD PUSH2 0x1C3F JUMP JUMPDEST SWAP1 SWAP10 POP SWAP8 POP PUSH1 0x60 DUP14 ADD CALLDATALOAD DUP2 LT ISZERO PUSH2 0x2011 JUMPI PUSH1 0x0 DUP1 REVERT JUMPDEST PUSH2 0x2021 DUP15 PUSH1 0x60 DUP16 ADD CALLDATALOAD DUP16 ADD PUSH2 0x1C3F JUMP JUMPDEST SWAP1 SWAP8 POP SWAP6 POP PUSH1 0x80 DUP14 ADD CALLDATALOAD DUP2 LT ISZERO PUSH2 0x2037 JUMPI PUSH1 0x0 DUP1 REVERT JUMPDEST PUSH2 0x2047 DUP15 PUSH1 0x80 DUP16 ADD CALLDATALOAD DUP16 ADD PUSH2 0x1C3F JUMP JUMPDEST SWAP1 SWAP6 POP SWAP4 POP PUSH1 0xA0 DUP14 ADD CALLDATALOAD DUP2 LT ISZERO PUSH2 0x205D JUMPI PUSH1 0x0 DUP1 REVERT JUMPDEST POP PUSH2 0x206E DUP14 PUSH1 0xA0 DUP15 ADD CALLDATALOAD DUP15 ADD PUSH2 0x1C3F JUMP JUMPDEST DUP2 SWAP4 POP DUP1 SWAP3 POP POP POP SWAP3 SWAP6 SWAP9 SWAP12 POP SWAP3 SWAP6 SWAP9 SWAP12 SWAP1 SWAP4 SWAP7 SWAP10 POP JUMP JUMPDEST PUSH4 0x4E487B71 PUSH1 0xE0 SHL PUSH1 0x0 MSTORE PUSH1 0x32 PUSH1 0x4 MSTORE PUSH1 0x24 PUSH1 0x0 REVERT JUMPDEST PUSH4 0x4E487B71 PUSH1 0xE0 SHL PUSH1 0x0 MSTORE PUSH1 0x11 PUSH1 0x4 MSTORE PUSH1 0x24 PUSH1 0x0 REVERT JUMPDEST PUSH1 0x0 PUSH1 0x1 DUP3 ADD PUSH2 0x20C4 JUMPI PUSH2 0x20C4 PUSH2 0x209C JUMP JUMPDEST POP PUSH1 0x1 ADD SWAP1 JUMP JUMPDEST PUSH1 0x20 DUP1 DUP3 MSTORE PUSH1 0x2F SWAP1 DUP3 ADD MSTORE PUSH32 0x57696C6C65723A2061646472657373207A65726F206973206E6F742061207661 PUSH1 0x40 DUP3 ADD MSTORE PUSH15 0x6C69642062656E6566696369617279 PUSH1 0x88 SHL PUSH1 0x60 DUP3 ADD MSTORE PUSH1 0x80 ADD SWAP1 JUMP JUMPDEST PUSH1 0x20 DUP1 DUP3 MSTORE PUSH1 0x32 SWAP1 DUP3 ADD MSTORE PUSH32 0x57696C6C65723A2062656E656669636961726965735F20616E64207368617265 PUSH1 0x40 DUP3 ADD MSTORE PUSH18 0xE6BE40D8CADCCEE8D040DAD2E6DAC2E8C6D PUSH1 0x73 SHL PUSH1 0x60 DUP3 ADD MSTORE PUSH1 0x80 ADD SWAP1 JUMP JUMPDEST DUP1 DUP3 ADD DUP1 DUP3 GT ISZERO PUSH2 0x217F JUMPI PUSH2 0x217F PUSH2 0x209C JUMP JUMPDEST SWAP3 SWAP2 POP POP JUMP JUMPDEST PUSH1 0x20 DUP1 DUP3 MSTORE PUSH1 0x37 SWAP1 DUP3 ADD MSTORE PUSH32 0x57696C6C65723A2072657175697265282072656C656173652074696D65203C20 PUSH1 0x40 DUP3 ADD MSTORE PUSH32 0x63757272656E742074696D65202B204255464645522029000000000000000000 PUSH1 0x60 DUP3 ADD MSTORE PUSH1 0x80 ADD SWAP1 JUMP JUMPDEST PUSH1 0x20 DUP1 DUP3 MSTORE PUSH1 0x37 SWAP1 DUP3 ADD MSTORE PUSH32 0x57696C6C65723A2061646472657373207A65726F206973206E6F742061207661 PUSH1 0x40 DUP3 ADD MSTORE PUSH32 0x6C69642062656E65666963696172794F66455243373231000000000000000000 PUSH1 0x60 DUP3 ADD MSTORE PUSH1 0x80 ADD SWAP1 JUMP JUMPDEST PUSH1 0x20 DUP1 DUP3 MSTORE PUSH1 0x1A SWAP1 DUP3 ADD MSTORE PUSH32 0x57696C6C65723A2077696C6C20646F65736E2774206578697374000000000000 PUSH1 0x40 DUP3 ADD MSTORE PUSH1 0x60 ADD SWAP1 JUMP JUMPDEST PUSH1 0x20 DUP1 DUP3 MSTORE PUSH1 0x14 SWAP1 DUP3 ADD MSTORE PUSH20 0x57696C6C65723A20756E72656C65617361626C65 PUSH1 0x60 SHL PUSH1 0x40 DUP3 ADD MSTORE PUSH1 0x60 ADD SWAP1 JUMP JUMPDEST PUSH1 0x0 PUSH1 0x20 DUP3 DUP5 SUB SLT ISZERO PUSH2 0x22B6 JUMPI PUSH1 0x0 DUP1 REVERT JUMPDEST POP MLOAD SWAP2 SWAP1 POP JUMP JUMPDEST DUP2 DUP2 SUB DUP2 DUP2 GT ISZERO PUSH2 0x217F JUMPI PUSH2 0x217F PUSH2 0x209C JUMP JUMPDEST PUSH1 0x0 JUMPDEST DUP4 DUP2 LT ISZERO PUSH2 0x22EB JUMPI DUP2 DUP2 ADD MLOAD DUP4 DUP3 ADD MSTORE PUSH1 0x20 ADD PUSH2 0x22D3 JUMP JUMPDEST POP POP PUSH1 0x0 SWAP2 ADD MSTORE JUMP JUMPDEST PUSH1 0x0 DUP2 MLOAD DUP1 DUP5 MSTORE PUSH2 0x230C DUP2 PUSH1 0x20 DUP7 ADD PUSH1 0x20 DUP7 ADD PUSH2 0x22D0 JUMP JUMPDEST PUSH1 0x1F ADD PUSH1 0x1F NOT AND SWAP3 SWAP1 SWAP3 ADD PUSH1 0x20 ADD SWAP3 SWAP2 POP POP JUMP JUMPDEST PUSH1 0x1 PUSH1 0x1 PUSH1 0xA0 SHL SUB DUP7 DUP2 AND DUP3 MSTORE DUP6 AND PUSH1 0x20 DUP3 ADD MSTORE PUSH1 0x40 DUP2 ADD DUP5 SWAP1 MSTORE PUSH1 0x60 DUP2 ADD DUP4 SWAP1 MSTORE PUSH1 0xA0 PUSH1 0x80 DUP3 ADD DUP2 SWAP1 MSTORE PUSH1 0x0 SWAP1 PUSH2 0x1AB6 SWAP1 DUP4 ADD DUP5 PUSH2 0x22F4 JUMP JUMPDEST PUSH1 0x0 DUP1 DUP4 CALLDATALOAD PUSH1 0x1E NOT DUP5 CALLDATASIZE SUB ADD DUP2 SLT PUSH2 0x2371 JUMPI PUSH1 0x0 DUP1 REVERT JUMPDEST DUP4 ADD DUP1 CALLDATALOAD SWAP2 POP PUSH8 0xFFFFFFFFFFFFFFFF DUP3 GT ISZERO PUSH2 0x238C JUMPI PUSH1 0x0 DUP1 REVERT JUMPDEST PUSH1 0x20 ADD SWAP2 POP PUSH1 0x5 DUP2 SWAP1 SHL CALLDATASIZE SUB DUP3 SGT ISZERO PUSH2 0x1C84 JUMPI PUSH1 0x0 DUP1 REVERT JUMPDEST DUP2 DUP4 MSTORE PUSH1 0x0 PUSH1 0x1 PUSH1 0x1 PUSH1 0xFB SHL SUB DUP4 GT ISZERO PUSH2 0x23BD JUMPI PUSH1 0x0 DUP1 REVERT JUMPDEST DUP3 PUSH1 0x5 SHL DUP1 DUP4 PUSH1 0x20 DUP8 ADD CALLDATACOPY SWAP4 SWAP1 SWAP4 ADD PUSH1 0x20 ADD SWAP4 SWAP3 POP POP POP JUMP JUMPDEST PUSH1 0x1 PUSH1 0x1 PUSH1 0xA0 SHL SUB DUP6 DUP2 AND DUP3 MSTORE DUP5 AND PUSH1 0x20 DUP3 ADD MSTORE PUSH1 0x60 PUSH1 0x40 DUP3 ADD DUP2 SWAP1 MSTORE PUSH1 0x0 SWAP1 PUSH2 0x2403 SWAP1 DUP4 ADD DUP5 DUP7 PUSH2 0x23A4 JUMP JUMPDEST SWAP7 SWAP6 POP POP POP POP POP POP JUMP JUMPDEST PUSH1 0x1 PUSH1 0x1 PUSH1 0xA0 SHL SUB DUP5 DUP2 AND DUP3 MSTORE PUSH1 0x40 PUSH1 0x20 DUP1 DUP5 ADD DUP3 SWAP1 MSTORE SWAP1 DUP4 ADD DUP5 SWAP1 MSTORE PUSH1 0x0 SWAP2 DUP6 SWAP2 PUSH1 0x60 DUP6 ADD DUP5 JUMPDEST DUP8 DUP2 LT ISZERO PUSH2 0x245C JUMPI DUP5 CALLDATALOAD PUSH2 0x2448 DUP2 PUSH2 0x1BAD JUMP JUMPDEST DUP5 AND DUP3 MSTORE SWAP4 DUP3 ADD SWAP4 SWAP1 DUP3 ADD SWAP1 PUSH1 0x1 ADD PUSH2 0x2435 JUMP JUMPDEST POP SWAP9 SWAP8 POP POP POP POP POP POP POP POP JUMP JUMPDEST PUSH1 0x1 PUSH1 0x1 PUSH1 0xA0 SHL SUB DUP7 DUP2 AND DUP3 MSTORE PUSH1 0x60 PUSH1 0x20 DUP1 DUP5 ADD DUP3 SWAP1 MSTORE SWAP1 DUP4 ADD DUP7 SWAP1 MSTORE PUSH1 0x0 SWAP2 DUP8 SWAP2 PUSH1 0x80 DUP6 ADD DUP5 JUMPDEST DUP10 DUP2 LT ISZERO PUSH2 0x24B8 JUMPI DUP5 CALLDATALOAD PUSH2 0x24A4 DUP2 PUSH2 0x1BAD JUMP JUMPDEST DUP5 AND DUP3 MSTORE SWAP4 DUP3 ADD SWAP4 SWAP1 DUP3 ADD SWAP1 PUSH1 0x1 ADD PUSH2 0x2491 JUMP JUMPDEST POP DUP6 DUP2 SUB PUSH1 0x40 DUP8 ADD MSTORE DUP7 DUP2 MSTORE DUP2 DUP2 ADD SWAP4 POP PUSH1 0x5 SWAP3 POP DUP7 DUP4 SHL DUP2 ADD DUP3 ADD DUP9 PUSH1 0x0 JUMPDEST DUP10 DUP2 LT ISZERO PUSH2 0x254A JUMPI DUP4 DUP4 SUB PUSH1 0x1F NOT ADD DUP8 MSTORE DUP2 CALLDATALOAD CALLDATASIZE DUP13 SWAP1 SUB PUSH1 0x1E NOT ADD DUP2 SLT PUSH2 0x24FE JUMPI PUSH1 0x0 DUP1 REVERT JUMPDEST DUP12 ADD DUP6 DUP2 ADD SWAP1 CALLDATALOAD PUSH8 0xFFFFFFFFFFFFFFFF DUP2 GT ISZERO PUSH2 0x251A JUMPI PUSH1 0x0 DUP1 REVERT JUMPDEST DUP1 DUP9 SHL CALLDATASIZE SUB DUP3 SGT ISZERO PUSH2 0x252B JUMPI PUSH1 0x0 DUP1 REVERT JUMPDEST PUSH2 0x2536 DUP6 DUP3 DUP5 PUSH2 0x23A4 JUMP JUMPDEST SWAP9 DUP8 ADD SWAP9 SWAP5 POP POP POP SWAP1 DUP5 ADD SWAP1 PUSH1 0x1 ADD PUSH2 0x24D8 JUMP JUMPDEST POP SWAP1 SWAP13 SWAP12 POP POP POP POP POP POP POP POP POP POP POP POP JUMP JUMPDEST PUSH4 0x4E487B71 PUSH1 0xE0 SHL PUSH1 0x0 MSTORE PUSH1 0x12 PUSH1 0x4 MSTORE PUSH1 0x24 PUSH1 0x0 REVERT JUMPDEST PUSH1 0x0 PUSH1 0x20 DUP3 DUP5 SUB SLT ISZERO PUSH2 0x2584 JUMPI PUSH1 0x0 DUP1 REVERT JUMPDEST DUP2 MLOAD DUP1 ISZERO ISZERO DUP2 EQ PUSH2 0x183B JUMPI PUSH1 0x0 DUP1 REVERT JUMPDEST PUSH1 0x0 DUP3 MLOAD PUSH2 0x25A6 DUP2 DUP5 PUSH1 0x20 DUP8 ADD PUSH2 0x22D0 JUMP JUMPDEST SWAP2 SWAP1 SWAP2 ADD SWAP3 SWAP2 POP POP JUMP JUMPDEST PUSH1 0x20 DUP2 MSTORE PUSH1 0x0 PUSH2 0x183B PUSH1 0x20 DUP4 ADD DUP5 PUSH2 0x22F4 JUMP INVALID LOG2 PUSH5 0x6970667358 0x22 SLT KECCAK256 PUSH26 0xC3D5EA84073EB4C81C959B32A65CFB7D9336B2BE5B927E6F294C RETURNDATASIZE PUSH19 0x78225264736F6C634300081000330000000000 ","sha1":"f018b2be9ea81ca30b31dd4b8d6e47214b38f12e","source":"// SPDX-License-Identifier: MIT\npragma solidity ^0.8.16;\n\nimport \"@openzeppelin/contracts/utils/math/Math.sol\";\nimport \"@openzeppelin/contracts/token/ERC20/utils/SafeERC20.sol\";\nimport \"@openzeppelin/contracts/token/ERC20/IERC20.sol\";\nimport \"@openzeppelin/contracts/token/ERC721/IERC721.sol\";\nimport \"@openzeppelin/contracts/token/ERC1155/IERC1155.sol\";\n\n\n/**\n * @title Willer\n * @author DimaKush\n *\n */\ncontract Willer {\n    using Math for uint;\n    using SafeERC20 for IERC20;\n\n    struct Will {\n        address[] beneficiaries;\n        uint sumShares;\n        address beneficiaryOfERC721;\n        uint releaseTime;\n        uint[] shares;\n    }\n\n    uint BUFFER = 60;\n    uint MAXSHARE = 10;\n    \n    mapping(address => Will) private testatorToWill;\n\n    modifier releasable(address _testator) {\n        require(\n            block.timestamp >= testatorToWill[_testator].releaseTime,\n            \"Willer: unreleasable\"\n        );\n        _;\n    }\n\n    // modifier releasableToTreasury(uint _releaseTime) {\n    //     require(\n    //         block.timestamp >= _releaseTime,\n    //         \"Willer: Too early\"\n    //     );\n    //     _;\n    // }\n\n    modifier validReleaseTime(uint releaseTime_) {\n        require(\n            releaseTime_ >= block.timestamp + BUFFER,\n            \"Willer: require( release time < current time + BUFFER )\"\n        );\n        _;\n    }\n\n    modifier validBeneficiaryOfERC721(address beneficiaryOfERC721_) {\n        require(\n            beneficiaryOfERC721_ != address(0), \"Willer: address zero is not a valid beneficiaryOfERC721\"\n            );\n        _;\n    }\n\n    modifier validBeneficiaries(address[] calldata beneficiaries_) {\n        for (uint i; i<beneficiaries_.length; i++) {\n            require(\n            beneficiaries_[i] != address(0), \"Willer: address zero is not a valid beneficiary\"\n            );\n        }\n        _;\n    }\n\n    modifier validShares(uint[] calldata shares_) {\n        for (uint i; i<shares_.length; i++) {\n            require(\n            shares_[i] <= MAXSHARE, \"Willer: share can't be greater than MAXSHARE\"\n            );\n        }\n        _;\n    }\n\n    modifier willExists(address _testator) {\n        require(\n            (testatorToWill[_testator].releaseTime != 0 &&\n                testatorToWill[_testator].beneficiaries.length != 0 &&\n                testatorToWill[_testator].beneficiaryOfERC721 != address(0)),\n            \"Willer: will doesn't exist\"\n        );\n        _;\n    }\n\n    modifier sameLengthArrays(address[] calldata beneficiaries_, uint[] calldata shares_) {\n        require(\n            beneficiaries_.length == shares_.length,\n            \"Willer: beneficiaries_ and shares_ length mismatch\"\n        );\n        _;\n    }\n\n    // add events\n    // event ReleasedERC20(address owner, address beneficiary, address tokenERC20Address);\n    // event ReleasedERC721(address owner, address beneficiary, address tokenERC721Address);\n    // event ReleasedERC1155(address owner, address beneficiary, address tokenERC1155Address);\n    // event NewReleaseTime(uint releaseTime);\n    // event NewBeneficiary(address beneficiary);\n\n\n    function addWill(\n        address[] calldata beneficiaries_,\n        uint[] calldata shares_,\n        address beneficiaryOfERC721_,\n        uint releaseTime_\n    ) public\n    validBeneficiaries(beneficiaries_)\n    sameLengthArrays(beneficiaries_, shares_)\n    validReleaseTime(releaseTime_)\n    validBeneficiaryOfERC721(beneficiaryOfERC721_) {\n                \n        Will storage w = testatorToWill[msg.sender];\n        w.beneficiaries = beneficiaries_;\n        w.shares = shares_;\n        w.sumShares = 0;\n        w.beneficiaryOfERC721 = beneficiaryOfERC721_;\n        w.releaseTime = releaseTime_;\n\n        for (uint i = 0; i < shares_.length; i++) {\n            w.sumShares += shares_[i];\n        }\n    }\n\n    function getBuffer() public view returns (uint) {\n        return BUFFER;\n    }\n\n    function getMaxShare() public view returns (uint) {\n        return MAXSHARE;\n    }\n\n    function getReleaseTime(address testator) public view returns (uint) {\n        return testatorToWill[testator].releaseTime;\n    }\n\n    function getBeneficiaries(address testator)\n        public\n        view\n        returns (\n            address[] memory \n        )\n    {\n        return testatorToWill[testator].beneficiaries;\n    }\n\n    function getShares(address testator) public view returns (uint[] memory) {\n        return testatorToWill[testator].shares;\n    }\n\n    function getSumShares(address testator) public view returns (uint) {\n        return testatorToWill[testator].sumShares;\n    }\n\n    function getBeneficiaryOfERC721(address _testator)\n        public\n        view\n        returns (address beneficiaryOfERC721)\n    {\n        return testatorToWill[_testator].beneficiaryOfERC721;\n    }\n\n    function timeNow() public view returns(uint) {\n        return block.timestamp;\n    }\n\n    function setNewBeneficiaries(\n        address[] calldata newBeneficiaries,\n        uint[] calldata newShares\n    ) public willExists(msg.sender)\n    validBeneficiaries(newBeneficiaries)\n    sameLengthArrays(newBeneficiaries, newShares)\n    validShares(newShares) returns (bool) {\n        testatorToWill[msg.sender].beneficiaries = newBeneficiaries;\n        testatorToWill[msg.sender].shares = newShares;\n        // emit NewBeneficiary(beneficiary);\n        return true;\n    }\n\n    function setNewReleaseTime(uint newReleaseTime)\n        external\n        willExists(msg.sender)\n        validReleaseTime(newReleaseTime)\n        returns (uint)\n    {\n        require(newReleaseTime != 0, \"Willer: newReleaseTime = 0\");\n        testatorToWill[msg.sender].releaseTime = newReleaseTime;\n        // emit NewReleaseTime(testatorToWill[msg.sender]);\n        return testatorToWill[msg.sender].releaseTime;\n    }\n\n    function setNewBeneficiaryOfERC721(address newBeneficiaryOfERC721)\n        public\n        willExists(msg.sender)\n        validBeneficiaryOfERC721(newBeneficiaryOfERC721)\n    {\n        testatorToWill[msg.sender].beneficiaryOfERC721 = newBeneficiaryOfERC721;\n        // emit NewBeneficiaryOfERC721(beneficiary);\n    }\n\n    function releaseERC20(address testator, IERC20 tokenERC20)\n        public\n        willExists(testator)\n        releasable(testator)\n    {\n        uint balance = tokenERC20.balanceOf(testator);\n        uint bequest = 0;\n        require(balance != 0, \"Willer: No ERC20 tokens to release\");\n        uint allowed = tokenERC20.allowance(testator, address(this));\n        require(allowed != 0, \"Willer: ERC20 zero allowance\");\n        if (allowed < balance) {\n            balance = allowed;\n        }\n        for (\n            uint i = 0;\n            i < testatorToWill[testator].beneficiaries.length;\n            i++\n        ) {\n            bequest = balance.mulDiv(testatorToWill[testator].shares[i], testatorToWill[testator].sumShares);\n            // last beneficiary receives bequest and modulo\n            if (i == testatorToWill[testator].beneficiaries.length - 1) {\n                bequest = tokenERC20.balanceOf(testator);\n            }\n            tokenERC20.safeTransferFrom(\n                testator,\n                testatorToWill[testator].beneficiaries[i],\n                bequest\n            );\n            // emit ReleasedERC20(testator, beneficiary, tokenERC20);\n        }\n    }\n\n    function batchReleaseERC20(\n        address testator,\n        IERC20[] calldata tokenERC20List\n    ) external willExists(testator) releasable(testator) {\n        for (uint i = 0; i < tokenERC20List.length; i++) {\n            this.releaseERC20(testator, tokenERC20List[i]);\n        }\n    }\n\n    function releaseERC721(\n        address testator,\n        IERC721 tokenERC721,\n        uint[] calldata tokenIdList\n    ) external willExists(testator) releasable(testator) {\n        for (uint i = 0; i < tokenIdList.length; i++) {\n            tokenERC721.safeTransferFrom(\n                testator,\n                testatorToWill[testator].beneficiaryOfERC721,\n                tokenIdList[i]\n            );\n        }\n        // emit ReleasedERC721(testator, beneficiaryOfERC721, tokenERC721);\n    }\n\n    function batchReleaseERC721(\n        address testator,\n        IERC721[] calldata tokenERC721List,\n        uint[][] calldata tokenIdLists\n    ) external willExists(testator) releasable(testator) {\n        for (uint i = 0; i < tokenERC721List.length; i++) {\n            this.releaseERC721(testator, tokenERC721List[i], tokenIdLists[i]);\n        }\n    }\n\n    function releaseERC1155(\n        address testator,\n        IERC1155 tokenERC1155,\n        uint tokenId\n    ) external willExists(testator) releasable(testator) {\n        uint balance = tokenERC1155.balanceOf(testator, tokenId);\n        uint bequest = 0;\n        for (\n            uint i = 0;\n            i < testatorToWill[testator].beneficiaries.length;\n            i++\n        ) {\n            bequest = balance.mulDiv(testatorToWill[testator].shares[i], testatorToWill[testator].sumShares);\n            // last beneficiary receives bequest and modulo\n            if (i == testatorToWill[testator].beneficiaries.length - 1) {\n                bequest = tokenERC1155.balanceOf(testator, tokenId);\n            }\n            tokenERC1155.safeTransferFrom(\n                testator,\n                testatorToWill[testator].beneficiaries[i],\n                tokenId,\n                bequest,\n                bytes(\"\")\n            );\n        }\n        // emit ReleasedERC1155(testator, beneficiary, address(tokenERC1155));\n    }\n\n    function batchReleaseERC1155(\n        address testator,\n        IERC1155 tokenERC1155,\n        uint[] calldata tokenIdLists\n    ) external {\n        for (uint i = 0; i < tokenIdLists.length; i++) {\n            this.releaseERC1155(testator, tokenERC1155, tokenIdLists[i]);\n        }\n    }\n\n    function batchRelease(\n        address testator,\n        IERC20[] calldata tokenERC20List,\n        IERC721[] calldata tokenERC721List,\n        IERC1155[] calldata tokenERC1155List,\n        uint[][] calldata ERC721tokenIdLists,\n        uint[][] calldata ERC1155tokenIdLists\n    ) external {\n        this.batchReleaseERC20(testator, tokenERC20List);\n        this.batchReleaseERC721(\n            testator,\n            tokenERC721List,\n            ERC721tokenIdLists\n        );\n        for (uint i=0; i<tokenERC1155List.length; i++) {\n            this.batchReleaseERC1155(\n            testator,\n            tokenERC1155List[i],\n            ERC1155tokenIdLists[i]\n        );\n        }\n    }\n}\n\n","sourcePath":"contracts/Willer.sol","type":"contract","deployment":{"address":"0x87a2095a0FDB7C6076203E0B6c5733a2D1308A0a","chainid":"5","blockHeight":7552889}}