{"abi":[{"anonymous":false,"inputs":[{"indexed":true,"internalType":"address","name":"testator","type":"address"},{"indexed":false,"internalType":"address[]","name":"newBeneficiaries","type":"address[]"},{"indexed":false,"internalType":"uint256[]","name":"newShares","type":"uint256[]"}],"name":"BeneficiariesUpdated","type":"event"},{"anonymous":false,"inputs":[{"indexed":true,"internalType":"address","name":"testator","type":"address"},{"indexed":false,"internalType":"address","name":"newBeneficiaryOfERC721","type":"address"}],"name":"BeneficiaryOfERC721Updated","type":"event"},{"anonymous":false,"inputs":[{"indexed":true,"internalType":"address","name":"testator","type":"address"},{"indexed":true,"internalType":"address","name":"beneficiary","type":"address"},{"indexed":false,"internalType":"address","name":"tokenERC1155Address","type":"address"},{"indexed":false,"internalType":"uint256","name":"tokenId","type":"uint256"},{"indexed":false,"internalType":"uint256","name":"amount","type":"uint256"}],"name":"ERC1155TokensReleased","type":"event"},{"anonymous":false,"inputs":[{"indexed":true,"internalType":"address","name":"testator","type":"address"},{"indexed":true,"internalType":"address","name":"beneficiary","type":"address"},{"indexed":false,"internalType":"address","name":"tokenERC20Address","type":"address"},{"indexed":false,"internalType":"uint256","name":"amount","type":"uint256"}],"name":"ERC20TokensReleased","type":"event"},{"anonymous":false,"inputs":[{"indexed":true,"internalType":"address","name":"testator","type":"address"},{"indexed":true,"internalType":"address","name":"beneficiary","type":"address"},{"indexed":false,"internalType":"address","name":"tokenERC721Address","type":"address"},{"indexed":false,"internalType":"uint256","name":"tokenId","type":"uint256"}],"name":"ERC721TokensReleased","type":"event"},{"anonymous":false,"inputs":[{"indexed":true,"internalType":"address","name":"testator","type":"address"},{"indexed":false,"internalType":"uint256","name":"newReleaseTime","type":"uint256"}],"name":"ReleaseTimeUpdated","type":"event"},{"anonymous":false,"inputs":[{"indexed":true,"internalType":"address","name":"testator","type":"address"},{"indexed":false,"internalType":"address[]","name":"beneficiaries","type":"address[]"},{"indexed":false,"internalType":"uint256[]","name":"shares","type":"uint256[]"},{"indexed":true,"internalType":"address","name":"beneficiaryOfERC721","type":"address"},{"indexed":false,"internalType":"uint256","name":"releaseTime","type":"uint256"}],"name":"WillAdded","type":"event"},{"inputs":[{"internalType":"address[]","name":"beneficiaries_","type":"address[]"},{"internalType":"uint256[]","name":"shares_","type":"uint256[]"},{"internalType":"address","name":"beneficiaryOfERC721_","type":"address"},{"internalType":"uint256","name":"releaseTime_","type":"uint256"}],"name":"addWill","outputs":[],"stateMutability":"nonpayable","type":"function"},{"inputs":[{"internalType":"address","name":"testator","type":"address"},{"internalType":"contract IERC20[]","name":"tokenERC20List","type":"address[]"},{"internalType":"contract IERC721[]","name":"tokenERC721List","type":"address[]"},{"internalType":"contract IERC1155[]","name":"tokenERC1155List","type":"address[]"},{"internalType":"uint256[][]","name":"ERC721tokenIdLists","type":"uint256[][]"},{"internalType":"uint256[][]","name":"ERC1155tokenIdLists","type":"uint256[][]"}],"name":"batchRelease","outputs":[],"stateMutability":"nonpayable","type":"function"},{"inputs":[{"internalType":"address","name":"testator","type":"address"},{"internalType":"contract IERC1155","name":"tokenERC1155","type":"address"},{"internalType":"uint256[]","name":"tokenIdLists","type":"uint256[]"}],"name":"batchReleaseERC1155","outputs":[],"stateMutability":"nonpayable","type":"function"},{"inputs":[{"internalType":"address","name":"testator","type":"address"},{"internalType":"contract IERC20[]","name":"tokenERC20List","type":"address[]"}],"name":"batchReleaseERC20","outputs":[],"stateMutability":"nonpayable","type":"function"},{"inputs":[{"internalType":"address","name":"testator","type":"address"},{"internalType":"contract IERC721[]","name":"tokenERC721List","type":"address[]"},{"internalType":"uint256[][]","name":"tokenIdLists","type":"uint256[][]"}],"name":"batchReleaseERC721","outputs":[],"stateMutability":"nonpayable","type":"function"},{"inputs":[{"internalType":"address","name":"testator","type":"address"}],"name":"getBeneficiaries","outputs":[{"internalType":"address[]","name":"","type":"address[]"}],"stateMutability":"view","type":"function"},{"inputs":[{"internalType":"address","name":"_testator","type":"address"}],"name":"getBeneficiaryOfERC721","outputs":[{"internalType":"address","name":"beneficiaryOfERC721","type":"address"}],"stateMutability":"view","type":"function"},{"inputs":[],"name":"getBuffer","outputs":[{"internalType":"uint256","name":"","type":"uint256"}],"stateMutability":"view","type":"function"},{"inputs":[],"name":"getMaxShare","outputs":[{"internalType":"uint256","name":"","type":"uint256"}],"stateMutability":"view","type":"function"},{"inputs":[{"internalType":"address","name":"testator","type":"address"}],"name":"getReleaseTime","outputs":[{"internalType":"uint256","name":"","type":"uint256"}],"stateMutability":"view","type":"function"},{"inputs":[{"internalType":"address","name":"testator","type":"address"}],"name":"getShares","outputs":[{"internalType":"uint256[]","name":"","type":"uint256[]"}],"stateMutability":"view","type":"function"},{"inputs":[{"internalType":"address","name":"testator","type":"address"}],"name":"getSumShares","outputs":[{"internalType":"uint256","name":"","type":"uint256"}],"stateMutability":"view","type":"function"},{"inputs":[{"internalType":"address[]","name":"newBeneficiaries","type":"address[]"},{"internalType":"uint256[]","name":"newShares","type":"uint256[]"}],"name":"setNewBeneficiaries","outputs":[],"stateMutability":"nonpayable","type":"function"},{"inputs":[{"internalType":"address","name":"newBeneficiaryOfERC721","type":"address"}],"name":"setNewBeneficiaryOfERC721","outputs":[],"stateMutability":"nonpayable","type":"function"},{"inputs":[{"internalType":"uint256","name":"newReleaseTime","type":"uint256"}],"name":"setNewReleaseTime","outputs":[{"internalType":"uint256","name":"","type":"uint256"}],"stateMutability":"nonpayable","type":"function"}],"bytecode":"6080604052603c600155600a60025534801561001a57600080fd5b5060016000556129a68061002f6000396000f3fe608060405234801561001057600080fd5b50600436106100f55760003560e01c8063a26ea21e11610097578063ac8bc77e11610066578063ac8bc77e1461023e578063caee863e14610251578063f04da65b14610264578063fe36b4c81461028457600080fd5b8063a26ea21e146101d9578063a29093b1146101ec578063a3da0ecd14610218578063a6fd23391461022b57600080fd5b8063705e8b2e116100d3578063705e8b2e146101a1578063745137b4146101a95780637ce752c6146101b15780639181141a146101c657600080fd5b80630cb7eb4c146100fa5780631cab59a41461013a57806347ff5d8a1461015a575b600080fd5b610127610108366004611e4b565b6001600160a01b03166000908152600360208190526040909120015490565b6040519081526020015b60405180910390f35b61014d610148366004611e4b565b610297565b6040516101319190611e68565b610189610168366004611e4b565b6001600160a01b039081166000908152600360205260409020600201541690565b6040516001600160a01b039091168152602001610131565b600154610127565b600254610127565b6101c46101bf366004611f01565b61030d565b005b6101c46101d4366004611f66565b61050d565b6101c46101e7366004611ff2565b6107f2565b6101276101fa366004611e4b565b6001600160a01b031660009081526003602052604090206001015490565b6101c4610226366004612047565b6109f5565b6101276102393660046120a7565b610c83565b6101c461024c3660046120c0565b610d9b565b6101c461025f366004611e4b565b610fc4565b610277610272366004611e4b565b6110cf565b6040516101319190612143565b6101c461029236600461217b565b61113d565b6001600160a01b03811660009081526003602090815260409182902080548351818402810184019094528084526060939283018282801561030157602002820191906000526020600020905b81546001600160a01b031681526001909101906020018083116102e3575b50505050509050919050565b6001600160a01b0384166000908152600360208190526040909120015484901580159061035157506001600160a01b03811660009081526003602052604090205415155b801561037957506001600160a01b038181166000908152600360205260409020600201541615155b61039e5760405162461bcd60e51b815260040161039590612282565b60405180910390fd5b6001600160a01b0385166000908152600360208190526040909120015485904210156103dc5760405162461bcd60e51b8152600401610395906122b9565b426000036103e957600080fd5b856000805b6001600160a01b03831660009081526003602052604090205481101561046a576001600160a01b0383166000908152600360205260409020805482908110610438576104386122e7565b6000918252602090912001546001600160a01b0316330361045857600191505b8061046281612313565b9150506103ee565b506001600160a01b03808316600090815260036020526040902060020154163303610493575060015b806104b05760405162461bcd60e51b81526004016103959061232c565b6104b86112c2565b60005b858110156104f8576104e689898989858181106104da576104da6122e7565b9050602002013561131b565b806104f081612313565b9150506104bb565b506105036001600055565b5050505050505050565b85858585338184146105315760405162461bcd60e51b81526004016103959061236f565b60005b84811015610691576000868683818110610550576105506122e7565b90506020020160208101906105659190611e4b565b6001600160a01b03160361058b5760405162461bcd60e51b8152600401610395906123c1565b816001600160a01b03168686838181106105a7576105a76122e7565b90506020020160208101906105bc9190611e4b565b6001600160a01b0316036105e25760405162461bcd60e51b815260040161039590612408565b6002548484838181106105f7576105f76122e7565b90506020020135111561061c5760405162461bcd60e51b815260040161039590612453565b6000848483818110610630576106306122e7565b905060200201351161067f5760405162461bcd60e51b8152602060048201526018602482015277057696c6c65723a2073686172652063616e277420626520360441b6044820152606401610395565b8061068981612313565b915050610534565b5085600154426106a1919061249f565b8110156106c05760405162461bcd60e51b8152600401610395906124b8565b876001600160a01b0381166106e75760405162461bcd60e51b8152600401610395906124f9565b336000908152600360205260409020610701818f8f611d70565b50610710600482018d8d611dd3565b506000600182018190556002820180546001600160a01b0319166001600160a01b038d16179055600382018a90555b8b81101561078b578c8c82818110610759576107596122e7565b90506020020135826001016000828254610773919061249f565b9091555081905061078381612313565b91505061073f565b50600281015460038201546040516001600160a01b039092169133917f33835e9eb257828a2be55cc9fa94e5d20c5ba644f80fc0f8614ef0ba9ec21a6e916107da918691600483019190612556565b60405180910390a35050505050505050505050505050565b6001600160a01b0383166000908152600360208190526040909120015483901580159061083657506001600160a01b03811660009081526003602052604090205415155b801561085e57506001600160a01b038181166000908152600360205260409020600201541615155b61087a5760405162461bcd60e51b815260040161039590612282565b6001600160a01b0384166000908152600360208190526040909120015484904210156108b85760405162461bcd60e51b8152600401610395906122b9565b426000036108c557600080fd5b846000805b6001600160a01b038316600090815260036020526040902054811015610946576001600160a01b0383166000908152600360205260409020805482908110610914576109146122e7565b6000918252602090912001546001600160a01b0316330361093457600191505b8061093e81612313565b9150506108ca565b506001600160a01b0380831660009081526003602052604090206002015416330361096f575060015b8061098c5760405162461bcd60e51b81526004016103959061232c565b6109946112c2565b60005b858110156109e1576109cf888888848181106109b5576109b56122e7565b90506020020160208101906109ca9190611e4b565b611583565b806109d981612313565b915050610997565b506109ec6001600055565b50505050505050565b336000818152600360208190526040909120015415801590610a2e57506001600160a01b03811660009081526003602052604090205415155b8015610a5657506001600160a01b038181166000908152600360205260409020600201541615155b610a725760405162461bcd60e51b815260040161039590612282565b8484848433818414610a965760405162461bcd60e51b81526004016103959061236f565b60005b84811015610bf6576000868683818110610ab557610ab56122e7565b9050602002016020810190610aca9190611e4b565b6001600160a01b031603610af05760405162461bcd60e51b8152600401610395906123c1565b816001600160a01b0316868683818110610b0c57610b0c6122e7565b9050602002016020810190610b219190611e4b565b6001600160a01b031603610b475760405162461bcd60e51b815260040161039590612408565b600254848483818110610b5c57610b5c6122e7565b905060200201351115610b815760405162461bcd60e51b815260040161039590612453565b6000848483818110610b9557610b956122e7565b9050602002013511610be45760405162461bcd60e51b8152602060048201526018602482015277057696c6c65723a2073686172652063616e277420626520360441b6044820152606401610395565b80610bee81612313565b915050610a99565b50336000908152600360205260409020610c11908b8b611d70565b50336000908152600360205260409020610c2f906004018989611dd3565b50336001600160a01b03167f56ae1d37998ff042b080da7061608ca0e1f1bbb026b2c0aa8451e3fffbd6dd3e8b8b8b8b604051610c6f9493929190612620565b60405180910390a250505050505050505050565b3360008181526003602081905260408220015490919015801590610cbe57506001600160a01b03811660009081526003602052604090205415155b8015610ce657506001600160a01b038181166000908152600360205260409020600201541615155b610d025760405162461bcd60e51b815260040161039590612282565b8260015442610d11919061249f565b811015610d305760405162461bcd60e51b8152600401610395906124b8565b3360008181526003602081905260409182902001869055517f78ace02cea60da39eeac32a35444de70d5c3b0b8b5659dccfb11aaa17291136790610d779087815260200190565b60405180910390a25050336000908152600360208190526040909120015492915050565b6001600160a01b03851660009081526003602081905260409091200154859015801590610ddf57506001600160a01b03811660009081526003602052604090205415155b8015610e0757506001600160a01b038181166000908152600360205260409020600201541615155b610e235760405162461bcd60e51b815260040161039590612282565b6001600160a01b038616600090815260036020819052604090912001548690421015610e615760405162461bcd60e51b8152600401610395906122b9565b42600003610e6e57600080fd5b866000805b6001600160a01b038316600090815260036020526040902054811015610eef576001600160a01b0383166000908152600360205260409020805482908110610ebd57610ebd6122e7565b6000918252602090912001546001600160a01b03163303610edd57600191505b80610ee781612313565b915050610e73565b506001600160a01b03808316600090815260036020526040902060020154163303610f18575060015b80610f355760405162461bcd60e51b81526004016103959061232c565b610f3d6112c2565b60005b87811015610fae57610f9c8a8a8a84818110610f5e57610f5e6122e7565b9050602002016020810190610f739190611e4b565b898985818110610f8557610f856122e7565b9050602002810190610f979190612683565b611924565b80610fa681612313565b915050610f40565b50610fb96001600055565b505050505050505050565b336000818152600360208190526040909120015415801590610ffd57506001600160a01b03811660009081526003602052604090205415155b801561102557506001600160a01b038181166000908152600360205260409020600201541615155b6110415760405162461bcd60e51b815260040161039590612282565b816001600160a01b0381166110685760405162461bcd60e51b8152600401610395906124f9565b3360008181526003602090815260409182902060020180546001600160a01b0319166001600160a01b03881690811790915591519182527f7657b533aedc6cbf7cfdc6012eadeeb7a0f829ce52656343b61a45b460d063b1910160405180910390a2505050565b6001600160a01b03811660009081526003602090815260409182902060040180548351818402810184019094528084526060939283018282801561030157602002820191906000526020600020905b81548152602001906001019080831161111e5750505050509050919050565b604051635137510f60e11b8152309063a26ea21e90611164908e908e908e906004016126cd565b600060405180830381600087803b15801561117e57600080fd5b505af1158015611192573d6000803e3d6000fd5b5050604051635645e3bf60e11b815230925063ac8bc77e91506111c1908e908c908c908a908a90600401612729565b600060405180830381600087803b1580156111db57600080fd5b505af11580156111ef573d6000803e3d6000fd5b5050505060005b858110156112b45730637ce752c68d898985818110611217576112176122e7565b905060200201602081019061122c9190611e4b565b86868681811061123e5761123e6122e7565b90506020028101906112509190612683565b6040518563ffffffff1660e01b815260040161126f949392919061281c565b600060405180830381600087803b15801561128957600080fd5b505af115801561129d573d6000803e3d6000fd5b5050505080806112ac90612313565b9150506111f6565b505050505050505050505050565b6002600054036113145760405162461bcd60e51b815260206004820152601f60248201527f5265656e7472616e637947756172643a207265656e7472616e742063616c6c006044820152606401610395565b6002600055565b604051627eeac760e11b81526001600160a01b038481166004830152602482018390526000919084169062fdd58e90604401602060405180830381865afa15801561136a573d6000803e3d6000fd5b505050506040513d601f19601f8201168201806040525081019061138e9190612853565b90506000805b6001600160a01b03861660009081526003602052604090205481101561157b576001600160a01b038616600090815260036020526040902060040180546114169190839081106113e6576113e66122e7565b60009182526020808320909101546001600160a01b038a16835260039091526040909120600101548591906119f4565b6001600160a01b03871660009081526003602052604090205490925061143e9060019061286c565b81036114b657604051627eeac760e11b81526001600160a01b0387811660048301526024820186905286169062fdd58e90604401602060405180830381865afa15801561148f573d6000803e3d6000fd5b505050506040513d601f19601f820116820180604052508101906114b39190612853565b91505b6001600160a01b03868116600090815260036020526040902080549187169163f242432a918991859081106114ed576114ed6122e7565b600091825260208083209091015460408051928301815292825291516001600160e01b031960e086901b16815261153693926001600160a01b0316918a918991906004016128cf565b600060405180830381600087803b15801561155057600080fd5b505af1158015611564573d6000803e3d6000fd5b50505050808061157390612313565b915050611394565b505050505050565b6040516370a0823160e01b81526001600160a01b038381166004830152600091908316906370a0823190602401602060405180830381865afa1580156115cd573d6000803e3d6000fd5b505050506040513d601f19601f820116820180604052508101906115f19190612853565b90506000816000036116505760405162461bcd60e51b815260206004820152602260248201527f57696c6c65723a204e6f20455243323020746f6b656e7320746f2072656c6561604482015261736560f01b6064820152608401610395565b604051636eb1769f60e11b81526001600160a01b0385811660048301523060248301526000919085169063dd62ed3e90604401602060405180830381865afa1580156116a0573d6000803e3d6000fd5b505050506040513d601f19601f820116820180604052508101906116c49190612853565b9050806000036117165760405162461bcd60e51b815260206004820152601c60248201527f57696c6c65723a204552433230207a65726f20616c6c6f77616e6365000000006044820152606401610395565b82811015611722578092505b60005b6001600160a01b03861660009081526003602052604090205481101561157b576001600160a01b038616600090815260036020526040902060040180546117a7919083908110611777576117776122e7565b60009182526020808320909101546001600160a01b038a16835260039091526040909120600101548691906119f4565b6001600160a01b0387166000908152600360205260409020549093506117cf9060019061286c565b8103611842576040516370a0823160e01b81526001600160a01b0387811660048301528616906370a0823190602401602060405180830381865afa15801561181b573d6000803e3d6000fd5b505050506040513d601f19601f8201168201806040525081019061183f9190612853565b92505b6001600160a01b0386166000908152600360205260409020805461189291889184908110611872576118726122e7565b6000918252602090912001546001600160a01b0388811692911686611aa9565b6001600160a01b03861660009081526003602052604090208054829081106118bc576118bc6122e7565b60009182526020918290200154604080516001600160a01b038981168252938101879052918316928916917f983f91660c1530ba4a9669e7220c1cc0874cdf3fa92c582bccc7cc2cb9b9323b910160405180910390a38061191c81612313565b915050611725565b60005b818110156119ed576001600160a01b03858116600090815260036020526040902060020154818616916342842e0e9188911686868681811061196b5761196b6122e7565b6040516001600160e01b031960e088901b1681526001600160a01b03958616600482015294909316602485015250602090910201356044820152606401600060405180830381600087803b1580156119c257600080fd5b505af11580156119d6573d6000803e3d6000fd5b5050505080806119e590612313565b915050611927565b5050505050565b6000808060001985870985870292508281108382030391505080600003611a2e57838281611a2457611a24612909565b0492505050611aa2565b808411611a3a57600080fd5b600084868809851960019081018716968790049682860381900495909211909303600082900391909104909201919091029190911760038402600290811880860282030280860282030280860282030280860282030280860282030280860290910302029150505b9392505050565b604080516001600160a01b0385811660248301528416604482015260648082018490528251808303909101815260849091019091526020810180516001600160e01b03166323b872dd60e01b179052611b03908590611b09565b50505050565b6000611b5e826040518060400160405280602081526020017f5361666545524332303a206c6f772d6c6576656c2063616c6c206661696c6564815250856001600160a01b0316611be09092919063ffffffff16565b805190915015611bdb5780806020019051810190611b7c919061291f565b611bdb5760405162461bcd60e51b815260206004820152602a60248201527f5361666545524332303a204552433230206f7065726174696f6e20646964206e6044820152691bdd081cdd58d8d9595960b21b6064820152608401610395565b505050565b6060611bef8484600085611bf7565b949350505050565b606082471015611c585760405162461bcd60e51b815260206004820152602660248201527f416464726573733a20696e73756666696369656e742062616c616e636520666f6044820152651c8818d85b1b60d21b6064820152608401610395565b600080866001600160a01b03168587604051611c749190612941565b60006040518083038185875af1925050503d8060008114611cb1576040519150601f19603f3d011682016040523d82523d6000602084013e611cb6565b606091505b5091509150611cc787838387611cd2565b979650505050505050565b60608315611d41578251600003611d3a576001600160a01b0385163b611d3a5760405162461bcd60e51b815260206004820152601d60248201527f416464726573733a2063616c6c20746f206e6f6e2d636f6e74726163740000006044820152606401610395565b5081611bef565b611bef8383815115611d565781518083602001fd5b8060405162461bcd60e51b8152600401610395919061295d565b828054828255906000526020600020908101928215611dc3579160200282015b82811115611dc35781546001600160a01b0319166001600160a01b03843516178255602090920191600190910190611d90565b50611dcf929150611e0e565b5090565b828054828255906000526020600020908101928215611dc3579160200282015b82811115611dc3578235825591602001919060010190611df3565b5b80821115611dcf5760008155600101611e0f565b6001600160a01b0381168114611e3857600080fd5b50565b8035611e4681611e23565b919050565b600060208284031215611e5d57600080fd5b8135611aa281611e23565b6020808252825182820181905260009190848201906040850190845b81811015611ea95783516001600160a01b031683529284019291840191600101611e84565b50909695505050505050565b60008083601f840112611ec757600080fd5b50813567ffffffffffffffff811115611edf57600080fd5b6020830191508360208260051b8501011115611efa57600080fd5b9250929050565b60008060008060608587031215611f1757600080fd5b8435611f2281611e23565b93506020850135611f3281611e23565b9250604085013567ffffffffffffffff811115611f4e57600080fd5b611f5a87828801611eb5565b95989497509550505050565b60008060008060008060808789031215611f7f57600080fd5b863567ffffffffffffffff80821115611f9757600080fd5b611fa38a838b01611eb5565b90985096506020890135915080821115611fbc57600080fd5b50611fc989828a01611eb5565b9095509350506040870135611fdd81611e23565b80925050606087013590509295509295509295565b60008060006040848603121561200757600080fd5b833561201281611e23565b9250602084013567ffffffffffffffff81111561202e57600080fd5b61203a86828701611eb5565b9497909650939450505050565b6000806000806040858703121561205d57600080fd5b843567ffffffffffffffff8082111561207557600080fd5b61208188838901611eb5565b9096509450602087013591508082111561209a57600080fd5b50611f5a87828801611eb5565b6000602082840312156120b957600080fd5b5035919050565b6000806000806000606086880312156120d857600080fd5b85356120e381611e23565b9450602086013567ffffffffffffffff8082111561210057600080fd5b61210c89838a01611eb5565b9096509450604088013591508082111561212557600080fd5b5061213288828901611eb5565b969995985093965092949392505050565b6020808252825182820181905260009190848201906040850190845b81811015611ea95783518352928401929184019160010161215f565b600080600080600080600080600080600060c08c8e03121561219c57600080fd5b6121a58c611e3b565b9a5067ffffffffffffffff8060208e013511156121c157600080fd5b6121d18e60208f01358f01611eb5565b909b50995060408d01358110156121e757600080fd5b6121f78e60408f01358f01611eb5565b909950975060608d013581101561220d57600080fd5b61221d8e60608f01358f01611eb5565b909750955060808d013581101561223357600080fd5b6122438e60808f01358f01611eb5565b909550935060a08d013581101561225957600080fd5b5061226a8d60a08e01358e01611eb5565b81935080925050509295989b509295989b9093969950565b6020808252601a908201527f57696c6c65723a2077696c6c20646f65736e2774206578697374000000000000604082015260600190565b60208082526014908201527357696c6c65723a20756e72656c65617361626c6560601b604082015260600190565b634e487b7160e01b600052603260045260246000fd5b634e487b7160e01b600052601160045260246000fd5b600060018201612325576123256122fd565b5060010190565b60208082526023908201527f57696c6c65723a206578656375746f72206973206e6f742062656e656669636960408201526261727960e81b606082015260800190565b60208082526032908201527f57696c6c65723a2062656e656669636961726965735f20616e642073686172656040820152710e6be40d8cadccee8d040dad2e6dac2e8c6d60731b606082015260800190565b60208082526027908201527f57696c6c65723a2030783020206973206e6f7420612076616c69642062656e656040820152666669636961727960c81b606082015260800190565b6020808252602b908201527f57696c6c65723a207465737461746f72206973206e6f7420612076616c69642060408201526a62656e656669636961727960a81b606082015260800190565b6020808252602c908201527f57696c6c65723a2073686172652063616e27742062652067726561746572207460408201526b68616e204d4158534841524560a01b606082015260800190565b808201808211156124b2576124b26122fd565b92915050565b60208082526021908201527f57696c6c65723a20496e76616c69642072656c656173652074696d657374616d6040820152600760fc1b606082015260800190565b60208082526038908201527f57696c6c65723a207a65726f206164647265737320206973206e6f742061207660408201527f616c69642062656e65666963696172794f664552433732310000000000000000606082015260800190565b60006060820160608352808654808352608085019150600092508783526020808420845b8381101561259f5781546001600160a01b03168552938201936001918201910161257a565b505085830381870152875480845288855281852093820192505b808510156125d8578354835260019485019490930192918101916125b9565b5050809350505050826040830152949350505050565b81835260006001600160fb1b0383111561260757600080fd5b8260051b80836020870137939093016020019392505050565b6040808252810184905260008560608301825b8781101561266357823561264681611e23565b6001600160a01b0316825260209283019290910190600101612633565b5083810360208501526126778186886125ee565b98975050505050505050565b6000808335601e1984360301811261269a57600080fd5b83018035915067ffffffffffffffff8211156126b557600080fd5b6020019150600581901b3603821315611efa57600080fd5b6001600160a01b03848116825260406020808401829052908301849052600091859160608501845b8781101561271c57843561270881611e23565b8416825293820193908201906001016126f5565b5098975050505050505050565b6001600160a01b03868116825260606020808401829052908301869052600091879160808501845b8981101561277857843561276481611e23565b841682529382019390820190600101612751565b50858103604087015286815281810193506005925086831b810182018860005b8981101561280a57838303601f190187528135368c9003601e190181126127be57600080fd5b8b01858101903567ffffffffffffffff8111156127da57600080fd5b80881b36038213156127eb57600080fd5b6127f68582846125ee565b988701989450505090840190600101612798565b50909c9b505050505050505050505050565b6001600160a01b0385811682528416602082015260606040820181905260009061284990830184866125ee565b9695505050505050565b60006020828403121561286557600080fd5b5051919050565b818103818111156124b2576124b26122fd565b60005b8381101561289a578181015183820152602001612882565b50506000910152565b600081518084526128bb81602086016020860161287f565b601f01601f19169290920160200192915050565b6001600160a01b03868116825285166020820152604081018490526060810183905260a060808201819052600090611cc7908301846128a3565b634e487b7160e01b600052601260045260246000fd5b60006020828403121561293157600080fd5b81518015158114611aa257600080fd5b6000825161295381846020870161287f565b9190910192915050565b602081526000611aa260208301846128a356fea26469706673582212208498f815521185e52e73cb1a3da1ca7740731c44bd39eeb7e0dbe25ef8850e7564736f6c63430008130033","bytecodeSha1":"7c6c606308a11488dbc276aff892e37c7288b84c","compiler":{"evm_version":"istanbul","optimizer":{"enabled":true,"runs":200},"version":"0.8.19+commit.7dd6d404"},"contractName":"Willer","language":"Solidity","natspec":{"author":"DimaKush","kind":"dev","methods":{},"title":"Willer","version":1},"opcodes":"PUSH1 0x80 PUSH1 0x40 MSTORE CALLVALUE DUP1 ISZERO PUSH2 0x10 JUMPI PUSH1 0x0 DUP1 REVERT JUMPDEST POP PUSH1 0x4 CALLDATASIZE LT PUSH2 0xF5 JUMPI PUSH1 0x0 CALLDATALOAD PUSH1 0xE0 SHR DUP1 PUSH4 0xA26EA21E GT PUSH2 0x97 JUMPI DUP1 PUSH4 0xAC8BC77E GT PUSH2 0x66 JUMPI DUP1 PUSH4 0xAC8BC77E EQ PUSH2 0x23E JUMPI DUP1 PUSH4 0xCAEE863E EQ PUSH2 0x251 JUMPI DUP1 PUSH4 0xF04DA65B EQ PUSH2 0x264 JUMPI DUP1 PUSH4 0xFE36B4C8 EQ PUSH2 0x284 JUMPI PUSH1 0x0 DUP1 REVERT JUMPDEST DUP1 PUSH4 0xA26EA21E EQ PUSH2 0x1D9 JUMPI DUP1 PUSH4 0xA29093B1 EQ PUSH2 0x1EC JUMPI DUP1 PUSH4 0xA3DA0ECD EQ PUSH2 0x218 JUMPI DUP1 PUSH4 0xA6FD2339 EQ PUSH2 0x22B JUMPI PUSH1 0x0 DUP1 REVERT JUMPDEST DUP1 PUSH4 0x705E8B2E GT PUSH2 0xD3 JUMPI DUP1 PUSH4 0x705E8B2E EQ PUSH2 0x1A1 JUMPI DUP1 PUSH4 0x745137B4 EQ PUSH2 0x1A9 JUMPI DUP1 PUSH4 0x7CE752C6 EQ PUSH2 0x1B1 JUMPI DUP1 PUSH4 0x9181141A EQ PUSH2 0x1C6 JUMPI PUSH1 0x0 DUP1 REVERT JUMPDEST DUP1 PUSH4 0xCB7EB4C EQ PUSH2 0xFA JUMPI DUP1 PUSH4 0x1CAB59A4 EQ PUSH2 0x13A JUMPI DUP1 PUSH4 0x47FF5D8A EQ PUSH2 0x15A JUMPI JUMPDEST PUSH1 0x0 DUP1 REVERT JUMPDEST PUSH2 0x127 PUSH2 0x108 CALLDATASIZE PUSH1 0x4 PUSH2 0x1E4B JUMP JUMPDEST PUSH1 0x1 PUSH1 0x1 PUSH1 0xA0 SHL SUB AND PUSH1 0x0 SWAP1 DUP2 MSTORE PUSH1 0x3 PUSH1 0x20 DUP2 SWAP1 MSTORE PUSH1 0x40 SWAP1 SWAP2 KECCAK256 ADD SLOAD SWAP1 JUMP JUMPDEST PUSH1 0x40 MLOAD SWAP1 DUP2 MSTORE PUSH1 0x20 ADD JUMPDEST PUSH1 0x40 MLOAD DUP1 SWAP2 SUB SWAP1 RETURN JUMPDEST PUSH2 0x14D PUSH2 0x148 CALLDATASIZE PUSH1 0x4 PUSH2 0x1E4B JUMP JUMPDEST PUSH2 0x297 JUMP JUMPDEST PUSH1 0x40 MLOAD PUSH2 0x131 SWAP2 SWAP1 PUSH2 0x1E68 JUMP JUMPDEST PUSH2 0x189 PUSH2 0x168 CALLDATASIZE PUSH1 0x4 PUSH2 0x1E4B JUMP JUMPDEST PUSH1 0x1 PUSH1 0x1 PUSH1 0xA0 SHL SUB SWAP1 DUP2 AND PUSH1 0x0 SWAP1 DUP2 MSTORE PUSH1 0x3 PUSH1 0x20 MSTORE PUSH1 0x40 SWAP1 KECCAK256 PUSH1 0x2 ADD SLOAD AND SWAP1 JUMP JUMPDEST PUSH1 0x40 MLOAD PUSH1 0x1 PUSH1 0x1 PUSH1 0xA0 SHL SUB SWAP1 SWAP2 AND DUP2 MSTORE PUSH1 0x20 ADD PUSH2 0x131 JUMP JUMPDEST PUSH1 0x1 SLOAD PUSH2 0x127 JUMP JUMPDEST PUSH1 0x2 SLOAD PUSH2 0x127 JUMP JUMPDEST PUSH2 0x1C4 PUSH2 0x1BF CALLDATASIZE PUSH1 0x4 PUSH2 0x1F01 JUMP JUMPDEST PUSH2 0x30D JUMP JUMPDEST STOP JUMPDEST PUSH2 0x1C4 PUSH2 0x1D4 CALLDATASIZE PUSH1 0x4 PUSH2 0x1F66 JUMP JUMPDEST PUSH2 0x50D JUMP JUMPDEST PUSH2 0x1C4 PUSH2 0x1E7 CALLDATASIZE PUSH1 0x4 PUSH2 0x1FF2 JUMP JUMPDEST PUSH2 0x7F2 JUMP JUMPDEST PUSH2 0x127 PUSH2 0x1FA CALLDATASIZE PUSH1 0x4 PUSH2 0x1E4B JUMP JUMPDEST PUSH1 0x1 PUSH1 0x1 PUSH1 0xA0 SHL SUB AND PUSH1 0x0 SWAP1 DUP2 MSTORE PUSH1 0x3 PUSH1 0x20 MSTORE PUSH1 0x40 SWAP1 KECCAK256 PUSH1 0x1 ADD SLOAD SWAP1 JUMP JUMPDEST PUSH2 0x1C4 PUSH2 0x226 CALLDATASIZE PUSH1 0x4 PUSH2 0x2047 JUMP JUMPDEST PUSH2 0x9F5 JUMP JUMPDEST PUSH2 0x127 PUSH2 0x239 CALLDATASIZE PUSH1 0x4 PUSH2 0x20A7 JUMP JUMPDEST PUSH2 0xC83 JUMP JUMPDEST PUSH2 0x1C4 PUSH2 0x24C CALLDATASIZE PUSH1 0x4 PUSH2 0x20C0 JUMP JUMPDEST PUSH2 0xD9B JUMP JUMPDEST PUSH2 0x1C4 PUSH2 0x25F CALLDATASIZE PUSH1 0x4 PUSH2 0x1E4B JUMP JUMPDEST PUSH2 0xFC4 JUMP JUMPDEST PUSH2 0x277 PUSH2 0x272 CALLDATASIZE PUSH1 0x4 PUSH2 0x1E4B JUMP JUMPDEST PUSH2 0x10CF JUMP JUMPDEST PUSH1 0x40 MLOAD PUSH2 0x131 SWAP2 SWAP1 PUSH2 0x2143 JUMP JUMPDEST PUSH2 0x1C4 PUSH2 0x292 CALLDATASIZE PUSH1 0x4 PUSH2 0x217B JUMP JUMPDEST PUSH2 0x113D JUMP JUMPDEST PUSH1 0x1 PUSH1 0x1 PUSH1 0xA0 SHL SUB DUP2 AND PUSH1 0x0 SWAP1 DUP2 MSTORE PUSH1 0x3 PUSH1 0x20 SWAP1 DUP2 MSTORE PUSH1 0x40 SWAP2 DUP3 SWAP1 KECCAK256 DUP1 SLOAD DUP4 MLOAD DUP2 DUP5 MUL DUP2 ADD DUP5 ADD SWAP1 SWAP5 MSTORE DUP1 DUP5 MSTORE PUSH1 0x60 SWAP4 SWAP3 DUP4 ADD DUP3 DUP3 DUP1 ISZERO PUSH2 0x301 JUMPI PUSH1 0x20 MUL DUP3 ADD SWAP2 SWAP1 PUSH1 0x0 MSTORE PUSH1 0x20 PUSH1 0x0 KECCAK256 SWAP1 JUMPDEST DUP2 SLOAD PUSH1 0x1 PUSH1 0x1 PUSH1 0xA0 SHL SUB AND DUP2 MSTORE PUSH1 0x1 SWAP1 SWAP2 ADD SWAP1 PUSH1 0x20 ADD DUP1 DUP4 GT PUSH2 0x2E3 JUMPI JUMPDEST POP POP POP POP POP SWAP1 POP SWAP2 SWAP1 POP JUMP JUMPDEST PUSH1 0x1 PUSH1 0x1 PUSH1 0xA0 SHL SUB DUP5 AND PUSH1 0x0 SWAP1 DUP2 MSTORE PUSH1 0x3 PUSH1 0x20 DUP2 SWAP1 MSTORE PUSH1 0x40 SWAP1 SWAP2 KECCAK256 ADD SLOAD DUP5 SWAP1 ISZERO DUP1 ISZERO SWAP1 PUSH2 0x351 JUMPI POP PUSH1 0x1 PUSH1 0x1 PUSH1 0xA0 SHL SUB DUP2 AND PUSH1 0x0 SWAP1 DUP2 MSTORE PUSH1 0x3 PUSH1 0x20 MSTORE PUSH1 0x40 SWAP1 KECCAK256 SLOAD ISZERO ISZERO JUMPDEST DUP1 ISZERO PUSH2 0x379 JUMPI POP PUSH1 0x1 PUSH1 0x1 PUSH1 0xA0 SHL SUB DUP2 DUP2 AND PUSH1 0x0 SWAP1 DUP2 MSTORE PUSH1 0x3 PUSH1 0x20 MSTORE PUSH1 0x40 SWAP1 KECCAK256 PUSH1 0x2 ADD SLOAD AND ISZERO ISZERO JUMPDEST PUSH2 0x39E JUMPI PUSH1 0x40 MLOAD PUSH3 0x461BCD PUSH1 0xE5 SHL DUP2 MSTORE PUSH1 0x4 ADD PUSH2 0x395 SWAP1 PUSH2 0x2282 JUMP JUMPDEST PUSH1 0x40 MLOAD DUP1 SWAP2 SUB SWAP1 REVERT JUMPDEST PUSH1 0x1 PUSH1 0x1 PUSH1 0xA0 SHL SUB DUP6 AND PUSH1 0x0 SWAP1 DUP2 MSTORE PUSH1 0x3 PUSH1 0x20 DUP2 SWAP1 MSTORE PUSH1 0x40 SWAP1 SWAP2 KECCAK256 ADD SLOAD DUP6 SWAP1 TIMESTAMP LT ISZERO PUSH2 0x3DC JUMPI PUSH1 0x40 MLOAD PUSH3 0x461BCD PUSH1 0xE5 SHL DUP2 MSTORE PUSH1 0x4 ADD PUSH2 0x395 SWAP1 PUSH2 0x22B9 JUMP JUMPDEST TIMESTAMP PUSH1 0x0 SUB PUSH2 0x3E9 JUMPI PUSH1 0x0 DUP1 REVERT JUMPDEST DUP6 PUSH1 0x0 DUP1 JUMPDEST PUSH1 0x1 PUSH1 0x1 PUSH1 0xA0 SHL SUB DUP4 AND PUSH1 0x0 SWAP1 DUP2 MSTORE PUSH1 0x3 PUSH1 0x20 MSTORE PUSH1 0x40 SWAP1 KECCAK256 SLOAD DUP2 LT ISZERO PUSH2 0x46A JUMPI PUSH1 0x1 PUSH1 0x1 PUSH1 0xA0 SHL SUB DUP4 AND PUSH1 0x0 SWAP1 DUP2 MSTORE PUSH1 0x3 PUSH1 0x20 MSTORE PUSH1 0x40 SWAP1 KECCAK256 DUP1 SLOAD DUP3 SWAP1 DUP2 LT PUSH2 0x438 JUMPI PUSH2 0x438 PUSH2 0x22E7 JUMP JUMPDEST PUSH1 0x0 SWAP2 DUP3 MSTORE PUSH1 0x20 SWAP1 SWAP2 KECCAK256 ADD SLOAD PUSH1 0x1 PUSH1 0x1 PUSH1 0xA0 SHL SUB AND CALLER SUB PUSH2 0x458 JUMPI PUSH1 0x1 SWAP2 POP JUMPDEST DUP1 PUSH2 0x462 DUP2 PUSH2 0x2313 JUMP JUMPDEST SWAP2 POP POP PUSH2 0x3EE JUMP JUMPDEST POP PUSH1 0x1 PUSH1 0x1 PUSH1 0xA0 SHL SUB DUP1 DUP4 AND PUSH1 0x0 SWAP1 DUP2 MSTORE PUSH1 0x3 PUSH1 0x20 MSTORE PUSH1 0x40 SWAP1 KECCAK256 PUSH1 0x2 ADD SLOAD AND CALLER SUB PUSH2 0x493 JUMPI POP PUSH1 0x1 JUMPDEST DUP1 PUSH2 0x4B0 JUMPI PUSH1 0x40 MLOAD PUSH3 0x461BCD PUSH1 0xE5 SHL DUP2 MSTORE PUSH1 0x4 ADD PUSH2 0x395 SWAP1 PUSH2 0x232C JUMP JUMPDEST PUSH2 0x4B8 PUSH2 0x12C2 JUMP JUMPDEST PUSH1 0x0 JUMPDEST DUP6 DUP2 LT ISZERO PUSH2 0x4F8 JUMPI PUSH2 0x4E6 DUP10 DUP10 DUP10 DUP10 DUP6 DUP2 DUP2 LT PUSH2 0x4DA JUMPI PUSH2 0x4DA PUSH2 0x22E7 JUMP JUMPDEST SWAP1 POP PUSH1 0x20 MUL ADD CALLDATALOAD PUSH2 0x131B JUMP JUMPDEST DUP1 PUSH2 0x4F0 DUP2 PUSH2 0x2313 JUMP JUMPDEST SWAP2 POP POP PUSH2 0x4BB JUMP JUMPDEST POP PUSH2 0x503 PUSH1 0x1 PUSH1 0x0 SSTORE JUMP JUMPDEST POP POP POP POP POP POP POP POP JUMP JUMPDEST DUP6 DUP6 DUP6 DUP6 CALLER DUP2 DUP5 EQ PUSH2 0x531 JUMPI PUSH1 0x40 MLOAD PUSH3 0x461BCD PUSH1 0xE5 SHL DUP2 MSTORE PUSH1 0x4 ADD PUSH2 0x395 SWAP1 PUSH2 0x236F JUMP JUMPDEST PUSH1 0x0 JUMPDEST DUP5 DUP2 LT ISZERO PUSH2 0x691 JUMPI PUSH1 0x0 DUP7 DUP7 DUP4 DUP2 DUP2 LT PUSH2 0x550 JUMPI PUSH2 0x550 PUSH2 0x22E7 JUMP JUMPDEST SWAP1 POP PUSH1 0x20 MUL ADD PUSH1 0x20 DUP2 ADD SWAP1 PUSH2 0x565 SWAP2 SWAP1 PUSH2 0x1E4B JUMP JUMPDEST PUSH1 0x1 PUSH1 0x1 PUSH1 0xA0 SHL SUB AND SUB PUSH2 0x58B JUMPI PUSH1 0x40 MLOAD PUSH3 0x461BCD PUSH1 0xE5 SHL DUP2 MSTORE PUSH1 0x4 ADD PUSH2 0x395 SWAP1 PUSH2 0x23C1 JUMP JUMPDEST DUP2 PUSH1 0x1 PUSH1 0x1 PUSH1 0xA0 SHL SUB AND DUP7 DUP7 DUP4 DUP2 DUP2 LT PUSH2 0x5A7 JUMPI PUSH2 0x5A7 PUSH2 0x22E7 JUMP JUMPDEST SWAP1 POP PUSH1 0x20 MUL ADD PUSH1 0x20 DUP2 ADD SWAP1 PUSH2 0x5BC SWAP2 SWAP1 PUSH2 0x1E4B JUMP JUMPDEST PUSH1 0x1 PUSH1 0x1 PUSH1 0xA0 SHL SUB AND SUB PUSH2 0x5E2 JUMPI PUSH1 0x40 MLOAD PUSH3 0x461BCD PUSH1 0xE5 SHL DUP2 MSTORE PUSH1 0x4 ADD PUSH2 0x395 SWAP1 PUSH2 0x2408 JUMP JUMPDEST PUSH1 0x2 SLOAD DUP5 DUP5 DUP4 DUP2 DUP2 LT PUSH2 0x5F7 JUMPI PUSH2 0x5F7 PUSH2 0x22E7 JUMP JUMPDEST SWAP1 POP PUSH1 0x20 MUL ADD CALLDATALOAD GT ISZERO PUSH2 0x61C JUMPI PUSH1 0x40 MLOAD PUSH3 0x461BCD PUSH1 0xE5 SHL DUP2 MSTORE PUSH1 0x4 ADD PUSH2 0x395 SWAP1 PUSH2 0x2453 JUMP JUMPDEST PUSH1 0x0 DUP5 DUP5 DUP4 DUP2 DUP2 LT PUSH2 0x630 JUMPI PUSH2 0x630 PUSH2 0x22E7 JUMP JUMPDEST SWAP1 POP PUSH1 0x20 MUL ADD CALLDATALOAD GT PUSH2 0x67F JUMPI PUSH1 0x40 MLOAD PUSH3 0x461BCD PUSH1 0xE5 SHL DUP2 MSTORE PUSH1 0x20 PUSH1 0x4 DUP3 ADD MSTORE PUSH1 0x18 PUSH1 0x24 DUP3 ADD MSTORE PUSH24 0x57696C6C65723A2073686172652063616E2774206265203 PUSH1 0x44 SHL PUSH1 0x44 DUP3 ADD MSTORE PUSH1 0x64 ADD PUSH2 0x395 JUMP JUMPDEST DUP1 PUSH2 0x689 DUP2 PUSH2 0x2313 JUMP JUMPDEST SWAP2 POP POP PUSH2 0x534 JUMP JUMPDEST POP DUP6 PUSH1 0x1 SLOAD TIMESTAMP PUSH2 0x6A1 SWAP2 SWAP1 PUSH2 0x249F JUMP JUMPDEST DUP2 LT ISZERO PUSH2 0x6C0 JUMPI PUSH1 0x40 MLOAD PUSH3 0x461BCD PUSH1 0xE5 SHL DUP2 MSTORE PUSH1 0x4 ADD PUSH2 0x395 SWAP1 PUSH2 0x24B8 JUMP JUMPDEST DUP8 PUSH1 0x1 PUSH1 0x1 PUSH1 0xA0 SHL SUB DUP2 AND PUSH2 0x6E7 JUMPI PUSH1 0x40 MLOAD PUSH3 0x461BCD PUSH1 0xE5 SHL DUP2 MSTORE PUSH1 0x4 ADD PUSH2 0x395 SWAP1 PUSH2 0x24F9 JUMP JUMPDEST CALLER PUSH1 0x0 SWAP1 DUP2 MSTORE PUSH1 0x3 PUSH1 0x20 MSTORE PUSH1 0x40 SWAP1 KECCAK256 PUSH2 0x701 DUP2 DUP16 DUP16 PUSH2 0x1D70 JUMP JUMPDEST POP PUSH2 0x710 PUSH1 0x4 DUP3 ADD DUP14 DUP14 PUSH2 0x1DD3 JUMP JUMPDEST POP PUSH1 0x0 PUSH1 0x1 DUP3 ADD DUP2 SWAP1 SSTORE PUSH1 0x2 DUP3 ADD DUP1 SLOAD PUSH1 0x1 PUSH1 0x1 PUSH1 0xA0 SHL SUB NOT AND PUSH1 0x1 PUSH1 0x1 PUSH1 0xA0 SHL SUB DUP14 AND OR SWAP1 SSTORE PUSH1 0x3 DUP3 ADD DUP11 SWAP1 SSTORE JUMPDEST DUP12 DUP2 LT ISZERO PUSH2 0x78B JUMPI DUP13 DUP13 DUP3 DUP2 DUP2 LT PUSH2 0x759 JUMPI PUSH2 0x759 PUSH2 0x22E7 JUMP JUMPDEST SWAP1 POP PUSH1 0x20 MUL ADD CALLDATALOAD DUP3 PUSH1 0x1 ADD PUSH1 0x0 DUP3 DUP3 SLOAD PUSH2 0x773 SWAP2 SWAP1 PUSH2 0x249F JUMP JUMPDEST SWAP1 SWAP2 SSTORE POP DUP2 SWAP1 POP PUSH2 0x783 DUP2 PUSH2 0x2313 JUMP JUMPDEST SWAP2 POP POP PUSH2 0x73F JUMP JUMPDEST POP PUSH1 0x2 DUP2 ADD SLOAD PUSH1 0x3 DUP3 ADD SLOAD PUSH1 0x40 MLOAD PUSH1 0x1 PUSH1 0x1 PUSH1 0xA0 SHL SUB SWAP1 SWAP3 AND SWAP2 CALLER SWAP2 PUSH32 0x33835E9EB257828A2BE55CC9FA94E5D20C5BA644F80FC0F8614EF0BA9EC21A6E SWAP2 PUSH2 0x7DA SWAP2 DUP7 SWAP2 PUSH1 0x4 DUP4 ADD SWAP2 SWAP1 PUSH2 0x2556 JUMP JUMPDEST PUSH1 0x40 MLOAD DUP1 SWAP2 SUB SWAP1 LOG3 POP POP POP POP POP POP POP POP POP POP POP POP POP POP JUMP JUMPDEST PUSH1 0x1 PUSH1 0x1 PUSH1 0xA0 SHL SUB DUP4 AND PUSH1 0x0 SWAP1 DUP2 MSTORE PUSH1 0x3 PUSH1 0x20 DUP2 SWAP1 MSTORE PUSH1 0x40 SWAP1 SWAP2 KECCAK256 ADD SLOAD DUP4 SWAP1 ISZERO DUP1 ISZERO SWAP1 PUSH2 0x836 JUMPI POP PUSH1 0x1 PUSH1 0x1 PUSH1 0xA0 SHL SUB DUP2 AND PUSH1 0x0 SWAP1 DUP2 MSTORE PUSH1 0x3 PUSH1 0x20 MSTORE PUSH1 0x40 SWAP1 KECCAK256 SLOAD ISZERO ISZERO JUMPDEST DUP1 ISZERO PUSH2 0x85E JUMPI POP PUSH1 0x1 PUSH1 0x1 PUSH1 0xA0 SHL SUB DUP2 DUP2 AND PUSH1 0x0 SWAP1 DUP2 MSTORE PUSH1 0x3 PUSH1 0x20 MSTORE PUSH1 0x40 SWAP1 KECCAK256 PUSH1 0x2 ADD SLOAD AND ISZERO ISZERO JUMPDEST PUSH2 0x87A JUMPI PUSH1 0x40 MLOAD PUSH3 0x461BCD PUSH1 0xE5 SHL DUP2 MSTORE PUSH1 0x4 ADD PUSH2 0x395 SWAP1 PUSH2 0x2282 JUMP JUMPDEST PUSH1 0x1 PUSH1 0x1 PUSH1 0xA0 SHL SUB DUP5 AND PUSH1 0x0 SWAP1 DUP2 MSTORE PUSH1 0x3 PUSH1 0x20 DUP2 SWAP1 MSTORE PUSH1 0x40 SWAP1 SWAP2 KECCAK256 ADD SLOAD DUP5 SWAP1 TIMESTAMP LT ISZERO PUSH2 0x8B8 JUMPI PUSH1 0x40 MLOAD PUSH3 0x461BCD PUSH1 0xE5 SHL DUP2 MSTORE PUSH1 0x4 ADD PUSH2 0x395 SWAP1 PUSH2 0x22B9 JUMP JUMPDEST TIMESTAMP PUSH1 0x0 SUB PUSH2 0x8C5 JUMPI PUSH1 0x0 DUP1 REVERT JUMPDEST DUP5 PUSH1 0x0 DUP1 JUMPDEST PUSH1 0x1 PUSH1 0x1 PUSH1 0xA0 SHL SUB DUP4 AND PUSH1 0x0 SWAP1 DUP2 MSTORE PUSH1 0x3 PUSH1 0x20 MSTORE PUSH1 0x40 SWAP1 KECCAK256 SLOAD DUP2 LT ISZERO PUSH2 0x946 JUMPI PUSH1 0x1 PUSH1 0x1 PUSH1 0xA0 SHL SUB DUP4 AND PUSH1 0x0 SWAP1 DUP2 MSTORE PUSH1 0x3 PUSH1 0x20 MSTORE PUSH1 0x40 SWAP1 KECCAK256 DUP1 SLOAD DUP3 SWAP1 DUP2 LT PUSH2 0x914 JUMPI PUSH2 0x914 PUSH2 0x22E7 JUMP JUMPDEST PUSH1 0x0 SWAP2 DUP3 MSTORE PUSH1 0x20 SWAP1 SWAP2 KECCAK256 ADD SLOAD PUSH1 0x1 PUSH1 0x1 PUSH1 0xA0 SHL SUB AND CALLER SUB PUSH2 0x934 JUMPI PUSH1 0x1 SWAP2 POP JUMPDEST DUP1 PUSH2 0x93E DUP2 PUSH2 0x2313 JUMP JUMPDEST SWAP2 POP POP PUSH2 0x8CA JUMP JUMPDEST POP PUSH1 0x1 PUSH1 0x1 PUSH1 0xA0 SHL SUB DUP1 DUP4 AND PUSH1 0x0 SWAP1 DUP2 MSTORE PUSH1 0x3 PUSH1 0x20 MSTORE PUSH1 0x40 SWAP1 KECCAK256 PUSH1 0x2 ADD SLOAD AND CALLER SUB PUSH2 0x96F JUMPI POP PUSH1 0x1 JUMPDEST DUP1 PUSH2 0x98C JUMPI PUSH1 0x40 MLOAD PUSH3 0x461BCD PUSH1 0xE5 SHL DUP2 MSTORE PUSH1 0x4 ADD PUSH2 0x395 SWAP1 PUSH2 0x232C JUMP JUMPDEST PUSH2 0x994 PUSH2 0x12C2 JUMP JUMPDEST PUSH1 0x0 JUMPDEST DUP6 DUP2 LT ISZERO PUSH2 0x9E1 JUMPI PUSH2 0x9CF DUP9 DUP9 DUP9 DUP5 DUP2 DUP2 LT PUSH2 0x9B5 JUMPI PUSH2 0x9B5 PUSH2 0x22E7 JUMP JUMPDEST SWAP1 POP PUSH1 0x20 MUL ADD PUSH1 0x20 DUP2 ADD SWAP1 PUSH2 0x9CA SWAP2 SWAP1 PUSH2 0x1E4B JUMP JUMPDEST PUSH2 0x1583 JUMP JUMPDEST DUP1 PUSH2 0x9D9 DUP2 PUSH2 0x2313 JUMP JUMPDEST SWAP2 POP POP PUSH2 0x997 JUMP JUMPDEST POP PUSH2 0x9EC PUSH1 0x1 PUSH1 0x0 SSTORE JUMP JUMPDEST POP POP POP POP POP POP POP JUMP JUMPDEST CALLER PUSH1 0x0 DUP2 DUP2 MSTORE PUSH1 0x3 PUSH1 0x20 DUP2 SWAP1 MSTORE PUSH1 0x40 SWAP1 SWAP2 KECCAK256 ADD SLOAD ISZERO DUP1 ISZERO SWAP1 PUSH2 0xA2E JUMPI POP PUSH1 0x1 PUSH1 0x1 PUSH1 0xA0 SHL SUB DUP2 AND PUSH1 0x0 SWAP1 DUP2 MSTORE PUSH1 0x3 PUSH1 0x20 MSTORE PUSH1 0x40 SWAP1 KECCAK256 SLOAD ISZERO ISZERO JUMPDEST DUP1 ISZERO PUSH2 0xA56 JUMPI POP PUSH1 0x1 PUSH1 0x1 PUSH1 0xA0 SHL SUB DUP2 DUP2 AND PUSH1 0x0 SWAP1 DUP2 MSTORE PUSH1 0x3 PUSH1 0x20 MSTORE PUSH1 0x40 SWAP1 KECCAK256 PUSH1 0x2 ADD SLOAD AND ISZERO ISZERO JUMPDEST PUSH2 0xA72 JUMPI PUSH1 0x40 MLOAD PUSH3 0x461BCD PUSH1 0xE5 SHL DUP2 MSTORE PUSH1 0x4 ADD PUSH2 0x395 SWAP1 PUSH2 0x2282 JUMP JUMPDEST DUP5 DUP5 DUP5 DUP5 CALLER DUP2 DUP5 EQ PUSH2 0xA96 JUMPI PUSH1 0x40 MLOAD PUSH3 0x461BCD PUSH1 0xE5 SHL DUP2 MSTORE PUSH1 0x4 ADD PUSH2 0x395 SWAP1 PUSH2 0x236F JUMP JUMPDEST PUSH1 0x0 JUMPDEST DUP5 DUP2 LT ISZERO PUSH2 0xBF6 JUMPI PUSH1 0x0 DUP7 DUP7 DUP4 DUP2 DUP2 LT PUSH2 0xAB5 JUMPI PUSH2 0xAB5 PUSH2 0x22E7 JUMP JUMPDEST SWAP1 POP PUSH1 0x20 MUL ADD PUSH1 0x20 DUP2 ADD SWAP1 PUSH2 0xACA SWAP2 SWAP1 PUSH2 0x1E4B JUMP JUMPDEST PUSH1 0x1 PUSH1 0x1 PUSH1 0xA0 SHL SUB AND SUB PUSH2 0xAF0 JUMPI PUSH1 0x40 MLOAD PUSH3 0x461BCD PUSH1 0xE5 SHL DUP2 MSTORE PUSH1 0x4 ADD PUSH2 0x395 SWAP1 PUSH2 0x23C1 JUMP JUMPDEST DUP2 PUSH1 0x1 PUSH1 0x1 PUSH1 0xA0 SHL SUB AND DUP7 DUP7 DUP4 DUP2 DUP2 LT PUSH2 0xB0C JUMPI PUSH2 0xB0C PUSH2 0x22E7 JUMP JUMPDEST SWAP1 POP PUSH1 0x20 MUL ADD PUSH1 0x20 DUP2 ADD SWAP1 PUSH2 0xB21 SWAP2 SWAP1 PUSH2 0x1E4B JUMP JUMPDEST PUSH1 0x1 PUSH1 0x1 PUSH1 0xA0 SHL SUB AND SUB PUSH2 0xB47 JUMPI PUSH1 0x40 MLOAD PUSH3 0x461BCD PUSH1 0xE5 SHL DUP2 MSTORE PUSH1 0x4 ADD PUSH2 0x395 SWAP1 PUSH2 0x2408 JUMP JUMPDEST PUSH1 0x2 SLOAD DUP5 DUP5 DUP4 DUP2 DUP2 LT PUSH2 0xB5C JUMPI PUSH2 0xB5C PUSH2 0x22E7 JUMP JUMPDEST SWAP1 POP PUSH1 0x20 MUL ADD CALLDATALOAD GT ISZERO PUSH2 0xB81 JUMPI PUSH1 0x40 MLOAD PUSH3 0x461BCD PUSH1 0xE5 SHL DUP2 MSTORE PUSH1 0x4 ADD PUSH2 0x395 SWAP1 PUSH2 0x2453 JUMP JUMPDEST PUSH1 0x0 DUP5 DUP5 DUP4 DUP2 DUP2 LT PUSH2 0xB95 JUMPI PUSH2 0xB95 PUSH2 0x22E7 JUMP JUMPDEST SWAP1 POP PUSH1 0x20 MUL ADD CALLDATALOAD GT PUSH2 0xBE4 JUMPI PUSH1 0x40 MLOAD PUSH3 0x461BCD PUSH1 0xE5 SHL DUP2 MSTORE PUSH1 0x20 PUSH1 0x4 DUP3 ADD MSTORE PUSH1 0x18 PUSH1 0x24 DUP3 ADD MSTORE PUSH24 0x57696C6C65723A2073686172652063616E2774206265203 PUSH1 0x44 SHL PUSH1 0x44 DUP3 ADD MSTORE PUSH1 0x64 ADD PUSH2 0x395 JUMP JUMPDEST DUP1 PUSH2 0xBEE DUP2 PUSH2 0x2313 JUMP JUMPDEST SWAP2 POP POP PUSH2 0xA99 JUMP JUMPDEST POP CALLER PUSH1 0x0 SWAP1 DUP2 MSTORE PUSH1 0x3 PUSH1 0x20 MSTORE PUSH1 0x40 SWAP1 KECCAK256 PUSH2 0xC11 SWAP1 DUP12 DUP12 PUSH2 0x1D70 JUMP JUMPDEST POP CALLER PUSH1 0x0 SWAP1 DUP2 MSTORE PUSH1 0x3 PUSH1 0x20 MSTORE PUSH1 0x40 SWAP1 KECCAK256 PUSH2 0xC2F SWAP1 PUSH1 0x4 ADD DUP10 DUP10 PUSH2 0x1DD3 JUMP JUMPDEST POP CALLER PUSH1 0x1 PUSH1 0x1 PUSH1 0xA0 SHL SUB AND PUSH32 0x56AE1D37998FF042B080DA7061608CA0E1F1BBB026B2C0AA8451E3FFFBD6DD3E DUP12 DUP12 DUP12 DUP12 PUSH1 0x40 MLOAD PUSH2 0xC6F SWAP5 SWAP4 SWAP3 SWAP2 SWAP1 PUSH2 0x2620 JUMP JUMPDEST PUSH1 0x40 MLOAD DUP1 SWAP2 SUB SWAP1 LOG2 POP POP POP POP POP POP POP POP POP POP JUMP JUMPDEST CALLER PUSH1 0x0 DUP2 DUP2 MSTORE PUSH1 0x3 PUSH1 0x20 DUP2 SWAP1 MSTORE PUSH1 0x40 DUP3 KECCAK256 ADD SLOAD SWAP1 SWAP2 SWAP1 ISZERO DUP1 ISZERO SWAP1 PUSH2 0xCBE JUMPI POP PUSH1 0x1 PUSH1 0x1 PUSH1 0xA0 SHL SUB DUP2 AND PUSH1 0x0 SWAP1 DUP2 MSTORE PUSH1 0x3 PUSH1 0x20 MSTORE PUSH1 0x40 SWAP1 KECCAK256 SLOAD ISZERO ISZERO JUMPDEST DUP1 ISZERO PUSH2 0xCE6 JUMPI POP PUSH1 0x1 PUSH1 0x1 PUSH1 0xA0 SHL SUB DUP2 DUP2 AND PUSH1 0x0 SWAP1 DUP2 MSTORE PUSH1 0x3 PUSH1 0x20 MSTORE PUSH1 0x40 SWAP1 KECCAK256 PUSH1 0x2 ADD SLOAD AND ISZERO ISZERO JUMPDEST PUSH2 0xD02 JUMPI PUSH1 0x40 MLOAD PUSH3 0x461BCD PUSH1 0xE5 SHL DUP2 MSTORE PUSH1 0x4 ADD PUSH2 0x395 SWAP1 PUSH2 0x2282 JUMP JUMPDEST DUP3 PUSH1 0x1 SLOAD TIMESTAMP PUSH2 0xD11 SWAP2 SWAP1 PUSH2 0x249F JUMP JUMPDEST DUP2 LT ISZERO PUSH2 0xD30 JUMPI PUSH1 0x40 MLOAD PUSH3 0x461BCD PUSH1 0xE5 SHL DUP2 MSTORE PUSH1 0x4 ADD PUSH2 0x395 SWAP1 PUSH2 0x24B8 JUMP JUMPDEST CALLER PUSH1 0x0 DUP2 DUP2 MSTORE PUSH1 0x3 PUSH1 0x20 DUP2 SWAP1 MSTORE PUSH1 0x40 SWAP2 DUP3 SWAP1 KECCAK256 ADD DUP7 SWAP1 SSTORE MLOAD PUSH32 0x78ACE02CEA60DA39EEAC32A35444DE70D5C3B0B8B5659DCCFB11AAA172911367 SWAP1 PUSH2 0xD77 SWAP1 DUP8 DUP2 MSTORE PUSH1 0x20 ADD SWAP1 JUMP JUMPDEST PUSH1 0x40 MLOAD DUP1 SWAP2 SUB SWAP1 LOG2 POP POP CALLER PUSH1 0x0 SWAP1 DUP2 MSTORE PUSH1 0x3 PUSH1 0x20 DUP2 SWAP1 MSTORE PUSH1 0x40 SWAP1 SWAP2 KECCAK256 ADD SLOAD SWAP3 SWAP2 POP POP JUMP JUMPDEST PUSH1 0x1 PUSH1 0x1 PUSH1 0xA0 SHL SUB DUP6 AND PUSH1 0x0 SWAP1 DUP2 MSTORE PUSH1 0x3 PUSH1 0x20 DUP2 SWAP1 MSTORE PUSH1 0x40 SWAP1 SWAP2 KECCAK256 ADD SLOAD DUP6 SWAP1 ISZERO DUP1 ISZERO SWAP1 PUSH2 0xDDF JUMPI POP PUSH1 0x1 PUSH1 0x1 PUSH1 0xA0 SHL SUB DUP2 AND PUSH1 0x0 SWAP1 DUP2 MSTORE PUSH1 0x3 PUSH1 0x20 MSTORE PUSH1 0x40 SWAP1 KECCAK256 SLOAD ISZERO ISZERO JUMPDEST DUP1 ISZERO PUSH2 0xE07 JUMPI POP PUSH1 0x1 PUSH1 0x1 PUSH1 0xA0 SHL SUB DUP2 DUP2 AND PUSH1 0x0 SWAP1 DUP2 MSTORE PUSH1 0x3 PUSH1 0x20 MSTORE PUSH1 0x40 SWAP1 KECCAK256 PUSH1 0x2 ADD SLOAD AND ISZERO ISZERO JUMPDEST PUSH2 0xE23 JUMPI PUSH1 0x40 MLOAD PUSH3 0x461BCD PUSH1 0xE5 SHL DUP2 MSTORE PUSH1 0x4 ADD PUSH2 0x395 SWAP1 PUSH2 0x2282 JUMP JUMPDEST PUSH1 0x1 PUSH1 0x1 PUSH1 0xA0 SHL SUB DUP7 AND PUSH1 0x0 SWAP1 DUP2 MSTORE PUSH1 0x3 PUSH1 0x20 DUP2 SWAP1 MSTORE PUSH1 0x40 SWAP1 SWAP2 KECCAK256 ADD SLOAD DUP7 SWAP1 TIMESTAMP LT ISZERO PUSH2 0xE61 JUMPI PUSH1 0x40 MLOAD PUSH3 0x461BCD PUSH1 0xE5 SHL DUP2 MSTORE PUSH1 0x4 ADD PUSH2 0x395 SWAP1 PUSH2 0x22B9 JUMP JUMPDEST TIMESTAMP PUSH1 0x0 SUB PUSH2 0xE6E JUMPI PUSH1 0x0 DUP1 REVERT JUMPDEST DUP7 PUSH1 0x0 DUP1 JUMPDEST PUSH1 0x1 PUSH1 0x1 PUSH1 0xA0 SHL SUB DUP4 AND PUSH1 0x0 SWAP1 DUP2 MSTORE PUSH1 0x3 PUSH1 0x20 MSTORE PUSH1 0x40 SWAP1 KECCAK256 SLOAD DUP2 LT ISZERO PUSH2 0xEEF JUMPI PUSH1 0x1 PUSH1 0x1 PUSH1 0xA0 SHL SUB DUP4 AND PUSH1 0x0 SWAP1 DUP2 MSTORE PUSH1 0x3 PUSH1 0x20 MSTORE PUSH1 0x40 SWAP1 KECCAK256 DUP1 SLOAD DUP3 SWAP1 DUP2 LT PUSH2 0xEBD JUMPI PUSH2 0xEBD PUSH2 0x22E7 JUMP JUMPDEST PUSH1 0x0 SWAP2 DUP3 MSTORE PUSH1 0x20 SWAP1 SWAP2 KECCAK256 ADD SLOAD PUSH1 0x1 PUSH1 0x1 PUSH1 0xA0 SHL SUB AND CALLER SUB PUSH2 0xEDD JUMPI PUSH1 0x1 SWAP2 POP JUMPDEST DUP1 PUSH2 0xEE7 DUP2 PUSH2 0x2313 JUMP JUMPDEST SWAP2 POP POP PUSH2 0xE73 JUMP JUMPDEST POP PUSH1 0x1 PUSH1 0x1 PUSH1 0xA0 SHL SUB DUP1 DUP4 AND PUSH1 0x0 SWAP1 DUP2 MSTORE PUSH1 0x3 PUSH1 0x20 MSTORE PUSH1 0x40 SWAP1 KECCAK256 PUSH1 0x2 ADD SLOAD AND CALLER SUB PUSH2 0xF18 JUMPI POP PUSH1 0x1 JUMPDEST DUP1 PUSH2 0xF35 JUMPI PUSH1 0x40 MLOAD PUSH3 0x461BCD PUSH1 0xE5 SHL DUP2 MSTORE PUSH1 0x4 ADD PUSH2 0x395 SWAP1 PUSH2 0x232C JUMP JUMPDEST PUSH2 0xF3D PUSH2 0x12C2 JUMP JUMPDEST PUSH1 0x0 JUMPDEST DUP8 DUP2 LT ISZERO PUSH2 0xFAE JUMPI PUSH2 0xF9C DUP11 DUP11 DUP11 DUP5 DUP2 DUP2 LT PUSH2 0xF5E JUMPI PUSH2 0xF5E PUSH2 0x22E7 JUMP JUMPDEST SWAP1 POP PUSH1 0x20 MUL ADD PUSH1 0x20 DUP2 ADD SWAP1 PUSH2 0xF73 SWAP2 SWAP1 PUSH2 0x1E4B JUMP JUMPDEST DUP10 DUP10 DUP6 DUP2 DUP2 LT PUSH2 0xF85 JUMPI PUSH2 0xF85 PUSH2 0x22E7 JUMP JUMPDEST SWAP1 POP PUSH1 0x20 MUL DUP2 ADD SWAP1 PUSH2 0xF97 SWAP2 SWAP1 PUSH2 0x2683 JUMP JUMPDEST PUSH2 0x1924 JUMP JUMPDEST DUP1 PUSH2 0xFA6 DUP2 PUSH2 0x2313 JUMP JUMPDEST SWAP2 POP POP PUSH2 0xF40 JUMP JUMPDEST POP PUSH2 0xFB9 PUSH1 0x1 PUSH1 0x0 SSTORE JUMP JUMPDEST POP POP POP POP POP POP POP POP POP JUMP JUMPDEST CALLER PUSH1 0x0 DUP2 DUP2 MSTORE PUSH1 0x3 PUSH1 0x20 DUP2 SWAP1 MSTORE PUSH1 0x40 SWAP1 SWAP2 KECCAK256 ADD SLOAD ISZERO DUP1 ISZERO SWAP1 PUSH2 0xFFD JUMPI POP PUSH1 0x1 PUSH1 0x1 PUSH1 0xA0 SHL SUB DUP2 AND PUSH1 0x0 SWAP1 DUP2 MSTORE PUSH1 0x3 PUSH1 0x20 MSTORE PUSH1 0x40 SWAP1 KECCAK256 SLOAD ISZERO ISZERO JUMPDEST DUP1 ISZERO PUSH2 0x1025 JUMPI POP PUSH1 0x1 PUSH1 0x1 PUSH1 0xA0 SHL SUB DUP2 DUP2 AND PUSH1 0x0 SWAP1 DUP2 MSTORE PUSH1 0x3 PUSH1 0x20 MSTORE PUSH1 0x40 SWAP1 KECCAK256 PUSH1 0x2 ADD SLOAD AND ISZERO ISZERO JUMPDEST PUSH2 0x1041 JUMPI PUSH1 0x40 MLOAD PUSH3 0x461BCD PUSH1 0xE5 SHL DUP2 MSTORE PUSH1 0x4 ADD PUSH2 0x395 SWAP1 PUSH2 0x2282 JUMP JUMPDEST DUP2 PUSH1 0x1 PUSH1 0x1 PUSH1 0xA0 SHL SUB DUP2 AND PUSH2 0x1068 JUMPI PUSH1 0x40 MLOAD PUSH3 0x461BCD PUSH1 0xE5 SHL DUP2 MSTORE PUSH1 0x4 ADD PUSH2 0x395 SWAP1 PUSH2 0x24F9 JUMP JUMPDEST CALLER PUSH1 0x0 DUP2 DUP2 MSTORE PUSH1 0x3 PUSH1 0x20 SWAP1 DUP2 MSTORE PUSH1 0x40 SWAP2 DUP3 SWAP1 KECCAK256 PUSH1 0x2 ADD DUP1 SLOAD PUSH1 0x1 PUSH1 0x1 PUSH1 0xA0 SHL SUB NOT AND PUSH1 0x1 PUSH1 0x1 PUSH1 0xA0 SHL SUB DUP9 AND SWAP1 DUP2 OR SWAP1 SWAP2 SSTORE SWAP2 MLOAD SWAP2 DUP3 MSTORE PUSH32 0x7657B533AEDC6CBF7CFDC6012EADEEB7A0F829CE52656343B61A45B460D063B1 SWAP2 ADD PUSH1 0x40 MLOAD DUP1 SWAP2 SUB SWAP1 LOG2 POP POP POP JUMP JUMPDEST PUSH1 0x1 PUSH1 0x1 PUSH1 0xA0 SHL SUB DUP2 AND PUSH1 0x0 SWAP1 DUP2 MSTORE PUSH1 0x3 PUSH1 0x20 SWAP1 DUP2 MSTORE PUSH1 0x40 SWAP2 DUP3 SWAP1 KECCAK256 PUSH1 0x4 ADD DUP1 SLOAD DUP4 MLOAD DUP2 DUP5 MUL DUP2 ADD DUP5 ADD SWAP1 SWAP5 MSTORE DUP1 DUP5 MSTORE PUSH1 0x60 SWAP4 SWAP3 DUP4 ADD DUP3 DUP3 DUP1 ISZERO PUSH2 0x301 JUMPI PUSH1 0x20 MUL DUP3 ADD SWAP2 SWAP1 PUSH1 0x0 MSTORE PUSH1 0x20 PUSH1 0x0 KECCAK256 SWAP1 JUMPDEST DUP2 SLOAD DUP2 MSTORE PUSH1 0x20 ADD SWAP1 PUSH1 0x1 ADD SWAP1 DUP1 DUP4 GT PUSH2 0x111E JUMPI POP POP POP POP POP SWAP1 POP SWAP2 SWAP1 POP JUMP JUMPDEST PUSH1 0x40 MLOAD PUSH4 0x5137510F PUSH1 0xE1 SHL DUP2 MSTORE ADDRESS SWAP1 PUSH4 0xA26EA21E SWAP1 PUSH2 0x1164 SWAP1 DUP15 SWAP1 DUP15 SWAP1 DUP15 SWAP1 PUSH1 0x4 ADD PUSH2 0x26CD JUMP JUMPDEST PUSH1 0x0 PUSH1 0x40 MLOAD DUP1 DUP4 SUB DUP2 PUSH1 0x0 DUP8 DUP1 EXTCODESIZE ISZERO DUP1 ISZERO PUSH2 0x117E JUMPI PUSH1 0x0 DUP1 REVERT JUMPDEST POP GAS CALL ISZERO DUP1 ISZERO PUSH2 0x1192 JUMPI RETURNDATASIZE PUSH1 0x0 DUP1 RETURNDATACOPY RETURNDATASIZE PUSH1 0x0 REVERT JUMPDEST POP POP PUSH1 0x40 MLOAD PUSH4 0x5645E3BF PUSH1 0xE1 SHL DUP2 MSTORE ADDRESS SWAP3 POP PUSH4 0xAC8BC77E SWAP2 POP PUSH2 0x11C1 SWAP1 DUP15 SWAP1 DUP13 SWAP1 DUP13 SWAP1 DUP11 SWAP1 DUP11 SWAP1 PUSH1 0x4 ADD PUSH2 0x2729 JUMP JUMPDEST PUSH1 0x0 PUSH1 0x40 MLOAD DUP1 DUP4 SUB DUP2 PUSH1 0x0 DUP8 DUP1 EXTCODESIZE ISZERO DUP1 ISZERO PUSH2 0x11DB JUMPI PUSH1 0x0 DUP1 REVERT JUMPDEST POP GAS CALL ISZERO DUP1 ISZERO PUSH2 0x11EF JUMPI RETURNDATASIZE PUSH1 0x0 DUP1 RETURNDATACOPY RETURNDATASIZE PUSH1 0x0 REVERT JUMPDEST POP POP POP POP PUSH1 0x0 JUMPDEST DUP6 DUP2 LT ISZERO PUSH2 0x12B4 JUMPI ADDRESS PUSH4 0x7CE752C6 DUP14 DUP10 DUP10 DUP6 DUP2 DUP2 LT PUSH2 0x1217 JUMPI PUSH2 0x1217 PUSH2 0x22E7 JUMP JUMPDEST SWAP1 POP PUSH1 0x20 MUL ADD PUSH1 0x20 DUP2 ADD SWAP1 PUSH2 0x122C SWAP2 SWAP1 PUSH2 0x1E4B JUMP JUMPDEST DUP7 DUP7 DUP7 DUP2 DUP2 LT PUSH2 0x123E JUMPI PUSH2 0x123E PUSH2 0x22E7 JUMP JUMPDEST SWAP1 POP PUSH1 0x20 MUL DUP2 ADD SWAP1 PUSH2 0x1250 SWAP2 SWAP1 PUSH2 0x2683 JUMP JUMPDEST PUSH1 0x40 MLOAD DUP6 PUSH4 0xFFFFFFFF AND PUSH1 0xE0 SHL DUP2 MSTORE PUSH1 0x4 ADD PUSH2 0x126F SWAP5 SWAP4 SWAP3 SWAP2 SWAP1 PUSH2 0x281C JUMP JUMPDEST PUSH1 0x0 PUSH1 0x40 MLOAD DUP1 DUP4 SUB DUP2 PUSH1 0x0 DUP8 DUP1 EXTCODESIZE ISZERO DUP1 ISZERO PUSH2 0x1289 JUMPI PUSH1 0x0 DUP1 REVERT JUMPDEST POP GAS CALL ISZERO DUP1 ISZERO PUSH2 0x129D JUMPI RETURNDATASIZE PUSH1 0x0 DUP1 RETURNDATACOPY RETURNDATASIZE PUSH1 0x0 REVERT JUMPDEST POP POP POP POP DUP1 DUP1 PUSH2 0x12AC SWAP1 PUSH2 0x2313 JUMP JUMPDEST SWAP2 POP POP PUSH2 0x11F6 JUMP JUMPDEST POP POP POP POP POP POP POP POP POP POP POP POP JUMP JUMPDEST PUSH1 0x2 PUSH1 0x0 SLOAD SUB PUSH2 0x1314 JUMPI PUSH1 0x40 MLOAD PUSH3 0x461BCD PUSH1 0xE5 SHL DUP2 MSTORE PUSH1 0x20 PUSH1 0x4 DUP3 ADD MSTORE PUSH1 0x1F PUSH1 0x24 DUP3 ADD MSTORE PUSH32 0x5265656E7472616E637947756172643A207265656E7472616E742063616C6C00 PUSH1 0x44 DUP3 ADD MSTORE PUSH1 0x64 ADD PUSH2 0x395 JUMP JUMPDEST PUSH1 0x2 PUSH1 0x0 SSTORE JUMP JUMPDEST PUSH1 0x40 MLOAD PUSH3 0x7EEAC7 PUSH1 0xE1 SHL DUP2 MSTORE PUSH1 0x1 PUSH1 0x1 PUSH1 0xA0 SHL SUB DUP5 DUP2 AND PUSH1 0x4 DUP4 ADD MSTORE PUSH1 0x24 DUP3 ADD DUP4 SWAP1 MSTORE PUSH1 0x0 SWAP2 SWAP1 DUP5 AND SWAP1 PUSH3 0xFDD58E SWAP1 PUSH1 0x44 ADD PUSH1 0x20 PUSH1 0x40 MLOAD DUP1 DUP4 SUB DUP2 DUP7 GAS STATICCALL ISZERO DUP1 ISZERO PUSH2 0x136A JUMPI RETURNDATASIZE PUSH1 0x0 DUP1 RETURNDATACOPY RETURNDATASIZE PUSH1 0x0 REVERT JUMPDEST POP POP POP POP PUSH1 0x40 MLOAD RETURNDATASIZE PUSH1 0x1F NOT PUSH1 0x1F DUP3 ADD AND DUP3 ADD DUP1 PUSH1 0x40 MSTORE POP DUP2 ADD SWAP1 PUSH2 0x138E SWAP2 SWAP1 PUSH2 0x2853 JUMP JUMPDEST SWAP1 POP PUSH1 0x0 DUP1 JUMPDEST PUSH1 0x1 PUSH1 0x1 PUSH1 0xA0 SHL SUB DUP7 AND PUSH1 0x0 SWAP1 DUP2 MSTORE PUSH1 0x3 PUSH1 0x20 MSTORE PUSH1 0x40 SWAP1 KECCAK256 SLOAD DUP2 LT ISZERO PUSH2 0x157B JUMPI PUSH1 0x1 PUSH1 0x1 PUSH1 0xA0 SHL SUB DUP7 AND PUSH1 0x0 SWAP1 DUP2 MSTORE PUSH1 0x3 PUSH1 0x20 MSTORE PUSH1 0x40 SWAP1 KECCAK256 PUSH1 0x4 ADD DUP1 SLOAD PUSH2 0x1416 SWAP2 SWAP1 DUP4 SWAP1 DUP2 LT PUSH2 0x13E6 JUMPI PUSH2 0x13E6 PUSH2 0x22E7 JUMP JUMPDEST PUSH1 0x0 SWAP2 DUP3 MSTORE PUSH1 0x20 DUP1 DUP4 KECCAK256 SWAP1 SWAP2 ADD SLOAD PUSH1 0x1 PUSH1 0x1 PUSH1 0xA0 SHL SUB DUP11 AND DUP4 MSTORE PUSH1 0x3 SWAP1 SWAP2 MSTORE PUSH1 0x40 SWAP1 SWAP2 KECCAK256 PUSH1 0x1 ADD SLOAD DUP6 SWAP2 SWAP1 PUSH2 0x19F4 JUMP JUMPDEST PUSH1 0x1 PUSH1 0x1 PUSH1 0xA0 SHL SUB DUP8 AND PUSH1 0x0 SWAP1 DUP2 MSTORE PUSH1 0x3 PUSH1 0x20 MSTORE PUSH1 0x40 SWAP1 KECCAK256 SLOAD SWAP1 SWAP3 POP PUSH2 0x143E SWAP1 PUSH1 0x1 SWAP1 PUSH2 0x286C JUMP JUMPDEST DUP2 SUB PUSH2 0x14B6 JUMPI PUSH1 0x40 MLOAD PUSH3 0x7EEAC7 PUSH1 0xE1 SHL DUP2 MSTORE PUSH1 0x1 PUSH1 0x1 PUSH1 0xA0 SHL SUB DUP8 DUP2 AND PUSH1 0x4 DUP4 ADD MSTORE PUSH1 0x24 DUP3 ADD DUP7 SWAP1 MSTORE DUP7 AND SWAP1 PUSH3 0xFDD58E SWAP1 PUSH1 0x44 ADD PUSH1 0x20 PUSH1 0x40 MLOAD DUP1 DUP4 SUB DUP2 DUP7 GAS STATICCALL ISZERO DUP1 ISZERO PUSH2 0x148F JUMPI RETURNDATASIZE PUSH1 0x0 DUP1 RETURNDATACOPY RETURNDATASIZE PUSH1 0x0 REVERT JUMPDEST POP POP POP POP PUSH1 0x40 MLOAD RETURNDATASIZE PUSH1 0x1F NOT PUSH1 0x1F DUP3 ADD AND DUP3 ADD DUP1 PUSH1 0x40 MSTORE POP DUP2 ADD SWAP1 PUSH2 0x14B3 SWAP2 SWAP1 PUSH2 0x2853 JUMP JUMPDEST SWAP2 POP JUMPDEST PUSH1 0x1 PUSH1 0x1 PUSH1 0xA0 SHL SUB DUP7 DUP2 AND PUSH1 0x0 SWAP1 DUP2 MSTORE PUSH1 0x3 PUSH1 0x20 MSTORE PUSH1 0x40 SWAP1 KECCAK256 DUP1 SLOAD SWAP2 DUP8 AND SWAP2 PUSH4 0xF242432A SWAP2 DUP10 SWAP2 DUP6 SWAP1 DUP2 LT PUSH2 0x14ED JUMPI PUSH2 0x14ED PUSH2 0x22E7 JUMP JUMPDEST PUSH1 0x0 SWAP2 DUP3 MSTORE PUSH1 0x20 DUP1 DUP4 KECCAK256 SWAP1 SWAP2 ADD SLOAD PUSH1 0x40 DUP1 MLOAD SWAP3 DUP4 ADD DUP2 MSTORE SWAP3 DUP3 MSTORE SWAP2 MLOAD PUSH1 0x1 PUSH1 0x1 PUSH1 0xE0 SHL SUB NOT PUSH1 0xE0 DUP7 SWAP1 SHL AND DUP2 MSTORE PUSH2 0x1536 SWAP4 SWAP3 PUSH1 0x1 PUSH1 0x1 PUSH1 0xA0 SHL SUB AND SWAP2 DUP11 SWAP2 DUP10 SWAP2 SWAP1 PUSH1 0x4 ADD PUSH2 0x28CF JUMP JUMPDEST PUSH1 0x0 PUSH1 0x40 MLOAD DUP1 DUP4 SUB DUP2 PUSH1 0x0 DUP8 DUP1 EXTCODESIZE ISZERO DUP1 ISZERO PUSH2 0x1550 JUMPI PUSH1 0x0 DUP1 REVERT JUMPDEST POP GAS CALL ISZERO DUP1 ISZERO PUSH2 0x1564 JUMPI RETURNDATASIZE PUSH1 0x0 DUP1 RETURNDATACOPY RETURNDATASIZE PUSH1 0x0 REVERT JUMPDEST POP POP POP POP DUP1 DUP1 PUSH2 0x1573 SWAP1 PUSH2 0x2313 JUMP JUMPDEST SWAP2 POP POP PUSH2 0x1394 JUMP JUMPDEST POP POP POP POP POP POP JUMP JUMPDEST PUSH1 0x40 MLOAD PUSH4 0x70A08231 PUSH1 0xE0 SHL DUP2 MSTORE PUSH1 0x1 PUSH1 0x1 PUSH1 0xA0 SHL SUB DUP4 DUP2 AND PUSH1 0x4 DUP4 ADD MSTORE PUSH1 0x0 SWAP2 SWAP1 DUP4 AND SWAP1 PUSH4 0x70A08231 SWAP1 PUSH1 0x24 ADD PUSH1 0x20 PUSH1 0x40 MLOAD DUP1 DUP4 SUB DUP2 DUP7 GAS STATICCALL ISZERO DUP1 ISZERO PUSH2 0x15CD JUMPI RETURNDATASIZE PUSH1 0x0 DUP1 RETURNDATACOPY RETURNDATASIZE PUSH1 0x0 REVERT JUMPDEST POP POP POP POP PUSH1 0x40 MLOAD RETURNDATASIZE PUSH1 0x1F NOT PUSH1 0x1F DUP3 ADD AND DUP3 ADD DUP1 PUSH1 0x40 MSTORE POP DUP2 ADD SWAP1 PUSH2 0x15F1 SWAP2 SWAP1 PUSH2 0x2853 JUMP JUMPDEST SWAP1 POP PUSH1 0x0 DUP2 PUSH1 0x0 SUB PUSH2 0x1650 JUMPI PUSH1 0x40 MLOAD PUSH3 0x461BCD PUSH1 0xE5 SHL DUP2 MSTORE PUSH1 0x20 PUSH1 0x4 DUP3 ADD MSTORE PUSH1 0x22 PUSH1 0x24 DUP3 ADD MSTORE PUSH32 0x57696C6C65723A204E6F20455243323020746F6B656E7320746F2072656C6561 PUSH1 0x44 DUP3 ADD MSTORE PUSH2 0x7365 PUSH1 0xF0 SHL PUSH1 0x64 DUP3 ADD MSTORE PUSH1 0x84 ADD PUSH2 0x395 JUMP JUMPDEST PUSH1 0x40 MLOAD PUSH4 0x6EB1769F PUSH1 0xE1 SHL DUP2 MSTORE PUSH1 0x1 PUSH1 0x1 PUSH1 0xA0 SHL SUB DUP6 DUP2 AND PUSH1 0x4 DUP4 ADD MSTORE ADDRESS PUSH1 0x24 DUP4 ADD MSTORE PUSH1 0x0 SWAP2 SWAP1 DUP6 AND SWAP1 PUSH4 0xDD62ED3E SWAP1 PUSH1 0x44 ADD PUSH1 0x20 PUSH1 0x40 MLOAD DUP1 DUP4 SUB DUP2 DUP7 GAS STATICCALL ISZERO DUP1 ISZERO PUSH2 0x16A0 JUMPI RETURNDATASIZE PUSH1 0x0 DUP1 RETURNDATACOPY RETURNDATASIZE PUSH1 0x0 REVERT JUMPDEST POP POP POP POP PUSH1 0x40 MLOAD RETURNDATASIZE PUSH1 0x1F NOT PUSH1 0x1F DUP3 ADD AND DUP3 ADD DUP1 PUSH1 0x40 MSTORE POP DUP2 ADD SWAP1 PUSH2 0x16C4 SWAP2 SWAP1 PUSH2 0x2853 JUMP JUMPDEST SWAP1 POP DUP1 PUSH1 0x0 SUB PUSH2 0x1716 JUMPI PUSH1 0x40 MLOAD PUSH3 0x461BCD PUSH1 0xE5 SHL DUP2 MSTORE PUSH1 0x20 PUSH1 0x4 DUP3 ADD MSTORE PUSH1 0x1C PUSH1 0x24 DUP3 ADD MSTORE PUSH32 0x57696C6C65723A204552433230207A65726F20616C6C6F77616E636500000000 PUSH1 0x44 DUP3 ADD MSTORE PUSH1 0x64 ADD PUSH2 0x395 JUMP JUMPDEST DUP3 DUP2 LT ISZERO PUSH2 0x1722 JUMPI DUP1 SWAP3 POP JUMPDEST PUSH1 0x0 JUMPDEST PUSH1 0x1 PUSH1 0x1 PUSH1 0xA0 SHL SUB DUP7 AND PUSH1 0x0 SWAP1 DUP2 MSTORE PUSH1 0x3 PUSH1 0x20 MSTORE PUSH1 0x40 SWAP1 KECCAK256 SLOAD DUP2 LT ISZERO PUSH2 0x157B JUMPI PUSH1 0x1 PUSH1 0x1 PUSH1 0xA0 SHL SUB DUP7 AND PUSH1 0x0 SWAP1 DUP2 MSTORE PUSH1 0x3 PUSH1 0x20 MSTORE PUSH1 0x40 SWAP1 KECCAK256 PUSH1 0x4 ADD DUP1 SLOAD PUSH2 0x17A7 SWAP2 SWAP1 DUP4 SWAP1 DUP2 LT PUSH2 0x1777 JUMPI PUSH2 0x1777 PUSH2 0x22E7 JUMP JUMPDEST PUSH1 0x0 SWAP2 DUP3 MSTORE PUSH1 0x20 DUP1 DUP4 KECCAK256 SWAP1 SWAP2 ADD SLOAD PUSH1 0x1 PUSH1 0x1 PUSH1 0xA0 SHL SUB DUP11 AND DUP4 MSTORE PUSH1 0x3 SWAP1 SWAP2 MSTORE PUSH1 0x40 SWAP1 SWAP2 KECCAK256 PUSH1 0x1 ADD SLOAD DUP7 SWAP2 SWAP1 PUSH2 0x19F4 JUMP JUMPDEST PUSH1 0x1 PUSH1 0x1 PUSH1 0xA0 SHL SUB DUP8 AND PUSH1 0x0 SWAP1 DUP2 MSTORE PUSH1 0x3 PUSH1 0x20 MSTORE PUSH1 0x40 SWAP1 KECCAK256 SLOAD SWAP1 SWAP4 POP PUSH2 0x17CF SWAP1 PUSH1 0x1 SWAP1 PUSH2 0x286C JUMP JUMPDEST DUP2 SUB PUSH2 0x1842 JUMPI PUSH1 0x40 MLOAD PUSH4 0x70A08231 PUSH1 0xE0 SHL DUP2 MSTORE PUSH1 0x1 PUSH1 0x1 PUSH1 0xA0 SHL SUB DUP8 DUP2 AND PUSH1 0x4 DUP4 ADD MSTORE DUP7 AND SWAP1 PUSH4 0x70A08231 SWAP1 PUSH1 0x24 ADD PUSH1 0x20 PUSH1 0x40 MLOAD DUP1 DUP4 SUB DUP2 DUP7 GAS STATICCALL ISZERO DUP1 ISZERO PUSH2 0x181B JUMPI RETURNDATASIZE PUSH1 0x0 DUP1 RETURNDATACOPY RETURNDATASIZE PUSH1 0x0 REVERT JUMPDEST POP POP POP POP PUSH1 0x40 MLOAD RETURNDATASIZE PUSH1 0x1F NOT PUSH1 0x1F DUP3 ADD AND DUP3 ADD DUP1 PUSH1 0x40 MSTORE POP DUP2 ADD SWAP1 PUSH2 0x183F SWAP2 SWAP1 PUSH2 0x2853 JUMP JUMPDEST SWAP3 POP JUMPDEST PUSH1 0x1 PUSH1 0x1 PUSH1 0xA0 SHL SUB DUP7 AND PUSH1 0x0 SWAP1 DUP2 MSTORE PUSH1 0x3 PUSH1 0x20 MSTORE PUSH1 0x40 SWAP1 KECCAK256 DUP1 SLOAD PUSH2 0x1892 SWAP2 DUP9 SWAP2 DUP5 SWAP1 DUP2 LT PUSH2 0x1872 JUMPI PUSH2 0x1872 PUSH2 0x22E7 JUMP JUMPDEST PUSH1 0x0 SWAP2 DUP3 MSTORE PUSH1 0x20 SWAP1 SWAP2 KECCAK256 ADD SLOAD PUSH1 0x1 PUSH1 0x1 PUSH1 0xA0 SHL SUB DUP9 DUP2 AND SWAP3 SWAP2 AND DUP7 PUSH2 0x1AA9 JUMP JUMPDEST PUSH1 0x1 PUSH1 0x1 PUSH1 0xA0 SHL SUB DUP7 AND PUSH1 0x0 SWAP1 DUP2 MSTORE PUSH1 0x3 PUSH1 0x20 MSTORE PUSH1 0x40 SWAP1 KECCAK256 DUP1 SLOAD DUP3 SWAP1 DUP2 LT PUSH2 0x18BC JUMPI PUSH2 0x18BC PUSH2 0x22E7 JUMP JUMPDEST PUSH1 0x0 SWAP2 DUP3 MSTORE PUSH1 0x20 SWAP2 DUP3 SWAP1 KECCAK256 ADD SLOAD PUSH1 0x40 DUP1 MLOAD PUSH1 0x1 PUSH1 0x1 PUSH1 0xA0 SHL SUB DUP10 DUP2 AND DUP3 MSTORE SWAP4 DUP2 ADD DUP8 SWAP1 MSTORE SWAP2 DUP4 AND SWAP3 DUP10 AND SWAP2 PUSH32 0x983F91660C1530BA4A9669E7220C1CC0874CDF3FA92C582BCCC7CC2CB9B9323B SWAP2 ADD PUSH1 0x40 MLOAD DUP1 SWAP2 SUB SWAP1 LOG3 DUP1 PUSH2 0x191C DUP2 PUSH2 0x2313 JUMP JUMPDEST SWAP2 POP POP PUSH2 0x1725 JUMP JUMPDEST PUSH1 0x0 JUMPDEST DUP2 DUP2 LT ISZERO PUSH2 0x19ED JUMPI PUSH1 0x1 PUSH1 0x1 PUSH1 0xA0 SHL SUB DUP6 DUP2 AND PUSH1 0x0 SWAP1 DUP2 MSTORE PUSH1 0x3 PUSH1 0x20 MSTORE PUSH1 0x40 SWAP1 KECCAK256 PUSH1 0x2 ADD SLOAD DUP2 DUP7 AND SWAP2 PUSH4 0x42842E0E SWAP2 DUP9 SWAP2 AND DUP7 DUP7 DUP7 DUP2 DUP2 LT PUSH2 0x196B JUMPI PUSH2 0x196B PUSH2 0x22E7 JUMP JUMPDEST PUSH1 0x40 MLOAD PUSH1 0x1 PUSH1 0x1 PUSH1 0xE0 SHL SUB NOT PUSH1 0xE0 DUP9 SWAP1 SHL AND DUP2 MSTORE PUSH1 0x1 PUSH1 0x1 PUSH1 0xA0 SHL SUB SWAP6 DUP7 AND PUSH1 0x4 DUP3 ADD MSTORE SWAP5 SWAP1 SWAP4 AND PUSH1 0x24 DUP6 ADD MSTORE POP PUSH1 0x20 SWAP1 SWAP2 MUL ADD CALLDATALOAD PUSH1 0x44 DUP3 ADD MSTORE PUSH1 0x64 ADD PUSH1 0x0 PUSH1 0x40 MLOAD DUP1 DUP4 SUB DUP2 PUSH1 0x0 DUP8 DUP1 EXTCODESIZE ISZERO DUP1 ISZERO PUSH2 0x19C2 JUMPI PUSH1 0x0 DUP1 REVERT JUMPDEST POP GAS CALL ISZERO DUP1 ISZERO PUSH2 0x19D6 JUMPI RETURNDATASIZE PUSH1 0x0 DUP1 RETURNDATACOPY RETURNDATASIZE PUSH1 0x0 REVERT JUMPDEST POP POP POP POP DUP1 DUP1 PUSH2 0x19E5 SWAP1 PUSH2 0x2313 JUMP JUMPDEST SWAP2 POP POP PUSH2 0x1927 JUMP JUMPDEST POP POP POP POP POP JUMP JUMPDEST PUSH1 0x0 DUP1 DUP1 PUSH1 0x0 NOT DUP6 DUP8 MULMOD DUP6 DUP8 MUL SWAP3 POP DUP3 DUP2 LT DUP4 DUP3 SUB SUB SWAP2 POP POP DUP1 PUSH1 0x0 SUB PUSH2 0x1A2E JUMPI DUP4 DUP3 DUP2 PUSH2 0x1A24 JUMPI PUSH2 0x1A24 PUSH2 0x2909 JUMP JUMPDEST DIV SWAP3 POP POP POP PUSH2 0x1AA2 JUMP JUMPDEST DUP1 DUP5 GT PUSH2 0x1A3A JUMPI PUSH1 0x0 DUP1 REVERT JUMPDEST PUSH1 0x0 DUP5 DUP7 DUP9 MULMOD DUP6 NOT PUSH1 0x1 SWAP1 DUP2 ADD DUP8 AND SWAP7 DUP8 SWAP1 DIV SWAP7 DUP3 DUP7 SUB DUP2 SWAP1 DIV SWAP6 SWAP1 SWAP3 GT SWAP1 SWAP4 SUB PUSH1 0x0 DUP3 SWAP1 SUB SWAP2 SWAP1 SWAP2 DIV SWAP1 SWAP3 ADD SWAP2 SWAP1 SWAP2 MUL SWAP2 SWAP1 SWAP2 OR PUSH1 0x3 DUP5 MUL PUSH1 0x2 SWAP1 DUP2 XOR DUP1 DUP7 MUL DUP3 SUB MUL DUP1 DUP7 MUL DUP3 SUB MUL DUP1 DUP7 MUL DUP3 SUB MUL DUP1 DUP7 MUL DUP3 SUB MUL DUP1 DUP7 MUL DUP3 SUB MUL DUP1 DUP7 MUL SWAP1 SWAP2 SUB MUL MUL SWAP2 POP POP JUMPDEST SWAP4 SWAP3 POP POP POP JUMP JUMPDEST PUSH1 0x40 DUP1 MLOAD PUSH1 0x1 PUSH1 0x1 PUSH1 0xA0 SHL SUB DUP6 DUP2 AND PUSH1 0x24 DUP4 ADD MSTORE DUP5 AND PUSH1 0x44 DUP3 ADD MSTORE PUSH1 0x64 DUP1 DUP3 ADD DUP5 SWAP1 MSTORE DUP3 MLOAD DUP1 DUP4 SUB SWAP1 SWAP2 ADD DUP2 MSTORE PUSH1 0x84 SWAP1 SWAP2 ADD SWAP1 SWAP2 MSTORE PUSH1 0x20 DUP2 ADD DUP1 MLOAD PUSH1 0x1 PUSH1 0x1 PUSH1 0xE0 SHL SUB AND PUSH4 0x23B872DD PUSH1 0xE0 SHL OR SWAP1 MSTORE PUSH2 0x1B03 SWAP1 DUP6 SWAP1 PUSH2 0x1B09 JUMP JUMPDEST POP POP POP POP JUMP JUMPDEST PUSH1 0x0 PUSH2 0x1B5E DUP3 PUSH1 0x40 MLOAD DUP1 PUSH1 0x40 ADD PUSH1 0x40 MSTORE DUP1 PUSH1 0x20 DUP2 MSTORE PUSH1 0x20 ADD PUSH32 0x5361666545524332303A206C6F772D6C6576656C2063616C6C206661696C6564 DUP2 MSTORE POP DUP6 PUSH1 0x1 PUSH1 0x1 PUSH1 0xA0 SHL SUB AND PUSH2 0x1BE0 SWAP1 SWAP3 SWAP2 SWAP1 PUSH4 0xFFFFFFFF AND JUMP JUMPDEST DUP1 MLOAD SWAP1 SWAP2 POP ISZERO PUSH2 0x1BDB JUMPI DUP1 DUP1 PUSH1 0x20 ADD SWAP1 MLOAD DUP2 ADD SWAP1 PUSH2 0x1B7C SWAP2 SWAP1 PUSH2 0x291F JUMP JUMPDEST PUSH2 0x1BDB JUMPI PUSH1 0x40 MLOAD PUSH3 0x461BCD PUSH1 0xE5 SHL DUP2 MSTORE PUSH1 0x20 PUSH1 0x4 DUP3 ADD MSTORE PUSH1 0x2A PUSH1 0x24 DUP3 ADD MSTORE PUSH32 0x5361666545524332303A204552433230206F7065726174696F6E20646964206E PUSH1 0x44 DUP3 ADD MSTORE PUSH10 0x1BDD081CDD58D8D95959 PUSH1 0xB2 SHL PUSH1 0x64 DUP3 ADD MSTORE PUSH1 0x84 ADD PUSH2 0x395 JUMP JUMPDEST POP POP POP JUMP JUMPDEST PUSH1 0x60 PUSH2 0x1BEF DUP5 DUP5 PUSH1 0x0 DUP6 PUSH2 0x1BF7 JUMP JUMPDEST SWAP5 SWAP4 POP POP POP POP JUMP JUMPDEST PUSH1 0x60 DUP3 SELFBALANCE LT ISZERO PUSH2 0x1C58 JUMPI PUSH1 0x40 MLOAD PUSH3 0x461BCD PUSH1 0xE5 SHL DUP2 MSTORE PUSH1 0x20 PUSH1 0x4 DUP3 ADD MSTORE PUSH1 0x26 PUSH1 0x24 DUP3 ADD MSTORE PUSH32 0x416464726573733A20696E73756666696369656E742062616C616E636520666F PUSH1 0x44 DUP3 ADD MSTORE PUSH6 0x1C8818D85B1B PUSH1 0xD2 SHL PUSH1 0x64 DUP3 ADD MSTORE PUSH1 0x84 ADD PUSH2 0x395 JUMP JUMPDEST PUSH1 0x0 DUP1 DUP7 PUSH1 0x1 PUSH1 0x1 PUSH1 0xA0 SHL SUB AND DUP6 DUP8 PUSH1 0x40 MLOAD PUSH2 0x1C74 SWAP2 SWAP1 PUSH2 0x2941 JUMP JUMPDEST PUSH1 0x0 PUSH1 0x40 MLOAD DUP1 DUP4 SUB DUP2 DUP6 DUP8 GAS CALL SWAP3 POP POP POP RETURNDATASIZE DUP1 PUSH1 0x0 DUP2 EQ PUSH2 0x1CB1 JUMPI PUSH1 0x40 MLOAD SWAP2 POP PUSH1 0x1F NOT PUSH1 0x3F RETURNDATASIZE ADD AND DUP3 ADD PUSH1 0x40 MSTORE RETURNDATASIZE DUP3 MSTORE RETURNDATASIZE PUSH1 0x0 PUSH1 0x20 DUP5 ADD RETURNDATACOPY PUSH2 0x1CB6 JUMP JUMPDEST PUSH1 0x60 SWAP2 POP JUMPDEST POP SWAP2 POP SWAP2 POP PUSH2 0x1CC7 DUP8 DUP4 DUP4 DUP8 PUSH2 0x1CD2 JUMP JUMPDEST SWAP8 SWAP7 POP POP POP POP POP POP POP JUMP JUMPDEST PUSH1 0x60 DUP4 ISZERO PUSH2 0x1D41 JUMPI DUP3 MLOAD PUSH1 0x0 SUB PUSH2 0x1D3A JUMPI PUSH1 0x1 PUSH1 0x1 PUSH1 0xA0 SHL SUB DUP6 AND EXTCODESIZE PUSH2 0x1D3A JUMPI PUSH1 0x40 MLOAD PUSH3 0x461BCD PUSH1 0xE5 SHL DUP2 MSTORE PUSH1 0x20 PUSH1 0x4 DUP3 ADD MSTORE PUSH1 0x1D PUSH1 0x24 DUP3 ADD MSTORE PUSH32 0x416464726573733A2063616C6C20746F206E6F6E2D636F6E7472616374000000 PUSH1 0x44 DUP3 ADD MSTORE PUSH1 0x64 ADD PUSH2 0x395 JUMP JUMPDEST POP DUP2 PUSH2 0x1BEF JUMP JUMPDEST PUSH2 0x1BEF DUP4 DUP4 DUP2 MLOAD ISZERO PUSH2 0x1D56 JUMPI DUP2 MLOAD DUP1 DUP4 PUSH1 0x20 ADD REVERT JUMPDEST DUP1 PUSH1 0x40 MLOAD PUSH3 0x461BCD PUSH1 0xE5 SHL DUP2 MSTORE PUSH1 0x4 ADD PUSH2 0x395 SWAP2 SWAP1 PUSH2 0x295D JUMP JUMPDEST DUP3 DUP1 SLOAD DUP3 DUP3 SSTORE SWAP1 PUSH1 0x0 MSTORE PUSH1 0x20 PUSH1 0x0 KECCAK256 SWAP1 DUP2 ADD SWAP3 DUP3 ISZERO PUSH2 0x1DC3 JUMPI SWAP2 PUSH1 0x20 MUL DUP3 ADD JUMPDEST DUP3 DUP2 GT ISZERO PUSH2 0x1DC3 JUMPI DUP2 SLOAD PUSH1 0x1 PUSH1 0x1 PUSH1 0xA0 SHL SUB NOT AND PUSH1 0x1 PUSH1 0x1 PUSH1 0xA0 SHL SUB DUP5 CALLDATALOAD AND OR DUP3 SSTORE PUSH1 0x20 SWAP1 SWAP3 ADD SWAP2 PUSH1 0x1 SWAP1 SWAP2 ADD SWAP1 PUSH2 0x1D90 JUMP JUMPDEST POP PUSH2 0x1DCF SWAP3 SWAP2 POP PUSH2 0x1E0E JUMP JUMPDEST POP SWAP1 JUMP JUMPDEST DUP3 DUP1 SLOAD DUP3 DUP3 SSTORE SWAP1 PUSH1 0x0 MSTORE PUSH1 0x20 PUSH1 0x0 KECCAK256 SWAP1 DUP2 ADD SWAP3 DUP3 ISZERO PUSH2 0x1DC3 JUMPI SWAP2 PUSH1 0x20 MUL DUP3 ADD JUMPDEST DUP3 DUP2 GT ISZERO PUSH2 0x1DC3 JUMPI DUP3 CALLDATALOAD DUP3 SSTORE SWAP2 PUSH1 0x20 ADD SWAP2 SWAP1 PUSH1 0x1 ADD SWAP1 PUSH2 0x1DF3 JUMP JUMPDEST JUMPDEST DUP1 DUP3 GT ISZERO PUSH2 0x1DCF JUMPI PUSH1 0x0 DUP2 SSTORE PUSH1 0x1 ADD PUSH2 0x1E0F JUMP JUMPDEST PUSH1 0x1 PUSH1 0x1 PUSH1 0xA0 SHL SUB DUP2 AND DUP2 EQ PUSH2 0x1E38 JUMPI PUSH1 0x0 DUP1 REVERT JUMPDEST POP JUMP JUMPDEST DUP1 CALLDATALOAD PUSH2 0x1E46 DUP2 PUSH2 0x1E23 JUMP JUMPDEST SWAP2 SWAP1 POP JUMP JUMPDEST PUSH1 0x0 PUSH1 0x20 DUP3 DUP5 SUB SLT ISZERO PUSH2 0x1E5D JUMPI PUSH1 0x0 DUP1 REVERT JUMPDEST DUP2 CALLDATALOAD PUSH2 0x1AA2 DUP2 PUSH2 0x1E23 JUMP JUMPDEST PUSH1 0x20 DUP1 DUP3 MSTORE DUP3 MLOAD DUP3 DUP3 ADD DUP2 SWAP1 MSTORE PUSH1 0x0 SWAP2 SWAP1 DUP5 DUP3 ADD SWAP1 PUSH1 0x40 DUP6 ADD SWAP1 DUP5 JUMPDEST DUP2 DUP2 LT ISZERO PUSH2 0x1EA9 JUMPI DUP4 MLOAD PUSH1 0x1 PUSH1 0x1 PUSH1 0xA0 SHL SUB AND DUP4 MSTORE SWAP3 DUP5 ADD SWAP3 SWAP2 DUP5 ADD SWAP2 PUSH1 0x1 ADD PUSH2 0x1E84 JUMP JUMPDEST POP SWAP1 SWAP7 SWAP6 POP POP POP POP POP POP JUMP JUMPDEST PUSH1 0x0 DUP1 DUP4 PUSH1 0x1F DUP5 ADD SLT PUSH2 0x1EC7 JUMPI PUSH1 0x0 DUP1 REVERT JUMPDEST POP DUP2 CALLDATALOAD PUSH8 0xFFFFFFFFFFFFFFFF DUP2 GT ISZERO PUSH2 0x1EDF JUMPI PUSH1 0x0 DUP1 REVERT JUMPDEST PUSH1 0x20 DUP4 ADD SWAP2 POP DUP4 PUSH1 0x20 DUP3 PUSH1 0x5 SHL DUP6 ADD ADD GT ISZERO PUSH2 0x1EFA JUMPI PUSH1 0x0 DUP1 REVERT JUMPDEST SWAP3 POP SWAP3 SWAP1 POP JUMP JUMPDEST PUSH1 0x0 DUP1 PUSH1 0x0 DUP1 PUSH1 0x60 DUP6 DUP8 SUB SLT ISZERO PUSH2 0x1F17 JUMPI PUSH1 0x0 DUP1 REVERT JUMPDEST DUP5 CALLDATALOAD PUSH2 0x1F22 DUP2 PUSH2 0x1E23 JUMP JUMPDEST SWAP4 POP PUSH1 0x20 DUP6 ADD CALLDATALOAD PUSH2 0x1F32 DUP2 PUSH2 0x1E23 JUMP JUMPDEST SWAP3 POP PUSH1 0x40 DUP6 ADD CALLDATALOAD PUSH8 0xFFFFFFFFFFFFFFFF DUP2 GT ISZERO PUSH2 0x1F4E JUMPI PUSH1 0x0 DUP1 REVERT JUMPDEST PUSH2 0x1F5A DUP8 DUP3 DUP9 ADD PUSH2 0x1EB5 JUMP JUMPDEST SWAP6 SWAP9 SWAP5 SWAP8 POP SWAP6 POP POP POP POP JUMP JUMPDEST PUSH1 0x0 DUP1 PUSH1 0x0 DUP1 PUSH1 0x0 DUP1 PUSH1 0x80 DUP8 DUP10 SUB SLT ISZERO PUSH2 0x1F7F JUMPI PUSH1 0x0 DUP1 REVERT JUMPDEST DUP7 CALLDATALOAD PUSH8 0xFFFFFFFFFFFFFFFF DUP1 DUP3 GT ISZERO PUSH2 0x1F97 JUMPI PUSH1 0x0 DUP1 REVERT JUMPDEST PUSH2 0x1FA3 DUP11 DUP4 DUP12 ADD PUSH2 0x1EB5 JUMP JUMPDEST SWAP1 SWAP9 POP SWAP7 POP PUSH1 0x20 DUP10 ADD CALLDATALOAD SWAP2 POP DUP1 DUP3 GT ISZERO PUSH2 0x1FBC JUMPI PUSH1 0x0 DUP1 REVERT JUMPDEST POP PUSH2 0x1FC9 DUP10 DUP3 DUP11 ADD PUSH2 0x1EB5 JUMP JUMPDEST SWAP1 SWAP6 POP SWAP4 POP POP PUSH1 0x40 DUP8 ADD CALLDATALOAD PUSH2 0x1FDD DUP2 PUSH2 0x1E23 JUMP JUMPDEST DUP1 SWAP3 POP POP PUSH1 0x60 DUP8 ADD CALLDATALOAD SWAP1 POP SWAP3 SWAP6 POP SWAP3 SWAP6 POP SWAP3 SWAP6 JUMP JUMPDEST PUSH1 0x0 DUP1 PUSH1 0x0 PUSH1 0x40 DUP5 DUP7 SUB SLT ISZERO PUSH2 0x2007 JUMPI PUSH1 0x0 DUP1 REVERT JUMPDEST DUP4 CALLDATALOAD PUSH2 0x2012 DUP2 PUSH2 0x1E23 JUMP JUMPDEST SWAP3 POP PUSH1 0x20 DUP5 ADD CALLDATALOAD PUSH8 0xFFFFFFFFFFFFFFFF DUP2 GT ISZERO PUSH2 0x202E JUMPI PUSH1 0x0 DUP1 REVERT JUMPDEST PUSH2 0x203A DUP7 DUP3 DUP8 ADD PUSH2 0x1EB5 JUMP JUMPDEST SWAP5 SWAP8 SWAP1 SWAP7 POP SWAP4 SWAP5 POP POP POP POP JUMP JUMPDEST PUSH1 0x0 DUP1 PUSH1 0x0 DUP1 PUSH1 0x40 DUP6 DUP8 SUB SLT ISZERO PUSH2 0x205D JUMPI PUSH1 0x0 DUP1 REVERT JUMPDEST DUP5 CALLDATALOAD PUSH8 0xFFFFFFFFFFFFFFFF DUP1 DUP3 GT ISZERO PUSH2 0x2075 JUMPI PUSH1 0x0 DUP1 REVERT JUMPDEST PUSH2 0x2081 DUP9 DUP4 DUP10 ADD PUSH2 0x1EB5 JUMP JUMPDEST SWAP1 SWAP7 POP SWAP5 POP PUSH1 0x20 DUP8 ADD CALLDATALOAD SWAP2 POP DUP1 DUP3 GT ISZERO PUSH2 0x209A JUMPI PUSH1 0x0 DUP1 REVERT JUMPDEST POP PUSH2 0x1F5A DUP8 DUP3 DUP9 ADD PUSH2 0x1EB5 JUMP JUMPDEST PUSH1 0x0 PUSH1 0x20 DUP3 DUP5 SUB SLT ISZERO PUSH2 0x20B9 JUMPI PUSH1 0x0 DUP1 REVERT JUMPDEST POP CALLDATALOAD SWAP2 SWAP1 POP JUMP JUMPDEST PUSH1 0x0 DUP1 PUSH1 0x0 DUP1 PUSH1 0x0 PUSH1 0x60 DUP7 DUP9 SUB SLT ISZERO PUSH2 0x20D8 JUMPI PUSH1 0x0 DUP1 REVERT JUMPDEST DUP6 CALLDATALOAD PUSH2 0x20E3 DUP2 PUSH2 0x1E23 JUMP JUMPDEST SWAP5 POP PUSH1 0x20 DUP7 ADD CALLDATALOAD PUSH8 0xFFFFFFFFFFFFFFFF DUP1 DUP3 GT ISZERO PUSH2 0x2100 JUMPI PUSH1 0x0 DUP1 REVERT JUMPDEST PUSH2 0x210C DUP10 DUP4 DUP11 ADD PUSH2 0x1EB5 JUMP JUMPDEST SWAP1 SWAP7 POP SWAP5 POP PUSH1 0x40 DUP9 ADD CALLDATALOAD SWAP2 POP DUP1 DUP3 GT ISZERO PUSH2 0x2125 JUMPI PUSH1 0x0 DUP1 REVERT JUMPDEST POP PUSH2 0x2132 DUP9 DUP3 DUP10 ADD PUSH2 0x1EB5 JUMP JUMPDEST SWAP7 SWAP10 SWAP6 SWAP9 POP SWAP4 SWAP7 POP SWAP3 SWAP5 SWAP4 SWAP3 POP POP POP JUMP JUMPDEST PUSH1 0x20 DUP1 DUP3 MSTORE DUP3 MLOAD DUP3 DUP3 ADD DUP2 SWAP1 MSTORE PUSH1 0x0 SWAP2 SWAP1 DUP5 DUP3 ADD SWAP1 PUSH1 0x40 DUP6 ADD SWAP1 DUP5 JUMPDEST DUP2 DUP2 LT ISZERO PUSH2 0x1EA9 JUMPI DUP4 MLOAD DUP4 MSTORE SWAP3 DUP5 ADD SWAP3 SWAP2 DUP5 ADD SWAP2 PUSH1 0x1 ADD PUSH2 0x215F JUMP JUMPDEST PUSH1 0x0 DUP1 PUSH1 0x0 DUP1 PUSH1 0x0 DUP1 PUSH1 0x0 DUP1 PUSH1 0x0 DUP1 PUSH1 0x0 PUSH1 0xC0 DUP13 DUP15 SUB SLT ISZERO PUSH2 0x219C JUMPI PUSH1 0x0 DUP1 REVERT JUMPDEST PUSH2 0x21A5 DUP13 PUSH2 0x1E3B JUMP JUMPDEST SWAP11 POP PUSH8 0xFFFFFFFFFFFFFFFF DUP1 PUSH1 0x20 DUP15 ADD CALLDATALOAD GT ISZERO PUSH2 0x21C1 JUMPI PUSH1 0x0 DUP1 REVERT JUMPDEST PUSH2 0x21D1 DUP15 PUSH1 0x20 DUP16 ADD CALLDATALOAD DUP16 ADD PUSH2 0x1EB5 JUMP JUMPDEST SWAP1 SWAP12 POP SWAP10 POP PUSH1 0x40 DUP14 ADD CALLDATALOAD DUP2 LT ISZERO PUSH2 0x21E7 JUMPI PUSH1 0x0 DUP1 REVERT JUMPDEST PUSH2 0x21F7 DUP15 PUSH1 0x40 DUP16 ADD CALLDATALOAD DUP16 ADD PUSH2 0x1EB5 JUMP JUMPDEST SWAP1 SWAP10 POP SWAP8 POP PUSH1 0x60 DUP14 ADD CALLDATALOAD DUP2 LT ISZERO PUSH2 0x220D JUMPI PUSH1 0x0 DUP1 REVERT JUMPDEST PUSH2 0x221D DUP15 PUSH1 0x60 DUP16 ADD CALLDATALOAD DUP16 ADD PUSH2 0x1EB5 JUMP JUMPDEST SWAP1 SWAP8 POP SWAP6 POP PUSH1 0x80 DUP14 ADD CALLDATALOAD DUP2 LT ISZERO PUSH2 0x2233 JUMPI PUSH1 0x0 DUP1 REVERT JUMPDEST PUSH2 0x2243 DUP15 PUSH1 0x80 DUP16 ADD CALLDATALOAD DUP16 ADD PUSH2 0x1EB5 JUMP JUMPDEST SWAP1 SWAP6 POP SWAP4 POP PUSH1 0xA0 DUP14 ADD CALLDATALOAD DUP2 LT ISZERO PUSH2 0x2259 JUMPI PUSH1 0x0 DUP1 REVERT JUMPDEST POP PUSH2 0x226A DUP14 PUSH1 0xA0 DUP15 ADD CALLDATALOAD DUP15 ADD PUSH2 0x1EB5 JUMP JUMPDEST DUP2 SWAP4 POP DUP1 SWAP3 POP POP POP SWAP3 SWAP6 SWAP9 SWAP12 POP SWAP3 SWAP6 SWAP9 SWAP12 SWAP1 SWAP4 SWAP7 SWAP10 POP JUMP JUMPDEST PUSH1 0x20 DUP1 DUP3 MSTORE PUSH1 0x1A SWAP1 DUP3 ADD MSTORE PUSH32 0x57696C6C65723A2077696C6C20646F65736E2774206578697374000000000000 PUSH1 0x40 DUP3 ADD MSTORE PUSH1 0x60 ADD SWAP1 JUMP JUMPDEST PUSH1 0x20 DUP1 DUP3 MSTORE PUSH1 0x14 SWAP1 DUP3 ADD MSTORE PUSH20 0x57696C6C65723A20756E72656C65617361626C65 PUSH1 0x60 SHL PUSH1 0x40 DUP3 ADD MSTORE PUSH1 0x60 ADD SWAP1 JUMP JUMPDEST PUSH4 0x4E487B71 PUSH1 0xE0 SHL PUSH1 0x0 MSTORE PUSH1 0x32 PUSH1 0x4 MSTORE PUSH1 0x24 PUSH1 0x0 REVERT JUMPDEST PUSH4 0x4E487B71 PUSH1 0xE0 SHL PUSH1 0x0 MSTORE PUSH1 0x11 PUSH1 0x4 MSTORE PUSH1 0x24 PUSH1 0x0 REVERT JUMPDEST PUSH1 0x0 PUSH1 0x1 DUP3 ADD PUSH2 0x2325 JUMPI PUSH2 0x2325 PUSH2 0x22FD JUMP JUMPDEST POP PUSH1 0x1 ADD SWAP1 JUMP JUMPDEST PUSH1 0x20 DUP1 DUP3 MSTORE PUSH1 0x23 SWAP1 DUP3 ADD MSTORE PUSH32 0x57696C6C65723A206578656375746F72206973206E6F742062656E6566696369 PUSH1 0x40 DUP3 ADD MSTORE PUSH3 0x617279 PUSH1 0xE8 SHL PUSH1 0x60 DUP3 ADD MSTORE PUSH1 0x80 ADD SWAP1 JUMP JUMPDEST PUSH1 0x20 DUP1 DUP3 MSTORE PUSH1 0x32 SWAP1 DUP3 ADD MSTORE PUSH32 0x57696C6C65723A2062656E656669636961726965735F20616E64207368617265 PUSH1 0x40 DUP3 ADD MSTORE PUSH18 0xE6BE40D8CADCCEE8D040DAD2E6DAC2E8C6D PUSH1 0x73 SHL PUSH1 0x60 DUP3 ADD MSTORE PUSH1 0x80 ADD SWAP1 JUMP JUMPDEST PUSH1 0x20 DUP1 DUP3 MSTORE PUSH1 0x27 SWAP1 DUP3 ADD MSTORE PUSH32 0x57696C6C65723A2030783020206973206E6F7420612076616C69642062656E65 PUSH1 0x40 DUP3 ADD MSTORE PUSH7 0x66696369617279 PUSH1 0xC8 SHL PUSH1 0x60 DUP3 ADD MSTORE PUSH1 0x80 ADD SWAP1 JUMP JUMPDEST PUSH1 0x20 DUP1 DUP3 MSTORE PUSH1 0x2B SWAP1 DUP3 ADD MSTORE PUSH32 0x57696C6C65723A207465737461746F72206973206E6F7420612076616C696420 PUSH1 0x40 DUP3 ADD MSTORE PUSH11 0x62656E6566696369617279 PUSH1 0xA8 SHL PUSH1 0x60 DUP3 ADD MSTORE PUSH1 0x80 ADD SWAP1 JUMP JUMPDEST PUSH1 0x20 DUP1 DUP3 MSTORE PUSH1 0x2C SWAP1 DUP3 ADD MSTORE PUSH32 0x57696C6C65723A2073686172652063616E277420626520677265617465722074 PUSH1 0x40 DUP3 ADD MSTORE PUSH12 0x68616E204D41585348415245 PUSH1 0xA0 SHL PUSH1 0x60 DUP3 ADD MSTORE PUSH1 0x80 ADD SWAP1 JUMP JUMPDEST DUP1 DUP3 ADD DUP1 DUP3 GT ISZERO PUSH2 0x24B2 JUMPI PUSH2 0x24B2 PUSH2 0x22FD JUMP JUMPDEST SWAP3 SWAP2 POP POP JUMP JUMPDEST PUSH1 0x20 DUP1 DUP3 MSTORE PUSH1 0x21 SWAP1 DUP3 ADD MSTORE PUSH32 0x57696C6C65723A20496E76616C69642072656C656173652074696D657374616D PUSH1 0x40 DUP3 ADD MSTORE PUSH1 0x7 PUSH1 0xFC SHL PUSH1 0x60 DUP3 ADD MSTORE PUSH1 0x80 ADD SWAP1 JUMP JUMPDEST PUSH1 0x20 DUP1 DUP3 MSTORE PUSH1 0x38 SWAP1 DUP3 ADD MSTORE PUSH32 0x57696C6C65723A207A65726F206164647265737320206973206E6F7420612076 PUSH1 0x40 DUP3 ADD MSTORE PUSH32 0x616C69642062656E65666963696172794F664552433732310000000000000000 PUSH1 0x60 DUP3 ADD MSTORE PUSH1 0x80 ADD SWAP1 JUMP JUMPDEST PUSH1 0x0 PUSH1 0x60 DUP3 ADD PUSH1 0x60 DUP4 MSTORE DUP1 DUP7 SLOAD DUP1 DUP4 MSTORE PUSH1 0x80 DUP6 ADD SWAP2 POP PUSH1 0x0 SWAP3 POP DUP8 DUP4 MSTORE PUSH1 0x20 DUP1 DUP5 KECCAK256 DUP5 JUMPDEST DUP4 DUP2 LT ISZERO PUSH2 0x259F JUMPI DUP2 SLOAD PUSH1 0x1 PUSH1 0x1 PUSH1 0xA0 SHL SUB AND DUP6 MSTORE SWAP4 DUP3 ADD SWAP4 PUSH1 0x1 SWAP2 DUP3 ADD SWAP2 ADD PUSH2 0x257A JUMP JUMPDEST POP POP DUP6 DUP4 SUB DUP2 DUP8 ADD MSTORE DUP8 SLOAD DUP1 DUP5 MSTORE DUP9 DUP6 MSTORE DUP2 DUP6 KECCAK256 SWAP4 DUP3 ADD SWAP3 POP JUMPDEST DUP1 DUP6 LT ISZERO PUSH2 0x25D8 JUMPI DUP4 SLOAD DUP4 MSTORE PUSH1 0x1 SWAP5 DUP6 ADD SWAP5 SWAP1 SWAP4 ADD SWAP3 SWAP2 DUP2 ADD SWAP2 PUSH2 0x25B9 JUMP JUMPDEST POP POP DUP1 SWAP4 POP POP POP POP DUP3 PUSH1 0x40 DUP4 ADD MSTORE SWAP5 SWAP4 POP POP POP POP JUMP JUMPDEST DUP2 DUP4 MSTORE PUSH1 0x0 PUSH1 0x1 PUSH1 0x1 PUSH1 0xFB SHL SUB DUP4 GT ISZERO PUSH2 0x2607 JUMPI PUSH1 0x0 DUP1 REVERT JUMPDEST DUP3 PUSH1 0x5 SHL DUP1 DUP4 PUSH1 0x20 DUP8 ADD CALLDATACOPY SWAP4 SWAP1 SWAP4 ADD PUSH1 0x20 ADD SWAP4 SWAP3 POP POP POP JUMP JUMPDEST PUSH1 0x40 DUP1 DUP3 MSTORE DUP2 ADD DUP5 SWAP1 MSTORE PUSH1 0x0 DUP6 PUSH1 0x60 DUP4 ADD DUP3 JUMPDEST DUP8 DUP2 LT ISZERO PUSH2 0x2663 JUMPI DUP3 CALLDATALOAD PUSH2 0x2646 DUP2 PUSH2 0x1E23 JUMP JUMPDEST PUSH1 0x1 PUSH1 0x1 PUSH1 0xA0 SHL SUB AND DUP3 MSTORE PUSH1 0x20 SWAP3 DUP4 ADD SWAP3 SWAP1 SWAP2 ADD SWAP1 PUSH1 0x1 ADD PUSH2 0x2633 JUMP JUMPDEST POP DUP4 DUP2 SUB PUSH1 0x20 DUP6 ADD MSTORE PUSH2 0x2677 DUP2 DUP7 DUP9 PUSH2 0x25EE JUMP JUMPDEST SWAP9 SWAP8 POP POP POP POP POP POP POP POP JUMP JUMPDEST PUSH1 0x0 DUP1 DUP4 CALLDATALOAD PUSH1 0x1E NOT DUP5 CALLDATASIZE SUB ADD DUP2 SLT PUSH2 0x269A JUMPI PUSH1 0x0 DUP1 REVERT JUMPDEST DUP4 ADD DUP1 CALLDATALOAD SWAP2 POP PUSH8 0xFFFFFFFFFFFFFFFF DUP3 GT ISZERO PUSH2 0x26B5 JUMPI PUSH1 0x0 DUP1 REVERT JUMPDEST PUSH1 0x20 ADD SWAP2 POP PUSH1 0x5 DUP2 SWAP1 SHL CALLDATASIZE SUB DUP3 SGT ISZERO PUSH2 0x1EFA JUMPI PUSH1 0x0 DUP1 REVERT JUMPDEST PUSH1 0x1 PUSH1 0x1 PUSH1 0xA0 SHL SUB DUP5 DUP2 AND DUP3 MSTORE PUSH1 0x40 PUSH1 0x20 DUP1 DUP5 ADD DUP3 SWAP1 MSTORE SWAP1 DUP4 ADD DUP5 SWAP1 MSTORE PUSH1 0x0 SWAP2 DUP6 SWAP2 PUSH1 0x60 DUP6 ADD DUP5 JUMPDEST DUP8 DUP2 LT ISZERO PUSH2 0x271C JUMPI DUP5 CALLDATALOAD PUSH2 0x2708 DUP2 PUSH2 0x1E23 JUMP JUMPDEST DUP5 AND DUP3 MSTORE SWAP4 DUP3 ADD SWAP4 SWAP1 DUP3 ADD SWAP1 PUSH1 0x1 ADD PUSH2 0x26F5 JUMP JUMPDEST POP SWAP9 SWAP8 POP POP POP POP POP POP POP POP JUMP JUMPDEST PUSH1 0x1 PUSH1 0x1 PUSH1 0xA0 SHL SUB DUP7 DUP2 AND DUP3 MSTORE PUSH1 0x60 PUSH1 0x20 DUP1 DUP5 ADD DUP3 SWAP1 MSTORE SWAP1 DUP4 ADD DUP7 SWAP1 MSTORE PUSH1 0x0 SWAP2 DUP8 SWAP2 PUSH1 0x80 DUP6 ADD DUP5 JUMPDEST DUP10 DUP2 LT ISZERO PUSH2 0x2778 JUMPI DUP5 CALLDATALOAD PUSH2 0x2764 DUP2 PUSH2 0x1E23 JUMP JUMPDEST DUP5 AND DUP3 MSTORE SWAP4 DUP3 ADD SWAP4 SWAP1 DUP3 ADD SWAP1 PUSH1 0x1 ADD PUSH2 0x2751 JUMP JUMPDEST POP DUP6 DUP2 SUB PUSH1 0x40 DUP8 ADD MSTORE DUP7 DUP2 MSTORE DUP2 DUP2 ADD SWAP4 POP PUSH1 0x5 SWAP3 POP DUP7 DUP4 SHL DUP2 ADD DUP3 ADD DUP9 PUSH1 0x0 JUMPDEST DUP10 DUP2 LT ISZERO PUSH2 0x280A JUMPI DUP4 DUP4 SUB PUSH1 0x1F NOT ADD DUP8 MSTORE DUP2 CALLDATALOAD CALLDATASIZE DUP13 SWAP1 SUB PUSH1 0x1E NOT ADD DUP2 SLT PUSH2 0x27BE JUMPI PUSH1 0x0 DUP1 REVERT JUMPDEST DUP12 ADD DUP6 DUP2 ADD SWAP1 CALLDATALOAD PUSH8 0xFFFFFFFFFFFFFFFF DUP2 GT ISZERO PUSH2 0x27DA JUMPI PUSH1 0x0 DUP1 REVERT JUMPDEST DUP1 DUP9 SHL CALLDATASIZE SUB DUP3 SGT ISZERO PUSH2 0x27EB JUMPI PUSH1 0x0 DUP1 REVERT JUMPDEST PUSH2 0x27F6 DUP6 DUP3 DUP5 PUSH2 0x25EE JUMP JUMPDEST SWAP9 DUP8 ADD SWAP9 SWAP5 POP POP POP SWAP1 DUP5 ADD SWAP1 PUSH1 0x1 ADD PUSH2 0x2798 JUMP JUMPDEST POP SWAP1 SWAP13 SWAP12 POP POP POP POP POP POP POP POP POP POP POP POP JUMP JUMPDEST PUSH1 0x1 PUSH1 0x1 PUSH1 0xA0 SHL SUB DUP6 DUP2 AND DUP3 MSTORE DUP5 AND PUSH1 0x20 DUP3 ADD MSTORE PUSH1 0x60 PUSH1 0x40 DUP3 ADD DUP2 SWAP1 MSTORE PUSH1 0x0 SWAP1 PUSH2 0x2849 SWAP1 DUP4 ADD DUP5 DUP7 PUSH2 0x25EE JUMP JUMPDEST SWAP7 SWAP6 POP POP POP POP POP POP JUMP JUMPDEST PUSH1 0x0 PUSH1 0x20 DUP3 DUP5 SUB SLT ISZERO PUSH2 0x2865 JUMPI PUSH1 0x0 DUP1 REVERT JUMPDEST POP MLOAD SWAP2 SWAP1 POP JUMP JUMPDEST DUP2 DUP2 SUB DUP2 DUP2 GT ISZERO PUSH2 0x24B2 JUMPI PUSH2 0x24B2 PUSH2 0x22FD JUMP JUMPDEST PUSH1 0x0 JUMPDEST DUP4 DUP2 LT ISZERO PUSH2 0x289A JUMPI DUP2 DUP2 ADD MLOAD DUP4 DUP3 ADD MSTORE PUSH1 0x20 ADD PUSH2 0x2882 JUMP JUMPDEST POP POP PUSH1 0x0 SWAP2 ADD MSTORE JUMP JUMPDEST PUSH1 0x0 DUP2 MLOAD DUP1 DUP5 MSTORE PUSH2 0x28BB DUP2 PUSH1 0x20 DUP7 ADD PUSH1 0x20 DUP7 ADD PUSH2 0x287F JUMP JUMPDEST PUSH1 0x1F ADD PUSH1 0x1F NOT AND SWAP3 SWAP1 SWAP3 ADD PUSH1 0x20 ADD SWAP3 SWAP2 POP POP JUMP JUMPDEST PUSH1 0x1 PUSH1 0x1 PUSH1 0xA0 SHL SUB DUP7 DUP2 AND DUP3 MSTORE DUP6 AND PUSH1 0x20 DUP3 ADD MSTORE PUSH1 0x40 DUP2 ADD DUP5 SWAP1 MSTORE PUSH1 0x60 DUP2 ADD DUP4 SWAP1 MSTORE PUSH1 0xA0 PUSH1 0x80 DUP3 ADD DUP2 SWAP1 MSTORE PUSH1 0x0 SWAP1 PUSH2 0x1CC7 SWAP1 DUP4 ADD DUP5 PUSH2 0x28A3 JUMP JUMPDEST PUSH4 0x4E487B71 PUSH1 0xE0 SHL PUSH1 0x0 MSTORE PUSH1 0x12 PUSH1 0x4 MSTORE PUSH1 0x24 PUSH1 0x0 REVERT JUMPDEST PUSH1 0x0 PUSH1 0x20 DUP3 DUP5 SUB SLT ISZERO PUSH2 0x2931 JUMPI PUSH1 0x0 DUP1 REVERT JUMPDEST DUP2 MLOAD DUP1 ISZERO ISZERO DUP2 EQ PUSH2 0x1AA2 JUMPI PUSH1 0x0 DUP1 REVERT JUMPDEST PUSH1 0x0 DUP3 MLOAD PUSH2 0x2953 DUP2 DUP5 PUSH1 0x20 DUP8 ADD PUSH2 0x287F JUMP JUMPDEST SWAP2 SWAP1 SWAP2 ADD SWAP3 SWAP2 POP POP JUMP JUMPDEST PUSH1 0x20 DUP2 MSTORE PUSH1 0x0 PUSH2 0x1AA2 PUSH1 0x20 DUP4 ADD DUP5 PUSH2 0x28A3 JUMP INVALID LOG2 PUSH5 0x6970667358 0x22 SLT KECCAK256 DUP5 SWAP9 0xF8 ISZERO MSTORE GT DUP6 0xE5 0x2E PUSH20 0xCB1A3DA1CA7740731C44BD39EEB7E0DBE25EF885 0xE PUSH22 0x64736F6C634300081300330000000000000000000000 ","sha1":"1b32901d9c0b129d3ba27fee7d3b24b951cd79a1","source":"// SPDX-License-Identifier: MIT\npragma solidity ^0.8.16;\n\nimport \"@openzeppelin/contracts/utils/math/Math.sol\";\nimport \"@openzeppelin/contracts/token/ERC20/utils/SafeERC20.sol\";\nimport \"@openzeppelin/contracts/token/ERC20/IERC20.sol\";\nimport \"@openzeppelin/contracts/token/ERC721/IERC721.sol\";\nimport \"@openzeppelin/contracts/token/ERC1155/IERC1155.sol\";\nimport \"@openzeppelin/contracts/access/Ownable.sol\";\nimport \"@openzeppelin/contracts/security/ReentrancyGuard.sol\";\n\n/**\n * @title Willer\n * @author DimaKush\n *\n */\ncontract Willer is ReentrancyGuard {\n    using Math for uint;\n    using SafeERC20 for IERC20;\n\n    struct Will {\n        address[] beneficiaries;\n        uint sumShares;\n        address beneficiaryOfERC721;\n        uint releaseTime;\n        uint[] shares;\n    }\n\n    uint BUFFER = 60;\n    uint MAXSHARE = 10;\n\n    mapping(address => Will) private testatorToWill;\n\n    // Event emitted when a new will is added\n    event WillAdded(\n        address indexed testator,\n        address[] beneficiaries,\n        uint[] shares,\n        address indexed beneficiaryOfERC721,\n        uint releaseTime\n    );\n\n    // Event emitted when beneficiaries are updated\n    event BeneficiariesUpdated(\n        address indexed testator,\n        address[] newBeneficiaries,\n        uint[] newShares\n    );\n\n    // Event emitted when the release time is updated\n    event ReleaseTimeUpdated(address indexed testator, uint newReleaseTime);\n\n    // Event emitted when the beneficiary of ERC721 token is updated\n    event BeneficiaryOfERC721Updated(\n        address indexed testator,\n        address newBeneficiaryOfERC721\n    );\n\n    // Event emitted when ERC20 tokens are released\n    event ERC20TokensReleased(\n        address indexed testator,\n        address indexed beneficiary,\n        address tokenERC20Address,\n        uint amount\n    );\n\n    // Event emitted when ERC721 tokens are released\n    event ERC721TokensReleased(\n        address indexed testator,\n        address indexed beneficiary,\n        address tokenERC721Address,\n        uint tokenId\n    );\n\n    // Event emitted when ERC1155 tokens are released\n    event ERC1155TokensReleased(\n        address indexed testator,\n        address indexed beneficiary,\n        address tokenERC1155Address,\n        uint tokenId,\n        uint amount\n    );\n\n    modifier releasable(address _testator) {\n        require(\n            block.timestamp >= testatorToWill[_testator].releaseTime,\n            \"Willer: unreleasable\"\n        );\n        require(block.timestamp != 0);\n        _;\n    }\n\n    modifier validReleaseTime(uint releaseTimestamp_) {\n        require(\n            releaseTimestamp_ >= block.timestamp + BUFFER,\n            \"Willer: Invalid release timestamp\"\n        );\n        _;\n    }\n\n    modifier validBeneficiaryOfERC721(address beneficiaryOfERC721_) {\n        require(\n            beneficiaryOfERC721_ != address(0),\n            \"Willer: zero address  is not a valid beneficiaryOfERC721\"\n        );\n        _;\n    }\n\n    modifier validBeneficiariesAndShares(\n        address[] calldata beneficiaries_,\n        uint[] calldata shares_,\n        address testator_\n    ) {\n        require(\n            beneficiaries_.length == shares_.length,\n            \"Willer: beneficiaries_ and shares_ length mismatch\"\n        );\n\n        for (uint i; i < beneficiaries_.length; i++) {\n            require(\n                beneficiaries_[i] != address(0),\n                \"Willer: 0x0  is not a valid beneficiary\"\n            );\n            require(\n                beneficiaries_[i] != testator_,\n                \"Willer: testator is not a valid beneficiary\"\n            );\n            require(\n                shares_[i] <= MAXSHARE,\n                \"Willer: share can't be greater than MAXSHARE\"\n            );\n            require(shares_[i] > 0, \"Willer: share can't be 0\");\n        }\n        _;\n    }\n\n    modifier willExists(address _testator) {\n        require(\n            (testatorToWill[_testator].releaseTime != 0 &&\n                testatorToWill[_testator].beneficiaries.length != 0 &&\n                testatorToWill[_testator].beneficiaryOfERC721 != address(0)),\n            \"Willer: will doesn't exist\"\n        );\n        _;\n    }\n\n    modifier sameLengthArrays(\n        address[] calldata beneficiaries_,\n        uint[] calldata shares_\n    ) {\n        require(\n            beneficiaries_.length == shares_.length,\n            \"Willer: beneficiaries_ and shares_ length mismatch\"\n        );\n        _;\n    }\n\n    modifier executorIsBeneficiary(address _testator) {\n        bool _executorIsBeneficiary = false;\n        for (\n            uint i = 0;\n            i < testatorToWill[_testator].beneficiaries.length;\n            i++\n        ) {\n            if (msg.sender == testatorToWill[_testator].beneficiaries[i]) {\n                _executorIsBeneficiary = true;\n            }\n        }\n        if (msg.sender == testatorToWill[_testator].beneficiaryOfERC721) {\n            _executorIsBeneficiary = true;\n        }\n\n        require(_executorIsBeneficiary, \"Willer: executor is not beneficiary\");\n        _;\n    }\n\n    function addWill(\n        address[] calldata beneficiaries_,\n        uint[] calldata shares_,\n        address beneficiaryOfERC721_,\n        uint releaseTime_\n    )\n        public\n        validBeneficiariesAndShares(beneficiaries_, shares_, msg.sender)\n        validReleaseTime(releaseTime_)\n        validBeneficiaryOfERC721(beneficiaryOfERC721_)\n    {\n        Will storage w = testatorToWill[msg.sender];\n        w.beneficiaries = beneficiaries_;\n        w.shares = shares_;\n        w.sumShares = 0;\n        w.beneficiaryOfERC721 = beneficiaryOfERC721_;\n        w.releaseTime = releaseTime_;\n        for (uint i = 0; i < shares_.length; i++) {\n            w.sumShares += shares_[i];\n        }\n        emit WillAdded(\n            msg.sender,\n            w.beneficiaries,\n            w.shares,\n            w.beneficiaryOfERC721,\n            w.releaseTime\n        );\n    }\n\n    function getBuffer() public view returns (uint) {\n        return BUFFER;\n    }\n\n    function getMaxShare() public view returns (uint) {\n        return MAXSHARE;\n    }\n\n    function getReleaseTime(address testator) public view returns (uint) {\n        return testatorToWill[testator].releaseTime;\n    }\n\n    function getBeneficiaries(\n        address testator\n    ) public view returns (address[] memory) {\n        return testatorToWill[testator].beneficiaries;\n    }\n\n    function getShares(address testator) public view returns (uint[] memory) {\n        return testatorToWill[testator].shares;\n    }\n\n    function getSumShares(address testator) public view returns (uint) {\n        return testatorToWill[testator].sumShares;\n    }\n\n    function getBeneficiaryOfERC721(\n        address _testator\n    ) public view returns (address beneficiaryOfERC721) {\n        return testatorToWill[_testator].beneficiaryOfERC721;\n    }\n\n    function setNewBeneficiaries(\n        address[] calldata newBeneficiaries,\n        uint[] calldata newShares\n    )\n        public\n        willExists(msg.sender)\n        validBeneficiariesAndShares(newBeneficiaries, newShares, msg.sender)\n    {\n        testatorToWill[msg.sender].beneficiaries = newBeneficiaries;\n        testatorToWill[msg.sender].shares = newShares;\n        emit BeneficiariesUpdated(msg.sender, newBeneficiaries, newShares);\n    }\n\n    function setNewReleaseTime(\n        uint newReleaseTime\n    )\n        external\n        willExists(msg.sender)\n        validReleaseTime(newReleaseTime)\n        returns (uint)\n    {\n        testatorToWill[msg.sender].releaseTime = newReleaseTime;\n        emit ReleaseTimeUpdated(msg.sender, newReleaseTime);\n        return testatorToWill[msg.sender].releaseTime;\n    }\n\n    function setNewBeneficiaryOfERC721(\n        address newBeneficiaryOfERC721\n    )\n        external\n        willExists(msg.sender)\n        validBeneficiaryOfERC721(newBeneficiaryOfERC721)\n    {\n        testatorToWill[msg.sender].beneficiaryOfERC721 = newBeneficiaryOfERC721;\n        emit BeneficiaryOfERC721Updated(msg.sender, newBeneficiaryOfERC721);\n    }\n\n    function releaseERC20(address testator, IERC20 tokenERC20) private {\n        uint balance = tokenERC20.balanceOf(testator);\n        uint bequest = 0;\n        require(balance != 0, \"Willer: No ERC20 tokens to release\");\n        uint allowed = tokenERC20.allowance(testator, address(this));\n        require(allowed != 0, \"Willer: ERC20 zero allowance\");\n        if (allowed < balance) {\n            balance = allowed;\n        }\n        for (\n            uint i = 0;\n            i < testatorToWill[testator].beneficiaries.length;\n            i++\n        ) {\n            bequest = balance.mulDiv(\n                testatorToWill[testator].shares[i],\n                testatorToWill[testator].sumShares\n            );\n            // last beneficiary receives bequest and modulo\n            if (i == testatorToWill[testator].beneficiaries.length - 1) {\n                bequest = tokenERC20.balanceOf(testator);\n            }\n            tokenERC20.safeTransferFrom(\n                testator,\n                testatorToWill[testator].beneficiaries[i],\n                bequest\n            );\n            emit ERC20TokensReleased(\n                testator,\n                testatorToWill[testator].beneficiaries[i],\n                address(tokenERC20),\n                bequest\n            );\n        }\n    }\n\n    function batchReleaseERC20(\n        address testator,\n        IERC20[] calldata tokenERC20List\n    )\n        external\n        willExists(testator)\n        releasable(testator)\n        executorIsBeneficiary(testator)\n        nonReentrant()\n    {\n        for (uint i = 0; i < tokenERC20List.length; i++) {\n            releaseERC20(testator, tokenERC20List[i]);\n        }\n    }\n\n    function releaseERC721(\n        address testator,\n        IERC721 tokenERC721,\n        uint[] calldata tokenIdList\n    ) private {\n        for (uint i = 0; i < tokenIdList.length; i++) {\n            tokenERC721.safeTransferFrom(\n                testator,\n                testatorToWill[testator].beneficiaryOfERC721,\n                tokenIdList[i]\n            );\n        }\n    }\n\n    function batchReleaseERC721(\n        address testator,\n        IERC721[] calldata tokenERC721List,\n        uint[][] calldata tokenIdLists\n    )\n        external\n        willExists(testator)\n        releasable(testator)\n        executorIsBeneficiary(testator)\n        nonReentrant()\n    {\n        for (uint i = 0; i < tokenERC721List.length; i++) {\n            releaseERC721(testator, tokenERC721List[i], tokenIdLists[i]);\n        }\n    }\n\n    function releaseERC1155(\n        address testator,\n        IERC1155 tokenERC1155,\n        uint tokenId\n    ) private {\n        uint balance = tokenERC1155.balanceOf(testator, tokenId);\n        uint bequest = 0;\n        for (\n            uint i = 0;\n            i < testatorToWill[testator].beneficiaries.length;\n            i++\n        ) {\n            bequest = balance.mulDiv(\n                testatorToWill[testator].shares[i],\n                testatorToWill[testator].sumShares\n            );\n            // last beneficiary receives bequest and modulo\n            if (i == testatorToWill[testator].beneficiaries.length - 1) {\n                bequest = tokenERC1155.balanceOf(testator, tokenId);\n            }\n            tokenERC1155.safeTransferFrom(\n                testator,\n                testatorToWill[testator].beneficiaries[i],\n                tokenId,\n                bequest,\n                bytes(\"\")\n            );\n        }\n    }\n\n    function batchReleaseERC1155(\n        address testator,\n        IERC1155 tokenERC1155,\n        uint[] calldata tokenIdLists\n    )\n        external\n        willExists(testator)\n        releasable(testator)\n        executorIsBeneficiary(testator)\n        nonReentrant()\n    {\n        for (uint i = 0; i < tokenIdLists.length; i++) {\n            releaseERC1155(testator, tokenERC1155, tokenIdLists[i]);\n        }\n    }\n\n    function batchRelease(\n        address testator,\n        IERC20[] calldata tokenERC20List,\n        IERC721[] calldata tokenERC721List,\n        IERC1155[] calldata tokenERC1155List,\n        uint[][] calldata ERC721tokenIdLists,\n        uint[][] calldata ERC1155tokenIdLists\n    )\n        external\n    {\n        this.batchReleaseERC20(testator, tokenERC20List);\n        this.batchReleaseERC721(testator, tokenERC721List, ERC721tokenIdLists);\n        for (uint i = 0; i < tokenERC1155List.length; i++) {\n            this.batchReleaseERC1155(\n                testator,\n                tokenERC1155List[i],\n                ERC1155tokenIdLists[i]\n            );\n        }\n    }\n}\n","sourcePath":"contracts/Willer.sol","type":"contract","deployment":{"address":"0xAb93F60cDf44CbFE644669261fCd3D86C40E285E","chainid":"5","blockHeight":9504023}}