{"abi":[{"anonymous":false,"inputs":[{"indexed":true,"internalType":"address","name":"previousOwner","type":"address"},{"indexed":true,"internalType":"address","name":"newOwner","type":"address"}],"name":"OwnershipTransferred","type":"event"},{"inputs":[{"internalType":"address[]","name":"beneficiaries_","type":"address[]"},{"internalType":"uint256[]","name":"shares_","type":"uint256[]"},{"internalType":"address","name":"beneficiaryOfERC721_","type":"address"},{"internalType":"uint256","name":"releaseTime_","type":"uint256"}],"name":"addWill","outputs":[],"stateMutability":"nonpayable","type":"function"},{"inputs":[{"internalType":"address","name":"testator","type":"address"},{"internalType":"contract IERC20[]","name":"tokenERC20List","type":"address[]"},{"internalType":"contract IERC721[]","name":"tokenERC721List","type":"address[]"},{"internalType":"contract IERC1155[]","name":"tokenERC1155List","type":"address[]"},{"internalType":"uint256[][]","name":"ERC721tokenIdLists","type":"uint256[][]"},{"internalType":"uint256[][]","name":"ERC1155tokenIdLists","type":"uint256[][]"}],"name":"batchRelease","outputs":[],"stateMutability":"nonpayable","type":"function"},{"inputs":[{"internalType":"address","name":"testator","type":"address"},{"internalType":"contract IERC1155","name":"tokenERC1155","type":"address"},{"internalType":"uint256[]","name":"tokenIdLists","type":"uint256[]"}],"name":"batchReleaseERC1155","outputs":[],"stateMutability":"nonpayable","type":"function"},{"inputs":[{"internalType":"address","name":"testator","type":"address"},{"internalType":"contract IERC1155","name":"tokenERC1155","type":"address"},{"internalType":"uint256[]","name":"tokenIdLists","type":"uint256[]"}],"name":"batchReleaseERC1155ToTreasury","outputs":[],"stateMutability":"nonpayable","type":"function"},{"inputs":[{"internalType":"address","name":"testator","type":"address"},{"internalType":"contract IERC20[]","name":"tokenERC20List","type":"address[]"}],"name":"batchReleaseERC20","outputs":[],"stateMutability":"nonpayable","type":"function"},{"inputs":[{"internalType":"address","name":"testator","type":"address"},{"internalType":"contract IERC20[]","name":"tokenERC20List","type":"address[]"}],"name":"batchReleaseERC20ToTreasury","outputs":[],"stateMutability":"nonpayable","type":"function"},{"inputs":[{"internalType":"address","name":"testator","type":"address"},{"internalType":"contract IERC721[]","name":"tokenERC721List","type":"address[]"},{"internalType":"uint256[][]","name":"tokenIdLists","type":"uint256[][]"}],"name":"batchReleaseERC721","outputs":[],"stateMutability":"nonpayable","type":"function"},{"inputs":[{"internalType":"address","name":"testator","type":"address"},{"internalType":"contract IERC721[]","name":"tokenERC721List","type":"address[]"},{"internalType":"uint256[][]","name":"tokenIdLists","type":"uint256[][]"}],"name":"batchReleaseERC721ToTreasury","outputs":[],"stateMutability":"nonpayable","type":"function"},{"inputs":[{"internalType":"address","name":"testator","type":"address"},{"internalType":"contract IERC20[]","name":"tokenERC20List","type":"address[]"},{"internalType":"contract IERC721[]","name":"tokenERC721List","type":"address[]"},{"internalType":"contract IERC1155[]","name":"tokenERC1155List","type":"address[]"},{"internalType":"uint256[][]","name":"ERC721tokenIdLists","type":"uint256[][]"},{"internalType":"uint256[][]","name":"ERC1155tokenIdLists","type":"uint256[][]"}],"name":"batchReleaseToTreasury","outputs":[],"stateMutability":"nonpayable","type":"function"},{"inputs":[{"internalType":"address","name":"testator","type":"address"}],"name":"getBeneficiaries","outputs":[{"internalType":"address[]","name":"","type":"address[]"}],"stateMutability":"view","type":"function"},{"inputs":[{"internalType":"address","name":"_testator","type":"address"}],"name":"getBeneficiaryOfERC721","outputs":[{"internalType":"address","name":"beneficiaryOfERC721","type":"address"}],"stateMutability":"view","type":"function"},{"inputs":[],"name":"getBuffer","outputs":[{"internalType":"uint256","name":"","type":"uint256"}],"stateMutability":"view","type":"function"},{"inputs":[],"name":"getMaxShare","outputs":[{"internalType":"uint256","name":"","type":"uint256"}],"stateMutability":"view","type":"function"},{"inputs":[],"name":"getReapDelay","outputs":[{"internalType":"uint256","name":"","type":"uint256"}],"stateMutability":"view","type":"function"},{"inputs":[{"internalType":"address","name":"testator","type":"address"}],"name":"getReleaseTime","outputs":[{"internalType":"uint256","name":"","type":"uint256"}],"stateMutability":"view","type":"function"},{"inputs":[{"internalType":"address","name":"testator","type":"address"}],"name":"getShares","outputs":[{"internalType":"uint256[]","name":"","type":"uint256[]"}],"stateMutability":"view","type":"function"},{"inputs":[{"internalType":"address","name":"testator","type":"address"}],"name":"getSumShares","outputs":[{"internalType":"uint256","name":"","type":"uint256"}],"stateMutability":"view","type":"function"},{"inputs":[],"name":"getTreasuryAddress","outputs":[{"internalType":"address","name":"","type":"address"}],"stateMutability":"view","type":"function"},{"inputs":[],"name":"owner","outputs":[{"internalType":"address","name":"","type":"address"}],"stateMutability":"view","type":"function"},{"inputs":[{"internalType":"address","name":"testator","type":"address"},{"internalType":"contract IERC1155","name":"tokenERC1155","type":"address"},{"internalType":"uint256","name":"tokenId","type":"uint256"}],"name":"releaseERC1155","outputs":[],"stateMutability":"nonpayable","type":"function"},{"inputs":[{"internalType":"address","name":"testator","type":"address"},{"internalType":"contract IERC1155","name":"tokenERC1155","type":"address"},{"internalType":"uint256","name":"tokenId","type":"uint256"}],"name":"releaseERC1155ToTreasury","outputs":[],"stateMutability":"nonpayable","type":"function"},{"inputs":[{"internalType":"address","name":"testator","type":"address"},{"internalType":"contract IERC20","name":"tokenERC20","type":"address"}],"name":"releaseERC20ToTreasury","outputs":[],"stateMutability":"nonpayable","type":"function"},{"inputs":[{"internalType":"address","name":"testator","type":"address"},{"internalType":"contract IERC721","name":"tokenERC721","type":"address"},{"internalType":"uint256[]","name":"tokenIdList","type":"uint256[]"}],"name":"releaseERC721","outputs":[],"stateMutability":"nonpayable","type":"function"},{"inputs":[{"internalType":"address","name":"testator","type":"address"},{"internalType":"contract IERC721","name":"tokenERC721","type":"address"},{"internalType":"uint256[]","name":"tokenIdList","type":"uint256[]"}],"name":"releaseERC721ToTreasury","outputs":[],"stateMutability":"nonpayable","type":"function"},{"inputs":[],"name":"renounceOwnership","outputs":[],"stateMutability":"nonpayable","type":"function"},{"inputs":[{"internalType":"address[]","name":"newBeneficiaries","type":"address[]"},{"internalType":"uint256[]","name":"newShares","type":"uint256[]"}],"name":"setNewBeneficiaries","outputs":[{"internalType":"bool","name":"","type":"bool"}],"stateMutability":"nonpayable","type":"function"},{"inputs":[{"internalType":"address","name":"newBeneficiaryOfERC721","type":"address"}],"name":"setNewBeneficiaryOfERC721","outputs":[],"stateMutability":"nonpayable","type":"function"},{"inputs":[{"internalType":"uint256","name":"newReleaseTime","type":"uint256"}],"name":"setNewReleaseTime","outputs":[{"internalType":"uint256","name":"","type":"uint256"}],"stateMutability":"nonpayable","type":"function"},{"inputs":[{"internalType":"address","name":"_treasuryAddress","type":"address"}],"name":"setTreasuryAddress","outputs":[],"stateMutability":"nonpayable","type":"function"},{"inputs":[{"internalType":"address","name":"newOwner","type":"address"}],"name":"transferOwnership","outputs":[],"stateMutability":"nonpayable","type":"function"}],"bytecode":"6080604052603c6002819055600355600a600455631dcd6500600555600680546001600160a01b031916301790553480156200003a57600080fd5b50620000463362000050565b60018055620000a0565b600080546001600160a01b038381166001600160a01b0319831681178455604051919092169283917f8be0079c531659141344cd1fd0a4f28419497f9722a3daafe3b4186f6b6457e09190a35050565b613cb380620000b06000396000f3fe608060405234801561001057600080fd5b50600436106101da5760003560e01c8063a26ea21e11610104578063caee863e116100a2578063e6728edb11610071578063e6728edb14610435578063f04da65b14610448578063f2fde38b14610468578063fe36b4c81461047b57600080fd5b8063caee863e146103eb578063d3171094146103fe578063d9732f4d14610411578063e00246041461042457600080fd5b8063a3da0ecd116100de578063a3da0ecd1461038f578063a6fd2339146103b2578063ac8bc77e146103c5578063b395245a146103d857600080fd5b8063a26ea21e1461033d578063a29093b114610350578063a2ee4ffe1461037c57600080fd5b8063715018a61161017c5780638da5cb5b1161014b5780638da5cb5b146102fe5780638ec027731461030f5780639181141a146103175780639951c0b21461032a57600080fd5b8063715018a6146102c8578063745137b4146102d05780637ce752c6146102d85780638b61e1aa146102eb57600080fd5b806347ff5d8a116101b857806347ff5d8a146102535780636605bfda1461029a5780636b4bf139146102ad578063705e8b2e146102c057600080fd5b80630cb7eb4c146101df5780631cab59a41461021e578063341b46dd1461023e575b600080fd5b61020b6101ed3660046130e1565b6001600160a01b031660009081526007602052604090206003015490565b6040519081526020015b60405180910390f35b61023161022c3660046130e1565b61048e565b60405161021591906130fe565b61025161024c366004613197565b610504565b005b6102826102613660046130e1565b6001600160a01b039081166000908152600760205260409020600201541690565b6040516001600160a01b039091168152602001610215565b6102516102a83660046130e1565b610675565b6102516102bb366004613197565b61069f565b60025461020b565b61025161080e565b60045461020b565b6102516102e6366004613197565b610822565b6102516102f93660046131fc565b610a48565b6000546001600160a01b0316610282565b60055461020b565b610251610325366004613303565b610cb1565b61025161033836600461338f565b610fcc565b61025161034b3660046133c8565b61121c565b61020b61035e3660046130e1565b6001600160a01b031660009081526007602052604090206001015490565b61025161038a36600461341d565b611407565b6103a261039d36600461345e565b611807565b6040519015158152602001610215565b61020b6103c03660046134be565b611a2a565b6102516103d33660046134d7565b611af2565b6102516103e6366004613197565b611d4b565b6102516103f93660046130e1565b611fa4565b61025161040c36600461341d565b61207b565b61025161041f3660046134d7565b612370565b6006546001600160a01b0316610282565b6102516104433660046133c8565b612501565b61045b6104563660046130e1565b612632565b604051610215919061355a565b6102516104763660046130e1565b6126a0565b6102516104893660046131fc565b612719565b6001600160a01b0381166000908152600760209081526040918290208054835181840281018401909452808452606093928301828280156104f857602002820191906000526020600020905b81546001600160a01b031681526001909101906020018083116104da575b50505050509050919050565b6001600160a01b03841660009081526007602052604090206003015484901580159061054757506001600160a01b03811660009081526007602052604090205415155b801561056f57506001600160a01b038181166000908152600760205260409020600201541615155b6105945760405162461bcd60e51b815260040161058b90613592565b60405180910390fd5b6005546001600160a01b03861660009081526007602052604090206003015486916105be916135df565b4210156105dd5760405162461bcd60e51b815260040161058b906135f8565b60005b8381101561066c573063d317109488888888868181106106025761060261362f565b905060200201356040518463ffffffff1660e01b815260040161062793929190613645565b600060405180830381600087803b15801561064157600080fd5b505af1158015610655573d6000803e3d6000fd5b50505050808061066490613669565b9150506105e0565b50505050505050565b61067d61289e565b600680546001600160a01b0319166001600160a01b0392909216919091179055565b6001600160a01b0384166000908152600760205260409020600301548490158015906106e257506001600160a01b03811660009081526007602052604090205415155b801561070a57506001600160a01b038181166000908152600760205260409020600201541615155b6107265760405162461bcd60e51b815260040161058b90613592565b6005546001600160a01b0386166000908152600760205260409020600301548691610750916135df565b42101561076f5760405162461bcd60e51b815260040161058b906135f8565b60005b8381101561066c576006546001600160a01b03808816916342842e0e918a91168888868181106107a4576107a461362f565b905060200201356040518463ffffffff1660e01b81526004016107c993929190613645565b600060405180830381600087803b1580156107e357600080fd5b505af11580156107f7573d6000803e3d6000fd5b50505050808061080690613669565b915050610772565b61081661289e565b61082060006128f8565b565b6001600160a01b03841660009081526007602052604090206003015484901580159061086557506001600160a01b03811660009081526007602052604090205415155b801561088d57506001600160a01b038181166000908152600760205260409020600201541615155b6108a95760405162461bcd60e51b815260040161058b90613592565b6001600160a01b03851660009081526007602052604090206003015485904210156108e65760405162461bcd60e51b815260040161058b90613682565b856000805b6001600160a01b038316600090815260076020526040902054811015610990576001600160a01b03831660009081526007602052604090208054829081106109355761093561362f565b6000918252602090912001546001600160a01b0316330361095557600191505b6001600160a01b0380841660009081526007602052604090206002015416330361097e57600191505b8061098881613669565b9150506108eb565b50806109ae5760405162461bcd60e51b815260040161058b906136b0565b60005b85811015610a3d573063a2ee4ffe8a8a8a8a868181106109d3576109d361362f565b905060200201356040518463ffffffff1660e01b81526004016109f893929190613645565b600060405180830381600087803b158015610a1257600080fd5b505af1158015610a26573d6000803e3d6000fd5b505050508080610a3590613669565b9150506109b1565b505050505050505050565b6001600160a01b038b166000908152600760205260409020600301548b9015801590610a8b57506001600160a01b03811660009081526007602052604090205415155b8015610ab357506001600160a01b038181166000908152600760205260409020600201541615155b610acf5760405162461bcd60e51b815260040161058b90613592565b6005546001600160a01b038d166000908152600760205260409020600301548d91610af9916135df565b421015610b185760405162461bcd60e51b815260040161058b906135f8565b306001600160a01b031663e6728edb8e8e8e6040518463ffffffff1660e01b8152600401610b48939291906136f3565b600060405180830381600087803b158015610b6257600080fd5b505af1158015610b76573d6000803e3d6000fd5b50505050306001600160a01b031663d9732f4d8e8c8c8a8a6040518663ffffffff1660e01b8152600401610bae959493929190613781565b600060405180830381600087803b158015610bc857600080fd5b505af1158015610bdc573d6000803e3d6000fd5b5050505060005b87811015610ca1573063341b46dd8f8b8b85818110610c0457610c0461362f565b9050602002016020810190610c1991906130e1565b888886818110610c2b57610c2b61362f565b9050602002810190610c3d9190613874565b6040518563ffffffff1660e01b8152600401610c5c94939291906138be565b600060405180830381600087803b158015610c7657600080fd5b505af1158015610c8a573d6000803e3d6000fd5b505050508080610c9990613669565b915050610be3565b5050505050505050505050505050565b8585858533818414610cd55760405162461bcd60e51b815260040161058b906138f5565b60005b84811015610e0a576000868683818110610cf457610cf461362f565b9050602002016020810190610d0991906130e1565b6001600160a01b031603610d2f5760405162461bcd60e51b815260040161058b90613947565b816001600160a01b0316868683818110610d4b57610d4b61362f565b9050602002016020810190610d6091906130e1565b6001600160a01b031603610d865760405162461bcd60e51b815260040161058b90613996565b600454848483818110610d9b57610d9b61362f565b905060200201351115610dc05760405162461bcd60e51b815260040161058b906139e1565b838382818110610dd257610dd261362f565b90506020020135600003610df85760405162461bcd60e51b815260040161058b90613a2d565b80610e0281613669565b915050610cd8565b508560025442610e1a91906135df565b811015610e395760405162461bcd60e51b815260040161058b90613a64565b876001600160a01b038116610e605760405162461bcd60e51b815260040161058b90613ac1565b8a8a60005b81811015610ef257600454838383818110610e8257610e8261362f565b905060200201351115610ea75760405162461bcd60e51b815260040161058b906139e1565b6000838383818110610ebb57610ebb61362f565b905060200201351015610ee05760405162461bcd60e51b815260040161058b90613a2d565b80610eea81613669565b915050610e65565b50600060076000336001600160a01b03166001600160a01b0316815260200190815260200160002090508f8f826000019190610f2f929190613009565b50610f3e600482018f8f61306c565b506000600182018190556002820180546001600160a01b0319166001600160a01b038f16179055600382018c90555b8d811015610fb9578e8e82818110610f8757610f8761362f565b90506020020135826001016000828254610fa191906135df565b90915550819050610fb181613669565b915050610f6d565b5050505050505050505050505050505050565b6001600160a01b03821660009081526007602052604090206003015482901580159061100f57506001600160a01b03811660009081526007602052604090205415155b801561103757506001600160a01b038181166000908152600760205260409020600201541615155b6110535760405162461bcd60e51b815260040161058b90613592565b6005546001600160a01b038416600090815260076020526040902060030154849161107d916135df565b42101561109c5760405162461bcd60e51b815260040161058b906135f8565b6040516370a0823160e01b81526001600160a01b038581166004830152600091908516906370a0823190602401602060405180830381865afa1580156110e6573d6000803e3d6000fd5b505050506040513d601f19601f8201168201806040525081019061110a9190613b1e565b905060008160000361112e5760405162461bcd60e51b815260040161058b90613b37565b604051636eb1769f60e11b81526001600160a01b0387811660048301523060248301526000919087169063dd62ed3e90604401602060405180830381865afa15801561117e573d6000803e3d6000fd5b505050506040513d601f19601f820116820180604052508101906111a29190613b1e565b9050806000036111f45760405162461bcd60e51b815260206004820152601c60248201527f57696c6c65723a204552433230207a65726f20616c6c6f77616e636500000000604482015260640161058b565b82811015611200578092505b60065461066c906001600160a01b03888116918a911686612948565b6001600160a01b03831660009081526007602052604090206003015483901580159061125f57506001600160a01b03811660009081526007602052604090205415155b801561128757506001600160a01b038181166000908152600760205260409020600201541615155b6112a35760405162461bcd60e51b815260040161058b90613592565b6001600160a01b03841660009081526007602052604090206003015484904210156112e05760405162461bcd60e51b815260040161058b90613682565b846000805b6001600160a01b03831660009081526007602052604090205481101561138a576001600160a01b038316600090815260076020526040902080548290811061132f5761132f61362f565b6000918252602090912001546001600160a01b0316330361134f57600191505b6001600160a01b0380841660009081526007602052604090206002015416330361137857600191505b8061138281613669565b9150506112e5565b50806113a85760405162461bcd60e51b815260040161058b906136b0565b6113b06129a6565b60005b858110156113fd576113eb888888848181106113d1576113d161362f565b90506020020160208101906113e691906130e1565b6129ff565b806113f581613669565b9150506113b3565b5061066c60018055565b6001600160a01b03831660009081526007602052604090206003015483901580159061144a57506001600160a01b03811660009081526007602052604090205415155b801561147257506001600160a01b038181166000908152600760205260409020600201541615155b61148e5760405162461bcd60e51b815260040161058b90613592565b6001600160a01b03841660009081526007602052604090206003015484904210156114cb5760405162461bcd60e51b815260040161058b90613682565b846000805b6001600160a01b038316600090815260076020526040902054811015611575576001600160a01b038316600090815260076020526040902080548290811061151a5761151a61362f565b6000918252602090912001546001600160a01b0316330361153a57600191505b6001600160a01b0380841660009081526007602052604090206002015416330361156357600191505b8061156d81613669565b9150506114d0565b50806115935760405162461bcd60e51b815260040161058b906136b0565b61159b6129a6565b604051627eeac760e11b81526001600160a01b038881166004830152602482018790526000919088169062fdd58e90604401602060405180830381865afa1580156115ea573d6000803e3d6000fd5b505050506040513d601f19601f8201168201806040525081019061160e9190613b1e565b90506000805b6001600160a01b038a166000908152600760205260409020548110156117fb576001600160a01b038a16600090815260076020526040902060040180546116969190839081106116665761166661362f565b60009182526020808320909101546001600160a01b038e1683526007909152604090912060010154859190612ced565b6001600160a01b038b166000908152600760205260409020549092506116be90600190613b79565b810361173657604051627eeac760e11b81526001600160a01b038b81166004830152602482018a90528a169062fdd58e90604401602060405180830381865afa15801561170f573d6000803e3d6000fd5b505050506040513d601f19601f820116820180604052508101906117339190613b1e565b91505b6001600160a01b038a811660009081526007602052604090208054918b169163f242432a918d918590811061176d5761176d61362f565b600091825260208083209091015460408051928301815292825291516001600160e01b031960e086901b1681526117b693926001600160a01b0316918e91899190600401613bdc565b600060405180830381600087803b1580156117d057600080fd5b505af11580156117e4573d6000803e3d6000fd5b5050505080806117f390613669565b915050611614565b50505061066c60018055565b336000818152600760205260408120600301549091901580159061184257506001600160a01b03811660009081526007602052604090205415155b801561186a57506001600160a01b038181166000908152600760205260409020600201541615155b6118865760405162461bcd60e51b815260040161058b90613592565b85858585338184146118aa5760405162461bcd60e51b815260040161058b906138f5565b60005b848110156119df5760008686838181106118c9576118c961362f565b90506020020160208101906118de91906130e1565b6001600160a01b0316036119045760405162461bcd60e51b815260040161058b90613947565b816001600160a01b03168686838181106119205761192061362f565b905060200201602081019061193591906130e1565b6001600160a01b03160361195b5760405162461bcd60e51b815260040161058b90613996565b6004548484838181106119705761197061362f565b9050602002013511156119955760405162461bcd60e51b815260040161058b906139e1565b8383828181106119a7576119a761362f565b905060200201356000036119cd5760405162461bcd60e51b815260040161058b90613a2d565b806119d781613669565b9150506118ad565b503360009081526007602052604090206119fa908c8c613009565b50336000908152600760205260409020611a18906004018a8a61306c565b5060019b9a5050505050505050505050565b3360008181526007602052604081206003015490919015801590611a6557506001600160a01b03811660009081526007602052604090205415155b8015611a8d57506001600160a01b038181166000908152600760205260409020600201541615155b611aa95760405162461bcd60e51b815260040161058b90613592565b8260025442611ab891906135df565b811015611ad75760405162461bcd60e51b815260040161058b90613a64565b50503360009081526007602052604090206003018290555090565b6001600160a01b038516600090815260076020526040902060030154859015801590611b3557506001600160a01b03811660009081526007602052604090205415155b8015611b5d57506001600160a01b038181166000908152600760205260409020600201541615155b611b795760405162461bcd60e51b815260040161058b90613592565b6001600160a01b0386166000908152600760205260409020600301548690421015611bb65760405162461bcd60e51b815260040161058b90613682565b866000805b6001600160a01b038316600090815260076020526040902054811015611c60576001600160a01b0383166000908152600760205260409020805482908110611c0557611c0561362f565b6000918252602090912001546001600160a01b03163303611c2557600191505b6001600160a01b03808416600090815260076020526040902060020154163303611c4e57600191505b80611c5881613669565b915050611bbb565b5080611c7e5760405162461bcd60e51b815260040161058b906136b0565b60005b87811015611d3f573063b395245a8b8b8b85818110611ca257611ca261362f565b9050602002016020810190611cb791906130e1565b8a8a86818110611cc957611cc961362f565b9050602002810190611cdb9190613874565b6040518563ffffffff1660e01b8152600401611cfa94939291906138be565b600060405180830381600087803b158015611d1457600080fd5b505af1158015611d28573d6000803e3d6000fd5b505050508080611d3790613669565b915050611c81565b50505050505050505050565b6001600160a01b038416600090815260076020526040902060030154849015801590611d8e57506001600160a01b03811660009081526007602052604090205415155b8015611db657506001600160a01b038181166000908152600760205260409020600201541615155b611dd25760405162461bcd60e51b815260040161058b90613592565b6001600160a01b0385166000908152600760205260409020600301548590421015611e0f5760405162461bcd60e51b815260040161058b90613682565b856000805b6001600160a01b038316600090815260076020526040902054811015611eb9576001600160a01b0383166000908152600760205260409020805482908110611e5e57611e5e61362f565b6000918252602090912001546001600160a01b03163303611e7e57600191505b6001600160a01b03808416600090815260076020526040902060020154163303611ea757600191505b80611eb181613669565b915050611e14565b5080611ed75760405162461bcd60e51b815260040161058b906136b0565b611edf6129a6565b60005b85811015611f90576001600160a01b03898116600090815260076020526040902060020154818a16916342842e0e918c91168a8a86818110611f2657611f2661362f565b905060200201356040518463ffffffff1660e01b8152600401611f4b93929190613645565b600060405180830381600087803b158015611f6557600080fd5b505af1158015611f79573d6000803e3d6000fd5b505050508080611f8890613669565b915050611ee2565b50611f9a60018055565b5050505050505050565b3360008181526007602052604090206003015415801590611fdc57506001600160a01b03811660009081526007602052604090205415155b801561200457506001600160a01b038181166000908152600760205260409020600201541615155b6120205760405162461bcd60e51b815260040161058b90613592565b816001600160a01b0381166120475760405162461bcd60e51b815260040161058b90613ac1565b505033600090815260076020526040902060020180546001600160a01b0319166001600160a01b0392909216919091179055565b6001600160a01b0383166000908152600760205260409020600301548390158015906120be57506001600160a01b03811660009081526007602052604090205415155b80156120e657506001600160a01b038181166000908152600760205260409020600201541615155b6121025760405162461bcd60e51b815260040161058b90613592565b6005546001600160a01b038516600090815260076020526040902060030154859161212c916135df565b42101561214b5760405162461bcd60e51b815260040161058b906135f8565b604051627eeac760e11b81526001600160a01b038681166004830152602482018590526000919086169062fdd58e90604401602060405180830381865afa15801561219a573d6000803e3d6000fd5b505050506040513d601f19601f820116820180604052508101906121be9190613b1e565b90506000805b6001600160a01b038816600090815260076020526040902054811015611f9a576001600160a01b038816600090815260076020526040902060040180546122469190839081106122165761221661362f565b60009182526020808320909101546001600160a01b038c1683526007909152604090912060010154859190612ced565b6001600160a01b03891660009081526007602052604090205490925061226e90600190613b79565b81036122e657604051627eeac760e11b81526001600160a01b0389811660048301526024820188905288169062fdd58e90604401602060405180830381865afa1580156122bf573d6000803e3d6000fd5b505050506040513d601f19601f820116820180604052508101906122e39190613b1e565b91505b60065460408051602081018252600081529051637921219560e11b81526001600160a01b038a81169363f242432a9361232b938e93909216918c918991600401613bdc565b600060405180830381600087803b15801561234557600080fd5b505af1158015612359573d6000803e3d6000fd5b50505050808061236890613669565b9150506121c4565b6001600160a01b0385166000908152600760205260409020600301548590158015906123b357506001600160a01b03811660009081526007602052604090205415155b80156123db57506001600160a01b038181166000908152600760205260409020600201541615155b6123f75760405162461bcd60e51b815260040161058b90613592565b6005546001600160a01b0387166000908152600760205260409020600301548791612421916135df565b4210156124405760405162461bcd60e51b815260040161058b906135f8565b60005b85811015611f9a5730636b4bf139898989858181106124645761246461362f565b905060200201602081019061247991906130e1565b88888681811061248b5761248b61362f565b905060200281019061249d9190613874565b6040518563ffffffff1660e01b81526004016124bc94939291906138be565b600060405180830381600087803b1580156124d657600080fd5b505af11580156124ea573d6000803e3d6000fd5b5050505080806124f990613669565b915050612443565b6001600160a01b03831660009081526007602052604090206003015483901580159061254457506001600160a01b03811660009081526007602052604090205415155b801561256c57506001600160a01b038181166000908152600760205260409020600201541615155b6125885760405162461bcd60e51b815260040161058b90613592565b6005546001600160a01b03851660009081526007602052604090206003015485916125b2916135df565b4210156125d15760405162461bcd60e51b815260040161058b906135f8565b6125d96129a6565b60005b838110156126215761260f868686848181106125fa576125fa61362f565b905060200201602081019061033891906130e1565b8061261981613669565b9150506125dc565b5061262b60018055565b5050505050565b6001600160a01b0381166000908152600760209081526040918290206004018054835181840281018401909452808452606093928301828280156104f857602002820191906000526020600020905b8154815260200190600101908083116126815750505050509050919050565b6126a861289e565b6001600160a01b03811661270d5760405162461bcd60e51b815260206004820152602660248201527f4f776e61626c653a206e6577206f776e657220697320746865207a65726f206160448201526564647265737360d01b606482015260840161058b565b612716816128f8565b50565b604051635137510f60e11b8152309063a26ea21e90612740908e908e908e906004016136f3565b600060405180830381600087803b15801561275a57600080fd5b505af115801561276e573d6000803e3d6000fd5b5050604051635645e3bf60e11b815230925063ac8bc77e915061279d908e908c908c908a908a90600401613781565b600060405180830381600087803b1580156127b757600080fd5b505af11580156127cb573d6000803e3d6000fd5b5050505060005b858110156128905730637ce752c68d8989858181106127f3576127f361362f565b905060200201602081019061280891906130e1565b86868681811061281a5761281a61362f565b905060200281019061282c9190613874565b6040518563ffffffff1660e01b815260040161284b94939291906138be565b600060405180830381600087803b15801561286557600080fd5b505af1158015612879573d6000803e3d6000fd5b50505050808061288890613669565b9150506127d2565b505050505050505050505050565b6000546001600160a01b031633146108205760405162461bcd60e51b815260206004820181905260248201527f4f776e61626c653a2063616c6c6572206973206e6f7420746865206f776e6572604482015260640161058b565b600080546001600160a01b038381166001600160a01b0319831681178455604051919092169283917f8be0079c531659141344cd1fd0a4f28419497f9722a3daafe3b4186f6b6457e09190a35050565b6129a0846323b872dd60e01b85858560405160240161296993929190613645565b60408051601f198184030181529190526020810180516001600160e01b03166001600160e01b031990931692909217909152612da2565b50505050565b6002600154036129f85760405162461bcd60e51b815260206004820152601f60248201527f5265656e7472616e637947756172643a207265656e7472616e742063616c6c00604482015260640161058b565b6002600155565b6040516370a0823160e01b81526001600160a01b038381166004830152600091908316906370a0823190602401602060405180830381865afa158015612a49573d6000803e3d6000fd5b505050506040513d601f19601f82011682018060405250810190612a6d9190613b1e565b9050600081600003612a915760405162461bcd60e51b815260040161058b90613b37565b604051636eb1769f60e11b81526001600160a01b0385811660048301523060248301526000919085169063dd62ed3e90604401602060405180830381865afa158015612ae1573d6000803e3d6000fd5b505050506040513d601f19601f82011682018060405250810190612b059190613b1e565b905080600003612b575760405162461bcd60e51b815260206004820152601c60248201527f57696c6c65723a204552433230207a65726f20616c6c6f77616e636500000000604482015260640161058b565b82811015612b63578092505b60005b6001600160a01b038616600090815260076020526040902054811015612ce5576001600160a01b03861660009081526007602052604090206004018054612be8919083908110612bb857612bb861362f565b60009182526020808320909101546001600160a01b038a1683526007909152604090912060010154869190612ced565b6001600160a01b038716600090815260076020526040902054909350612c1090600190613b79565b8103612c83576040516370a0823160e01b81526001600160a01b0387811660048301528616906370a0823190602401602060405180830381865afa158015612c5c573d6000803e3d6000fd5b505050506040513d601f19601f82011682018060405250810190612c809190613b1e565b92505b6001600160a01b03861660009081526007602052604090208054612cd391889184908110612cb357612cb361362f565b6000918252602090912001546001600160a01b0388811692911686612948565b80612cdd81613669565b915050612b66565b505050505050565b6000808060001985870985870292508281108382030391505080600003612d2757838281612d1d57612d1d613c16565b0492505050612d9b565b808411612d3357600080fd5b600084868809851960019081018716968790049682860381900495909211909303600082900391909104909201919091029190911760038402600290811880860282030280860282030280860282030280860282030280860282030280860290910302029150505b9392505050565b6000612df7826040518060400160405280602081526020017f5361666545524332303a206c6f772d6c6576656c2063616c6c206661696c6564815250856001600160a01b0316612e799092919063ffffffff16565b805190915015612e745780806020019051810190612e159190613c2c565b612e745760405162461bcd60e51b815260206004820152602a60248201527f5361666545524332303a204552433230206f7065726174696f6e20646964206e6044820152691bdd081cdd58d8d9595960b21b606482015260840161058b565b505050565b6060612e888484600085612e90565b949350505050565b606082471015612ef15760405162461bcd60e51b815260206004820152602660248201527f416464726573733a20696e73756666696369656e742062616c616e636520666f6044820152651c8818d85b1b60d21b606482015260840161058b565b600080866001600160a01b03168587604051612f0d9190613c4e565b60006040518083038185875af1925050503d8060008114612f4a576040519150601f19603f3d011682016040523d82523d6000602084013e612f4f565b606091505b5091509150612f6087838387612f6b565b979650505050505050565b60608315612fda578251600003612fd3576001600160a01b0385163b612fd35760405162461bcd60e51b815260206004820152601d60248201527f416464726573733a2063616c6c20746f206e6f6e2d636f6e7472616374000000604482015260640161058b565b5081612e88565b612e888383815115612fef5781518083602001fd5b8060405162461bcd60e51b815260040161058b9190613c6a565b82805482825590600052602060002090810192821561305c579160200282015b8281111561305c5781546001600160a01b0319166001600160a01b03843516178255602090920191600190910190613029565b506130689291506130a7565b5090565b82805482825590600052602060002090810192821561305c579160200282015b8281111561305c57823582559160200191906001019061308c565b5b8082111561306857600081556001016130a8565b6001600160a01b038116811461271657600080fd5b80356130dc816130bc565b919050565b6000602082840312156130f357600080fd5b8135612d9b816130bc565b6020808252825182820181905260009190848201906040850190845b8181101561313f5783516001600160a01b03168352928401929184019160010161311a565b50909695505050505050565b60008083601f84011261315d57600080fd5b50813567ffffffffffffffff81111561317557600080fd5b6020830191508360208260051b850101111561319057600080fd5b9250929050565b600080600080606085870312156131ad57600080fd5b84356131b8816130bc565b935060208501356131c8816130bc565b9250604085013567ffffffffffffffff8111156131e457600080fd5b6131f08782880161314b565b95989497509550505050565b600080600080600080600080600080600060c08c8e03121561321d57600080fd5b6132268c6130d1565b9a5067ffffffffffffffff8060208e0135111561324257600080fd5b6132528e60208f01358f0161314b565b909b50995060408d013581101561326857600080fd5b6132788e60408f01358f0161314b565b909950975060608d013581101561328e57600080fd5b61329e8e60608f01358f0161314b565b909750955060808d01358110156132b457600080fd5b6132c48e60808f01358f0161314b565b909550935060a08d01358110156132da57600080fd5b506132eb8d60a08e01358e0161314b565b81935080925050509295989b509295989b9093969950565b6000806000806000806080878903121561331c57600080fd5b863567ffffffffffffffff8082111561333457600080fd5b6133408a838b0161314b565b9098509650602089013591508082111561335957600080fd5b5061336689828a0161314b565b909550935050604087013561337a816130bc565b80925050606087013590509295509295509295565b600080604083850312156133a257600080fd5b82356133ad816130bc565b915060208301356133bd816130bc565b809150509250929050565b6000806000604084860312156133dd57600080fd5b83356133e8816130bc565b9250602084013567ffffffffffffffff81111561340457600080fd5b6134108682870161314b565b9497909650939450505050565b60008060006060848603121561343257600080fd5b833561343d816130bc565b9250602084013561344d816130bc565b929592945050506040919091013590565b6000806000806040858703121561347457600080fd5b843567ffffffffffffffff8082111561348c57600080fd5b6134988883890161314b565b909650945060208701359150808211156134b157600080fd5b506131f08782880161314b565b6000602082840312156134d057600080fd5b5035919050565b6000806000806000606086880312156134ef57600080fd5b85356134fa816130bc565b9450602086013567ffffffffffffffff8082111561351757600080fd5b61352389838a0161314b565b9096509450604088013591508082111561353c57600080fd5b506135498882890161314b565b969995985093965092949392505050565b6020808252825182820181905260009190848201906040850190845b8181101561313f57835183529284019291840191600101613576565b6020808252601a908201527f57696c6c65723a2077696c6c20646f65736e2774206578697374000000000000604082015260600190565b634e487b7160e01b600052601160045260246000fd5b808201808211156135f2576135f26135c9565b92915050565b60208082526019908201527f57696c6c65723a20546f6f206561726c7920746f207265617000000000000000604082015260600190565b634e487b7160e01b600052603260045260246000fd5b6001600160a01b039384168152919092166020820152604081019190915260600190565b60006001820161367b5761367b6135c9565b5060010190565b60208082526014908201527357696c6c65723a20756e72656c65617361626c6560601b604082015260600190565b60208082526023908201527f57696c6c65723a206578656375746f72206973206e6f742062656e656669636960408201526261727960e81b606082015260800190565b6001600160a01b03848116825260406020808401829052908301849052600091859160608501845b8781101561374257843561372e816130bc565b84168252938201939082019060010161371b565b5098975050505050505050565b81835260006001600160fb1b0383111561376857600080fd5b8260051b80836020870137939093016020019392505050565b6001600160a01b03868116825260606020808401829052908301869052600091879160808501845b898110156137d05784356137bc816130bc565b8416825293820193908201906001016137a9565b50858103604087015286815281810193506005925086831b810182018860005b8981101561386257838303601f190187528135368c9003601e1901811261381657600080fd5b8b01858101903567ffffffffffffffff81111561383257600080fd5b80881b360382131561384357600080fd5b61384e85828461374f565b9887019894505050908401906001016137f0565b50909c9b505050505050505050505050565b6000808335601e1984360301811261388b57600080fd5b83018035915067ffffffffffffffff8211156138a657600080fd5b6020019150600581901b360382131561319057600080fd5b6001600160a01b038581168252841660208201526060604082018190526000906138eb908301848661374f565b9695505050505050565b60208082526032908201527f57696c6c65723a2062656e656669636961726965735f20616e642073686172656040820152710e6be40d8cadccee8d040dad2e6dac2e8c6d60731b606082015260800190565b6020808252602f908201527f57696c6c65723a2061646472657373207a65726f206973206e6f74206120766160408201526e6c69642062656e656669636961727960881b606082015260800190565b6020808252602b908201527f57696c6c65723a207465737461746f72206973206e6f7420612076616c69642060408201526a62656e656669636961727960a81b606082015260800190565b6020808252602c908201527f57696c6c65723a2073686172652063616e27742062652067726561746572207460408201526b68616e204d4158534841524560a01b606082015260800190565b60208082526018908201527f57696c6c65723a2073686172652063616e277420626520300000000000000000604082015260600190565b60208082526037908201527f57696c6c65723a2072657175697265282072656c656173652074696d65203e2060408201527f63757272656e742074696d65202b204255464645522029000000000000000000606082015260800190565b60208082526037908201527f57696c6c65723a2061646472657373207a65726f206973206e6f74206120766160408201527f6c69642062656e65666963696172794f66455243373231000000000000000000606082015260800190565b600060208284031215613b3057600080fd5b5051919050565b60208082526022908201527f57696c6c65723a204e6f20455243323020746f6b656e7320746f2072656c6561604082015261736560f01b606082015260800190565b818103818111156135f2576135f26135c9565b60005b83811015613ba7578181015183820152602001613b8f565b50506000910152565b60008151808452613bc8816020860160208601613b8c565b601f01601f19169290920160200192915050565b6001600160a01b03868116825285166020820152604081018490526060810183905260a060808201819052600090612f6090830184613bb0565b634e487b7160e01b600052601260045260246000fd5b600060208284031215613c3e57600080fd5b81518015158114612d9b57600080fd5b60008251613c60818460208701613b8c565b9190910192915050565b602081526000612d9b6020830184613bb056fea2646970667358221220a3b625929368442c7165699846697026fd640eddb7100d3dc148e250347f3e2764736f6c63430008100033","bytecodeSha1":"813e557aa4ddb948146690dd041c091552b7957e","compiler":{"evm_version":"istanbul","optimizer":{"enabled":true,"runs":200},"version":"0.8.16+commit.07a7930e"},"contractName":"Willer","language":"Solidity","natspec":{"author":"DimaKush","kind":"dev","methods":{"owner()":{"details":"Returns the address of the current owner."},"renounceOwnership()":{"details":"Leaves the contract without owner. It will not be possible to call `onlyOwner` functions anymore. Can only be called by the current owner. NOTE: Renouncing ownership will leave the contract without an owner, thereby removing any functionality that is only available to the owner."},"transferOwnership(address)":{"details":"Transfers ownership of the contract to a new account (`newOwner`). Can only be called by the current owner."}},"title":"Willer","version":1},"opcodes":"PUSH1 0x80 PUSH1 0x40 MSTORE CALLVALUE DUP1 ISZERO PUSH2 0x10 JUMPI PUSH1 0x0 DUP1 REVERT JUMPDEST POP PUSH1 0x4 CALLDATASIZE LT PUSH2 0x1DA JUMPI PUSH1 0x0 CALLDATALOAD PUSH1 0xE0 SHR DUP1 PUSH4 0xA26EA21E GT PUSH2 0x104 JUMPI DUP1 PUSH4 0xCAEE863E GT PUSH2 0xA2 JUMPI DUP1 PUSH4 0xE6728EDB GT PUSH2 0x71 JUMPI DUP1 PUSH4 0xE6728EDB EQ PUSH2 0x435 JUMPI DUP1 PUSH4 0xF04DA65B EQ PUSH2 0x448 JUMPI DUP1 PUSH4 0xF2FDE38B EQ PUSH2 0x468 JUMPI DUP1 PUSH4 0xFE36B4C8 EQ PUSH2 0x47B JUMPI PUSH1 0x0 DUP1 REVERT JUMPDEST DUP1 PUSH4 0xCAEE863E EQ PUSH2 0x3EB JUMPI DUP1 PUSH4 0xD3171094 EQ PUSH2 0x3FE JUMPI DUP1 PUSH4 0xD9732F4D EQ PUSH2 0x411 JUMPI DUP1 PUSH4 0xE0024604 EQ PUSH2 0x424 JUMPI PUSH1 0x0 DUP1 REVERT JUMPDEST DUP1 PUSH4 0xA3DA0ECD GT PUSH2 0xDE JUMPI DUP1 PUSH4 0xA3DA0ECD EQ PUSH2 0x38F JUMPI DUP1 PUSH4 0xA6FD2339 EQ PUSH2 0x3B2 JUMPI DUP1 PUSH4 0xAC8BC77E EQ PUSH2 0x3C5 JUMPI DUP1 PUSH4 0xB395245A EQ PUSH2 0x3D8 JUMPI PUSH1 0x0 DUP1 REVERT JUMPDEST DUP1 PUSH4 0xA26EA21E EQ PUSH2 0x33D JUMPI DUP1 PUSH4 0xA29093B1 EQ PUSH2 0x350 JUMPI DUP1 PUSH4 0xA2EE4FFE EQ PUSH2 0x37C JUMPI PUSH1 0x0 DUP1 REVERT JUMPDEST DUP1 PUSH4 0x715018A6 GT PUSH2 0x17C JUMPI DUP1 PUSH4 0x8DA5CB5B GT PUSH2 0x14B JUMPI DUP1 PUSH4 0x8DA5CB5B EQ PUSH2 0x2FE JUMPI DUP1 PUSH4 0x8EC02773 EQ PUSH2 0x30F JUMPI DUP1 PUSH4 0x9181141A EQ PUSH2 0x317 JUMPI DUP1 PUSH4 0x9951C0B2 EQ PUSH2 0x32A JUMPI PUSH1 0x0 DUP1 REVERT JUMPDEST DUP1 PUSH4 0x715018A6 EQ PUSH2 0x2C8 JUMPI DUP1 PUSH4 0x745137B4 EQ PUSH2 0x2D0 JUMPI DUP1 PUSH4 0x7CE752C6 EQ PUSH2 0x2D8 JUMPI DUP1 PUSH4 0x8B61E1AA EQ PUSH2 0x2EB JUMPI PUSH1 0x0 DUP1 REVERT JUMPDEST DUP1 PUSH4 0x47FF5D8A GT PUSH2 0x1B8 JUMPI DUP1 PUSH4 0x47FF5D8A EQ PUSH2 0x253 JUMPI DUP1 PUSH4 0x6605BFDA EQ PUSH2 0x29A JUMPI DUP1 PUSH4 0x6B4BF139 EQ PUSH2 0x2AD JUMPI DUP1 PUSH4 0x705E8B2E EQ PUSH2 0x2C0 JUMPI PUSH1 0x0 DUP1 REVERT JUMPDEST DUP1 PUSH4 0xCB7EB4C EQ PUSH2 0x1DF JUMPI DUP1 PUSH4 0x1CAB59A4 EQ PUSH2 0x21E JUMPI DUP1 PUSH4 0x341B46DD EQ PUSH2 0x23E JUMPI JUMPDEST PUSH1 0x0 DUP1 REVERT JUMPDEST PUSH2 0x20B PUSH2 0x1ED CALLDATASIZE PUSH1 0x4 PUSH2 0x30E1 JUMP JUMPDEST PUSH1 0x1 PUSH1 0x1 PUSH1 0xA0 SHL SUB AND PUSH1 0x0 SWAP1 DUP2 MSTORE PUSH1 0x7 PUSH1 0x20 MSTORE PUSH1 0x40 SWAP1 KECCAK256 PUSH1 0x3 ADD SLOAD SWAP1 JUMP JUMPDEST PUSH1 0x40 MLOAD SWAP1 DUP2 MSTORE PUSH1 0x20 ADD JUMPDEST PUSH1 0x40 MLOAD DUP1 SWAP2 SUB SWAP1 RETURN JUMPDEST PUSH2 0x231 PUSH2 0x22C CALLDATASIZE PUSH1 0x4 PUSH2 0x30E1 JUMP JUMPDEST PUSH2 0x48E JUMP JUMPDEST PUSH1 0x40 MLOAD PUSH2 0x215 SWAP2 SWAP1 PUSH2 0x30FE JUMP JUMPDEST PUSH2 0x251 PUSH2 0x24C CALLDATASIZE PUSH1 0x4 PUSH2 0x3197 JUMP JUMPDEST PUSH2 0x504 JUMP JUMPDEST STOP JUMPDEST PUSH2 0x282 PUSH2 0x261 CALLDATASIZE PUSH1 0x4 PUSH2 0x30E1 JUMP JUMPDEST PUSH1 0x1 PUSH1 0x1 PUSH1 0xA0 SHL SUB SWAP1 DUP2 AND PUSH1 0x0 SWAP1 DUP2 MSTORE PUSH1 0x7 PUSH1 0x20 MSTORE PUSH1 0x40 SWAP1 KECCAK256 PUSH1 0x2 ADD SLOAD AND SWAP1 JUMP JUMPDEST PUSH1 0x40 MLOAD PUSH1 0x1 PUSH1 0x1 PUSH1 0xA0 SHL SUB SWAP1 SWAP2 AND DUP2 MSTORE PUSH1 0x20 ADD PUSH2 0x215 JUMP JUMPDEST PUSH2 0x251 PUSH2 0x2A8 CALLDATASIZE PUSH1 0x4 PUSH2 0x30E1 JUMP JUMPDEST PUSH2 0x675 JUMP JUMPDEST PUSH2 0x251 PUSH2 0x2BB CALLDATASIZE PUSH1 0x4 PUSH2 0x3197 JUMP JUMPDEST PUSH2 0x69F JUMP JUMPDEST PUSH1 0x2 SLOAD PUSH2 0x20B JUMP JUMPDEST PUSH2 0x251 PUSH2 0x80E JUMP JUMPDEST PUSH1 0x4 SLOAD PUSH2 0x20B JUMP JUMPDEST PUSH2 0x251 PUSH2 0x2E6 CALLDATASIZE PUSH1 0x4 PUSH2 0x3197 JUMP JUMPDEST PUSH2 0x822 JUMP JUMPDEST PUSH2 0x251 PUSH2 0x2F9 CALLDATASIZE PUSH1 0x4 PUSH2 0x31FC JUMP JUMPDEST PUSH2 0xA48 JUMP JUMPDEST PUSH1 0x0 SLOAD PUSH1 0x1 PUSH1 0x1 PUSH1 0xA0 SHL SUB AND PUSH2 0x282 JUMP JUMPDEST PUSH1 0x5 SLOAD PUSH2 0x20B JUMP JUMPDEST PUSH2 0x251 PUSH2 0x325 CALLDATASIZE PUSH1 0x4 PUSH2 0x3303 JUMP JUMPDEST PUSH2 0xCB1 JUMP JUMPDEST PUSH2 0x251 PUSH2 0x338 CALLDATASIZE PUSH1 0x4 PUSH2 0x338F JUMP JUMPDEST PUSH2 0xFCC JUMP JUMPDEST PUSH2 0x251 PUSH2 0x34B CALLDATASIZE PUSH1 0x4 PUSH2 0x33C8 JUMP JUMPDEST PUSH2 0x121C JUMP JUMPDEST PUSH2 0x20B PUSH2 0x35E CALLDATASIZE PUSH1 0x4 PUSH2 0x30E1 JUMP JUMPDEST PUSH1 0x1 PUSH1 0x1 PUSH1 0xA0 SHL SUB AND PUSH1 0x0 SWAP1 DUP2 MSTORE PUSH1 0x7 PUSH1 0x20 MSTORE PUSH1 0x40 SWAP1 KECCAK256 PUSH1 0x1 ADD SLOAD SWAP1 JUMP JUMPDEST PUSH2 0x251 PUSH2 0x38A CALLDATASIZE PUSH1 0x4 PUSH2 0x341D JUMP JUMPDEST PUSH2 0x1407 JUMP JUMPDEST PUSH2 0x3A2 PUSH2 0x39D CALLDATASIZE PUSH1 0x4 PUSH2 0x345E JUMP JUMPDEST PUSH2 0x1807 JUMP JUMPDEST PUSH1 0x40 MLOAD SWAP1 ISZERO ISZERO DUP2 MSTORE PUSH1 0x20 ADD PUSH2 0x215 JUMP JUMPDEST PUSH2 0x20B PUSH2 0x3C0 CALLDATASIZE PUSH1 0x4 PUSH2 0x34BE JUMP JUMPDEST PUSH2 0x1A2A JUMP JUMPDEST PUSH2 0x251 PUSH2 0x3D3 CALLDATASIZE PUSH1 0x4 PUSH2 0x34D7 JUMP JUMPDEST PUSH2 0x1AF2 JUMP JUMPDEST PUSH2 0x251 PUSH2 0x3E6 CALLDATASIZE PUSH1 0x4 PUSH2 0x3197 JUMP JUMPDEST PUSH2 0x1D4B JUMP JUMPDEST PUSH2 0x251 PUSH2 0x3F9 CALLDATASIZE PUSH1 0x4 PUSH2 0x30E1 JUMP JUMPDEST PUSH2 0x1FA4 JUMP JUMPDEST PUSH2 0x251 PUSH2 0x40C CALLDATASIZE PUSH1 0x4 PUSH2 0x341D JUMP JUMPDEST PUSH2 0x207B JUMP JUMPDEST PUSH2 0x251 PUSH2 0x41F CALLDATASIZE PUSH1 0x4 PUSH2 0x34D7 JUMP JUMPDEST PUSH2 0x2370 JUMP JUMPDEST PUSH1 0x6 SLOAD PUSH1 0x1 PUSH1 0x1 PUSH1 0xA0 SHL SUB AND PUSH2 0x282 JUMP JUMPDEST PUSH2 0x251 PUSH2 0x443 CALLDATASIZE PUSH1 0x4 PUSH2 0x33C8 JUMP JUMPDEST PUSH2 0x2501 JUMP JUMPDEST PUSH2 0x45B PUSH2 0x456 CALLDATASIZE PUSH1 0x4 PUSH2 0x30E1 JUMP JUMPDEST PUSH2 0x2632 JUMP JUMPDEST PUSH1 0x40 MLOAD PUSH2 0x215 SWAP2 SWAP1 PUSH2 0x355A JUMP JUMPDEST PUSH2 0x251 PUSH2 0x476 CALLDATASIZE PUSH1 0x4 PUSH2 0x30E1 JUMP JUMPDEST PUSH2 0x26A0 JUMP JUMPDEST PUSH2 0x251 PUSH2 0x489 CALLDATASIZE PUSH1 0x4 PUSH2 0x31FC JUMP JUMPDEST PUSH2 0x2719 JUMP JUMPDEST PUSH1 0x1 PUSH1 0x1 PUSH1 0xA0 SHL SUB DUP2 AND PUSH1 0x0 SWAP1 DUP2 MSTORE PUSH1 0x7 PUSH1 0x20 SWAP1 DUP2 MSTORE PUSH1 0x40 SWAP2 DUP3 SWAP1 KECCAK256 DUP1 SLOAD DUP4 MLOAD DUP2 DUP5 MUL DUP2 ADD DUP5 ADD SWAP1 SWAP5 MSTORE DUP1 DUP5 MSTORE PUSH1 0x60 SWAP4 SWAP3 DUP4 ADD DUP3 DUP3 DUP1 ISZERO PUSH2 0x4F8 JUMPI PUSH1 0x20 MUL DUP3 ADD SWAP2 SWAP1 PUSH1 0x0 MSTORE PUSH1 0x20 PUSH1 0x0 KECCAK256 SWAP1 JUMPDEST DUP2 SLOAD PUSH1 0x1 PUSH1 0x1 PUSH1 0xA0 SHL SUB AND DUP2 MSTORE PUSH1 0x1 SWAP1 SWAP2 ADD SWAP1 PUSH1 0x20 ADD DUP1 DUP4 GT PUSH2 0x4DA JUMPI JUMPDEST POP POP POP POP POP SWAP1 POP SWAP2 SWAP1 POP JUMP JUMPDEST PUSH1 0x1 PUSH1 0x1 PUSH1 0xA0 SHL SUB DUP5 AND PUSH1 0x0 SWAP1 DUP2 MSTORE PUSH1 0x7 PUSH1 0x20 MSTORE PUSH1 0x40 SWAP1 KECCAK256 PUSH1 0x3 ADD SLOAD DUP5 SWAP1 ISZERO DUP1 ISZERO SWAP1 PUSH2 0x547 JUMPI POP PUSH1 0x1 PUSH1 0x1 PUSH1 0xA0 SHL SUB DUP2 AND PUSH1 0x0 SWAP1 DUP2 MSTORE PUSH1 0x7 PUSH1 0x20 MSTORE PUSH1 0x40 SWAP1 KECCAK256 SLOAD ISZERO ISZERO JUMPDEST DUP1 ISZERO PUSH2 0x56F JUMPI POP PUSH1 0x1 PUSH1 0x1 PUSH1 0xA0 SHL SUB DUP2 DUP2 AND PUSH1 0x0 SWAP1 DUP2 MSTORE PUSH1 0x7 PUSH1 0x20 MSTORE PUSH1 0x40 SWAP1 KECCAK256 PUSH1 0x2 ADD SLOAD AND ISZERO ISZERO JUMPDEST PUSH2 0x594 JUMPI PUSH1 0x40 MLOAD PUSH3 0x461BCD PUSH1 0xE5 SHL DUP2 MSTORE PUSH1 0x4 ADD PUSH2 0x58B SWAP1 PUSH2 0x3592 JUMP JUMPDEST PUSH1 0x40 MLOAD DUP1 SWAP2 SUB SWAP1 REVERT JUMPDEST PUSH1 0x5 SLOAD PUSH1 0x1 PUSH1 0x1 PUSH1 0xA0 SHL SUB DUP7 AND PUSH1 0x0 SWAP1 DUP2 MSTORE PUSH1 0x7 PUSH1 0x20 MSTORE PUSH1 0x40 SWAP1 KECCAK256 PUSH1 0x3 ADD SLOAD DUP7 SWAP2 PUSH2 0x5BE SWAP2 PUSH2 0x35DF JUMP JUMPDEST TIMESTAMP LT ISZERO PUSH2 0x5DD JUMPI PUSH1 0x40 MLOAD PUSH3 0x461BCD PUSH1 0xE5 SHL DUP2 MSTORE PUSH1 0x4 ADD PUSH2 0x58B SWAP1 PUSH2 0x35F8 JUMP JUMPDEST PUSH1 0x0 JUMPDEST DUP4 DUP2 LT ISZERO PUSH2 0x66C JUMPI ADDRESS PUSH4 0xD3171094 DUP9 DUP9 DUP9 DUP9 DUP7 DUP2 DUP2 LT PUSH2 0x602 JUMPI PUSH2 0x602 PUSH2 0x362F JUMP JUMPDEST SWAP1 POP PUSH1 0x20 MUL ADD CALLDATALOAD PUSH1 0x40 MLOAD DUP5 PUSH4 0xFFFFFFFF AND PUSH1 0xE0 SHL DUP2 MSTORE PUSH1 0x4 ADD PUSH2 0x627 SWAP4 SWAP3 SWAP2 SWAP1 PUSH2 0x3645 JUMP JUMPDEST PUSH1 0x0 PUSH1 0x40 MLOAD DUP1 DUP4 SUB DUP2 PUSH1 0x0 DUP8 DUP1 EXTCODESIZE ISZERO DUP1 ISZERO PUSH2 0x641 JUMPI PUSH1 0x0 DUP1 REVERT JUMPDEST POP GAS CALL ISZERO DUP1 ISZERO PUSH2 0x655 JUMPI RETURNDATASIZE PUSH1 0x0 DUP1 RETURNDATACOPY RETURNDATASIZE PUSH1 0x0 REVERT JUMPDEST POP POP POP POP DUP1 DUP1 PUSH2 0x664 SWAP1 PUSH2 0x3669 JUMP JUMPDEST SWAP2 POP POP PUSH2 0x5E0 JUMP JUMPDEST POP POP POP POP POP POP POP JUMP JUMPDEST PUSH2 0x67D PUSH2 0x289E JUMP JUMPDEST PUSH1 0x6 DUP1 SLOAD PUSH1 0x1 PUSH1 0x1 PUSH1 0xA0 SHL SUB NOT AND PUSH1 0x1 PUSH1 0x1 PUSH1 0xA0 SHL SUB SWAP3 SWAP1 SWAP3 AND SWAP2 SWAP1 SWAP2 OR SWAP1 SSTORE JUMP JUMPDEST PUSH1 0x1 PUSH1 0x1 PUSH1 0xA0 SHL SUB DUP5 AND PUSH1 0x0 SWAP1 DUP2 MSTORE PUSH1 0x7 PUSH1 0x20 MSTORE PUSH1 0x40 SWAP1 KECCAK256 PUSH1 0x3 ADD SLOAD DUP5 SWAP1 ISZERO DUP1 ISZERO SWAP1 PUSH2 0x6E2 JUMPI POP PUSH1 0x1 PUSH1 0x1 PUSH1 0xA0 SHL SUB DUP2 AND PUSH1 0x0 SWAP1 DUP2 MSTORE PUSH1 0x7 PUSH1 0x20 MSTORE PUSH1 0x40 SWAP1 KECCAK256 SLOAD ISZERO ISZERO JUMPDEST DUP1 ISZERO PUSH2 0x70A JUMPI POP PUSH1 0x1 PUSH1 0x1 PUSH1 0xA0 SHL SUB DUP2 DUP2 AND PUSH1 0x0 SWAP1 DUP2 MSTORE PUSH1 0x7 PUSH1 0x20 MSTORE PUSH1 0x40 SWAP1 KECCAK256 PUSH1 0x2 ADD SLOAD AND ISZERO ISZERO JUMPDEST PUSH2 0x726 JUMPI PUSH1 0x40 MLOAD PUSH3 0x461BCD PUSH1 0xE5 SHL DUP2 MSTORE PUSH1 0x4 ADD PUSH2 0x58B SWAP1 PUSH2 0x3592 JUMP JUMPDEST PUSH1 0x5 SLOAD PUSH1 0x1 PUSH1 0x1 PUSH1 0xA0 SHL SUB DUP7 AND PUSH1 0x0 SWAP1 DUP2 MSTORE PUSH1 0x7 PUSH1 0x20 MSTORE PUSH1 0x40 SWAP1 KECCAK256 PUSH1 0x3 ADD SLOAD DUP7 SWAP2 PUSH2 0x750 SWAP2 PUSH2 0x35DF JUMP JUMPDEST TIMESTAMP LT ISZERO PUSH2 0x76F JUMPI PUSH1 0x40 MLOAD PUSH3 0x461BCD PUSH1 0xE5 SHL DUP2 MSTORE PUSH1 0x4 ADD PUSH2 0x58B SWAP1 PUSH2 0x35F8 JUMP JUMPDEST PUSH1 0x0 JUMPDEST DUP4 DUP2 LT ISZERO PUSH2 0x66C JUMPI PUSH1 0x6 SLOAD PUSH1 0x1 PUSH1 0x1 PUSH1 0xA0 SHL SUB DUP1 DUP9 AND SWAP2 PUSH4 0x42842E0E SWAP2 DUP11 SWAP2 AND DUP9 DUP9 DUP7 DUP2 DUP2 LT PUSH2 0x7A4 JUMPI PUSH2 0x7A4 PUSH2 0x362F JUMP JUMPDEST SWAP1 POP PUSH1 0x20 MUL ADD CALLDATALOAD PUSH1 0x40 MLOAD DUP5 PUSH4 0xFFFFFFFF AND PUSH1 0xE0 SHL DUP2 MSTORE PUSH1 0x4 ADD PUSH2 0x7C9 SWAP4 SWAP3 SWAP2 SWAP1 PUSH2 0x3645 JUMP JUMPDEST PUSH1 0x0 PUSH1 0x40 MLOAD DUP1 DUP4 SUB DUP2 PUSH1 0x0 DUP8 DUP1 EXTCODESIZE ISZERO DUP1 ISZERO PUSH2 0x7E3 JUMPI PUSH1 0x0 DUP1 REVERT JUMPDEST POP GAS CALL ISZERO DUP1 ISZERO PUSH2 0x7F7 JUMPI RETURNDATASIZE PUSH1 0x0 DUP1 RETURNDATACOPY RETURNDATASIZE PUSH1 0x0 REVERT JUMPDEST POP POP POP POP DUP1 DUP1 PUSH2 0x806 SWAP1 PUSH2 0x3669 JUMP JUMPDEST SWAP2 POP POP PUSH2 0x772 JUMP JUMPDEST PUSH2 0x816 PUSH2 0x289E JUMP JUMPDEST PUSH2 0x820 PUSH1 0x0 PUSH2 0x28F8 JUMP JUMPDEST JUMP JUMPDEST PUSH1 0x1 PUSH1 0x1 PUSH1 0xA0 SHL SUB DUP5 AND PUSH1 0x0 SWAP1 DUP2 MSTORE PUSH1 0x7 PUSH1 0x20 MSTORE PUSH1 0x40 SWAP1 KECCAK256 PUSH1 0x3 ADD SLOAD DUP5 SWAP1 ISZERO DUP1 ISZERO SWAP1 PUSH2 0x865 JUMPI POP PUSH1 0x1 PUSH1 0x1 PUSH1 0xA0 SHL SUB DUP2 AND PUSH1 0x0 SWAP1 DUP2 MSTORE PUSH1 0x7 PUSH1 0x20 MSTORE PUSH1 0x40 SWAP1 KECCAK256 SLOAD ISZERO ISZERO JUMPDEST DUP1 ISZERO PUSH2 0x88D JUMPI POP PUSH1 0x1 PUSH1 0x1 PUSH1 0xA0 SHL SUB DUP2 DUP2 AND PUSH1 0x0 SWAP1 DUP2 MSTORE PUSH1 0x7 PUSH1 0x20 MSTORE PUSH1 0x40 SWAP1 KECCAK256 PUSH1 0x2 ADD SLOAD AND ISZERO ISZERO JUMPDEST PUSH2 0x8A9 JUMPI PUSH1 0x40 MLOAD PUSH3 0x461BCD PUSH1 0xE5 SHL DUP2 MSTORE PUSH1 0x4 ADD PUSH2 0x58B SWAP1 PUSH2 0x3592 JUMP JUMPDEST PUSH1 0x1 PUSH1 0x1 PUSH1 0xA0 SHL SUB DUP6 AND PUSH1 0x0 SWAP1 DUP2 MSTORE PUSH1 0x7 PUSH1 0x20 MSTORE PUSH1 0x40 SWAP1 KECCAK256 PUSH1 0x3 ADD SLOAD DUP6 SWAP1 TIMESTAMP LT ISZERO PUSH2 0x8E6 JUMPI PUSH1 0x40 MLOAD PUSH3 0x461BCD PUSH1 0xE5 SHL DUP2 MSTORE PUSH1 0x4 ADD PUSH2 0x58B SWAP1 PUSH2 0x3682 JUMP JUMPDEST DUP6 PUSH1 0x0 DUP1 JUMPDEST PUSH1 0x1 PUSH1 0x1 PUSH1 0xA0 SHL SUB DUP4 AND PUSH1 0x0 SWAP1 DUP2 MSTORE PUSH1 0x7 PUSH1 0x20 MSTORE PUSH1 0x40 SWAP1 KECCAK256 SLOAD DUP2 LT ISZERO PUSH2 0x990 JUMPI PUSH1 0x1 PUSH1 0x1 PUSH1 0xA0 SHL SUB DUP4 AND PUSH1 0x0 SWAP1 DUP2 MSTORE PUSH1 0x7 PUSH1 0x20 MSTORE PUSH1 0x40 SWAP1 KECCAK256 DUP1 SLOAD DUP3 SWAP1 DUP2 LT PUSH2 0x935 JUMPI PUSH2 0x935 PUSH2 0x362F JUMP JUMPDEST PUSH1 0x0 SWAP2 DUP3 MSTORE PUSH1 0x20 SWAP1 SWAP2 KECCAK256 ADD SLOAD PUSH1 0x1 PUSH1 0x1 PUSH1 0xA0 SHL SUB AND CALLER SUB PUSH2 0x955 JUMPI PUSH1 0x1 SWAP2 POP JUMPDEST PUSH1 0x1 PUSH1 0x1 PUSH1 0xA0 SHL SUB DUP1 DUP5 AND PUSH1 0x0 SWAP1 DUP2 MSTORE PUSH1 0x7 PUSH1 0x20 MSTORE PUSH1 0x40 SWAP1 KECCAK256 PUSH1 0x2 ADD SLOAD AND CALLER SUB PUSH2 0x97E JUMPI PUSH1 0x1 SWAP2 POP JUMPDEST DUP1 PUSH2 0x988 DUP2 PUSH2 0x3669 JUMP JUMPDEST SWAP2 POP POP PUSH2 0x8EB JUMP JUMPDEST POP DUP1 PUSH2 0x9AE JUMPI PUSH1 0x40 MLOAD PUSH3 0x461BCD PUSH1 0xE5 SHL DUP2 MSTORE PUSH1 0x4 ADD PUSH2 0x58B SWAP1 PUSH2 0x36B0 JUMP JUMPDEST PUSH1 0x0 JUMPDEST DUP6 DUP2 LT ISZERO PUSH2 0xA3D JUMPI ADDRESS PUSH4 0xA2EE4FFE DUP11 DUP11 DUP11 DUP11 DUP7 DUP2 DUP2 LT PUSH2 0x9D3 JUMPI PUSH2 0x9D3 PUSH2 0x362F JUMP JUMPDEST SWAP1 POP PUSH1 0x20 MUL ADD CALLDATALOAD PUSH1 0x40 MLOAD DUP5 PUSH4 0xFFFFFFFF AND PUSH1 0xE0 SHL DUP2 MSTORE PUSH1 0x4 ADD PUSH2 0x9F8 SWAP4 SWAP3 SWAP2 SWAP1 PUSH2 0x3645 JUMP JUMPDEST PUSH1 0x0 PUSH1 0x40 MLOAD DUP1 DUP4 SUB DUP2 PUSH1 0x0 DUP8 DUP1 EXTCODESIZE ISZERO DUP1 ISZERO PUSH2 0xA12 JUMPI PUSH1 0x0 DUP1 REVERT JUMPDEST POP GAS CALL ISZERO DUP1 ISZERO PUSH2 0xA26 JUMPI RETURNDATASIZE PUSH1 0x0 DUP1 RETURNDATACOPY RETURNDATASIZE PUSH1 0x0 REVERT JUMPDEST POP POP POP POP DUP1 DUP1 PUSH2 0xA35 SWAP1 PUSH2 0x3669 JUMP JUMPDEST SWAP2 POP POP PUSH2 0x9B1 JUMP JUMPDEST POP POP POP POP POP POP POP POP POP JUMP JUMPDEST PUSH1 0x1 PUSH1 0x1 PUSH1 0xA0 SHL SUB DUP12 AND PUSH1 0x0 SWAP1 DUP2 MSTORE PUSH1 0x7 PUSH1 0x20 MSTORE PUSH1 0x40 SWAP1 KECCAK256 PUSH1 0x3 ADD SLOAD DUP12 SWAP1 ISZERO DUP1 ISZERO SWAP1 PUSH2 0xA8B JUMPI POP PUSH1 0x1 PUSH1 0x1 PUSH1 0xA0 SHL SUB DUP2 AND PUSH1 0x0 SWAP1 DUP2 MSTORE PUSH1 0x7 PUSH1 0x20 MSTORE PUSH1 0x40 SWAP1 KECCAK256 SLOAD ISZERO ISZERO JUMPDEST DUP1 ISZERO PUSH2 0xAB3 JUMPI POP PUSH1 0x1 PUSH1 0x1 PUSH1 0xA0 SHL SUB DUP2 DUP2 AND PUSH1 0x0 SWAP1 DUP2 MSTORE PUSH1 0x7 PUSH1 0x20 MSTORE PUSH1 0x40 SWAP1 KECCAK256 PUSH1 0x2 ADD SLOAD AND ISZERO ISZERO JUMPDEST PUSH2 0xACF JUMPI PUSH1 0x40 MLOAD PUSH3 0x461BCD PUSH1 0xE5 SHL DUP2 MSTORE PUSH1 0x4 ADD PUSH2 0x58B SWAP1 PUSH2 0x3592 JUMP JUMPDEST PUSH1 0x5 SLOAD PUSH1 0x1 PUSH1 0x1 PUSH1 0xA0 SHL SUB DUP14 AND PUSH1 0x0 SWAP1 DUP2 MSTORE PUSH1 0x7 PUSH1 0x20 MSTORE PUSH1 0x40 SWAP1 KECCAK256 PUSH1 0x3 ADD SLOAD DUP14 SWAP2 PUSH2 0xAF9 SWAP2 PUSH2 0x35DF JUMP JUMPDEST TIMESTAMP LT ISZERO PUSH2 0xB18 JUMPI PUSH1 0x40 MLOAD PUSH3 0x461BCD PUSH1 0xE5 SHL DUP2 MSTORE PUSH1 0x4 ADD PUSH2 0x58B SWAP1 PUSH2 0x35F8 JUMP JUMPDEST ADDRESS PUSH1 0x1 PUSH1 0x1 PUSH1 0xA0 SHL SUB AND PUSH4 0xE6728EDB DUP15 DUP15 DUP15 PUSH1 0x40 MLOAD DUP5 PUSH4 0xFFFFFFFF AND PUSH1 0xE0 SHL DUP2 MSTORE PUSH1 0x4 ADD PUSH2 0xB48 SWAP4 SWAP3 SWAP2 SWAP1 PUSH2 0x36F3 JUMP JUMPDEST PUSH1 0x0 PUSH1 0x40 MLOAD DUP1 DUP4 SUB DUP2 PUSH1 0x0 DUP8 DUP1 EXTCODESIZE ISZERO DUP1 ISZERO PUSH2 0xB62 JUMPI PUSH1 0x0 DUP1 REVERT JUMPDEST POP GAS CALL ISZERO DUP1 ISZERO PUSH2 0xB76 JUMPI RETURNDATASIZE PUSH1 0x0 DUP1 RETURNDATACOPY RETURNDATASIZE PUSH1 0x0 REVERT JUMPDEST POP POP POP POP ADDRESS PUSH1 0x1 PUSH1 0x1 PUSH1 0xA0 SHL SUB AND PUSH4 0xD9732F4D DUP15 DUP13 DUP13 DUP11 DUP11 PUSH1 0x40 MLOAD DUP7 PUSH4 0xFFFFFFFF AND PUSH1 0xE0 SHL DUP2 MSTORE PUSH1 0x4 ADD PUSH2 0xBAE SWAP6 SWAP5 SWAP4 SWAP3 SWAP2 SWAP1 PUSH2 0x3781 JUMP JUMPDEST PUSH1 0x0 PUSH1 0x40 MLOAD DUP1 DUP4 SUB DUP2 PUSH1 0x0 DUP8 DUP1 EXTCODESIZE ISZERO DUP1 ISZERO PUSH2 0xBC8 JUMPI PUSH1 0x0 DUP1 REVERT JUMPDEST POP GAS CALL ISZERO DUP1 ISZERO PUSH2 0xBDC JUMPI RETURNDATASIZE PUSH1 0x0 DUP1 RETURNDATACOPY RETURNDATASIZE PUSH1 0x0 REVERT JUMPDEST POP POP POP POP PUSH1 0x0 JUMPDEST DUP8 DUP2 LT ISZERO PUSH2 0xCA1 JUMPI ADDRESS PUSH4 0x341B46DD DUP16 DUP12 DUP12 DUP6 DUP2 DUP2 LT PUSH2 0xC04 JUMPI PUSH2 0xC04 PUSH2 0x362F JUMP JUMPDEST SWAP1 POP PUSH1 0x20 MUL ADD PUSH1 0x20 DUP2 ADD SWAP1 PUSH2 0xC19 SWAP2 SWAP1 PUSH2 0x30E1 JUMP JUMPDEST DUP9 DUP9 DUP7 DUP2 DUP2 LT PUSH2 0xC2B JUMPI PUSH2 0xC2B PUSH2 0x362F JUMP JUMPDEST SWAP1 POP PUSH1 0x20 MUL DUP2 ADD SWAP1 PUSH2 0xC3D SWAP2 SWAP1 PUSH2 0x3874 JUMP JUMPDEST PUSH1 0x40 MLOAD DUP6 PUSH4 0xFFFFFFFF AND PUSH1 0xE0 SHL DUP2 MSTORE PUSH1 0x4 ADD PUSH2 0xC5C SWAP5 SWAP4 SWAP3 SWAP2 SWAP1 PUSH2 0x38BE JUMP JUMPDEST PUSH1 0x0 PUSH1 0x40 MLOAD DUP1 DUP4 SUB DUP2 PUSH1 0x0 DUP8 DUP1 EXTCODESIZE ISZERO DUP1 ISZERO PUSH2 0xC76 JUMPI PUSH1 0x0 DUP1 REVERT JUMPDEST POP GAS CALL ISZERO DUP1 ISZERO PUSH2 0xC8A JUMPI RETURNDATASIZE PUSH1 0x0 DUP1 RETURNDATACOPY RETURNDATASIZE PUSH1 0x0 REVERT JUMPDEST POP POP POP POP DUP1 DUP1 PUSH2 0xC99 SWAP1 PUSH2 0x3669 JUMP JUMPDEST SWAP2 POP POP PUSH2 0xBE3 JUMP JUMPDEST POP POP POP POP POP POP POP POP POP POP POP POP POP POP JUMP JUMPDEST DUP6 DUP6 DUP6 DUP6 CALLER DUP2 DUP5 EQ PUSH2 0xCD5 JUMPI PUSH1 0x40 MLOAD PUSH3 0x461BCD PUSH1 0xE5 SHL DUP2 MSTORE PUSH1 0x4 ADD PUSH2 0x58B SWAP1 PUSH2 0x38F5 JUMP JUMPDEST PUSH1 0x0 JUMPDEST DUP5 DUP2 LT ISZERO PUSH2 0xE0A JUMPI PUSH1 0x0 DUP7 DUP7 DUP4 DUP2 DUP2 LT PUSH2 0xCF4 JUMPI PUSH2 0xCF4 PUSH2 0x362F JUMP JUMPDEST SWAP1 POP PUSH1 0x20 MUL ADD PUSH1 0x20 DUP2 ADD SWAP1 PUSH2 0xD09 SWAP2 SWAP1 PUSH2 0x30E1 JUMP JUMPDEST PUSH1 0x1 PUSH1 0x1 PUSH1 0xA0 SHL SUB AND SUB PUSH2 0xD2F JUMPI PUSH1 0x40 MLOAD PUSH3 0x461BCD PUSH1 0xE5 SHL DUP2 MSTORE PUSH1 0x4 ADD PUSH2 0x58B SWAP1 PUSH2 0x3947 JUMP JUMPDEST DUP2 PUSH1 0x1 PUSH1 0x1 PUSH1 0xA0 SHL SUB AND DUP7 DUP7 DUP4 DUP2 DUP2 LT PUSH2 0xD4B JUMPI PUSH2 0xD4B PUSH2 0x362F JUMP JUMPDEST SWAP1 POP PUSH1 0x20 MUL ADD PUSH1 0x20 DUP2 ADD SWAP1 PUSH2 0xD60 SWAP2 SWAP1 PUSH2 0x30E1 JUMP JUMPDEST PUSH1 0x1 PUSH1 0x1 PUSH1 0xA0 SHL SUB AND SUB PUSH2 0xD86 JUMPI PUSH1 0x40 MLOAD PUSH3 0x461BCD PUSH1 0xE5 SHL DUP2 MSTORE PUSH1 0x4 ADD PUSH2 0x58B SWAP1 PUSH2 0x3996 JUMP JUMPDEST PUSH1 0x4 SLOAD DUP5 DUP5 DUP4 DUP2 DUP2 LT PUSH2 0xD9B JUMPI PUSH2 0xD9B PUSH2 0x362F JUMP JUMPDEST SWAP1 POP PUSH1 0x20 MUL ADD CALLDATALOAD GT ISZERO PUSH2 0xDC0 JUMPI PUSH1 0x40 MLOAD PUSH3 0x461BCD PUSH1 0xE5 SHL DUP2 MSTORE PUSH1 0x4 ADD PUSH2 0x58B SWAP1 PUSH2 0x39E1 JUMP JUMPDEST DUP4 DUP4 DUP3 DUP2 DUP2 LT PUSH2 0xDD2 JUMPI PUSH2 0xDD2 PUSH2 0x362F JUMP JUMPDEST SWAP1 POP PUSH1 0x20 MUL ADD CALLDATALOAD PUSH1 0x0 SUB PUSH2 0xDF8 JUMPI PUSH1 0x40 MLOAD PUSH3 0x461BCD PUSH1 0xE5 SHL DUP2 MSTORE PUSH1 0x4 ADD PUSH2 0x58B SWAP1 PUSH2 0x3A2D JUMP JUMPDEST DUP1 PUSH2 0xE02 DUP2 PUSH2 0x3669 JUMP JUMPDEST SWAP2 POP POP PUSH2 0xCD8 JUMP JUMPDEST POP DUP6 PUSH1 0x2 SLOAD TIMESTAMP PUSH2 0xE1A SWAP2 SWAP1 PUSH2 0x35DF JUMP JUMPDEST DUP2 LT ISZERO PUSH2 0xE39 JUMPI PUSH1 0x40 MLOAD PUSH3 0x461BCD PUSH1 0xE5 SHL DUP2 MSTORE PUSH1 0x4 ADD PUSH2 0x58B SWAP1 PUSH2 0x3A64 JUMP JUMPDEST DUP8 PUSH1 0x1 PUSH1 0x1 PUSH1 0xA0 SHL SUB DUP2 AND PUSH2 0xE60 JUMPI PUSH1 0x40 MLOAD PUSH3 0x461BCD PUSH1 0xE5 SHL DUP2 MSTORE PUSH1 0x4 ADD PUSH2 0x58B SWAP1 PUSH2 0x3AC1 JUMP JUMPDEST DUP11 DUP11 PUSH1 0x0 JUMPDEST DUP2 DUP2 LT ISZERO PUSH2 0xEF2 JUMPI PUSH1 0x4 SLOAD DUP4 DUP4 DUP4 DUP2 DUP2 LT PUSH2 0xE82 JUMPI PUSH2 0xE82 PUSH2 0x362F JUMP JUMPDEST SWAP1 POP PUSH1 0x20 MUL ADD CALLDATALOAD GT ISZERO PUSH2 0xEA7 JUMPI PUSH1 0x40 MLOAD PUSH3 0x461BCD PUSH1 0xE5 SHL DUP2 MSTORE PUSH1 0x4 ADD PUSH2 0x58B SWAP1 PUSH2 0x39E1 JUMP JUMPDEST PUSH1 0x0 DUP4 DUP4 DUP4 DUP2 DUP2 LT PUSH2 0xEBB JUMPI PUSH2 0xEBB PUSH2 0x362F JUMP JUMPDEST SWAP1 POP PUSH1 0x20 MUL ADD CALLDATALOAD LT ISZERO PUSH2 0xEE0 JUMPI PUSH1 0x40 MLOAD PUSH3 0x461BCD PUSH1 0xE5 SHL DUP2 MSTORE PUSH1 0x4 ADD PUSH2 0x58B SWAP1 PUSH2 0x3A2D JUMP JUMPDEST DUP1 PUSH2 0xEEA DUP2 PUSH2 0x3669 JUMP JUMPDEST SWAP2 POP POP PUSH2 0xE65 JUMP JUMPDEST POP PUSH1 0x0 PUSH1 0x7 PUSH1 0x0 CALLER PUSH1 0x1 PUSH1 0x1 PUSH1 0xA0 SHL SUB AND PUSH1 0x1 PUSH1 0x1 PUSH1 0xA0 SHL SUB AND DUP2 MSTORE PUSH1 0x20 ADD SWAP1 DUP2 MSTORE PUSH1 0x20 ADD PUSH1 0x0 KECCAK256 SWAP1 POP DUP16 DUP16 DUP3 PUSH1 0x0 ADD SWAP2 SWAP1 PUSH2 0xF2F SWAP3 SWAP2 SWAP1 PUSH2 0x3009 JUMP JUMPDEST POP PUSH2 0xF3E PUSH1 0x4 DUP3 ADD DUP16 DUP16 PUSH2 0x306C JUMP JUMPDEST POP PUSH1 0x0 PUSH1 0x1 DUP3 ADD DUP2 SWAP1 SSTORE PUSH1 0x2 DUP3 ADD DUP1 SLOAD PUSH1 0x1 PUSH1 0x1 PUSH1 0xA0 SHL SUB NOT AND PUSH1 0x1 PUSH1 0x1 PUSH1 0xA0 SHL SUB DUP16 AND OR SWAP1 SSTORE PUSH1 0x3 DUP3 ADD DUP13 SWAP1 SSTORE JUMPDEST DUP14 DUP2 LT ISZERO PUSH2 0xFB9 JUMPI DUP15 DUP15 DUP3 DUP2 DUP2 LT PUSH2 0xF87 JUMPI PUSH2 0xF87 PUSH2 0x362F JUMP JUMPDEST SWAP1 POP PUSH1 0x20 MUL ADD CALLDATALOAD DUP3 PUSH1 0x1 ADD PUSH1 0x0 DUP3 DUP3 SLOAD PUSH2 0xFA1 SWAP2 SWAP1 PUSH2 0x35DF JUMP JUMPDEST SWAP1 SWAP2 SSTORE POP DUP2 SWAP1 POP PUSH2 0xFB1 DUP2 PUSH2 0x3669 JUMP JUMPDEST SWAP2 POP POP PUSH2 0xF6D JUMP JUMPDEST POP POP POP POP POP POP POP POP POP POP POP POP POP POP POP POP POP JUMP JUMPDEST PUSH1 0x1 PUSH1 0x1 PUSH1 0xA0 SHL SUB DUP3 AND PUSH1 0x0 SWAP1 DUP2 MSTORE PUSH1 0x7 PUSH1 0x20 MSTORE PUSH1 0x40 SWAP1 KECCAK256 PUSH1 0x3 ADD SLOAD DUP3 SWAP1 ISZERO DUP1 ISZERO SWAP1 PUSH2 0x100F JUMPI POP PUSH1 0x1 PUSH1 0x1 PUSH1 0xA0 SHL SUB DUP2 AND PUSH1 0x0 SWAP1 DUP2 MSTORE PUSH1 0x7 PUSH1 0x20 MSTORE PUSH1 0x40 SWAP1 KECCAK256 SLOAD ISZERO ISZERO JUMPDEST DUP1 ISZERO PUSH2 0x1037 JUMPI POP PUSH1 0x1 PUSH1 0x1 PUSH1 0xA0 SHL SUB DUP2 DUP2 AND PUSH1 0x0 SWAP1 DUP2 MSTORE PUSH1 0x7 PUSH1 0x20 MSTORE PUSH1 0x40 SWAP1 KECCAK256 PUSH1 0x2 ADD SLOAD AND ISZERO ISZERO JUMPDEST PUSH2 0x1053 JUMPI PUSH1 0x40 MLOAD PUSH3 0x461BCD PUSH1 0xE5 SHL DUP2 MSTORE PUSH1 0x4 ADD PUSH2 0x58B SWAP1 PUSH2 0x3592 JUMP JUMPDEST PUSH1 0x5 SLOAD PUSH1 0x1 PUSH1 0x1 PUSH1 0xA0 SHL SUB DUP5 AND PUSH1 0x0 SWAP1 DUP2 MSTORE PUSH1 0x7 PUSH1 0x20 MSTORE PUSH1 0x40 SWAP1 KECCAK256 PUSH1 0x3 ADD SLOAD DUP5 SWAP2 PUSH2 0x107D SWAP2 PUSH2 0x35DF JUMP JUMPDEST TIMESTAMP LT ISZERO PUSH2 0x109C JUMPI PUSH1 0x40 MLOAD PUSH3 0x461BCD PUSH1 0xE5 SHL DUP2 MSTORE PUSH1 0x4 ADD PUSH2 0x58B SWAP1 PUSH2 0x35F8 JUMP JUMPDEST PUSH1 0x40 MLOAD PUSH4 0x70A08231 PUSH1 0xE0 SHL DUP2 MSTORE PUSH1 0x1 PUSH1 0x1 PUSH1 0xA0 SHL SUB DUP6 DUP2 AND PUSH1 0x4 DUP4 ADD MSTORE PUSH1 0x0 SWAP2 SWAP1 DUP6 AND SWAP1 PUSH4 0x70A08231 SWAP1 PUSH1 0x24 ADD PUSH1 0x20 PUSH1 0x40 MLOAD DUP1 DUP4 SUB DUP2 DUP7 GAS STATICCALL ISZERO DUP1 ISZERO PUSH2 0x10E6 JUMPI RETURNDATASIZE PUSH1 0x0 DUP1 RETURNDATACOPY RETURNDATASIZE PUSH1 0x0 REVERT JUMPDEST POP POP POP POP PUSH1 0x40 MLOAD RETURNDATASIZE PUSH1 0x1F NOT PUSH1 0x1F DUP3 ADD AND DUP3 ADD DUP1 PUSH1 0x40 MSTORE POP DUP2 ADD SWAP1 PUSH2 0x110A SWAP2 SWAP1 PUSH2 0x3B1E JUMP JUMPDEST SWAP1 POP PUSH1 0x0 DUP2 PUSH1 0x0 SUB PUSH2 0x112E JUMPI PUSH1 0x40 MLOAD PUSH3 0x461BCD PUSH1 0xE5 SHL DUP2 MSTORE PUSH1 0x4 ADD PUSH2 0x58B SWAP1 PUSH2 0x3B37 JUMP JUMPDEST PUSH1 0x40 MLOAD PUSH4 0x6EB1769F PUSH1 0xE1 SHL DUP2 MSTORE PUSH1 0x1 PUSH1 0x1 PUSH1 0xA0 SHL SUB DUP8 DUP2 AND PUSH1 0x4 DUP4 ADD MSTORE ADDRESS PUSH1 0x24 DUP4 ADD MSTORE PUSH1 0x0 SWAP2 SWAP1 DUP8 AND SWAP1 PUSH4 0xDD62ED3E SWAP1 PUSH1 0x44 ADD PUSH1 0x20 PUSH1 0x40 MLOAD DUP1 DUP4 SUB DUP2 DUP7 GAS STATICCALL ISZERO DUP1 ISZERO PUSH2 0x117E JUMPI RETURNDATASIZE PUSH1 0x0 DUP1 RETURNDATACOPY RETURNDATASIZE PUSH1 0x0 REVERT JUMPDEST POP POP POP POP PUSH1 0x40 MLOAD RETURNDATASIZE PUSH1 0x1F NOT PUSH1 0x1F DUP3 ADD AND DUP3 ADD DUP1 PUSH1 0x40 MSTORE POP DUP2 ADD SWAP1 PUSH2 0x11A2 SWAP2 SWAP1 PUSH2 0x3B1E JUMP JUMPDEST SWAP1 POP DUP1 PUSH1 0x0 SUB PUSH2 0x11F4 JUMPI PUSH1 0x40 MLOAD PUSH3 0x461BCD PUSH1 0xE5 SHL DUP2 MSTORE PUSH1 0x20 PUSH1 0x4 DUP3 ADD MSTORE PUSH1 0x1C PUSH1 0x24 DUP3 ADD MSTORE PUSH32 0x57696C6C65723A204552433230207A65726F20616C6C6F77616E636500000000 PUSH1 0x44 DUP3 ADD MSTORE PUSH1 0x64 ADD PUSH2 0x58B JUMP JUMPDEST DUP3 DUP2 LT ISZERO PUSH2 0x1200 JUMPI DUP1 SWAP3 POP JUMPDEST PUSH1 0x6 SLOAD PUSH2 0x66C SWAP1 PUSH1 0x1 PUSH1 0x1 PUSH1 0xA0 SHL SUB DUP9 DUP2 AND SWAP2 DUP11 SWAP2 AND DUP7 PUSH2 0x2948 JUMP JUMPDEST PUSH1 0x1 PUSH1 0x1 PUSH1 0xA0 SHL SUB DUP4 AND PUSH1 0x0 SWAP1 DUP2 MSTORE PUSH1 0x7 PUSH1 0x20 MSTORE PUSH1 0x40 SWAP1 KECCAK256 PUSH1 0x3 ADD SLOAD DUP4 SWAP1 ISZERO DUP1 ISZERO SWAP1 PUSH2 0x125F JUMPI POP PUSH1 0x1 PUSH1 0x1 PUSH1 0xA0 SHL SUB DUP2 AND PUSH1 0x0 SWAP1 DUP2 MSTORE PUSH1 0x7 PUSH1 0x20 MSTORE PUSH1 0x40 SWAP1 KECCAK256 SLOAD ISZERO ISZERO JUMPDEST DUP1 ISZERO PUSH2 0x1287 JUMPI POP PUSH1 0x1 PUSH1 0x1 PUSH1 0xA0 SHL SUB DUP2 DUP2 AND PUSH1 0x0 SWAP1 DUP2 MSTORE PUSH1 0x7 PUSH1 0x20 MSTORE PUSH1 0x40 SWAP1 KECCAK256 PUSH1 0x2 ADD SLOAD AND ISZERO ISZERO JUMPDEST PUSH2 0x12A3 JUMPI PUSH1 0x40 MLOAD PUSH3 0x461BCD PUSH1 0xE5 SHL DUP2 MSTORE PUSH1 0x4 ADD PUSH2 0x58B SWAP1 PUSH2 0x3592 JUMP JUMPDEST PUSH1 0x1 PUSH1 0x1 PUSH1 0xA0 SHL SUB DUP5 AND PUSH1 0x0 SWAP1 DUP2 MSTORE PUSH1 0x7 PUSH1 0x20 MSTORE PUSH1 0x40 SWAP1 KECCAK256 PUSH1 0x3 ADD SLOAD DUP5 SWAP1 TIMESTAMP LT ISZERO PUSH2 0x12E0 JUMPI PUSH1 0x40 MLOAD PUSH3 0x461BCD PUSH1 0xE5 SHL DUP2 MSTORE PUSH1 0x4 ADD PUSH2 0x58B SWAP1 PUSH2 0x3682 JUMP JUMPDEST DUP5 PUSH1 0x0 DUP1 JUMPDEST PUSH1 0x1 PUSH1 0x1 PUSH1 0xA0 SHL SUB DUP4 AND PUSH1 0x0 SWAP1 DUP2 MSTORE PUSH1 0x7 PUSH1 0x20 MSTORE PUSH1 0x40 SWAP1 KECCAK256 SLOAD DUP2 LT ISZERO PUSH2 0x138A JUMPI PUSH1 0x1 PUSH1 0x1 PUSH1 0xA0 SHL SUB DUP4 AND PUSH1 0x0 SWAP1 DUP2 MSTORE PUSH1 0x7 PUSH1 0x20 MSTORE PUSH1 0x40 SWAP1 KECCAK256 DUP1 SLOAD DUP3 SWAP1 DUP2 LT PUSH2 0x132F JUMPI PUSH2 0x132F PUSH2 0x362F JUMP JUMPDEST PUSH1 0x0 SWAP2 DUP3 MSTORE PUSH1 0x20 SWAP1 SWAP2 KECCAK256 ADD SLOAD PUSH1 0x1 PUSH1 0x1 PUSH1 0xA0 SHL SUB AND CALLER SUB PUSH2 0x134F JUMPI PUSH1 0x1 SWAP2 POP JUMPDEST PUSH1 0x1 PUSH1 0x1 PUSH1 0xA0 SHL SUB DUP1 DUP5 AND PUSH1 0x0 SWAP1 DUP2 MSTORE PUSH1 0x7 PUSH1 0x20 MSTORE PUSH1 0x40 SWAP1 KECCAK256 PUSH1 0x2 ADD SLOAD AND CALLER SUB PUSH2 0x1378 JUMPI PUSH1 0x1 SWAP2 POP JUMPDEST DUP1 PUSH2 0x1382 DUP2 PUSH2 0x3669 JUMP JUMPDEST SWAP2 POP POP PUSH2 0x12E5 JUMP JUMPDEST POP DUP1 PUSH2 0x13A8 JUMPI PUSH1 0x40 MLOAD PUSH3 0x461BCD PUSH1 0xE5 SHL DUP2 MSTORE PUSH1 0x4 ADD PUSH2 0x58B SWAP1 PUSH2 0x36B0 JUMP JUMPDEST PUSH2 0x13B0 PUSH2 0x29A6 JUMP JUMPDEST PUSH1 0x0 JUMPDEST DUP6 DUP2 LT ISZERO PUSH2 0x13FD JUMPI PUSH2 0x13EB DUP9 DUP9 DUP9 DUP5 DUP2 DUP2 LT PUSH2 0x13D1 JUMPI PUSH2 0x13D1 PUSH2 0x362F JUMP JUMPDEST SWAP1 POP PUSH1 0x20 MUL ADD PUSH1 0x20 DUP2 ADD SWAP1 PUSH2 0x13E6 SWAP2 SWAP1 PUSH2 0x30E1 JUMP JUMPDEST PUSH2 0x29FF JUMP JUMPDEST DUP1 PUSH2 0x13F5 DUP2 PUSH2 0x3669 JUMP JUMPDEST SWAP2 POP POP PUSH2 0x13B3 JUMP JUMPDEST POP PUSH2 0x66C PUSH1 0x1 DUP1 SSTORE JUMP JUMPDEST PUSH1 0x1 PUSH1 0x1 PUSH1 0xA0 SHL SUB DUP4 AND PUSH1 0x0 SWAP1 DUP2 MSTORE PUSH1 0x7 PUSH1 0x20 MSTORE PUSH1 0x40 SWAP1 KECCAK256 PUSH1 0x3 ADD SLOAD DUP4 SWAP1 ISZERO DUP1 ISZERO SWAP1 PUSH2 0x144A JUMPI POP PUSH1 0x1 PUSH1 0x1 PUSH1 0xA0 SHL SUB DUP2 AND PUSH1 0x0 SWAP1 DUP2 MSTORE PUSH1 0x7 PUSH1 0x20 MSTORE PUSH1 0x40 SWAP1 KECCAK256 SLOAD ISZERO ISZERO JUMPDEST DUP1 ISZERO PUSH2 0x1472 JUMPI POP PUSH1 0x1 PUSH1 0x1 PUSH1 0xA0 SHL SUB DUP2 DUP2 AND PUSH1 0x0 SWAP1 DUP2 MSTORE PUSH1 0x7 PUSH1 0x20 MSTORE PUSH1 0x40 SWAP1 KECCAK256 PUSH1 0x2 ADD SLOAD AND ISZERO ISZERO JUMPDEST PUSH2 0x148E JUMPI PUSH1 0x40 MLOAD PUSH3 0x461BCD PUSH1 0xE5 SHL DUP2 MSTORE PUSH1 0x4 ADD PUSH2 0x58B SWAP1 PUSH2 0x3592 JUMP JUMPDEST PUSH1 0x1 PUSH1 0x1 PUSH1 0xA0 SHL SUB DUP5 AND PUSH1 0x0 SWAP1 DUP2 MSTORE PUSH1 0x7 PUSH1 0x20 MSTORE PUSH1 0x40 SWAP1 KECCAK256 PUSH1 0x3 ADD SLOAD DUP5 SWAP1 TIMESTAMP LT ISZERO PUSH2 0x14CB JUMPI PUSH1 0x40 MLOAD PUSH3 0x461BCD PUSH1 0xE5 SHL DUP2 MSTORE PUSH1 0x4 ADD PUSH2 0x58B SWAP1 PUSH2 0x3682 JUMP JUMPDEST DUP5 PUSH1 0x0 DUP1 JUMPDEST PUSH1 0x1 PUSH1 0x1 PUSH1 0xA0 SHL SUB DUP4 AND PUSH1 0x0 SWAP1 DUP2 MSTORE PUSH1 0x7 PUSH1 0x20 MSTORE PUSH1 0x40 SWAP1 KECCAK256 SLOAD DUP2 LT ISZERO PUSH2 0x1575 JUMPI PUSH1 0x1 PUSH1 0x1 PUSH1 0xA0 SHL SUB DUP4 AND PUSH1 0x0 SWAP1 DUP2 MSTORE PUSH1 0x7 PUSH1 0x20 MSTORE PUSH1 0x40 SWAP1 KECCAK256 DUP1 SLOAD DUP3 SWAP1 DUP2 LT PUSH2 0x151A JUMPI PUSH2 0x151A PUSH2 0x362F JUMP JUMPDEST PUSH1 0x0 SWAP2 DUP3 MSTORE PUSH1 0x20 SWAP1 SWAP2 KECCAK256 ADD SLOAD PUSH1 0x1 PUSH1 0x1 PUSH1 0xA0 SHL SUB AND CALLER SUB PUSH2 0x153A JUMPI PUSH1 0x1 SWAP2 POP JUMPDEST PUSH1 0x1 PUSH1 0x1 PUSH1 0xA0 SHL SUB DUP1 DUP5 AND PUSH1 0x0 SWAP1 DUP2 MSTORE PUSH1 0x7 PUSH1 0x20 MSTORE PUSH1 0x40 SWAP1 KECCAK256 PUSH1 0x2 ADD SLOAD AND CALLER SUB PUSH2 0x1563 JUMPI PUSH1 0x1 SWAP2 POP JUMPDEST DUP1 PUSH2 0x156D DUP2 PUSH2 0x3669 JUMP JUMPDEST SWAP2 POP POP PUSH2 0x14D0 JUMP JUMPDEST POP DUP1 PUSH2 0x1593 JUMPI PUSH1 0x40 MLOAD PUSH3 0x461BCD PUSH1 0xE5 SHL DUP2 MSTORE PUSH1 0x4 ADD PUSH2 0x58B SWAP1 PUSH2 0x36B0 JUMP JUMPDEST PUSH2 0x159B PUSH2 0x29A6 JUMP JUMPDEST PUSH1 0x40 MLOAD PUSH3 0x7EEAC7 PUSH1 0xE1 SHL DUP2 MSTORE PUSH1 0x1 PUSH1 0x1 PUSH1 0xA0 SHL SUB DUP9 DUP2 AND PUSH1 0x4 DUP4 ADD MSTORE PUSH1 0x24 DUP3 ADD DUP8 SWAP1 MSTORE PUSH1 0x0 SWAP2 SWAP1 DUP9 AND SWAP1 PUSH3 0xFDD58E SWAP1 PUSH1 0x44 ADD PUSH1 0x20 PUSH1 0x40 MLOAD DUP1 DUP4 SUB DUP2 DUP7 GAS STATICCALL ISZERO DUP1 ISZERO PUSH2 0x15EA JUMPI RETURNDATASIZE PUSH1 0x0 DUP1 RETURNDATACOPY RETURNDATASIZE PUSH1 0x0 REVERT JUMPDEST POP POP POP POP PUSH1 0x40 MLOAD RETURNDATASIZE PUSH1 0x1F NOT PUSH1 0x1F DUP3 ADD AND DUP3 ADD DUP1 PUSH1 0x40 MSTORE POP DUP2 ADD SWAP1 PUSH2 0x160E SWAP2 SWAP1 PUSH2 0x3B1E JUMP JUMPDEST SWAP1 POP PUSH1 0x0 DUP1 JUMPDEST PUSH1 0x1 PUSH1 0x1 PUSH1 0xA0 SHL SUB DUP11 AND PUSH1 0x0 SWAP1 DUP2 MSTORE PUSH1 0x7 PUSH1 0x20 MSTORE PUSH1 0x40 SWAP1 KECCAK256 SLOAD DUP2 LT ISZERO PUSH2 0x17FB JUMPI PUSH1 0x1 PUSH1 0x1 PUSH1 0xA0 SHL SUB DUP11 AND PUSH1 0x0 SWAP1 DUP2 MSTORE PUSH1 0x7 PUSH1 0x20 MSTORE PUSH1 0x40 SWAP1 KECCAK256 PUSH1 0x4 ADD DUP1 SLOAD PUSH2 0x1696 SWAP2 SWAP1 DUP4 SWAP1 DUP2 LT PUSH2 0x1666 JUMPI PUSH2 0x1666 PUSH2 0x362F JUMP JUMPDEST PUSH1 0x0 SWAP2 DUP3 MSTORE PUSH1 0x20 DUP1 DUP4 KECCAK256 SWAP1 SWAP2 ADD SLOAD PUSH1 0x1 PUSH1 0x1 PUSH1 0xA0 SHL SUB DUP15 AND DUP4 MSTORE PUSH1 0x7 SWAP1 SWAP2 MSTORE PUSH1 0x40 SWAP1 SWAP2 KECCAK256 PUSH1 0x1 ADD SLOAD DUP6 SWAP2 SWAP1 PUSH2 0x2CED JUMP JUMPDEST PUSH1 0x1 PUSH1 0x1 PUSH1 0xA0 SHL SUB DUP12 AND PUSH1 0x0 SWAP1 DUP2 MSTORE PUSH1 0x7 PUSH1 0x20 MSTORE PUSH1 0x40 SWAP1 KECCAK256 SLOAD SWAP1 SWAP3 POP PUSH2 0x16BE SWAP1 PUSH1 0x1 SWAP1 PUSH2 0x3B79 JUMP JUMPDEST DUP2 SUB PUSH2 0x1736 JUMPI PUSH1 0x40 MLOAD PUSH3 0x7EEAC7 PUSH1 0xE1 SHL DUP2 MSTORE PUSH1 0x1 PUSH1 0x1 PUSH1 0xA0 SHL SUB DUP12 DUP2 AND PUSH1 0x4 DUP4 ADD MSTORE PUSH1 0x24 DUP3 ADD DUP11 SWAP1 MSTORE DUP11 AND SWAP1 PUSH3 0xFDD58E SWAP1 PUSH1 0x44 ADD PUSH1 0x20 PUSH1 0x40 MLOAD DUP1 DUP4 SUB DUP2 DUP7 GAS STATICCALL ISZERO DUP1 ISZERO PUSH2 0x170F JUMPI RETURNDATASIZE PUSH1 0x0 DUP1 RETURNDATACOPY RETURNDATASIZE PUSH1 0x0 REVERT JUMPDEST POP POP POP POP PUSH1 0x40 MLOAD RETURNDATASIZE PUSH1 0x1F NOT PUSH1 0x1F DUP3 ADD AND DUP3 ADD DUP1 PUSH1 0x40 MSTORE POP DUP2 ADD SWAP1 PUSH2 0x1733 SWAP2 SWAP1 PUSH2 0x3B1E JUMP JUMPDEST SWAP2 POP JUMPDEST PUSH1 0x1 PUSH1 0x1 PUSH1 0xA0 SHL SUB DUP11 DUP2 AND PUSH1 0x0 SWAP1 DUP2 MSTORE PUSH1 0x7 PUSH1 0x20 MSTORE PUSH1 0x40 SWAP1 KECCAK256 DUP1 SLOAD SWAP2 DUP12 AND SWAP2 PUSH4 0xF242432A SWAP2 DUP14 SWAP2 DUP6 SWAP1 DUP2 LT PUSH2 0x176D JUMPI PUSH2 0x176D PUSH2 0x362F JUMP JUMPDEST PUSH1 0x0 SWAP2 DUP3 MSTORE PUSH1 0x20 DUP1 DUP4 KECCAK256 SWAP1 SWAP2 ADD SLOAD PUSH1 0x40 DUP1 MLOAD SWAP3 DUP4 ADD DUP2 MSTORE SWAP3 DUP3 MSTORE SWAP2 MLOAD PUSH1 0x1 PUSH1 0x1 PUSH1 0xE0 SHL SUB NOT PUSH1 0xE0 DUP7 SWAP1 SHL AND DUP2 MSTORE PUSH2 0x17B6 SWAP4 SWAP3 PUSH1 0x1 PUSH1 0x1 PUSH1 0xA0 SHL SUB AND SWAP2 DUP15 SWAP2 DUP10 SWAP2 SWAP1 PUSH1 0x4 ADD PUSH2 0x3BDC JUMP JUMPDEST PUSH1 0x0 PUSH1 0x40 MLOAD DUP1 DUP4 SUB DUP2 PUSH1 0x0 DUP8 DUP1 EXTCODESIZE ISZERO DUP1 ISZERO PUSH2 0x17D0 JUMPI PUSH1 0x0 DUP1 REVERT JUMPDEST POP GAS CALL ISZERO DUP1 ISZERO PUSH2 0x17E4 JUMPI RETURNDATASIZE PUSH1 0x0 DUP1 RETURNDATACOPY RETURNDATASIZE PUSH1 0x0 REVERT JUMPDEST POP POP POP POP DUP1 DUP1 PUSH2 0x17F3 SWAP1 PUSH2 0x3669 JUMP JUMPDEST SWAP2 POP POP PUSH2 0x1614 JUMP JUMPDEST POP POP POP PUSH2 0x66C PUSH1 0x1 DUP1 SSTORE JUMP JUMPDEST CALLER PUSH1 0x0 DUP2 DUP2 MSTORE PUSH1 0x7 PUSH1 0x20 MSTORE PUSH1 0x40 DUP2 KECCAK256 PUSH1 0x3 ADD SLOAD SWAP1 SWAP2 SWAP1 ISZERO DUP1 ISZERO SWAP1 PUSH2 0x1842 JUMPI POP PUSH1 0x1 PUSH1 0x1 PUSH1 0xA0 SHL SUB DUP2 AND PUSH1 0x0 SWAP1 DUP2 MSTORE PUSH1 0x7 PUSH1 0x20 MSTORE PUSH1 0x40 SWAP1 KECCAK256 SLOAD ISZERO ISZERO JUMPDEST DUP1 ISZERO PUSH2 0x186A JUMPI POP PUSH1 0x1 PUSH1 0x1 PUSH1 0xA0 SHL SUB DUP2 DUP2 AND PUSH1 0x0 SWAP1 DUP2 MSTORE PUSH1 0x7 PUSH1 0x20 MSTORE PUSH1 0x40 SWAP1 KECCAK256 PUSH1 0x2 ADD SLOAD AND ISZERO ISZERO JUMPDEST PUSH2 0x1886 JUMPI PUSH1 0x40 MLOAD PUSH3 0x461BCD PUSH1 0xE5 SHL DUP2 MSTORE PUSH1 0x4 ADD PUSH2 0x58B SWAP1 PUSH2 0x3592 JUMP JUMPDEST DUP6 DUP6 DUP6 DUP6 CALLER DUP2 DUP5 EQ PUSH2 0x18AA JUMPI PUSH1 0x40 MLOAD PUSH3 0x461BCD PUSH1 0xE5 SHL DUP2 MSTORE PUSH1 0x4 ADD PUSH2 0x58B SWAP1 PUSH2 0x38F5 JUMP JUMPDEST PUSH1 0x0 JUMPDEST DUP5 DUP2 LT ISZERO PUSH2 0x19DF JUMPI PUSH1 0x0 DUP7 DUP7 DUP4 DUP2 DUP2 LT PUSH2 0x18C9 JUMPI PUSH2 0x18C9 PUSH2 0x362F JUMP JUMPDEST SWAP1 POP PUSH1 0x20 MUL ADD PUSH1 0x20 DUP2 ADD SWAP1 PUSH2 0x18DE SWAP2 SWAP1 PUSH2 0x30E1 JUMP JUMPDEST PUSH1 0x1 PUSH1 0x1 PUSH1 0xA0 SHL SUB AND SUB PUSH2 0x1904 JUMPI PUSH1 0x40 MLOAD PUSH3 0x461BCD PUSH1 0xE5 SHL DUP2 MSTORE PUSH1 0x4 ADD PUSH2 0x58B SWAP1 PUSH2 0x3947 JUMP JUMPDEST DUP2 PUSH1 0x1 PUSH1 0x1 PUSH1 0xA0 SHL SUB AND DUP7 DUP7 DUP4 DUP2 DUP2 LT PUSH2 0x1920 JUMPI PUSH2 0x1920 PUSH2 0x362F JUMP JUMPDEST SWAP1 POP PUSH1 0x20 MUL ADD PUSH1 0x20 DUP2 ADD SWAP1 PUSH2 0x1935 SWAP2 SWAP1 PUSH2 0x30E1 JUMP JUMPDEST PUSH1 0x1 PUSH1 0x1 PUSH1 0xA0 SHL SUB AND SUB PUSH2 0x195B JUMPI PUSH1 0x40 MLOAD PUSH3 0x461BCD PUSH1 0xE5 SHL DUP2 MSTORE PUSH1 0x4 ADD PUSH2 0x58B SWAP1 PUSH2 0x3996 JUMP JUMPDEST PUSH1 0x4 SLOAD DUP5 DUP5 DUP4 DUP2 DUP2 LT PUSH2 0x1970 JUMPI PUSH2 0x1970 PUSH2 0x362F JUMP JUMPDEST SWAP1 POP PUSH1 0x20 MUL ADD CALLDATALOAD GT ISZERO PUSH2 0x1995 JUMPI PUSH1 0x40 MLOAD PUSH3 0x461BCD PUSH1 0xE5 SHL DUP2 MSTORE PUSH1 0x4 ADD PUSH2 0x58B SWAP1 PUSH2 0x39E1 JUMP JUMPDEST DUP4 DUP4 DUP3 DUP2 DUP2 LT PUSH2 0x19A7 JUMPI PUSH2 0x19A7 PUSH2 0x362F JUMP JUMPDEST SWAP1 POP PUSH1 0x20 MUL ADD CALLDATALOAD PUSH1 0x0 SUB PUSH2 0x19CD JUMPI PUSH1 0x40 MLOAD PUSH3 0x461BCD PUSH1 0xE5 SHL DUP2 MSTORE PUSH1 0x4 ADD PUSH2 0x58B SWAP1 PUSH2 0x3A2D JUMP JUMPDEST DUP1 PUSH2 0x19D7 DUP2 PUSH2 0x3669 JUMP JUMPDEST SWAP2 POP POP PUSH2 0x18AD JUMP JUMPDEST POP CALLER PUSH1 0x0 SWAP1 DUP2 MSTORE PUSH1 0x7 PUSH1 0x20 MSTORE PUSH1 0x40 SWAP1 KECCAK256 PUSH2 0x19FA SWAP1 DUP13 DUP13 PUSH2 0x3009 JUMP JUMPDEST POP CALLER PUSH1 0x0 SWAP1 DUP2 MSTORE PUSH1 0x7 PUSH1 0x20 MSTORE PUSH1 0x40 SWAP1 KECCAK256 PUSH2 0x1A18 SWAP1 PUSH1 0x4 ADD DUP11 DUP11 PUSH2 0x306C JUMP JUMPDEST POP PUSH1 0x1 SWAP12 SWAP11 POP POP POP POP POP POP POP POP POP POP POP JUMP JUMPDEST CALLER PUSH1 0x0 DUP2 DUP2 MSTORE PUSH1 0x7 PUSH1 0x20 MSTORE PUSH1 0x40 DUP2 KECCAK256 PUSH1 0x3 ADD SLOAD SWAP1 SWAP2 SWAP1 ISZERO DUP1 ISZERO SWAP1 PUSH2 0x1A65 JUMPI POP PUSH1 0x1 PUSH1 0x1 PUSH1 0xA0 SHL SUB DUP2 AND PUSH1 0x0 SWAP1 DUP2 MSTORE PUSH1 0x7 PUSH1 0x20 MSTORE PUSH1 0x40 SWAP1 KECCAK256 SLOAD ISZERO ISZERO JUMPDEST DUP1 ISZERO PUSH2 0x1A8D JUMPI POP PUSH1 0x1 PUSH1 0x1 PUSH1 0xA0 SHL SUB DUP2 DUP2 AND PUSH1 0x0 SWAP1 DUP2 MSTORE PUSH1 0x7 PUSH1 0x20 MSTORE PUSH1 0x40 SWAP1 KECCAK256 PUSH1 0x2 ADD SLOAD AND ISZERO ISZERO JUMPDEST PUSH2 0x1AA9 JUMPI PUSH1 0x40 MLOAD PUSH3 0x461BCD PUSH1 0xE5 SHL DUP2 MSTORE PUSH1 0x4 ADD PUSH2 0x58B SWAP1 PUSH2 0x3592 JUMP JUMPDEST DUP3 PUSH1 0x2 SLOAD TIMESTAMP PUSH2 0x1AB8 SWAP2 SWAP1 PUSH2 0x35DF JUMP JUMPDEST DUP2 LT ISZERO PUSH2 0x1AD7 JUMPI PUSH1 0x40 MLOAD PUSH3 0x461BCD PUSH1 0xE5 SHL DUP2 MSTORE PUSH1 0x4 ADD PUSH2 0x58B SWAP1 PUSH2 0x3A64 JUMP JUMPDEST POP POP CALLER PUSH1 0x0 SWAP1 DUP2 MSTORE PUSH1 0x7 PUSH1 0x20 MSTORE PUSH1 0x40 SWAP1 KECCAK256 PUSH1 0x3 ADD DUP3 SWAP1 SSTORE POP SWAP1 JUMP JUMPDEST PUSH1 0x1 PUSH1 0x1 PUSH1 0xA0 SHL SUB DUP6 AND PUSH1 0x0 SWAP1 DUP2 MSTORE PUSH1 0x7 PUSH1 0x20 MSTORE PUSH1 0x40 SWAP1 KECCAK256 PUSH1 0x3 ADD SLOAD DUP6 SWAP1 ISZERO DUP1 ISZERO SWAP1 PUSH2 0x1B35 JUMPI POP PUSH1 0x1 PUSH1 0x1 PUSH1 0xA0 SHL SUB DUP2 AND PUSH1 0x0 SWAP1 DUP2 MSTORE PUSH1 0x7 PUSH1 0x20 MSTORE PUSH1 0x40 SWAP1 KECCAK256 SLOAD ISZERO ISZERO JUMPDEST DUP1 ISZERO PUSH2 0x1B5D JUMPI POP PUSH1 0x1 PUSH1 0x1 PUSH1 0xA0 SHL SUB DUP2 DUP2 AND PUSH1 0x0 SWAP1 DUP2 MSTORE PUSH1 0x7 PUSH1 0x20 MSTORE PUSH1 0x40 SWAP1 KECCAK256 PUSH1 0x2 ADD SLOAD AND ISZERO ISZERO JUMPDEST PUSH2 0x1B79 JUMPI PUSH1 0x40 MLOAD PUSH3 0x461BCD PUSH1 0xE5 SHL DUP2 MSTORE PUSH1 0x4 ADD PUSH2 0x58B SWAP1 PUSH2 0x3592 JUMP JUMPDEST PUSH1 0x1 PUSH1 0x1 PUSH1 0xA0 SHL SUB DUP7 AND PUSH1 0x0 SWAP1 DUP2 MSTORE PUSH1 0x7 PUSH1 0x20 MSTORE PUSH1 0x40 SWAP1 KECCAK256 PUSH1 0x3 ADD SLOAD DUP7 SWAP1 TIMESTAMP LT ISZERO PUSH2 0x1BB6 JUMPI PUSH1 0x40 MLOAD PUSH3 0x461BCD PUSH1 0xE5 SHL DUP2 MSTORE PUSH1 0x4 ADD PUSH2 0x58B SWAP1 PUSH2 0x3682 JUMP JUMPDEST DUP7 PUSH1 0x0 DUP1 JUMPDEST PUSH1 0x1 PUSH1 0x1 PUSH1 0xA0 SHL SUB DUP4 AND PUSH1 0x0 SWAP1 DUP2 MSTORE PUSH1 0x7 PUSH1 0x20 MSTORE PUSH1 0x40 SWAP1 KECCAK256 SLOAD DUP2 LT ISZERO PUSH2 0x1C60 JUMPI PUSH1 0x1 PUSH1 0x1 PUSH1 0xA0 SHL SUB DUP4 AND PUSH1 0x0 SWAP1 DUP2 MSTORE PUSH1 0x7 PUSH1 0x20 MSTORE PUSH1 0x40 SWAP1 KECCAK256 DUP1 SLOAD DUP3 SWAP1 DUP2 LT PUSH2 0x1C05 JUMPI PUSH2 0x1C05 PUSH2 0x362F JUMP JUMPDEST PUSH1 0x0 SWAP2 DUP3 MSTORE PUSH1 0x20 SWAP1 SWAP2 KECCAK256 ADD SLOAD PUSH1 0x1 PUSH1 0x1 PUSH1 0xA0 SHL SUB AND CALLER SUB PUSH2 0x1C25 JUMPI PUSH1 0x1 SWAP2 POP JUMPDEST PUSH1 0x1 PUSH1 0x1 PUSH1 0xA0 SHL SUB DUP1 DUP5 AND PUSH1 0x0 SWAP1 DUP2 MSTORE PUSH1 0x7 PUSH1 0x20 MSTORE PUSH1 0x40 SWAP1 KECCAK256 PUSH1 0x2 ADD SLOAD AND CALLER SUB PUSH2 0x1C4E JUMPI PUSH1 0x1 SWAP2 POP JUMPDEST DUP1 PUSH2 0x1C58 DUP2 PUSH2 0x3669 JUMP JUMPDEST SWAP2 POP POP PUSH2 0x1BBB JUMP JUMPDEST POP DUP1 PUSH2 0x1C7E JUMPI PUSH1 0x40 MLOAD PUSH3 0x461BCD PUSH1 0xE5 SHL DUP2 MSTORE PUSH1 0x4 ADD PUSH2 0x58B SWAP1 PUSH2 0x36B0 JUMP JUMPDEST PUSH1 0x0 JUMPDEST DUP8 DUP2 LT ISZERO PUSH2 0x1D3F JUMPI ADDRESS PUSH4 0xB395245A DUP12 DUP12 DUP12 DUP6 DUP2 DUP2 LT PUSH2 0x1CA2 JUMPI PUSH2 0x1CA2 PUSH2 0x362F JUMP JUMPDEST SWAP1 POP PUSH1 0x20 MUL ADD PUSH1 0x20 DUP2 ADD SWAP1 PUSH2 0x1CB7 SWAP2 SWAP1 PUSH2 0x30E1 JUMP JUMPDEST DUP11 DUP11 DUP7 DUP2 DUP2 LT PUSH2 0x1CC9 JUMPI PUSH2 0x1CC9 PUSH2 0x362F JUMP JUMPDEST SWAP1 POP PUSH1 0x20 MUL DUP2 ADD SWAP1 PUSH2 0x1CDB SWAP2 SWAP1 PUSH2 0x3874 JUMP JUMPDEST PUSH1 0x40 MLOAD DUP6 PUSH4 0xFFFFFFFF AND PUSH1 0xE0 SHL DUP2 MSTORE PUSH1 0x4 ADD PUSH2 0x1CFA SWAP5 SWAP4 SWAP3 SWAP2 SWAP1 PUSH2 0x38BE JUMP JUMPDEST PUSH1 0x0 PUSH1 0x40 MLOAD DUP1 DUP4 SUB DUP2 PUSH1 0x0 DUP8 DUP1 EXTCODESIZE ISZERO DUP1 ISZERO PUSH2 0x1D14 JUMPI PUSH1 0x0 DUP1 REVERT JUMPDEST POP GAS CALL ISZERO DUP1 ISZERO PUSH2 0x1D28 JUMPI RETURNDATASIZE PUSH1 0x0 DUP1 RETURNDATACOPY RETURNDATASIZE PUSH1 0x0 REVERT JUMPDEST POP POP POP POP DUP1 DUP1 PUSH2 0x1D37 SWAP1 PUSH2 0x3669 JUMP JUMPDEST SWAP2 POP POP PUSH2 0x1C81 JUMP JUMPDEST POP POP POP POP POP POP POP POP POP POP JUMP JUMPDEST PUSH1 0x1 PUSH1 0x1 PUSH1 0xA0 SHL SUB DUP5 AND PUSH1 0x0 SWAP1 DUP2 MSTORE PUSH1 0x7 PUSH1 0x20 MSTORE PUSH1 0x40 SWAP1 KECCAK256 PUSH1 0x3 ADD SLOAD DUP5 SWAP1 ISZERO DUP1 ISZERO SWAP1 PUSH2 0x1D8E JUMPI POP PUSH1 0x1 PUSH1 0x1 PUSH1 0xA0 SHL SUB DUP2 AND PUSH1 0x0 SWAP1 DUP2 MSTORE PUSH1 0x7 PUSH1 0x20 MSTORE PUSH1 0x40 SWAP1 KECCAK256 SLOAD ISZERO ISZERO JUMPDEST DUP1 ISZERO PUSH2 0x1DB6 JUMPI POP PUSH1 0x1 PUSH1 0x1 PUSH1 0xA0 SHL SUB DUP2 DUP2 AND PUSH1 0x0 SWAP1 DUP2 MSTORE PUSH1 0x7 PUSH1 0x20 MSTORE PUSH1 0x40 SWAP1 KECCAK256 PUSH1 0x2 ADD SLOAD AND ISZERO ISZERO JUMPDEST PUSH2 0x1DD2 JUMPI PUSH1 0x40 MLOAD PUSH3 0x461BCD PUSH1 0xE5 SHL DUP2 MSTORE PUSH1 0x4 ADD PUSH2 0x58B SWAP1 PUSH2 0x3592 JUMP JUMPDEST PUSH1 0x1 PUSH1 0x1 PUSH1 0xA0 SHL SUB DUP6 AND PUSH1 0x0 SWAP1 DUP2 MSTORE PUSH1 0x7 PUSH1 0x20 MSTORE PUSH1 0x40 SWAP1 KECCAK256 PUSH1 0x3 ADD SLOAD DUP6 SWAP1 TIMESTAMP LT ISZERO PUSH2 0x1E0F JUMPI PUSH1 0x40 MLOAD PUSH3 0x461BCD PUSH1 0xE5 SHL DUP2 MSTORE PUSH1 0x4 ADD PUSH2 0x58B SWAP1 PUSH2 0x3682 JUMP JUMPDEST DUP6 PUSH1 0x0 DUP1 JUMPDEST PUSH1 0x1 PUSH1 0x1 PUSH1 0xA0 SHL SUB DUP4 AND PUSH1 0x0 SWAP1 DUP2 MSTORE PUSH1 0x7 PUSH1 0x20 MSTORE PUSH1 0x40 SWAP1 KECCAK256 SLOAD DUP2 LT ISZERO PUSH2 0x1EB9 JUMPI PUSH1 0x1 PUSH1 0x1 PUSH1 0xA0 SHL SUB DUP4 AND PUSH1 0x0 SWAP1 DUP2 MSTORE PUSH1 0x7 PUSH1 0x20 MSTORE PUSH1 0x40 SWAP1 KECCAK256 DUP1 SLOAD DUP3 SWAP1 DUP2 LT PUSH2 0x1E5E JUMPI PUSH2 0x1E5E PUSH2 0x362F JUMP JUMPDEST PUSH1 0x0 SWAP2 DUP3 MSTORE PUSH1 0x20 SWAP1 SWAP2 KECCAK256 ADD SLOAD PUSH1 0x1 PUSH1 0x1 PUSH1 0xA0 SHL SUB AND CALLER SUB PUSH2 0x1E7E JUMPI PUSH1 0x1 SWAP2 POP JUMPDEST PUSH1 0x1 PUSH1 0x1 PUSH1 0xA0 SHL SUB DUP1 DUP5 AND PUSH1 0x0 SWAP1 DUP2 MSTORE PUSH1 0x7 PUSH1 0x20 MSTORE PUSH1 0x40 SWAP1 KECCAK256 PUSH1 0x2 ADD SLOAD AND CALLER SUB PUSH2 0x1EA7 JUMPI PUSH1 0x1 SWAP2 POP JUMPDEST DUP1 PUSH2 0x1EB1 DUP2 PUSH2 0x3669 JUMP JUMPDEST SWAP2 POP POP PUSH2 0x1E14 JUMP JUMPDEST POP DUP1 PUSH2 0x1ED7 JUMPI PUSH1 0x40 MLOAD PUSH3 0x461BCD PUSH1 0xE5 SHL DUP2 MSTORE PUSH1 0x4 ADD PUSH2 0x58B SWAP1 PUSH2 0x36B0 JUMP JUMPDEST PUSH2 0x1EDF PUSH2 0x29A6 JUMP JUMPDEST PUSH1 0x0 JUMPDEST DUP6 DUP2 LT ISZERO PUSH2 0x1F90 JUMPI PUSH1 0x1 PUSH1 0x1 PUSH1 0xA0 SHL SUB DUP10 DUP2 AND PUSH1 0x0 SWAP1 DUP2 MSTORE PUSH1 0x7 PUSH1 0x20 MSTORE PUSH1 0x40 SWAP1 KECCAK256 PUSH1 0x2 ADD SLOAD DUP2 DUP11 AND SWAP2 PUSH4 0x42842E0E SWAP2 DUP13 SWAP2 AND DUP11 DUP11 DUP7 DUP2 DUP2 LT PUSH2 0x1F26 JUMPI PUSH2 0x1F26 PUSH2 0x362F JUMP JUMPDEST SWAP1 POP PUSH1 0x20 MUL ADD CALLDATALOAD PUSH1 0x40 MLOAD DUP5 PUSH4 0xFFFFFFFF AND PUSH1 0xE0 SHL DUP2 MSTORE PUSH1 0x4 ADD PUSH2 0x1F4B SWAP4 SWAP3 SWAP2 SWAP1 PUSH2 0x3645 JUMP JUMPDEST PUSH1 0x0 PUSH1 0x40 MLOAD DUP1 DUP4 SUB DUP2 PUSH1 0x0 DUP8 DUP1 EXTCODESIZE ISZERO DUP1 ISZERO PUSH2 0x1F65 JUMPI PUSH1 0x0 DUP1 REVERT JUMPDEST POP GAS CALL ISZERO DUP1 ISZERO PUSH2 0x1F79 JUMPI RETURNDATASIZE PUSH1 0x0 DUP1 RETURNDATACOPY RETURNDATASIZE PUSH1 0x0 REVERT JUMPDEST POP POP POP POP DUP1 DUP1 PUSH2 0x1F88 SWAP1 PUSH2 0x3669 JUMP JUMPDEST SWAP2 POP POP PUSH2 0x1EE2 JUMP JUMPDEST POP PUSH2 0x1F9A PUSH1 0x1 DUP1 SSTORE JUMP JUMPDEST POP POP POP POP POP POP POP POP JUMP JUMPDEST CALLER PUSH1 0x0 DUP2 DUP2 MSTORE PUSH1 0x7 PUSH1 0x20 MSTORE PUSH1 0x40 SWAP1 KECCAK256 PUSH1 0x3 ADD SLOAD ISZERO DUP1 ISZERO SWAP1 PUSH2 0x1FDC JUMPI POP PUSH1 0x1 PUSH1 0x1 PUSH1 0xA0 SHL SUB DUP2 AND PUSH1 0x0 SWAP1 DUP2 MSTORE PUSH1 0x7 PUSH1 0x20 MSTORE PUSH1 0x40 SWAP1 KECCAK256 SLOAD ISZERO ISZERO JUMPDEST DUP1 ISZERO PUSH2 0x2004 JUMPI POP PUSH1 0x1 PUSH1 0x1 PUSH1 0xA0 SHL SUB DUP2 DUP2 AND PUSH1 0x0 SWAP1 DUP2 MSTORE PUSH1 0x7 PUSH1 0x20 MSTORE PUSH1 0x40 SWAP1 KECCAK256 PUSH1 0x2 ADD SLOAD AND ISZERO ISZERO JUMPDEST PUSH2 0x2020 JUMPI PUSH1 0x40 MLOAD PUSH3 0x461BCD PUSH1 0xE5 SHL DUP2 MSTORE PUSH1 0x4 ADD PUSH2 0x58B SWAP1 PUSH2 0x3592 JUMP JUMPDEST DUP2 PUSH1 0x1 PUSH1 0x1 PUSH1 0xA0 SHL SUB DUP2 AND PUSH2 0x2047 JUMPI PUSH1 0x40 MLOAD PUSH3 0x461BCD PUSH1 0xE5 SHL DUP2 MSTORE PUSH1 0x4 ADD PUSH2 0x58B SWAP1 PUSH2 0x3AC1 JUMP JUMPDEST POP POP CALLER PUSH1 0x0 SWAP1 DUP2 MSTORE PUSH1 0x7 PUSH1 0x20 MSTORE PUSH1 0x40 SWAP1 KECCAK256 PUSH1 0x2 ADD DUP1 SLOAD PUSH1 0x1 PUSH1 0x1 PUSH1 0xA0 SHL SUB NOT AND PUSH1 0x1 PUSH1 0x1 PUSH1 0xA0 SHL SUB SWAP3 SWAP1 SWAP3 AND SWAP2 SWAP1 SWAP2 OR SWAP1 SSTORE JUMP JUMPDEST PUSH1 0x1 PUSH1 0x1 PUSH1 0xA0 SHL SUB DUP4 AND PUSH1 0x0 SWAP1 DUP2 MSTORE PUSH1 0x7 PUSH1 0x20 MSTORE PUSH1 0x40 SWAP1 KECCAK256 PUSH1 0x3 ADD SLOAD DUP4 SWAP1 ISZERO DUP1 ISZERO SWAP1 PUSH2 0x20BE JUMPI POP PUSH1 0x1 PUSH1 0x1 PUSH1 0xA0 SHL SUB DUP2 AND PUSH1 0x0 SWAP1 DUP2 MSTORE PUSH1 0x7 PUSH1 0x20 MSTORE PUSH1 0x40 SWAP1 KECCAK256 SLOAD ISZERO ISZERO JUMPDEST DUP1 ISZERO PUSH2 0x20E6 JUMPI POP PUSH1 0x1 PUSH1 0x1 PUSH1 0xA0 SHL SUB DUP2 DUP2 AND PUSH1 0x0 SWAP1 DUP2 MSTORE PUSH1 0x7 PUSH1 0x20 MSTORE PUSH1 0x40 SWAP1 KECCAK256 PUSH1 0x2 ADD SLOAD AND ISZERO ISZERO JUMPDEST PUSH2 0x2102 JUMPI PUSH1 0x40 MLOAD PUSH3 0x461BCD PUSH1 0xE5 SHL DUP2 MSTORE PUSH1 0x4 ADD PUSH2 0x58B SWAP1 PUSH2 0x3592 JUMP JUMPDEST PUSH1 0x5 SLOAD PUSH1 0x1 PUSH1 0x1 PUSH1 0xA0 SHL SUB DUP6 AND PUSH1 0x0 SWAP1 DUP2 MSTORE PUSH1 0x7 PUSH1 0x20 MSTORE PUSH1 0x40 SWAP1 KECCAK256 PUSH1 0x3 ADD SLOAD DUP6 SWAP2 PUSH2 0x212C SWAP2 PUSH2 0x35DF JUMP JUMPDEST TIMESTAMP LT ISZERO PUSH2 0x214B JUMPI PUSH1 0x40 MLOAD PUSH3 0x461BCD PUSH1 0xE5 SHL DUP2 MSTORE PUSH1 0x4 ADD PUSH2 0x58B SWAP1 PUSH2 0x35F8 JUMP JUMPDEST PUSH1 0x40 MLOAD PUSH3 0x7EEAC7 PUSH1 0xE1 SHL DUP2 MSTORE PUSH1 0x1 PUSH1 0x1 PUSH1 0xA0 SHL SUB DUP7 DUP2 AND PUSH1 0x4 DUP4 ADD MSTORE PUSH1 0x24 DUP3 ADD DUP6 SWAP1 MSTORE PUSH1 0x0 SWAP2 SWAP1 DUP7 AND SWAP1 PUSH3 0xFDD58E SWAP1 PUSH1 0x44 ADD PUSH1 0x20 PUSH1 0x40 MLOAD DUP1 DUP4 SUB DUP2 DUP7 GAS STATICCALL ISZERO DUP1 ISZERO PUSH2 0x219A JUMPI RETURNDATASIZE PUSH1 0x0 DUP1 RETURNDATACOPY RETURNDATASIZE PUSH1 0x0 REVERT JUMPDEST POP POP POP POP PUSH1 0x40 MLOAD RETURNDATASIZE PUSH1 0x1F NOT PUSH1 0x1F DUP3 ADD AND DUP3 ADD DUP1 PUSH1 0x40 MSTORE POP DUP2 ADD SWAP1 PUSH2 0x21BE SWAP2 SWAP1 PUSH2 0x3B1E JUMP JUMPDEST SWAP1 POP PUSH1 0x0 DUP1 JUMPDEST PUSH1 0x1 PUSH1 0x1 PUSH1 0xA0 SHL SUB DUP9 AND PUSH1 0x0 SWAP1 DUP2 MSTORE PUSH1 0x7 PUSH1 0x20 MSTORE PUSH1 0x40 SWAP1 KECCAK256 SLOAD DUP2 LT ISZERO PUSH2 0x1F9A JUMPI PUSH1 0x1 PUSH1 0x1 PUSH1 0xA0 SHL SUB DUP9 AND PUSH1 0x0 SWAP1 DUP2 MSTORE PUSH1 0x7 PUSH1 0x20 MSTORE PUSH1 0x40 SWAP1 KECCAK256 PUSH1 0x4 ADD DUP1 SLOAD PUSH2 0x2246 SWAP2 SWAP1 DUP4 SWAP1 DUP2 LT PUSH2 0x2216 JUMPI PUSH2 0x2216 PUSH2 0x362F JUMP JUMPDEST PUSH1 0x0 SWAP2 DUP3 MSTORE PUSH1 0x20 DUP1 DUP4 KECCAK256 SWAP1 SWAP2 ADD SLOAD PUSH1 0x1 PUSH1 0x1 PUSH1 0xA0 SHL SUB DUP13 AND DUP4 MSTORE PUSH1 0x7 SWAP1 SWAP2 MSTORE PUSH1 0x40 SWAP1 SWAP2 KECCAK256 PUSH1 0x1 ADD SLOAD DUP6 SWAP2 SWAP1 PUSH2 0x2CED JUMP JUMPDEST PUSH1 0x1 PUSH1 0x1 PUSH1 0xA0 SHL SUB DUP10 AND PUSH1 0x0 SWAP1 DUP2 MSTORE PUSH1 0x7 PUSH1 0x20 MSTORE PUSH1 0x40 SWAP1 KECCAK256 SLOAD SWAP1 SWAP3 POP PUSH2 0x226E SWAP1 PUSH1 0x1 SWAP1 PUSH2 0x3B79 JUMP JUMPDEST DUP2 SUB PUSH2 0x22E6 JUMPI PUSH1 0x40 MLOAD PUSH3 0x7EEAC7 PUSH1 0xE1 SHL DUP2 MSTORE PUSH1 0x1 PUSH1 0x1 PUSH1 0xA0 SHL SUB DUP10 DUP2 AND PUSH1 0x4 DUP4 ADD MSTORE PUSH1 0x24 DUP3 ADD DUP9 SWAP1 MSTORE DUP9 AND SWAP1 PUSH3 0xFDD58E SWAP1 PUSH1 0x44 ADD PUSH1 0x20 PUSH1 0x40 MLOAD DUP1 DUP4 SUB DUP2 DUP7 GAS STATICCALL ISZERO DUP1 ISZERO PUSH2 0x22BF JUMPI RETURNDATASIZE PUSH1 0x0 DUP1 RETURNDATACOPY RETURNDATASIZE PUSH1 0x0 REVERT JUMPDEST POP POP POP POP PUSH1 0x40 MLOAD RETURNDATASIZE PUSH1 0x1F NOT PUSH1 0x1F DUP3 ADD AND DUP3 ADD DUP1 PUSH1 0x40 MSTORE POP DUP2 ADD SWAP1 PUSH2 0x22E3 SWAP2 SWAP1 PUSH2 0x3B1E JUMP JUMPDEST SWAP2 POP JUMPDEST PUSH1 0x6 SLOAD PUSH1 0x40 DUP1 MLOAD PUSH1 0x20 DUP2 ADD DUP3 MSTORE PUSH1 0x0 DUP2 MSTORE SWAP1 MLOAD PUSH4 0x79212195 PUSH1 0xE1 SHL DUP2 MSTORE PUSH1 0x1 PUSH1 0x1 PUSH1 0xA0 SHL SUB DUP11 DUP2 AND SWAP4 PUSH4 0xF242432A SWAP4 PUSH2 0x232B SWAP4 DUP15 SWAP4 SWAP1 SWAP3 AND SWAP2 DUP13 SWAP2 DUP10 SWAP2 PUSH1 0x4 ADD PUSH2 0x3BDC JUMP JUMPDEST PUSH1 0x0 PUSH1 0x40 MLOAD DUP1 DUP4 SUB DUP2 PUSH1 0x0 DUP8 DUP1 EXTCODESIZE ISZERO DUP1 ISZERO PUSH2 0x2345 JUMPI PUSH1 0x0 DUP1 REVERT JUMPDEST POP GAS CALL ISZERO DUP1 ISZERO PUSH2 0x2359 JUMPI RETURNDATASIZE PUSH1 0x0 DUP1 RETURNDATACOPY RETURNDATASIZE PUSH1 0x0 REVERT JUMPDEST POP POP POP POP DUP1 DUP1 PUSH2 0x2368 SWAP1 PUSH2 0x3669 JUMP JUMPDEST SWAP2 POP POP PUSH2 0x21C4 JUMP JUMPDEST PUSH1 0x1 PUSH1 0x1 PUSH1 0xA0 SHL SUB DUP6 AND PUSH1 0x0 SWAP1 DUP2 MSTORE PUSH1 0x7 PUSH1 0x20 MSTORE PUSH1 0x40 SWAP1 KECCAK256 PUSH1 0x3 ADD SLOAD DUP6 SWAP1 ISZERO DUP1 ISZERO SWAP1 PUSH2 0x23B3 JUMPI POP PUSH1 0x1 PUSH1 0x1 PUSH1 0xA0 SHL SUB DUP2 AND PUSH1 0x0 SWAP1 DUP2 MSTORE PUSH1 0x7 PUSH1 0x20 MSTORE PUSH1 0x40 SWAP1 KECCAK256 SLOAD ISZERO ISZERO JUMPDEST DUP1 ISZERO PUSH2 0x23DB JUMPI POP PUSH1 0x1 PUSH1 0x1 PUSH1 0xA0 SHL SUB DUP2 DUP2 AND PUSH1 0x0 SWAP1 DUP2 MSTORE PUSH1 0x7 PUSH1 0x20 MSTORE PUSH1 0x40 SWAP1 KECCAK256 PUSH1 0x2 ADD SLOAD AND ISZERO ISZERO JUMPDEST PUSH2 0x23F7 JUMPI PUSH1 0x40 MLOAD PUSH3 0x461BCD PUSH1 0xE5 SHL DUP2 MSTORE PUSH1 0x4 ADD PUSH2 0x58B SWAP1 PUSH2 0x3592 JUMP JUMPDEST PUSH1 0x5 SLOAD PUSH1 0x1 PUSH1 0x1 PUSH1 0xA0 SHL SUB DUP8 AND PUSH1 0x0 SWAP1 DUP2 MSTORE PUSH1 0x7 PUSH1 0x20 MSTORE PUSH1 0x40 SWAP1 KECCAK256 PUSH1 0x3 ADD SLOAD DUP8 SWAP2 PUSH2 0x2421 SWAP2 PUSH2 0x35DF JUMP JUMPDEST TIMESTAMP LT ISZERO PUSH2 0x2440 JUMPI PUSH1 0x40 MLOAD PUSH3 0x461BCD PUSH1 0xE5 SHL DUP2 MSTORE PUSH1 0x4 ADD PUSH2 0x58B SWAP1 PUSH2 0x35F8 JUMP JUMPDEST PUSH1 0x0 JUMPDEST DUP6 DUP2 LT ISZERO PUSH2 0x1F9A JUMPI ADDRESS PUSH4 0x6B4BF139 DUP10 DUP10 DUP10 DUP6 DUP2 DUP2 LT PUSH2 0x2464 JUMPI PUSH2 0x2464 PUSH2 0x362F JUMP JUMPDEST SWAP1 POP PUSH1 0x20 MUL ADD PUSH1 0x20 DUP2 ADD SWAP1 PUSH2 0x2479 SWAP2 SWAP1 PUSH2 0x30E1 JUMP JUMPDEST DUP9 DUP9 DUP7 DUP2 DUP2 LT PUSH2 0x248B JUMPI PUSH2 0x248B PUSH2 0x362F JUMP JUMPDEST SWAP1 POP PUSH1 0x20 MUL DUP2 ADD SWAP1 PUSH2 0x249D SWAP2 SWAP1 PUSH2 0x3874 JUMP JUMPDEST PUSH1 0x40 MLOAD DUP6 PUSH4 0xFFFFFFFF AND PUSH1 0xE0 SHL DUP2 MSTORE PUSH1 0x4 ADD PUSH2 0x24BC SWAP5 SWAP4 SWAP3 SWAP2 SWAP1 PUSH2 0x38BE JUMP JUMPDEST PUSH1 0x0 PUSH1 0x40 MLOAD DUP1 DUP4 SUB DUP2 PUSH1 0x0 DUP8 DUP1 EXTCODESIZE ISZERO DUP1 ISZERO PUSH2 0x24D6 JUMPI PUSH1 0x0 DUP1 REVERT JUMPDEST POP GAS CALL ISZERO DUP1 ISZERO PUSH2 0x24EA JUMPI RETURNDATASIZE PUSH1 0x0 DUP1 RETURNDATACOPY RETURNDATASIZE PUSH1 0x0 REVERT JUMPDEST POP POP POP POP DUP1 DUP1 PUSH2 0x24F9 SWAP1 PUSH2 0x3669 JUMP JUMPDEST SWAP2 POP POP PUSH2 0x2443 JUMP JUMPDEST PUSH1 0x1 PUSH1 0x1 PUSH1 0xA0 SHL SUB DUP4 AND PUSH1 0x0 SWAP1 DUP2 MSTORE PUSH1 0x7 PUSH1 0x20 MSTORE PUSH1 0x40 SWAP1 KECCAK256 PUSH1 0x3 ADD SLOAD DUP4 SWAP1 ISZERO DUP1 ISZERO SWAP1 PUSH2 0x2544 JUMPI POP PUSH1 0x1 PUSH1 0x1 PUSH1 0xA0 SHL SUB DUP2 AND PUSH1 0x0 SWAP1 DUP2 MSTORE PUSH1 0x7 PUSH1 0x20 MSTORE PUSH1 0x40 SWAP1 KECCAK256 SLOAD ISZERO ISZERO JUMPDEST DUP1 ISZERO PUSH2 0x256C JUMPI POP PUSH1 0x1 PUSH1 0x1 PUSH1 0xA0 SHL SUB DUP2 DUP2 AND PUSH1 0x0 SWAP1 DUP2 MSTORE PUSH1 0x7 PUSH1 0x20 MSTORE PUSH1 0x40 SWAP1 KECCAK256 PUSH1 0x2 ADD SLOAD AND ISZERO ISZERO JUMPDEST PUSH2 0x2588 JUMPI PUSH1 0x40 MLOAD PUSH3 0x461BCD PUSH1 0xE5 SHL DUP2 MSTORE PUSH1 0x4 ADD PUSH2 0x58B SWAP1 PUSH2 0x3592 JUMP JUMPDEST PUSH1 0x5 SLOAD PUSH1 0x1 PUSH1 0x1 PUSH1 0xA0 SHL SUB DUP6 AND PUSH1 0x0 SWAP1 DUP2 MSTORE PUSH1 0x7 PUSH1 0x20 MSTORE PUSH1 0x40 SWAP1 KECCAK256 PUSH1 0x3 ADD SLOAD DUP6 SWAP2 PUSH2 0x25B2 SWAP2 PUSH2 0x35DF JUMP JUMPDEST TIMESTAMP LT ISZERO PUSH2 0x25D1 JUMPI PUSH1 0x40 MLOAD PUSH3 0x461BCD PUSH1 0xE5 SHL DUP2 MSTORE PUSH1 0x4 ADD PUSH2 0x58B SWAP1 PUSH2 0x35F8 JUMP JUMPDEST PUSH2 0x25D9 PUSH2 0x29A6 JUMP JUMPDEST PUSH1 0x0 JUMPDEST DUP4 DUP2 LT ISZERO PUSH2 0x2621 JUMPI PUSH2 0x260F DUP7 DUP7 DUP7 DUP5 DUP2 DUP2 LT PUSH2 0x25FA JUMPI PUSH2 0x25FA PUSH2 0x362F JUMP JUMPDEST SWAP1 POP PUSH1 0x20 MUL ADD PUSH1 0x20 DUP2 ADD SWAP1 PUSH2 0x338 SWAP2 SWAP1 PUSH2 0x30E1 JUMP JUMPDEST DUP1 PUSH2 0x2619 DUP2 PUSH2 0x3669 JUMP JUMPDEST SWAP2 POP POP PUSH2 0x25DC JUMP JUMPDEST POP PUSH2 0x262B PUSH1 0x1 DUP1 SSTORE JUMP JUMPDEST POP POP POP POP POP JUMP JUMPDEST PUSH1 0x1 PUSH1 0x1 PUSH1 0xA0 SHL SUB DUP2 AND PUSH1 0x0 SWAP1 DUP2 MSTORE PUSH1 0x7 PUSH1 0x20 SWAP1 DUP2 MSTORE PUSH1 0x40 SWAP2 DUP3 SWAP1 KECCAK256 PUSH1 0x4 ADD DUP1 SLOAD DUP4 MLOAD DUP2 DUP5 MUL DUP2 ADD DUP5 ADD SWAP1 SWAP5 MSTORE DUP1 DUP5 MSTORE PUSH1 0x60 SWAP4 SWAP3 DUP4 ADD DUP3 DUP3 DUP1 ISZERO PUSH2 0x4F8 JUMPI PUSH1 0x20 MUL DUP3 ADD SWAP2 SWAP1 PUSH1 0x0 MSTORE PUSH1 0x20 PUSH1 0x0 KECCAK256 SWAP1 JUMPDEST DUP2 SLOAD DUP2 MSTORE PUSH1 0x20 ADD SWAP1 PUSH1 0x1 ADD SWAP1 DUP1 DUP4 GT PUSH2 0x2681 JUMPI POP POP POP POP POP SWAP1 POP SWAP2 SWAP1 POP JUMP JUMPDEST PUSH2 0x26A8 PUSH2 0x289E JUMP JUMPDEST PUSH1 0x1 PUSH1 0x1 PUSH1 0xA0 SHL SUB DUP2 AND PUSH2 0x270D JUMPI PUSH1 0x40 MLOAD PUSH3 0x461BCD PUSH1 0xE5 SHL DUP2 MSTORE PUSH1 0x20 PUSH1 0x4 DUP3 ADD MSTORE PUSH1 0x26 PUSH1 0x24 DUP3 ADD MSTORE PUSH32 0x4F776E61626C653A206E6577206F776E657220697320746865207A65726F2061 PUSH1 0x44 DUP3 ADD MSTORE PUSH6 0x646472657373 PUSH1 0xD0 SHL PUSH1 0x64 DUP3 ADD MSTORE PUSH1 0x84 ADD PUSH2 0x58B JUMP JUMPDEST PUSH2 0x2716 DUP2 PUSH2 0x28F8 JUMP JUMPDEST POP JUMP JUMPDEST PUSH1 0x40 MLOAD PUSH4 0x5137510F PUSH1 0xE1 SHL DUP2 MSTORE ADDRESS SWAP1 PUSH4 0xA26EA21E SWAP1 PUSH2 0x2740 SWAP1 DUP15 SWAP1 DUP15 SWAP1 DUP15 SWAP1 PUSH1 0x4 ADD PUSH2 0x36F3 JUMP JUMPDEST PUSH1 0x0 PUSH1 0x40 MLOAD DUP1 DUP4 SUB DUP2 PUSH1 0x0 DUP8 DUP1 EXTCODESIZE ISZERO DUP1 ISZERO PUSH2 0x275A JUMPI PUSH1 0x0 DUP1 REVERT JUMPDEST POP GAS CALL ISZERO DUP1 ISZERO PUSH2 0x276E JUMPI RETURNDATASIZE PUSH1 0x0 DUP1 RETURNDATACOPY RETURNDATASIZE PUSH1 0x0 REVERT JUMPDEST POP POP PUSH1 0x40 MLOAD PUSH4 0x5645E3BF PUSH1 0xE1 SHL DUP2 MSTORE ADDRESS SWAP3 POP PUSH4 0xAC8BC77E SWAP2 POP PUSH2 0x279D SWAP1 DUP15 SWAP1 DUP13 SWAP1 DUP13 SWAP1 DUP11 SWAP1 DUP11 SWAP1 PUSH1 0x4 ADD PUSH2 0x3781 JUMP JUMPDEST PUSH1 0x0 PUSH1 0x40 MLOAD DUP1 DUP4 SUB DUP2 PUSH1 0x0 DUP8 DUP1 EXTCODESIZE ISZERO DUP1 ISZERO PUSH2 0x27B7 JUMPI PUSH1 0x0 DUP1 REVERT JUMPDEST POP GAS CALL ISZERO DUP1 ISZERO PUSH2 0x27CB JUMPI RETURNDATASIZE PUSH1 0x0 DUP1 RETURNDATACOPY RETURNDATASIZE PUSH1 0x0 REVERT JUMPDEST POP POP POP POP PUSH1 0x0 JUMPDEST DUP6 DUP2 LT ISZERO PUSH2 0x2890 JUMPI ADDRESS PUSH4 0x7CE752C6 DUP14 DUP10 DUP10 DUP6 DUP2 DUP2 LT PUSH2 0x27F3 JUMPI PUSH2 0x27F3 PUSH2 0x362F JUMP JUMPDEST SWAP1 POP PUSH1 0x20 MUL ADD PUSH1 0x20 DUP2 ADD SWAP1 PUSH2 0x2808 SWAP2 SWAP1 PUSH2 0x30E1 JUMP JUMPDEST DUP7 DUP7 DUP7 DUP2 DUP2 LT PUSH2 0x281A JUMPI PUSH2 0x281A PUSH2 0x362F JUMP JUMPDEST SWAP1 POP PUSH1 0x20 MUL DUP2 ADD SWAP1 PUSH2 0x282C SWAP2 SWAP1 PUSH2 0x3874 JUMP JUMPDEST PUSH1 0x40 MLOAD DUP6 PUSH4 0xFFFFFFFF AND PUSH1 0xE0 SHL DUP2 MSTORE PUSH1 0x4 ADD PUSH2 0x284B SWAP5 SWAP4 SWAP3 SWAP2 SWAP1 PUSH2 0x38BE JUMP JUMPDEST PUSH1 0x0 PUSH1 0x40 MLOAD DUP1 DUP4 SUB DUP2 PUSH1 0x0 DUP8 DUP1 EXTCODESIZE ISZERO DUP1 ISZERO PUSH2 0x2865 JUMPI PUSH1 0x0 DUP1 REVERT JUMPDEST POP GAS CALL ISZERO DUP1 ISZERO PUSH2 0x2879 JUMPI RETURNDATASIZE PUSH1 0x0 DUP1 RETURNDATACOPY RETURNDATASIZE PUSH1 0x0 REVERT JUMPDEST POP POP POP POP DUP1 DUP1 PUSH2 0x2888 SWAP1 PUSH2 0x3669 JUMP JUMPDEST SWAP2 POP POP PUSH2 0x27D2 JUMP JUMPDEST POP POP POP POP POP POP POP POP POP POP POP POP JUMP JUMPDEST PUSH1 0x0 SLOAD PUSH1 0x1 PUSH1 0x1 PUSH1 0xA0 SHL SUB AND CALLER EQ PUSH2 0x820 JUMPI PUSH1 0x40 MLOAD PUSH3 0x461BCD PUSH1 0xE5 SHL DUP2 MSTORE PUSH1 0x20 PUSH1 0x4 DUP3 ADD DUP2 SWAP1 MSTORE PUSH1 0x24 DUP3 ADD MSTORE PUSH32 0x4F776E61626C653A2063616C6C6572206973206E6F7420746865206F776E6572 PUSH1 0x44 DUP3 ADD MSTORE PUSH1 0x64 ADD PUSH2 0x58B JUMP JUMPDEST PUSH1 0x0 DUP1 SLOAD PUSH1 0x1 PUSH1 0x1 PUSH1 0xA0 SHL SUB DUP4 DUP2 AND PUSH1 0x1 PUSH1 0x1 PUSH1 0xA0 SHL SUB NOT DUP4 AND DUP2 OR DUP5 SSTORE PUSH1 0x40 MLOAD SWAP2 SWAP1 SWAP3 AND SWAP3 DUP4 SWAP2 PUSH32 0x8BE0079C531659141344CD1FD0A4F28419497F9722A3DAAFE3B4186F6B6457E0 SWAP2 SWAP1 LOG3 POP POP JUMP JUMPDEST PUSH2 0x29A0 DUP5 PUSH4 0x23B872DD PUSH1 0xE0 SHL DUP6 DUP6 DUP6 PUSH1 0x40 MLOAD PUSH1 0x24 ADD PUSH2 0x2969 SWAP4 SWAP3 SWAP2 SWAP1 PUSH2 0x3645 JUMP JUMPDEST PUSH1 0x40 DUP1 MLOAD PUSH1 0x1F NOT DUP2 DUP5 SUB ADD DUP2 MSTORE SWAP2 SWAP1 MSTORE PUSH1 0x20 DUP2 ADD DUP1 MLOAD PUSH1 0x1 PUSH1 0x1 PUSH1 0xE0 SHL SUB AND PUSH1 0x1 PUSH1 0x1 PUSH1 0xE0 SHL SUB NOT SWAP1 SWAP4 AND SWAP3 SWAP1 SWAP3 OR SWAP1 SWAP2 MSTORE PUSH2 0x2DA2 JUMP JUMPDEST POP POP POP POP JUMP JUMPDEST PUSH1 0x2 PUSH1 0x1 SLOAD SUB PUSH2 0x29F8 JUMPI PUSH1 0x40 MLOAD PUSH3 0x461BCD PUSH1 0xE5 SHL DUP2 MSTORE PUSH1 0x20 PUSH1 0x4 DUP3 ADD MSTORE PUSH1 0x1F PUSH1 0x24 DUP3 ADD MSTORE PUSH32 0x5265656E7472616E637947756172643A207265656E7472616E742063616C6C00 PUSH1 0x44 DUP3 ADD MSTORE PUSH1 0x64 ADD PUSH2 0x58B JUMP JUMPDEST PUSH1 0x2 PUSH1 0x1 SSTORE JUMP JUMPDEST PUSH1 0x40 MLOAD PUSH4 0x70A08231 PUSH1 0xE0 SHL DUP2 MSTORE PUSH1 0x1 PUSH1 0x1 PUSH1 0xA0 SHL SUB DUP4 DUP2 AND PUSH1 0x4 DUP4 ADD MSTORE PUSH1 0x0 SWAP2 SWAP1 DUP4 AND SWAP1 PUSH4 0x70A08231 SWAP1 PUSH1 0x24 ADD PUSH1 0x20 PUSH1 0x40 MLOAD DUP1 DUP4 SUB DUP2 DUP7 GAS STATICCALL ISZERO DUP1 ISZERO PUSH2 0x2A49 JUMPI RETURNDATASIZE PUSH1 0x0 DUP1 RETURNDATACOPY RETURNDATASIZE PUSH1 0x0 REVERT JUMPDEST POP POP POP POP PUSH1 0x40 MLOAD RETURNDATASIZE PUSH1 0x1F NOT PUSH1 0x1F DUP3 ADD AND DUP3 ADD DUP1 PUSH1 0x40 MSTORE POP DUP2 ADD SWAP1 PUSH2 0x2A6D SWAP2 SWAP1 PUSH2 0x3B1E JUMP JUMPDEST SWAP1 POP PUSH1 0x0 DUP2 PUSH1 0x0 SUB PUSH2 0x2A91 JUMPI PUSH1 0x40 MLOAD PUSH3 0x461BCD PUSH1 0xE5 SHL DUP2 MSTORE PUSH1 0x4 ADD PUSH2 0x58B SWAP1 PUSH2 0x3B37 JUMP JUMPDEST PUSH1 0x40 MLOAD PUSH4 0x6EB1769F PUSH1 0xE1 SHL DUP2 MSTORE PUSH1 0x1 PUSH1 0x1 PUSH1 0xA0 SHL SUB DUP6 DUP2 AND PUSH1 0x4 DUP4 ADD MSTORE ADDRESS PUSH1 0x24 DUP4 ADD MSTORE PUSH1 0x0 SWAP2 SWAP1 DUP6 AND SWAP1 PUSH4 0xDD62ED3E SWAP1 PUSH1 0x44 ADD PUSH1 0x20 PUSH1 0x40 MLOAD DUP1 DUP4 SUB DUP2 DUP7 GAS STATICCALL ISZERO DUP1 ISZERO PUSH2 0x2AE1 JUMPI RETURNDATASIZE PUSH1 0x0 DUP1 RETURNDATACOPY RETURNDATASIZE PUSH1 0x0 REVERT JUMPDEST POP POP POP POP PUSH1 0x40 MLOAD RETURNDATASIZE PUSH1 0x1F NOT PUSH1 0x1F DUP3 ADD AND DUP3 ADD DUP1 PUSH1 0x40 MSTORE POP DUP2 ADD SWAP1 PUSH2 0x2B05 SWAP2 SWAP1 PUSH2 0x3B1E JUMP JUMPDEST SWAP1 POP DUP1 PUSH1 0x0 SUB PUSH2 0x2B57 JUMPI PUSH1 0x40 MLOAD PUSH3 0x461BCD PUSH1 0xE5 SHL DUP2 MSTORE PUSH1 0x20 PUSH1 0x4 DUP3 ADD MSTORE PUSH1 0x1C PUSH1 0x24 DUP3 ADD MSTORE PUSH32 0x57696C6C65723A204552433230207A65726F20616C6C6F77616E636500000000 PUSH1 0x44 DUP3 ADD MSTORE PUSH1 0x64 ADD PUSH2 0x58B JUMP JUMPDEST DUP3 DUP2 LT ISZERO PUSH2 0x2B63 JUMPI DUP1 SWAP3 POP JUMPDEST PUSH1 0x0 JUMPDEST PUSH1 0x1 PUSH1 0x1 PUSH1 0xA0 SHL SUB DUP7 AND PUSH1 0x0 SWAP1 DUP2 MSTORE PUSH1 0x7 PUSH1 0x20 MSTORE PUSH1 0x40 SWAP1 KECCAK256 SLOAD DUP2 LT ISZERO PUSH2 0x2CE5 JUMPI PUSH1 0x1 PUSH1 0x1 PUSH1 0xA0 SHL SUB DUP7 AND PUSH1 0x0 SWAP1 DUP2 MSTORE PUSH1 0x7 PUSH1 0x20 MSTORE PUSH1 0x40 SWAP1 KECCAK256 PUSH1 0x4 ADD DUP1 SLOAD PUSH2 0x2BE8 SWAP2 SWAP1 DUP4 SWAP1 DUP2 LT PUSH2 0x2BB8 JUMPI PUSH2 0x2BB8 PUSH2 0x362F JUMP JUMPDEST PUSH1 0x0 SWAP2 DUP3 MSTORE PUSH1 0x20 DUP1 DUP4 KECCAK256 SWAP1 SWAP2 ADD SLOAD PUSH1 0x1 PUSH1 0x1 PUSH1 0xA0 SHL SUB DUP11 AND DUP4 MSTORE PUSH1 0x7 SWAP1 SWAP2 MSTORE PUSH1 0x40 SWAP1 SWAP2 KECCAK256 PUSH1 0x1 ADD SLOAD DUP7 SWAP2 SWAP1 PUSH2 0x2CED JUMP JUMPDEST PUSH1 0x1 PUSH1 0x1 PUSH1 0xA0 SHL SUB DUP8 AND PUSH1 0x0 SWAP1 DUP2 MSTORE PUSH1 0x7 PUSH1 0x20 MSTORE PUSH1 0x40 SWAP1 KECCAK256 SLOAD SWAP1 SWAP4 POP PUSH2 0x2C10 SWAP1 PUSH1 0x1 SWAP1 PUSH2 0x3B79 JUMP JUMPDEST DUP2 SUB PUSH2 0x2C83 JUMPI PUSH1 0x40 MLOAD PUSH4 0x70A08231 PUSH1 0xE0 SHL DUP2 MSTORE PUSH1 0x1 PUSH1 0x1 PUSH1 0xA0 SHL SUB DUP8 DUP2 AND PUSH1 0x4 DUP4 ADD MSTORE DUP7 AND SWAP1 PUSH4 0x70A08231 SWAP1 PUSH1 0x24 ADD PUSH1 0x20 PUSH1 0x40 MLOAD DUP1 DUP4 SUB DUP2 DUP7 GAS STATICCALL ISZERO DUP1 ISZERO PUSH2 0x2C5C JUMPI RETURNDATASIZE PUSH1 0x0 DUP1 RETURNDATACOPY RETURNDATASIZE PUSH1 0x0 REVERT JUMPDEST POP POP POP POP PUSH1 0x40 MLOAD RETURNDATASIZE PUSH1 0x1F NOT PUSH1 0x1F DUP3 ADD AND DUP3 ADD DUP1 PUSH1 0x40 MSTORE POP DUP2 ADD SWAP1 PUSH2 0x2C80 SWAP2 SWAP1 PUSH2 0x3B1E JUMP JUMPDEST SWAP3 POP JUMPDEST PUSH1 0x1 PUSH1 0x1 PUSH1 0xA0 SHL SUB DUP7 AND PUSH1 0x0 SWAP1 DUP2 MSTORE PUSH1 0x7 PUSH1 0x20 MSTORE PUSH1 0x40 SWAP1 KECCAK256 DUP1 SLOAD PUSH2 0x2CD3 SWAP2 DUP9 SWAP2 DUP5 SWAP1 DUP2 LT PUSH2 0x2CB3 JUMPI PUSH2 0x2CB3 PUSH2 0x362F JUMP JUMPDEST PUSH1 0x0 SWAP2 DUP3 MSTORE PUSH1 0x20 SWAP1 SWAP2 KECCAK256 ADD SLOAD PUSH1 0x1 PUSH1 0x1 PUSH1 0xA0 SHL SUB DUP9 DUP2 AND SWAP3 SWAP2 AND DUP7 PUSH2 0x2948 JUMP JUMPDEST DUP1 PUSH2 0x2CDD DUP2 PUSH2 0x3669 JUMP JUMPDEST SWAP2 POP POP PUSH2 0x2B66 JUMP JUMPDEST POP POP POP POP POP POP JUMP JUMPDEST PUSH1 0x0 DUP1 DUP1 PUSH1 0x0 NOT DUP6 DUP8 MULMOD DUP6 DUP8 MUL SWAP3 POP DUP3 DUP2 LT DUP4 DUP3 SUB SUB SWAP2 POP POP DUP1 PUSH1 0x0 SUB PUSH2 0x2D27 JUMPI DUP4 DUP3 DUP2 PUSH2 0x2D1D JUMPI PUSH2 0x2D1D PUSH2 0x3C16 JUMP JUMPDEST DIV SWAP3 POP POP POP PUSH2 0x2D9B JUMP JUMPDEST DUP1 DUP5 GT PUSH2 0x2D33 JUMPI PUSH1 0x0 DUP1 REVERT JUMPDEST PUSH1 0x0 DUP5 DUP7 DUP9 MULMOD DUP6 NOT PUSH1 0x1 SWAP1 DUP2 ADD DUP8 AND SWAP7 DUP8 SWAP1 DIV SWAP7 DUP3 DUP7 SUB DUP2 SWAP1 DIV SWAP6 SWAP1 SWAP3 GT SWAP1 SWAP4 SUB PUSH1 0x0 DUP3 SWAP1 SUB SWAP2 SWAP1 SWAP2 DIV SWAP1 SWAP3 ADD SWAP2 SWAP1 SWAP2 MUL SWAP2 SWAP1 SWAP2 OR PUSH1 0x3 DUP5 MUL PUSH1 0x2 SWAP1 DUP2 XOR DUP1 DUP7 MUL DUP3 SUB MUL DUP1 DUP7 MUL DUP3 SUB MUL DUP1 DUP7 MUL DUP3 SUB MUL DUP1 DUP7 MUL DUP3 SUB MUL DUP1 DUP7 MUL DUP3 SUB MUL DUP1 DUP7 MUL SWAP1 SWAP2 SUB MUL MUL SWAP2 POP POP JUMPDEST SWAP4 SWAP3 POP POP POP JUMP JUMPDEST PUSH1 0x0 PUSH2 0x2DF7 DUP3 PUSH1 0x40 MLOAD DUP1 PUSH1 0x40 ADD PUSH1 0x40 MSTORE DUP1 PUSH1 0x20 DUP2 MSTORE PUSH1 0x20 ADD PUSH32 0x5361666545524332303A206C6F772D6C6576656C2063616C6C206661696C6564 DUP2 MSTORE POP DUP6 PUSH1 0x1 PUSH1 0x1 PUSH1 0xA0 SHL SUB AND PUSH2 0x2E79 SWAP1 SWAP3 SWAP2 SWAP1 PUSH4 0xFFFFFFFF AND JUMP JUMPDEST DUP1 MLOAD SWAP1 SWAP2 POP ISZERO PUSH2 0x2E74 JUMPI DUP1 DUP1 PUSH1 0x20 ADD SWAP1 MLOAD DUP2 ADD SWAP1 PUSH2 0x2E15 SWAP2 SWAP1 PUSH2 0x3C2C JUMP JUMPDEST PUSH2 0x2E74 JUMPI PUSH1 0x40 MLOAD PUSH3 0x461BCD PUSH1 0xE5 SHL DUP2 MSTORE PUSH1 0x20 PUSH1 0x4 DUP3 ADD MSTORE PUSH1 0x2A PUSH1 0x24 DUP3 ADD MSTORE PUSH32 0x5361666545524332303A204552433230206F7065726174696F6E20646964206E PUSH1 0x44 DUP3 ADD MSTORE PUSH10 0x1BDD081CDD58D8D95959 PUSH1 0xB2 SHL PUSH1 0x64 DUP3 ADD MSTORE PUSH1 0x84 ADD PUSH2 0x58B JUMP JUMPDEST POP POP POP JUMP JUMPDEST PUSH1 0x60 PUSH2 0x2E88 DUP5 DUP5 PUSH1 0x0 DUP6 PUSH2 0x2E90 JUMP JUMPDEST SWAP5 SWAP4 POP POP POP POP JUMP JUMPDEST PUSH1 0x60 DUP3 SELFBALANCE LT ISZERO PUSH2 0x2EF1 JUMPI PUSH1 0x40 MLOAD PUSH3 0x461BCD PUSH1 0xE5 SHL DUP2 MSTORE PUSH1 0x20 PUSH1 0x4 DUP3 ADD MSTORE PUSH1 0x26 PUSH1 0x24 DUP3 ADD MSTORE PUSH32 0x416464726573733A20696E73756666696369656E742062616C616E636520666F PUSH1 0x44 DUP3 ADD MSTORE PUSH6 0x1C8818D85B1B PUSH1 0xD2 SHL PUSH1 0x64 DUP3 ADD MSTORE PUSH1 0x84 ADD PUSH2 0x58B JUMP JUMPDEST PUSH1 0x0 DUP1 DUP7 PUSH1 0x1 PUSH1 0x1 PUSH1 0xA0 SHL SUB AND DUP6 DUP8 PUSH1 0x40 MLOAD PUSH2 0x2F0D SWAP2 SWAP1 PUSH2 0x3C4E JUMP JUMPDEST PUSH1 0x0 PUSH1 0x40 MLOAD DUP1 DUP4 SUB DUP2 DUP6 DUP8 GAS CALL SWAP3 POP POP POP RETURNDATASIZE DUP1 PUSH1 0x0 DUP2 EQ PUSH2 0x2F4A JUMPI PUSH1 0x40 MLOAD SWAP2 POP PUSH1 0x1F NOT PUSH1 0x3F RETURNDATASIZE ADD AND DUP3 ADD PUSH1 0x40 MSTORE RETURNDATASIZE DUP3 MSTORE RETURNDATASIZE PUSH1 0x0 PUSH1 0x20 DUP5 ADD RETURNDATACOPY PUSH2 0x2F4F JUMP JUMPDEST PUSH1 0x60 SWAP2 POP JUMPDEST POP SWAP2 POP SWAP2 POP PUSH2 0x2F60 DUP8 DUP4 DUP4 DUP8 PUSH2 0x2F6B JUMP JUMPDEST SWAP8 SWAP7 POP POP POP POP POP POP POP JUMP JUMPDEST PUSH1 0x60 DUP4 ISZERO PUSH2 0x2FDA JUMPI DUP3 MLOAD PUSH1 0x0 SUB PUSH2 0x2FD3 JUMPI PUSH1 0x1 PUSH1 0x1 PUSH1 0xA0 SHL SUB DUP6 AND EXTCODESIZE PUSH2 0x2FD3 JUMPI PUSH1 0x40 MLOAD PUSH3 0x461BCD PUSH1 0xE5 SHL DUP2 MSTORE PUSH1 0x20 PUSH1 0x4 DUP3 ADD MSTORE PUSH1 0x1D PUSH1 0x24 DUP3 ADD MSTORE PUSH32 0x416464726573733A2063616C6C20746F206E6F6E2D636F6E7472616374000000 PUSH1 0x44 DUP3 ADD MSTORE PUSH1 0x64 ADD PUSH2 0x58B JUMP JUMPDEST POP DUP2 PUSH2 0x2E88 JUMP JUMPDEST PUSH2 0x2E88 DUP4 DUP4 DUP2 MLOAD ISZERO PUSH2 0x2FEF JUMPI DUP2 MLOAD DUP1 DUP4 PUSH1 0x20 ADD REVERT JUMPDEST DUP1 PUSH1 0x40 MLOAD PUSH3 0x461BCD PUSH1 0xE5 SHL DUP2 MSTORE PUSH1 0x4 ADD PUSH2 0x58B SWAP2 SWAP1 PUSH2 0x3C6A JUMP JUMPDEST DUP3 DUP1 SLOAD DUP3 DUP3 SSTORE SWAP1 PUSH1 0x0 MSTORE PUSH1 0x20 PUSH1 0x0 KECCAK256 SWAP1 DUP2 ADD SWAP3 DUP3 ISZERO PUSH2 0x305C JUMPI SWAP2 PUSH1 0x20 MUL DUP3 ADD JUMPDEST DUP3 DUP2 GT ISZERO PUSH2 0x305C JUMPI DUP2 SLOAD PUSH1 0x1 PUSH1 0x1 PUSH1 0xA0 SHL SUB NOT AND PUSH1 0x1 PUSH1 0x1 PUSH1 0xA0 SHL SUB DUP5 CALLDATALOAD AND OR DUP3 SSTORE PUSH1 0x20 SWAP1 SWAP3 ADD SWAP2 PUSH1 0x1 SWAP1 SWAP2 ADD SWAP1 PUSH2 0x3029 JUMP JUMPDEST POP PUSH2 0x3068 SWAP3 SWAP2 POP PUSH2 0x30A7 JUMP JUMPDEST POP SWAP1 JUMP JUMPDEST DUP3 DUP1 SLOAD DUP3 DUP3 SSTORE SWAP1 PUSH1 0x0 MSTORE PUSH1 0x20 PUSH1 0x0 KECCAK256 SWAP1 DUP2 ADD SWAP3 DUP3 ISZERO PUSH2 0x305C JUMPI SWAP2 PUSH1 0x20 MUL DUP3 ADD JUMPDEST DUP3 DUP2 GT ISZERO PUSH2 0x305C JUMPI DUP3 CALLDATALOAD DUP3 SSTORE SWAP2 PUSH1 0x20 ADD SWAP2 SWAP1 PUSH1 0x1 ADD SWAP1 PUSH2 0x308C JUMP JUMPDEST JUMPDEST DUP1 DUP3 GT ISZERO PUSH2 0x3068 JUMPI PUSH1 0x0 DUP2 SSTORE PUSH1 0x1 ADD PUSH2 0x30A8 JUMP JUMPDEST PUSH1 0x1 PUSH1 0x1 PUSH1 0xA0 SHL SUB DUP2 AND DUP2 EQ PUSH2 0x2716 JUMPI PUSH1 0x0 DUP1 REVERT JUMPDEST DUP1 CALLDATALOAD PUSH2 0x30DC DUP2 PUSH2 0x30BC JUMP JUMPDEST SWAP2 SWAP1 POP JUMP JUMPDEST PUSH1 0x0 PUSH1 0x20 DUP3 DUP5 SUB SLT ISZERO PUSH2 0x30F3 JUMPI PUSH1 0x0 DUP1 REVERT JUMPDEST DUP2 CALLDATALOAD PUSH2 0x2D9B DUP2 PUSH2 0x30BC JUMP JUMPDEST PUSH1 0x20 DUP1 DUP3 MSTORE DUP3 MLOAD DUP3 DUP3 ADD DUP2 SWAP1 MSTORE PUSH1 0x0 SWAP2 SWAP1 DUP5 DUP3 ADD SWAP1 PUSH1 0x40 DUP6 ADD SWAP1 DUP5 JUMPDEST DUP2 DUP2 LT ISZERO PUSH2 0x313F JUMPI DUP4 MLOAD PUSH1 0x1 PUSH1 0x1 PUSH1 0xA0 SHL SUB AND DUP4 MSTORE SWAP3 DUP5 ADD SWAP3 SWAP2 DUP5 ADD SWAP2 PUSH1 0x1 ADD PUSH2 0x311A JUMP JUMPDEST POP SWAP1 SWAP7 SWAP6 POP POP POP POP POP POP JUMP JUMPDEST PUSH1 0x0 DUP1 DUP4 PUSH1 0x1F DUP5 ADD SLT PUSH2 0x315D JUMPI PUSH1 0x0 DUP1 REVERT JUMPDEST POP DUP2 CALLDATALOAD PUSH8 0xFFFFFFFFFFFFFFFF DUP2 GT ISZERO PUSH2 0x3175 JUMPI PUSH1 0x0 DUP1 REVERT JUMPDEST PUSH1 0x20 DUP4 ADD SWAP2 POP DUP4 PUSH1 0x20 DUP3 PUSH1 0x5 SHL DUP6 ADD ADD GT ISZERO PUSH2 0x3190 JUMPI PUSH1 0x0 DUP1 REVERT JUMPDEST SWAP3 POP SWAP3 SWAP1 POP JUMP JUMPDEST PUSH1 0x0 DUP1 PUSH1 0x0 DUP1 PUSH1 0x60 DUP6 DUP8 SUB SLT ISZERO PUSH2 0x31AD JUMPI PUSH1 0x0 DUP1 REVERT JUMPDEST DUP5 CALLDATALOAD PUSH2 0x31B8 DUP2 PUSH2 0x30BC JUMP JUMPDEST SWAP4 POP PUSH1 0x20 DUP6 ADD CALLDATALOAD PUSH2 0x31C8 DUP2 PUSH2 0x30BC JUMP JUMPDEST SWAP3 POP PUSH1 0x40 DUP6 ADD CALLDATALOAD PUSH8 0xFFFFFFFFFFFFFFFF DUP2 GT ISZERO PUSH2 0x31E4 JUMPI PUSH1 0x0 DUP1 REVERT JUMPDEST PUSH2 0x31F0 DUP8 DUP3 DUP9 ADD PUSH2 0x314B JUMP JUMPDEST SWAP6 SWAP9 SWAP5 SWAP8 POP SWAP6 POP POP POP POP JUMP JUMPDEST PUSH1 0x0 DUP1 PUSH1 0x0 DUP1 PUSH1 0x0 DUP1 PUSH1 0x0 DUP1 PUSH1 0x0 DUP1 PUSH1 0x0 PUSH1 0xC0 DUP13 DUP15 SUB SLT ISZERO PUSH2 0x321D JUMPI PUSH1 0x0 DUP1 REVERT JUMPDEST PUSH2 0x3226 DUP13 PUSH2 0x30D1 JUMP JUMPDEST SWAP11 POP PUSH8 0xFFFFFFFFFFFFFFFF DUP1 PUSH1 0x20 DUP15 ADD CALLDATALOAD GT ISZERO PUSH2 0x3242 JUMPI PUSH1 0x0 DUP1 REVERT JUMPDEST PUSH2 0x3252 DUP15 PUSH1 0x20 DUP16 ADD CALLDATALOAD DUP16 ADD PUSH2 0x314B JUMP JUMPDEST SWAP1 SWAP12 POP SWAP10 POP PUSH1 0x40 DUP14 ADD CALLDATALOAD DUP2 LT ISZERO PUSH2 0x3268 JUMPI PUSH1 0x0 DUP1 REVERT JUMPDEST PUSH2 0x3278 DUP15 PUSH1 0x40 DUP16 ADD CALLDATALOAD DUP16 ADD PUSH2 0x314B JUMP JUMPDEST SWAP1 SWAP10 POP SWAP8 POP PUSH1 0x60 DUP14 ADD CALLDATALOAD DUP2 LT ISZERO PUSH2 0x328E JUMPI PUSH1 0x0 DUP1 REVERT JUMPDEST PUSH2 0x329E DUP15 PUSH1 0x60 DUP16 ADD CALLDATALOAD DUP16 ADD PUSH2 0x314B JUMP JUMPDEST SWAP1 SWAP8 POP SWAP6 POP PUSH1 0x80 DUP14 ADD CALLDATALOAD DUP2 LT ISZERO PUSH2 0x32B4 JUMPI PUSH1 0x0 DUP1 REVERT JUMPDEST PUSH2 0x32C4 DUP15 PUSH1 0x80 DUP16 ADD CALLDATALOAD DUP16 ADD PUSH2 0x314B JUMP JUMPDEST SWAP1 SWAP6 POP SWAP4 POP PUSH1 0xA0 DUP14 ADD CALLDATALOAD DUP2 LT ISZERO PUSH2 0x32DA JUMPI PUSH1 0x0 DUP1 REVERT JUMPDEST POP PUSH2 0x32EB DUP14 PUSH1 0xA0 DUP15 ADD CALLDATALOAD DUP15 ADD PUSH2 0x314B JUMP JUMPDEST DUP2 SWAP4 POP DUP1 SWAP3 POP POP POP SWAP3 SWAP6 SWAP9 SWAP12 POP SWAP3 SWAP6 SWAP9 SWAP12 SWAP1 SWAP4 SWAP7 SWAP10 POP JUMP JUMPDEST PUSH1 0x0 DUP1 PUSH1 0x0 DUP1 PUSH1 0x0 DUP1 PUSH1 0x80 DUP8 DUP10 SUB SLT ISZERO PUSH2 0x331C JUMPI PUSH1 0x0 DUP1 REVERT JUMPDEST DUP7 CALLDATALOAD PUSH8 0xFFFFFFFFFFFFFFFF DUP1 DUP3 GT ISZERO PUSH2 0x3334 JUMPI PUSH1 0x0 DUP1 REVERT JUMPDEST PUSH2 0x3340 DUP11 DUP4 DUP12 ADD PUSH2 0x314B JUMP JUMPDEST SWAP1 SWAP9 POP SWAP7 POP PUSH1 0x20 DUP10 ADD CALLDATALOAD SWAP2 POP DUP1 DUP3 GT ISZERO PUSH2 0x3359 JUMPI PUSH1 0x0 DUP1 REVERT JUMPDEST POP PUSH2 0x3366 DUP10 DUP3 DUP11 ADD PUSH2 0x314B JUMP JUMPDEST SWAP1 SWAP6 POP SWAP4 POP POP PUSH1 0x40 DUP8 ADD CALLDATALOAD PUSH2 0x337A DUP2 PUSH2 0x30BC JUMP JUMPDEST DUP1 SWAP3 POP POP PUSH1 0x60 DUP8 ADD CALLDATALOAD SWAP1 POP SWAP3 SWAP6 POP SWAP3 SWAP6 POP SWAP3 SWAP6 JUMP JUMPDEST PUSH1 0x0 DUP1 PUSH1 0x40 DUP4 DUP6 SUB SLT ISZERO PUSH2 0x33A2 JUMPI PUSH1 0x0 DUP1 REVERT JUMPDEST DUP3 CALLDATALOAD PUSH2 0x33AD DUP2 PUSH2 0x30BC JUMP JUMPDEST SWAP2 POP PUSH1 0x20 DUP4 ADD CALLDATALOAD PUSH2 0x33BD DUP2 PUSH2 0x30BC JUMP JUMPDEST DUP1 SWAP2 POP POP SWAP3 POP SWAP3 SWAP1 POP JUMP JUMPDEST PUSH1 0x0 DUP1 PUSH1 0x0 PUSH1 0x40 DUP5 DUP7 SUB SLT ISZERO PUSH2 0x33DD JUMPI PUSH1 0x0 DUP1 REVERT JUMPDEST DUP4 CALLDATALOAD PUSH2 0x33E8 DUP2 PUSH2 0x30BC JUMP JUMPDEST SWAP3 POP PUSH1 0x20 DUP5 ADD CALLDATALOAD PUSH8 0xFFFFFFFFFFFFFFFF DUP2 GT ISZERO PUSH2 0x3404 JUMPI PUSH1 0x0 DUP1 REVERT JUMPDEST PUSH2 0x3410 DUP7 DUP3 DUP8 ADD PUSH2 0x314B JUMP JUMPDEST SWAP5 SWAP8 SWAP1 SWAP7 POP SWAP4 SWAP5 POP POP POP POP JUMP JUMPDEST PUSH1 0x0 DUP1 PUSH1 0x0 PUSH1 0x60 DUP5 DUP7 SUB SLT ISZERO PUSH2 0x3432 JUMPI PUSH1 0x0 DUP1 REVERT JUMPDEST DUP4 CALLDATALOAD PUSH2 0x343D DUP2 PUSH2 0x30BC JUMP JUMPDEST SWAP3 POP PUSH1 0x20 DUP5 ADD CALLDATALOAD PUSH2 0x344D DUP2 PUSH2 0x30BC JUMP JUMPDEST SWAP3 SWAP6 SWAP3 SWAP5 POP POP POP PUSH1 0x40 SWAP2 SWAP1 SWAP2 ADD CALLDATALOAD SWAP1 JUMP JUMPDEST PUSH1 0x0 DUP1 PUSH1 0x0 DUP1 PUSH1 0x40 DUP6 DUP8 SUB SLT ISZERO PUSH2 0x3474 JUMPI PUSH1 0x0 DUP1 REVERT JUMPDEST DUP5 CALLDATALOAD PUSH8 0xFFFFFFFFFFFFFFFF DUP1 DUP3 GT ISZERO PUSH2 0x348C JUMPI PUSH1 0x0 DUP1 REVERT JUMPDEST PUSH2 0x3498 DUP9 DUP4 DUP10 ADD PUSH2 0x314B JUMP JUMPDEST SWAP1 SWAP7 POP SWAP5 POP PUSH1 0x20 DUP8 ADD CALLDATALOAD SWAP2 POP DUP1 DUP3 GT ISZERO PUSH2 0x34B1 JUMPI PUSH1 0x0 DUP1 REVERT JUMPDEST POP PUSH2 0x31F0 DUP8 DUP3 DUP9 ADD PUSH2 0x314B JUMP JUMPDEST PUSH1 0x0 PUSH1 0x20 DUP3 DUP5 SUB SLT ISZERO PUSH2 0x34D0 JUMPI PUSH1 0x0 DUP1 REVERT JUMPDEST POP CALLDATALOAD SWAP2 SWAP1 POP JUMP JUMPDEST PUSH1 0x0 DUP1 PUSH1 0x0 DUP1 PUSH1 0x0 PUSH1 0x60 DUP7 DUP9 SUB SLT ISZERO PUSH2 0x34EF JUMPI PUSH1 0x0 DUP1 REVERT JUMPDEST DUP6 CALLDATALOAD PUSH2 0x34FA DUP2 PUSH2 0x30BC JUMP JUMPDEST SWAP5 POP PUSH1 0x20 DUP7 ADD CALLDATALOAD PUSH8 0xFFFFFFFFFFFFFFFF DUP1 DUP3 GT ISZERO PUSH2 0x3517 JUMPI PUSH1 0x0 DUP1 REVERT JUMPDEST PUSH2 0x3523 DUP10 DUP4 DUP11 ADD PUSH2 0x314B JUMP JUMPDEST SWAP1 SWAP7 POP SWAP5 POP PUSH1 0x40 DUP9 ADD CALLDATALOAD SWAP2 POP DUP1 DUP3 GT ISZERO PUSH2 0x353C JUMPI PUSH1 0x0 DUP1 REVERT JUMPDEST POP PUSH2 0x3549 DUP9 DUP3 DUP10 ADD PUSH2 0x314B JUMP JUMPDEST SWAP7 SWAP10 SWAP6 SWAP9 POP SWAP4 SWAP7 POP SWAP3 SWAP5 SWAP4 SWAP3 POP POP POP JUMP JUMPDEST PUSH1 0x20 DUP1 DUP3 MSTORE DUP3 MLOAD DUP3 DUP3 ADD DUP2 SWAP1 MSTORE PUSH1 0x0 SWAP2 SWAP1 DUP5 DUP3 ADD SWAP1 PUSH1 0x40 DUP6 ADD SWAP1 DUP5 JUMPDEST DUP2 DUP2 LT ISZERO PUSH2 0x313F JUMPI DUP4 MLOAD DUP4 MSTORE SWAP3 DUP5 ADD SWAP3 SWAP2 DUP5 ADD SWAP2 PUSH1 0x1 ADD PUSH2 0x3576 JUMP JUMPDEST PUSH1 0x20 DUP1 DUP3 MSTORE PUSH1 0x1A SWAP1 DUP3 ADD MSTORE PUSH32 0x57696C6C65723A2077696C6C20646F65736E2774206578697374000000000000 PUSH1 0x40 DUP3 ADD MSTORE PUSH1 0x60 ADD SWAP1 JUMP JUMPDEST PUSH4 0x4E487B71 PUSH1 0xE0 SHL PUSH1 0x0 MSTORE PUSH1 0x11 PUSH1 0x4 MSTORE PUSH1 0x24 PUSH1 0x0 REVERT JUMPDEST DUP1 DUP3 ADD DUP1 DUP3 GT ISZERO PUSH2 0x35F2 JUMPI PUSH2 0x35F2 PUSH2 0x35C9 JUMP JUMPDEST SWAP3 SWAP2 POP POP JUMP JUMPDEST PUSH1 0x20 DUP1 DUP3 MSTORE PUSH1 0x19 SWAP1 DUP3 ADD MSTORE PUSH32 0x57696C6C65723A20546F6F206561726C7920746F207265617000000000000000 PUSH1 0x40 DUP3 ADD MSTORE PUSH1 0x60 ADD SWAP1 JUMP JUMPDEST PUSH4 0x4E487B71 PUSH1 0xE0 SHL PUSH1 0x0 MSTORE PUSH1 0x32 PUSH1 0x4 MSTORE PUSH1 0x24 PUSH1 0x0 REVERT JUMPDEST PUSH1 0x1 PUSH1 0x1 PUSH1 0xA0 SHL SUB SWAP4 DUP5 AND DUP2 MSTORE SWAP2 SWAP1 SWAP3 AND PUSH1 0x20 DUP3 ADD MSTORE PUSH1 0x40 DUP2 ADD SWAP2 SWAP1 SWAP2 MSTORE PUSH1 0x60 ADD SWAP1 JUMP JUMPDEST PUSH1 0x0 PUSH1 0x1 DUP3 ADD PUSH2 0x367B JUMPI PUSH2 0x367B PUSH2 0x35C9 JUMP JUMPDEST POP PUSH1 0x1 ADD SWAP1 JUMP JUMPDEST PUSH1 0x20 DUP1 DUP3 MSTORE PUSH1 0x14 SWAP1 DUP3 ADD MSTORE PUSH20 0x57696C6C65723A20756E72656C65617361626C65 PUSH1 0x60 SHL PUSH1 0x40 DUP3 ADD MSTORE PUSH1 0x60 ADD SWAP1 JUMP JUMPDEST PUSH1 0x20 DUP1 DUP3 MSTORE PUSH1 0x23 SWAP1 DUP3 ADD MSTORE PUSH32 0x57696C6C65723A206578656375746F72206973206E6F742062656E6566696369 PUSH1 0x40 DUP3 ADD MSTORE PUSH3 0x617279 PUSH1 0xE8 SHL PUSH1 0x60 DUP3 ADD MSTORE PUSH1 0x80 ADD SWAP1 JUMP JUMPDEST PUSH1 0x1 PUSH1 0x1 PUSH1 0xA0 SHL SUB DUP5 DUP2 AND DUP3 MSTORE PUSH1 0x40 PUSH1 0x20 DUP1 DUP5 ADD DUP3 SWAP1 MSTORE SWAP1 DUP4 ADD DUP5 SWAP1 MSTORE PUSH1 0x0 SWAP2 DUP6 SWAP2 PUSH1 0x60 DUP6 ADD DUP5 JUMPDEST DUP8 DUP2 LT ISZERO PUSH2 0x3742 JUMPI DUP5 CALLDATALOAD PUSH2 0x372E DUP2 PUSH2 0x30BC JUMP JUMPDEST DUP5 AND DUP3 MSTORE SWAP4 DUP3 ADD SWAP4 SWAP1 DUP3 ADD SWAP1 PUSH1 0x1 ADD PUSH2 0x371B JUMP JUMPDEST POP SWAP9 SWAP8 POP POP POP POP POP POP POP POP JUMP JUMPDEST DUP2 DUP4 MSTORE PUSH1 0x0 PUSH1 0x1 PUSH1 0x1 PUSH1 0xFB SHL SUB DUP4 GT ISZERO PUSH2 0x3768 JUMPI PUSH1 0x0 DUP1 REVERT JUMPDEST DUP3 PUSH1 0x5 SHL DUP1 DUP4 PUSH1 0x20 DUP8 ADD CALLDATACOPY SWAP4 SWAP1 SWAP4 ADD PUSH1 0x20 ADD SWAP4 SWAP3 POP POP POP JUMP JUMPDEST PUSH1 0x1 PUSH1 0x1 PUSH1 0xA0 SHL SUB DUP7 DUP2 AND DUP3 MSTORE PUSH1 0x60 PUSH1 0x20 DUP1 DUP5 ADD DUP3 SWAP1 MSTORE SWAP1 DUP4 ADD DUP7 SWAP1 MSTORE PUSH1 0x0 SWAP2 DUP8 SWAP2 PUSH1 0x80 DUP6 ADD DUP5 JUMPDEST DUP10 DUP2 LT ISZERO PUSH2 0x37D0 JUMPI DUP5 CALLDATALOAD PUSH2 0x37BC DUP2 PUSH2 0x30BC JUMP JUMPDEST DUP5 AND DUP3 MSTORE SWAP4 DUP3 ADD SWAP4 SWAP1 DUP3 ADD SWAP1 PUSH1 0x1 ADD PUSH2 0x37A9 JUMP JUMPDEST POP DUP6 DUP2 SUB PUSH1 0x40 DUP8 ADD MSTORE DUP7 DUP2 MSTORE DUP2 DUP2 ADD SWAP4 POP PUSH1 0x5 SWAP3 POP DUP7 DUP4 SHL DUP2 ADD DUP3 ADD DUP9 PUSH1 0x0 JUMPDEST DUP10 DUP2 LT ISZERO PUSH2 0x3862 JUMPI DUP4 DUP4 SUB PUSH1 0x1F NOT ADD DUP8 MSTORE DUP2 CALLDATALOAD CALLDATASIZE DUP13 SWAP1 SUB PUSH1 0x1E NOT ADD DUP2 SLT PUSH2 0x3816 JUMPI PUSH1 0x0 DUP1 REVERT JUMPDEST DUP12 ADD DUP6 DUP2 ADD SWAP1 CALLDATALOAD PUSH8 0xFFFFFFFFFFFFFFFF DUP2 GT ISZERO PUSH2 0x3832 JUMPI PUSH1 0x0 DUP1 REVERT JUMPDEST DUP1 DUP9 SHL CALLDATASIZE SUB DUP3 SGT ISZERO PUSH2 0x3843 JUMPI PUSH1 0x0 DUP1 REVERT JUMPDEST PUSH2 0x384E DUP6 DUP3 DUP5 PUSH2 0x374F JUMP JUMPDEST SWAP9 DUP8 ADD SWAP9 SWAP5 POP POP POP SWAP1 DUP5 ADD SWAP1 PUSH1 0x1 ADD PUSH2 0x37F0 JUMP JUMPDEST POP SWAP1 SWAP13 SWAP12 POP POP POP POP POP POP POP POP POP POP POP POP JUMP JUMPDEST PUSH1 0x0 DUP1 DUP4 CALLDATALOAD PUSH1 0x1E NOT DUP5 CALLDATASIZE SUB ADD DUP2 SLT PUSH2 0x388B JUMPI PUSH1 0x0 DUP1 REVERT JUMPDEST DUP4 ADD DUP1 CALLDATALOAD SWAP2 POP PUSH8 0xFFFFFFFFFFFFFFFF DUP3 GT ISZERO PUSH2 0x38A6 JUMPI PUSH1 0x0 DUP1 REVERT JUMPDEST PUSH1 0x20 ADD SWAP2 POP PUSH1 0x5 DUP2 SWAP1 SHL CALLDATASIZE SUB DUP3 SGT ISZERO PUSH2 0x3190 JUMPI PUSH1 0x0 DUP1 REVERT JUMPDEST PUSH1 0x1 PUSH1 0x1 PUSH1 0xA0 SHL SUB DUP6 DUP2 AND DUP3 MSTORE DUP5 AND PUSH1 0x20 DUP3 ADD MSTORE PUSH1 0x60 PUSH1 0x40 DUP3 ADD DUP2 SWAP1 MSTORE PUSH1 0x0 SWAP1 PUSH2 0x38EB SWAP1 DUP4 ADD DUP5 DUP7 PUSH2 0x374F JUMP JUMPDEST SWAP7 SWAP6 POP POP POP POP POP POP JUMP JUMPDEST PUSH1 0x20 DUP1 DUP3 MSTORE PUSH1 0x32 SWAP1 DUP3 ADD MSTORE PUSH32 0x57696C6C65723A2062656E656669636961726965735F20616E64207368617265 PUSH1 0x40 DUP3 ADD MSTORE PUSH18 0xE6BE40D8CADCCEE8D040DAD2E6DAC2E8C6D PUSH1 0x73 SHL PUSH1 0x60 DUP3 ADD MSTORE PUSH1 0x80 ADD SWAP1 JUMP JUMPDEST PUSH1 0x20 DUP1 DUP3 MSTORE PUSH1 0x2F SWAP1 DUP3 ADD MSTORE PUSH32 0x57696C6C65723A2061646472657373207A65726F206973206E6F742061207661 PUSH1 0x40 DUP3 ADD MSTORE PUSH15 0x6C69642062656E6566696369617279 PUSH1 0x88 SHL PUSH1 0x60 DUP3 ADD MSTORE PUSH1 0x80 ADD SWAP1 JUMP JUMPDEST PUSH1 0x20 DUP1 DUP3 MSTORE PUSH1 0x2B SWAP1 DUP3 ADD MSTORE PUSH32 0x57696C6C65723A207465737461746F72206973206E6F7420612076616C696420 PUSH1 0x40 DUP3 ADD MSTORE PUSH11 0x62656E6566696369617279 PUSH1 0xA8 SHL PUSH1 0x60 DUP3 ADD MSTORE PUSH1 0x80 ADD SWAP1 JUMP JUMPDEST PUSH1 0x20 DUP1 DUP3 MSTORE PUSH1 0x2C SWAP1 DUP3 ADD MSTORE PUSH32 0x57696C6C65723A2073686172652063616E277420626520677265617465722074 PUSH1 0x40 DUP3 ADD MSTORE PUSH12 0x68616E204D41585348415245 PUSH1 0xA0 SHL PUSH1 0x60 DUP3 ADD MSTORE PUSH1 0x80 ADD SWAP1 JUMP JUMPDEST PUSH1 0x20 DUP1 DUP3 MSTORE PUSH1 0x18 SWAP1 DUP3 ADD MSTORE PUSH32 0x57696C6C65723A2073686172652063616E277420626520300000000000000000 PUSH1 0x40 DUP3 ADD MSTORE PUSH1 0x60 ADD SWAP1 JUMP JUMPDEST PUSH1 0x20 DUP1 DUP3 MSTORE PUSH1 0x37 SWAP1 DUP3 ADD MSTORE PUSH32 0x57696C6C65723A2072657175697265282072656C656173652074696D65203E20 PUSH1 0x40 DUP3 ADD MSTORE PUSH32 0x63757272656E742074696D65202B204255464645522029000000000000000000 PUSH1 0x60 DUP3 ADD MSTORE PUSH1 0x80 ADD SWAP1 JUMP JUMPDEST PUSH1 0x20 DUP1 DUP3 MSTORE PUSH1 0x37 SWAP1 DUP3 ADD MSTORE PUSH32 0x57696C6C65723A2061646472657373207A65726F206973206E6F742061207661 PUSH1 0x40 DUP3 ADD MSTORE PUSH32 0x6C69642062656E65666963696172794F66455243373231000000000000000000 PUSH1 0x60 DUP3 ADD MSTORE PUSH1 0x80 ADD SWAP1 JUMP JUMPDEST PUSH1 0x0 PUSH1 0x20 DUP3 DUP5 SUB SLT ISZERO PUSH2 0x3B30 JUMPI PUSH1 0x0 DUP1 REVERT JUMPDEST POP MLOAD SWAP2 SWAP1 POP JUMP JUMPDEST PUSH1 0x20 DUP1 DUP3 MSTORE PUSH1 0x22 SWAP1 DUP3 ADD MSTORE PUSH32 0x57696C6C65723A204E6F20455243323020746F6B656E7320746F2072656C6561 PUSH1 0x40 DUP3 ADD MSTORE PUSH2 0x7365 PUSH1 0xF0 SHL PUSH1 0x60 DUP3 ADD MSTORE PUSH1 0x80 ADD SWAP1 JUMP JUMPDEST DUP2 DUP2 SUB DUP2 DUP2 GT ISZERO PUSH2 0x35F2 JUMPI PUSH2 0x35F2 PUSH2 0x35C9 JUMP JUMPDEST PUSH1 0x0 JUMPDEST DUP4 DUP2 LT ISZERO PUSH2 0x3BA7 JUMPI DUP2 DUP2 ADD MLOAD DUP4 DUP3 ADD MSTORE PUSH1 0x20 ADD PUSH2 0x3B8F JUMP JUMPDEST POP POP PUSH1 0x0 SWAP2 ADD MSTORE JUMP JUMPDEST PUSH1 0x0 DUP2 MLOAD DUP1 DUP5 MSTORE PUSH2 0x3BC8 DUP2 PUSH1 0x20 DUP7 ADD PUSH1 0x20 DUP7 ADD PUSH2 0x3B8C JUMP JUMPDEST PUSH1 0x1F ADD PUSH1 0x1F NOT AND SWAP3 SWAP1 SWAP3 ADD PUSH1 0x20 ADD SWAP3 SWAP2 POP POP JUMP JUMPDEST PUSH1 0x1 PUSH1 0x1 PUSH1 0xA0 SHL SUB DUP7 DUP2 AND DUP3 MSTORE DUP6 AND PUSH1 0x20 DUP3 ADD MSTORE PUSH1 0x40 DUP2 ADD DUP5 SWAP1 MSTORE PUSH1 0x60 DUP2 ADD DUP4 SWAP1 MSTORE PUSH1 0xA0 PUSH1 0x80 DUP3 ADD DUP2 SWAP1 MSTORE PUSH1 0x0 SWAP1 PUSH2 0x2F60 SWAP1 DUP4 ADD DUP5 PUSH2 0x3BB0 JUMP JUMPDEST PUSH4 0x4E487B71 PUSH1 0xE0 SHL PUSH1 0x0 MSTORE PUSH1 0x12 PUSH1 0x4 MSTORE PUSH1 0x24 PUSH1 0x0 REVERT JUMPDEST PUSH1 0x0 PUSH1 0x20 DUP3 DUP5 SUB SLT ISZERO PUSH2 0x3C3E JUMPI PUSH1 0x0 DUP1 REVERT JUMPDEST DUP2 MLOAD DUP1 ISZERO ISZERO DUP2 EQ PUSH2 0x2D9B JUMPI PUSH1 0x0 DUP1 REVERT JUMPDEST PUSH1 0x0 DUP3 MLOAD PUSH2 0x3C60 DUP2 DUP5 PUSH1 0x20 DUP8 ADD PUSH2 0x3B8C JUMP JUMPDEST SWAP2 SWAP1 SWAP2 ADD SWAP3 SWAP2 POP POP JUMP JUMPDEST PUSH1 0x20 DUP2 MSTORE PUSH1 0x0 PUSH2 0x2D9B PUSH1 0x20 DUP4 ADD DUP5 PUSH2 0x3BB0 JUMP INVALID LOG2 PUSH5 0x6970667358 0x22 SLT KECCAK256 LOG3 0xB6 0x25 SWAP3 SWAP4 PUSH9 0x442C71656998466970 0x26 REVERT PUSH5 0xEDDB7100D RETURNDATASIZE 0xC1 BASEFEE 0xE2 POP CALLVALUE PUSH32 0x3E2764736F6C6343000810003300000000000000000000000000000000000000 ","sha1":"13dee371368f39b0f7feac990b72c191aea13ef1","source":"// SPDX-License-Identifier: MIT\npragma solidity ^0.8.16;\n\nimport \"@openzeppelin/contracts/utils/math/Math.sol\";\nimport \"@openzeppelin/contracts/token/ERC20/utils/SafeERC20.sol\";\nimport \"@openzeppelin/contracts/token/ERC20/IERC20.sol\";\nimport \"@openzeppelin/contracts/token/ERC721/IERC721.sol\";\nimport \"@openzeppelin/contracts/token/ERC1155/IERC1155.sol\";\nimport \"@openzeppelin/contracts/access/Ownable.sol\";\nimport \"@openzeppelin/contracts/security/ReentrancyGuard.sol\";\n\n/**\n * @title Willer\n * @author DimaKush\n *\n */\ncontract Willer is Ownable, ReentrancyGuard {\n    using Math for uint;\n    using SafeERC20 for IERC20;\n\n    struct Will {\n        address[] beneficiaries;\n        uint sumShares;\n        address beneficiaryOfERC721;\n        uint releaseTime;\n        uint[] shares;\n    }\n\n    uint BUFFER = 60;\n    uint MIN_BUFFER = 60;\n    uint MAXSHARE = 10;\n    uint REAP_DELAY = 500000000; // \n    address treasuryAddress = address(this);\n\n    mapping(address => Will) private testatorToWill;\n\n    modifier releasable(address _testator) {\n        require(\n            block.timestamp >= testatorToWill[_testator].releaseTime,\n            \"Willer: unreleasable\"\n        );\n        _;\n    }\n\n    modifier releasableToTreasury(address _testator) {\n        require(\n            block.timestamp >= testatorToWill[_testator].releaseTime + REAP_DELAY,\n            \"Willer: Too early to reap\"\n        );\n        _;\n    }\n\n    modifier validReleaseTime(uint releaseTime_) {\n        require(\n            releaseTime_ >= block.timestamp + BUFFER,\n            \"Willer: require( release time > current time + BUFFER )\"\n        );\n        _;\n    }\n\n    modifier validBeneficiaryOfERC721(address beneficiaryOfERC721_) {\n        require(\n            beneficiaryOfERC721_ != address(0),\n            \"Willer: address zero is not a valid beneficiaryOfERC721\"\n        );\n        _;\n    }\n\n    modifier validBeneficiariesAndShares(\n        address[] calldata beneficiaries_,\n        uint[] calldata shares_,\n        address testator_\n    ) {\n        require(\n            beneficiaries_.length == shares_.length,\n            \"Willer: beneficiaries_ and shares_ length mismatch\"\n        );\n\n        for (uint i; i < beneficiaries_.length; i++) {\n            require(\n                beneficiaries_[i] != address(0),\n                \"Willer: address zero is not a valid beneficiary\"\n            );\n            require(\n                beneficiaries_[i] != testator_,\n                \"Willer: testator is not a valid beneficiary\"\n            );\n            require(\n                shares_[i] <= MAXSHARE,\n                \"Willer: share can't be greater than MAXSHARE\"\n            );\n            require(shares_[i] != 0, \"Willer: share can't be 0\");\n        }\n        _;\n    }\n\n    modifier validShares(uint[] calldata shares_) {\n        for (uint i; i < shares_.length; i++) {\n            require(\n                shares_[i] <= MAXSHARE,\n                \"Willer: share can't be greater than MAXSHARE\"\n            );\n            require(shares_[i] >= 0, \"Willer: share can't be 0\");\n        }\n        _;\n    }\n\n    modifier willExists(address _testator) {\n        require(\n            (testatorToWill[_testator].releaseTime != 0 &&\n                testatorToWill[_testator].beneficiaries.length != 0 &&\n                testatorToWill[_testator].beneficiaryOfERC721 != address(0)),\n            \"Willer: will doesn't exist\"\n        );\n        _;\n    }\n\n    modifier sameLengthArrays(\n        address[] calldata beneficiaries_,\n        uint[] calldata shares_\n    ) {\n        require(\n            beneficiaries_.length == shares_.length,\n            \"Willer: beneficiaries_ and shares_ length mismatch\"\n        );\n        _;\n    }\n\n    // add events\n    // event ReleasedERC20(address owner, address beneficiary, address tokenERC20Address);\n    // event ReleasedERC721(address owner, address beneficiary, address tokenERC721Address);\n    // event ReleasedERC1155(address owner, address beneficiary, address tokenERC1155Address);\n    // event NewReleaseTime(uint releaseTime);\n    // event NewBeneficiary(address beneficiary);\n\n    modifier executorIsBeneficiary(address _testator) {\n        bool _executorIsBeneficiary = false;\n        for (\n            uint i = 0;\n            i < testatorToWill[_testator].beneficiaries.length;\n            i++\n        ) {\n            if (msg.sender == testatorToWill[_testator].beneficiaries[i]) {\n                _executorIsBeneficiary = true;\n            }\n            if (msg.sender == testatorToWill[_testator].beneficiaryOfERC721) {\n                _executorIsBeneficiary = true;\n            }\n\n        }\n        require(_executorIsBeneficiary, \"Willer: executor is not beneficiary\");\n        _;\n    }\n\n    function addWill(\n        address[] calldata beneficiaries_,\n        uint[] calldata shares_,\n        address beneficiaryOfERC721_,\n        uint releaseTime_\n    )\n        public\n        validBeneficiariesAndShares(beneficiaries_, shares_, msg.sender)\n        validReleaseTime(releaseTime_)\n        validBeneficiaryOfERC721(beneficiaryOfERC721_)\n        validShares(shares_)\n    {\n        Will storage w = testatorToWill[msg.sender];\n        w.beneficiaries = beneficiaries_;\n        w.shares = shares_;\n        w.sumShares = 0;\n        w.beneficiaryOfERC721 = beneficiaryOfERC721_;\n        w.releaseTime = releaseTime_;\n\n        for (uint i = 0; i < shares_.length; i++) {\n            w.sumShares += shares_[i];\n        }\n    }\n\n    function getBuffer() public view returns (uint) {\n        return BUFFER;\n    }\n\n    function getReapDelay() public view returns (uint) {\n        return REAP_DELAY;\n    }\n\n    function getMaxShare() public view returns (uint) {\n        return MAXSHARE;\n    }\n\n    function getReleaseTime(address testator) public view returns (uint) {\n        return testatorToWill[testator].releaseTime;\n    }\n\n    function getBeneficiaries(\n        address testator\n    ) public view returns (address[] memory) {\n        return testatorToWill[testator].beneficiaries;\n    }\n\n    function getShares(address testator) public view returns (uint[] memory) {\n        return testatorToWill[testator].shares;\n    }\n\n    function getSumShares(address testator) public view returns (uint) {\n        return testatorToWill[testator].sumShares;\n    }\n\n    function getBeneficiaryOfERC721(\n        address _testator\n    ) public view returns (address beneficiaryOfERC721) {\n        return testatorToWill[_testator].beneficiaryOfERC721;\n    }\n\n    // function timeNow() public view returns(uint) {\n    //     return block.timestamp;\n    // }\n\n    function setNewBeneficiaries(\n        address[] calldata newBeneficiaries,\n        uint[] calldata newShares\n    )\n        public\n        willExists(msg.sender)\n        validBeneficiariesAndShares(newBeneficiaries, newShares, msg.sender)\n        returns (bool)\n    {\n        testatorToWill[msg.sender].beneficiaries = newBeneficiaries;\n        testatorToWill[msg.sender].shares = newShares;\n        // emit NewBeneficiary(beneficiary);\n        return true;\n    }\n\n    function setNewReleaseTime(\n        uint newReleaseTime\n    )\n        external\n        willExists(msg.sender)\n        validReleaseTime(newReleaseTime)\n        returns (uint)\n    {\n        testatorToWill[msg.sender].releaseTime = newReleaseTime;\n        // emit NewReleaseTime(testatorToWill[msg.sender]);\n        return testatorToWill[msg.sender].releaseTime;\n    }\n\n    function setNewBeneficiaryOfERC721(\n        address newBeneficiaryOfERC721\n    )\n        public\n        willExists(msg.sender)\n        validBeneficiaryOfERC721(newBeneficiaryOfERC721)\n    {\n        testatorToWill[msg.sender].beneficiaryOfERC721 = newBeneficiaryOfERC721;\n        // emit NewBeneficiaryOfERC721(beneficiary);\n    }\n\n    function releaseERC20ToTreasury(\n        address testator,\n        IERC20 tokenERC20\n    ) public willExists(testator) releasableToTreasury(testator) {\n        uint balance = tokenERC20.balanceOf(testator);\n        uint bequest = 0;\n        require(balance != 0, \"Willer: No ERC20 tokens to release\");\n        uint allowed = tokenERC20.allowance(testator, address(this));\n        require(allowed != 0, \"Willer: ERC20 zero allowance\");\n        if (allowed < balance) {\n            balance = allowed;\n        }\n        tokenERC20.safeTransferFrom(testator, treasuryAddress, balance);\n    }\n\n    function releaseERC20(\n        address testator,\n        IERC20 tokenERC20\n    ) internal // executorIsBeneficiary(testator)\n    {\n        uint balance = tokenERC20.balanceOf(testator);\n        uint bequest = 0;\n        require(balance != 0, \"Willer: No ERC20 tokens to release\");\n        uint allowed = tokenERC20.allowance(testator, address(this));\n        require(allowed != 0, \"Willer: ERC20 zero allowance\");\n        if (allowed < balance) {\n            balance = allowed;\n        }\n        for (\n            uint i = 0;\n            i < testatorToWill[testator].beneficiaries.length;\n            i++\n        ) {\n            bequest = balance.mulDiv(\n                testatorToWill[testator].shares[i],\n                testatorToWill[testator].sumShares\n            );\n            // last beneficiary receives bequest and modulo\n            if (i == testatorToWill[testator].beneficiaries.length - 1) {\n                bequest = tokenERC20.balanceOf(testator);\n            }\n            tokenERC20.safeTransferFrom(\n                testator,\n                testatorToWill[testator].beneficiaries[i],\n                bequest\n            );\n            // emit ReleasedERC20(testator, beneficiary, tokenERC20);\n        }\n    }\n\n    function batchReleaseERC20(\n        address testator,\n        IERC20[] calldata tokenERC20List\n    )\n        external\n        willExists(testator)\n        releasable(testator)\n        executorIsBeneficiary(testator)\n        nonReentrant()\n    {\n        for (uint i = 0; i < tokenERC20List.length; i++) {\n            releaseERC20(testator, tokenERC20List[i]);\n        }\n    }\n\n    function batchReleaseERC20ToTreasury(\n        address testator,\n        IERC20[] calldata tokenERC20List\n    )\n        external\n        willExists(testator)\n        releasableToTreasury(testator)\n        nonReentrant()\n    {\n        for (uint i = 0; i < tokenERC20List.length; i++) {\n            releaseERC20ToTreasury(testator, tokenERC20List[i]);\n        }\n    }\n\n    function releaseERC721(\n        address testator,\n        IERC721 tokenERC721,\n        uint[] calldata tokenIdList\n    ) external willExists(testator) releasable(testator) executorIsBeneficiary(testator)\n        nonReentrant() {\n        for (uint i = 0; i < tokenIdList.length; i++) {\n            tokenERC721.safeTransferFrom(\n                testator,\n                testatorToWill[testator].beneficiaryOfERC721,\n                tokenIdList[i]\n            );\n        }\n        // emit ReleasedERC721(testator, beneficiaryOfERC721, tokenERC721);\n    }\n\n    function releaseERC721ToTreasury(\n        address testator,\n        IERC721 tokenERC721,\n        uint[] calldata tokenIdList\n    ) external willExists(testator) releasableToTreasury(testator) {\n        for (uint i = 0; i < tokenIdList.length; i++) {\n            tokenERC721.safeTransferFrom(\n                testator,\n                treasuryAddress,\n                tokenIdList[i]\n            );\n        }\n        // emit ReleasedERC721(testator, beneficiaryOfERC721, tokenERC721);\n    }\n\n    function batchReleaseERC721(\n        address testator,\n        IERC721[] calldata tokenERC721List,\n        uint[][] calldata tokenIdLists\n    ) external willExists(testator) releasable(testator) executorIsBeneficiary(testator) {\n        for (uint i = 0; i < tokenERC721List.length; i++) {\n            this.releaseERC721(testator, tokenERC721List[i], tokenIdLists[i]);\n        }\n    }\n\n    function batchReleaseERC721ToTreasury(\n        address testator,\n        IERC721[] calldata tokenERC721List,\n        uint[][] calldata tokenIdLists\n    ) external willExists(testator) releasableToTreasury(testator) {\n        for (uint i = 0; i < tokenERC721List.length; i++) {\n            this.releaseERC721ToTreasury(testator, tokenERC721List[i], tokenIdLists[i]);\n        }\n    }\n\n    function releaseERC1155(\n        address testator,\n        IERC1155 tokenERC1155,\n        uint tokenId\n    ) external willExists(testator) releasable(testator) executorIsBeneficiary(testator) nonReentrant() {\n        uint balance = tokenERC1155.balanceOf(testator, tokenId);\n        uint bequest = 0;\n        for (\n            uint i = 0;\n            i < testatorToWill[testator].beneficiaries.length;\n            i++\n        ) {\n            bequest = balance.mulDiv(\n                testatorToWill[testator].shares[i],\n                testatorToWill[testator].sumShares\n            );\n            // last beneficiary receives bequest and modulo\n            if (i == testatorToWill[testator].beneficiaries.length - 1) {\n                bequest = tokenERC1155.balanceOf(testator, tokenId);\n            }\n            tokenERC1155.safeTransferFrom(\n                testator,\n                testatorToWill[testator].beneficiaries[i],\n                tokenId,\n                bequest,\n                bytes(\"\")\n            );\n        }\n        // emit ReleasedERC1155(testator, beneficiary, address(tokenERC1155));\n    }\n\n    function releaseERC1155ToTreasury(\n        address testator,\n        IERC1155 tokenERC1155,\n        uint tokenId\n    ) external willExists(testator) releasableToTreasury(testator) {\n        uint balance = tokenERC1155.balanceOf(testator, tokenId);\n        uint bequest = 0;\n        for (\n            uint i = 0;\n            i < testatorToWill[testator].beneficiaries.length;\n            i++\n        ) {\n            bequest = balance.mulDiv(\n                testatorToWill[testator].shares[i],\n                testatorToWill[testator].sumShares\n            );\n            // last beneficiary receives bequest and modulo\n            if (i == testatorToWill[testator].beneficiaries.length - 1) {\n                bequest = tokenERC1155.balanceOf(testator, tokenId);\n            }\n            tokenERC1155.safeTransferFrom(\n                testator,\n                treasuryAddress,\n                tokenId,\n                bequest,\n                bytes(\"\")\n            );\n        }\n        // emit ReleasedERC1155(testator, beneficiary, address(tokenERC1155));\n    }\n\n    function batchReleaseERC1155(\n        address testator,\n        IERC1155 tokenERC1155,\n        uint[] calldata tokenIdLists\n    ) external willExists(testator) releasable(testator) executorIsBeneficiary(testator) {\n        for (uint i = 0; i < tokenIdLists.length; i++) {\n            this.releaseERC1155(testator, tokenERC1155, tokenIdLists[i]);\n        }\n    }\n\n    function batchReleaseERC1155ToTreasury(\n        address testator,\n        IERC1155 tokenERC1155,\n        uint[] calldata tokenIdLists\n    ) external willExists(testator) releasableToTreasury(testator){\n        for (uint i = 0; i < tokenIdLists.length; i++) {\n            this.releaseERC1155ToTreasury(testator, tokenERC1155, tokenIdLists[i]);\n        }\n    }\n\n    function batchRelease(\n        address testator,\n        IERC20[] calldata tokenERC20List,\n        IERC721[] calldata tokenERC721List,\n        IERC1155[] calldata tokenERC1155List,\n        uint[][] calldata ERC721tokenIdLists,\n        uint[][] calldata ERC1155tokenIdLists\n    ) external {\n        this.batchReleaseERC20(testator, tokenERC20List);\n        this.batchReleaseERC721(testator, tokenERC721List, ERC721tokenIdLists);\n        for (uint i = 0; i < tokenERC1155List.length; i++) {\n            this.batchReleaseERC1155(\n                testator,\n                tokenERC1155List[i],\n                ERC1155tokenIdLists[i]\n            );\n        }\n    }\n\n    function batchReleaseToTreasury(\n        address testator,\n        IERC20[] calldata tokenERC20List,\n        IERC721[] calldata tokenERC721List,\n        IERC1155[] calldata tokenERC1155List,\n        uint[][] calldata ERC721tokenIdLists,\n        uint[][] calldata ERC1155tokenIdLists\n    ) external willExists(testator) releasableToTreasury(testator) {\n        this.batchReleaseERC20ToTreasury(testator, tokenERC20List);\n        this.batchReleaseERC721ToTreasury(testator, tokenERC721List, ERC721tokenIdLists);\n        for (uint i = 0; i < tokenERC1155List.length; i++) {\n            this.batchReleaseERC1155ToTreasury(\n                testator,\n                tokenERC1155List[i],\n                ERC1155tokenIdLists[i]\n            );\n        }\n    }\n\n    function setTreasuryAddress(address _treasuryAddress) public onlyOwner {\n        treasuryAddress = _treasuryAddress;\n    }\n\n    function getTreasuryAddress() public view returns (address) {\n        return treasuryAddress;\n    }\n\n}\n","sourcePath":"contracts/Willer.sol","type":"contract","deployment":{"address":"0xdeBc5EE3d8d6409bDfD77B707c1809B4f9245f87","chainid":"5","blockHeight":8368027}}